{
	"Comparison Optimizer/test4.sol": {
		"MaxValue": {
			"abi": [
				{
					"inputs": [
						{
							"internalType": "uint256",
							"name": "_number",
							"type": "uint256"
						}
					],
					"name": "addNumber",
					"outputs": [],
					"stateMutability": "nonpayable",
					"type": "function"
				},
				{
					"inputs": [],
					"name": "findMaxValue",
					"outputs": [
						{
							"internalType": "uint256",
							"name": "",
							"type": "uint256"
						}
					],
					"stateMutability": "view",
					"type": "function"
				},
				{
					"inputs": [
						{
							"internalType": "uint256",
							"name": "",
							"type": "uint256"
						}
					],
					"name": "numbers",
					"outputs": [
						{
							"internalType": "uint256",
							"name": "",
							"type": "uint256"
						}
					],
					"stateMutability": "view",
					"type": "function"
				}
			],
			"devdoc": {
				"kind": "dev",
				"methods": {},
				"version": 1
			},
			"evm": {
				"assembly": "    /* \"Comparison Optimizer/test4.sol\":57:456  contract MaxValue {... */\n  mstore(0x40, 0x80)\n  callvalue\n  dup1\n  iszero\n  tag_1\n  jumpi\n  0x00\n  dup1\n  revert\ntag_1:\n  pop\n  dataSize(sub_0)\n  dup1\n  dataOffset(sub_0)\n  0x00\n  codecopy\n  0x00\n  return\nstop\n\nsub_0: assembly {\n        /* \"Comparison Optimizer/test4.sol\":57:456  contract MaxValue {... */\n      mstore(0x40, 0x80)\n      callvalue\n      dup1\n      iszero\n      tag_1\n      jumpi\n      0x00\n      dup1\n      revert\n    tag_1:\n      pop\n      jumpi(tag_2, lt(calldatasize, 0x04))\n      shr(0xe0, calldataload(0x00))\n      dup1\n      0xd39fa233\n      eq\n      tag_3\n      jumpi\n      dup1\n      0xf348b11a\n      eq\n      tag_4\n      jumpi\n      dup1\n      0xfce68023\n      eq\n      tag_5\n      jumpi\n    tag_2:\n      0x00\n      dup1\n      revert\n        /* \"Comparison Optimizer/test4.sol\":81:102  uint[] public numbers */\n    tag_3:\n      tag_6\n      0x04\n      dup1\n      calldatasize\n      sub\n      dup2\n      add\n      swap1\n      tag_7\n      swap2\n      swap1\n      tag_8\n      jump\t// in\n    tag_7:\n      tag_9\n      jump\t// in\n    tag_6:\n      mload(0x40)\n      tag_10\n      swap2\n      swap1\n      tag_11\n      jump\t// in\n    tag_10:\n      mload(0x40)\n      dup1\n      swap2\n      sub\n      swap1\n      return\n        /* \"Comparison Optimizer/test4.sol\":109:370  function findMaxValue() public view returns (uint) {... */\n    tag_4:\n      tag_12\n      tag_13\n      jump\t// in\n    tag_12:\n      mload(0x40)\n      tag_14\n      swap2\n      swap1\n      tag_11\n      jump\t// in\n    tag_14:\n      mload(0x40)\n      dup1\n      swap2\n      sub\n      swap1\n      return\n        /* \"Comparison Optimizer/test4.sol\":376:454  function addNumber(uint _number) public {... */\n    tag_5:\n      tag_15\n      0x04\n      dup1\n      calldatasize\n      sub\n      dup2\n      add\n      swap1\n      tag_16\n      swap2\n      swap1\n      tag_8\n      jump\t// in\n    tag_16:\n      tag_17\n      jump\t// in\n    tag_15:\n      stop\n        /* \"Comparison Optimizer/test4.sol\":81:102  uint[] public numbers */\n    tag_9:\n      0x00\n      dup2\n      dup2\n      sload\n      dup2\n      lt\n      tag_18\n      jumpi\n      0x00\n      dup1\n      revert\n    tag_18:\n      swap1\n      0x00\n      mstore\n      keccak256(0x00, 0x20)\n      add\n      0x00\n      swap2\n      pop\n      swap1\n      pop\n      sload\n      dup2\n      jump\t// out\n        /* \"Comparison Optimizer/test4.sol\":109:370  function findMaxValue() public view returns (uint) {... */\n    tag_13:\n        /* \"Comparison Optimizer/test4.sol\":154:158  uint */\n      0x00\n        /* \"Comparison Optimizer/test4.sol\":170:183  uint maxValue */\n      dup1\n        /* \"Comparison Optimizer/test4.sol\":186:188  10 */\n      0x0a\n        /* \"Comparison Optimizer/test4.sol\":170:188  uint maxValue = 10 */\n      swap1\n      pop\n        /* \"Comparison Optimizer/test4.sol\":203:209  uint i */\n      0x00\n        /* \"Comparison Optimizer/test4.sol\":198:339  for (uint i = 0; i < numbers.length; i++) {... */\n    tag_21:\n        /* \"Comparison Optimizer/test4.sol\":219:226  numbers */\n      0x00\n        /* \"Comparison Optimizer/test4.sol\":219:233  numbers.length */\n      dup1\n      sload\n      swap1\n      pop\n        /* \"Comparison Optimizer/test4.sol\":215:216  i */\n      dup2\n        /* \"Comparison Optimizer/test4.sol\":215:233  i < numbers.length */\n      lt\n        /* \"Comparison Optimizer/test4.sol\":198:339  for (uint i = 0; i < numbers.length; i++) {... */\n      iszero\n      tag_22\n      jumpi\n        /* \"Comparison Optimizer/test4.sol\":271:273  10 */\n      0x0a\n        /* \"Comparison Optimizer/test4.sol\":258:265  numbers */\n      0x00\n        /* \"Comparison Optimizer/test4.sol\":266:267  i */\n      dup3\n        /* \"Comparison Optimizer/test4.sol\":258:268  numbers[i] */\n      dup2\n      sload\n      dup2\n      lt\n      tag_24\n      jumpi\n      tag_25\n      tag_26\n      jump\t// in\n    tag_25:\n    tag_24:\n      swap1\n      0x00\n      mstore\n      keccak256(0x00, 0x20)\n      add\n      sload\n        /* \"Comparison Optimizer/test4.sol\":258:273  numbers[i] > 10 */\n      gt\n        /* \"Comparison Optimizer/test4.sol\":254:329  if (numbers[i] > 10) {... */\n      iszero\n      tag_28\n      jumpi\n        /* \"Comparison Optimizer/test4.sol\":304:311  numbers */\n      0x00\n        /* \"Comparison Optimizer/test4.sol\":312:313  i */\n      dup2\n        /* \"Comparison Optimizer/test4.sol\":304:314  numbers[i] */\n      dup2\n      sload\n      dup2\n      lt\n      tag_29\n      jumpi\n      tag_30\n      tag_26\n      jump\t// in\n    tag_30:\n    tag_29:\n      swap1\n      0x00\n      mstore\n      keccak256(0x00, 0x20)\n      add\n      sload\n        /* \"Comparison Optimizer/test4.sol\":293:314  maxValue = numbers[i] */\n      swap2\n      pop\n        /* \"Comparison Optimizer/test4.sol\":254:329  if (numbers[i] > 10) {... */\n    tag_28:\n        /* \"Comparison Optimizer/test4.sol\":235:238  i++ */\n      dup1\n      dup1\n      tag_32\n      swap1\n      tag_33\n      jump\t// in\n    tag_32:\n      swap2\n      pop\n      pop\n        /* \"Comparison Optimizer/test4.sol\":198:339  for (uint i = 0; i < numbers.length; i++) {... */\n      jump(tag_21)\n    tag_22:\n      pop\n        /* \"Comparison Optimizer/test4.sol\":355:363  maxValue */\n      dup1\n        /* \"Comparison Optimizer/test4.sol\":348:363  return maxValue */\n      swap2\n      pop\n      pop\n        /* \"Comparison Optimizer/test4.sol\":109:370  function findMaxValue() public view returns (uint) {... */\n      swap1\n      jump\t// out\n        /* \"Comparison Optimizer/test4.sol\":376:454  function addNumber(uint _number) public {... */\n    tag_17:\n        /* \"Comparison Optimizer/test4.sol\":426:433  numbers */\n      0x00\n        /* \"Comparison Optimizer/test4.sol\":439:446  _number */\n      dup2\n        /* \"Comparison Optimizer/test4.sol\":426:447  numbers.push(_number) */\n      swap1\n      dup1\n      0x01\n      dup2\n      sload\n      add\n      dup1\n      dup3\n      sstore\n      dup1\n      swap2\n      pop\n      pop\n      0x01\n      swap1\n      sub\n      swap1\n      0x00\n      mstore\n      keccak256(0x00, 0x20)\n      add\n      0x00\n      swap1\n      swap2\n      swap1\n      swap2\n      swap1\n      swap2\n      pop\n      sstore\n        /* \"Comparison Optimizer/test4.sol\":376:454  function addNumber(uint _number) public {... */\n      pop\n      jump\t// out\n        /* \"#utility.yul\":7:146   */\n    tag_37:\n        /* \"#utility.yul\":53:58   */\n      0x00\n        /* \"#utility.yul\":91:97   */\n      dup2\n        /* \"#utility.yul\":78:98   */\n      calldataload\n        /* \"#utility.yul\":69:98   */\n      swap1\n      pop\n        /* \"#utility.yul\":107:140   */\n      tag_39\n        /* \"#utility.yul\":134:139   */\n      dup2\n        /* \"#utility.yul\":107:140   */\n      tag_40\n      jump\t// in\n    tag_39:\n        /* \"#utility.yul\":7:146   */\n      swap3\n      swap2\n      pop\n      pop\n      jump\t// out\n        /* \"#utility.yul\":152:481   */\n    tag_8:\n        /* \"#utility.yul\":211:217   */\n      0x00\n        /* \"#utility.yul\":260:262   */\n      0x20\n        /* \"#utility.yul\":248:257   */\n      dup3\n        /* \"#utility.yul\":239:246   */\n      dup5\n        /* \"#utility.yul\":235:258   */\n      sub\n        /* \"#utility.yul\":231:263   */\n      slt\n        /* \"#utility.yul\":228:347   */\n      iszero\n      tag_42\n      jumpi\n        /* \"#utility.yul\":266:345   */\n      tag_43\n      tag_44\n      jump\t// in\n    tag_43:\n        /* \"#utility.yul\":228:347   */\n    tag_42:\n        /* \"#utility.yul\":386:387   */\n      0x00\n        /* \"#utility.yul\":411:464   */\n      tag_45\n        /* \"#utility.yul\":456:463   */\n      dup5\n        /* \"#utility.yul\":447:453   */\n      dup3\n        /* \"#utility.yul\":436:445   */\n      dup6\n        /* \"#utility.yul\":432:454   */\n      add\n        /* \"#utility.yul\":411:464   */\n      tag_37\n      jump\t// in\n    tag_45:\n        /* \"#utility.yul\":401:464   */\n      swap2\n      pop\n        /* \"#utility.yul\":357:474   */\n      pop\n        /* \"#utility.yul\":152:481   */\n      swap3\n      swap2\n      pop\n      pop\n      jump\t// out\n        /* \"#utility.yul\":487:605   */\n    tag_46:\n        /* \"#utility.yul\":574:598   */\n      tag_48\n        /* \"#utility.yul\":592:597   */\n      dup2\n        /* \"#utility.yul\":574:598   */\n      tag_49\n      jump\t// in\n    tag_48:\n        /* \"#utility.yul\":569:572   */\n      dup3\n        /* \"#utility.yul\":562:599   */\n      mstore\n        /* \"#utility.yul\":487:605   */\n      pop\n      pop\n      jump\t// out\n        /* \"#utility.yul\":611:833   */\n    tag_11:\n        /* \"#utility.yul\":704:708   */\n      0x00\n        /* \"#utility.yul\":742:744   */\n      0x20\n        /* \"#utility.yul\":731:740   */\n      dup3\n        /* \"#utility.yul\":727:745   */\n      add\n        /* \"#utility.yul\":719:745   */\n      swap1\n      pop\n        /* \"#utility.yul\":755:826   */\n      tag_51\n        /* \"#utility.yul\":823:824   */\n      0x00\n        /* \"#utility.yul\":812:821   */\n      dup4\n        /* \"#utility.yul\":808:825   */\n      add\n        /* \"#utility.yul\":799:805   */\n      dup5\n        /* \"#utility.yul\":755:826   */\n      tag_46\n      jump\t// in\n    tag_51:\n        /* \"#utility.yul\":611:833   */\n      swap3\n      swap2\n      pop\n      pop\n      jump\t// out\n        /* \"#utility.yul\":920:997   */\n    tag_49:\n        /* \"#utility.yul\":957:964   */\n      0x00\n        /* \"#utility.yul\":986:991   */\n      dup2\n        /* \"#utility.yul\":975:991   */\n      swap1\n      pop\n        /* \"#utility.yul\":920:997   */\n      swap2\n      swap1\n      pop\n      jump\t// out\n        /* \"#utility.yul\":1003:1236   */\n    tag_33:\n        /* \"#utility.yul\":1042:1045   */\n      0x00\n        /* \"#utility.yul\":1065:1089   */\n      tag_56\n        /* \"#utility.yul\":1083:1088   */\n      dup3\n        /* \"#utility.yul\":1065:1089   */\n      tag_49\n      jump\t// in\n    tag_56:\n        /* \"#utility.yul\":1056:1089   */\n      swap2\n      pop\n        /* \"#utility.yul\":1111:1177   */\n      0xffffffffffffffffffffffffffffffffffffffffffffffffffffffffffffffff\n        /* \"#utility.yul\":1104:1109   */\n      dup3\n        /* \"#utility.yul\":1101:1178   */\n      eq\n        /* \"#utility.yul\":1098:1201   */\n      iszero\n      tag_57\n      jumpi\n        /* \"#utility.yul\":1181:1199   */\n      tag_58\n      tag_59\n      jump\t// in\n    tag_58:\n        /* \"#utility.yul\":1098:1201   */\n    tag_57:\n        /* \"#utility.yul\":1228:1229   */\n      0x01\n        /* \"#utility.yul\":1221:1226   */\n      dup3\n        /* \"#utility.yul\":1217:1230   */\n      add\n        /* \"#utility.yul\":1210:1230   */\n      swap1\n      pop\n        /* \"#utility.yul\":1003:1236   */\n      swap2\n      swap1\n      pop\n      jump\t// out\n        /* \"#utility.yul\":1242:1422   */\n    tag_59:\n        /* \"#utility.yul\":1290:1367   */\n      0x4e487b7100000000000000000000000000000000000000000000000000000000\n        /* \"#utility.yul\":1287:1288   */\n      0x00\n        /* \"#utility.yul\":1280:1368   */\n      mstore\n        /* \"#utility.yul\":1387:1391   */\n      0x11\n        /* \"#utility.yul\":1384:1385   */\n      0x04\n        /* \"#utility.yul\":1377:1392   */\n      mstore\n        /* \"#utility.yul\":1411:1415   */\n      0x24\n        /* \"#utility.yul\":1408:1409   */\n      0x00\n        /* \"#utility.yul\":1401:1416   */\n      revert\n        /* \"#utility.yul\":1428:1608   */\n    tag_26:\n        /* \"#utility.yul\":1476:1553   */\n      0x4e487b7100000000000000000000000000000000000000000000000000000000\n        /* \"#utility.yul\":1473:1474   */\n      0x00\n        /* \"#utility.yul\":1466:1554   */\n      mstore\n        /* \"#utility.yul\":1573:1577   */\n      0x32\n        /* \"#utility.yul\":1570:1571   */\n      0x04\n        /* \"#utility.yul\":1563:1578   */\n      mstore\n        /* \"#utility.yul\":1597:1601   */\n      0x24\n        /* \"#utility.yul\":1594:1595   */\n      0x00\n        /* \"#utility.yul\":1587:1602   */\n      revert\n        /* \"#utility.yul\":1737:1854   */\n    tag_44:\n        /* \"#utility.yul\":1846:1847   */\n      0x00\n        /* \"#utility.yul\":1843:1844   */\n      dup1\n        /* \"#utility.yul\":1836:1848   */\n      revert\n        /* \"#utility.yul\":1860:1982   */\n    tag_40:\n        /* \"#utility.yul\":1933:1957   */\n      tag_66\n        /* \"#utility.yul\":1951:1956   */\n      dup2\n        /* \"#utility.yul\":1933:1957   */\n      tag_49\n      jump\t// in\n    tag_66:\n        /* \"#utility.yul\":1926:1931   */\n      dup2\n        /* \"#utility.yul\":1923:1958   */\n      eq\n        /* \"#utility.yul\":1913:1976   */\n      tag_67\n      jumpi\n        /* \"#utility.yul\":1972:1973   */\n      0x00\n        /* \"#utility.yul\":1969:1970   */\n      dup1\n        /* \"#utility.yul\":1962:1974   */\n      revert\n        /* \"#utility.yul\":1913:1976   */\n    tag_67:\n        /* \"#utility.yul\":1860:1982   */\n      pop\n      jump\t// out\n\n    auxdata: 0xa264697066735822122080b69c508e170674857c49cda197d550d5deac9cef14b74de1843b30a243488f64736f6c63430008070033\n}\n",
				"bytecode": {
					"linkReferences": {},
					"object": "608060405234801561001057600080fd5b506102ea806100206000396000f3fe608060405234801561001057600080fd5b50600436106100415760003560e01c8063d39fa23314610046578063f348b11a14610076578063fce6802314610094575b600080fd5b610060600480360381019061005b9190610190565b6100b0565b60405161006d91906101cc565b60405180910390f35b61007e6100d4565b60405161008b91906101cc565b60405180910390f35b6100ae60048036038101906100a99190610190565b61014f565b005b600081815481106100c057600080fd5b906000526020600020016000915090505481565b600080600a905060005b60008054905081101561014757600a6000828154811061010157610100610269565b5b90600052602060002001541115610134576000818154811061012657610125610269565b5b906000526020600020015491505b808061013f906101f1565b9150506100de565b508091505090565b600081908060018154018082558091505060019003906000526020600020016000909190919091505550565b60008135905061018a8161029d565b92915050565b6000602082840312156101a6576101a5610298565b5b60006101b48482850161017b565b91505092915050565b6101c6816101e7565b82525050565b60006020820190506101e160008301846101bd565b92915050565b6000819050919050565b60006101fc826101e7565b91507fffffffffffffffffffffffffffffffffffffffffffffffffffffffffffffffff82141561022f5761022e61023a565b5b600182019050919050565b7f4e487b7100000000000000000000000000000000000000000000000000000000600052601160045260246000fd5b7f4e487b7100000000000000000000000000000000000000000000000000000000600052603260045260246000fd5b600080fd5b6102a6816101e7565b81146102b157600080fd5b5056fea264697066735822122080b69c508e170674857c49cda197d550d5deac9cef14b74de1843b30a243488f64736f6c63430008070033",
					"opcodes": "PUSH1 0x80 PUSH1 0x40 MSTORE CALLVALUE DUP1 ISZERO PUSH2 0x10 JUMPI PUSH1 0x0 DUP1 REVERT JUMPDEST POP PUSH2 0x2EA DUP1 PUSH2 0x20 PUSH1 0x0 CODECOPY PUSH1 0x0 RETURN INVALID PUSH1 0x80 PUSH1 0x40 MSTORE CALLVALUE DUP1 ISZERO PUSH2 0x10 JUMPI PUSH1 0x0 DUP1 REVERT JUMPDEST POP PUSH1 0x4 CALLDATASIZE LT PUSH2 0x41 JUMPI PUSH1 0x0 CALLDATALOAD PUSH1 0xE0 SHR DUP1 PUSH4 0xD39FA233 EQ PUSH2 0x46 JUMPI DUP1 PUSH4 0xF348B11A EQ PUSH2 0x76 JUMPI DUP1 PUSH4 0xFCE68023 EQ PUSH2 0x94 JUMPI JUMPDEST PUSH1 0x0 DUP1 REVERT JUMPDEST PUSH2 0x60 PUSH1 0x4 DUP1 CALLDATASIZE SUB DUP2 ADD SWAP1 PUSH2 0x5B SWAP2 SWAP1 PUSH2 0x190 JUMP JUMPDEST PUSH2 0xB0 JUMP JUMPDEST PUSH1 0x40 MLOAD PUSH2 0x6D SWAP2 SWAP1 PUSH2 0x1CC JUMP JUMPDEST PUSH1 0x40 MLOAD DUP1 SWAP2 SUB SWAP1 RETURN JUMPDEST PUSH2 0x7E PUSH2 0xD4 JUMP JUMPDEST PUSH1 0x40 MLOAD PUSH2 0x8B SWAP2 SWAP1 PUSH2 0x1CC JUMP JUMPDEST PUSH1 0x40 MLOAD DUP1 SWAP2 SUB SWAP1 RETURN JUMPDEST PUSH2 0xAE PUSH1 0x4 DUP1 CALLDATASIZE SUB DUP2 ADD SWAP1 PUSH2 0xA9 SWAP2 SWAP1 PUSH2 0x190 JUMP JUMPDEST PUSH2 0x14F JUMP JUMPDEST STOP JUMPDEST PUSH1 0x0 DUP2 DUP2 SLOAD DUP2 LT PUSH2 0xC0 JUMPI PUSH1 0x0 DUP1 REVERT JUMPDEST SWAP1 PUSH1 0x0 MSTORE PUSH1 0x20 PUSH1 0x0 KECCAK256 ADD PUSH1 0x0 SWAP2 POP SWAP1 POP SLOAD DUP2 JUMP JUMPDEST PUSH1 0x0 DUP1 PUSH1 0xA SWAP1 POP PUSH1 0x0 JUMPDEST PUSH1 0x0 DUP1 SLOAD SWAP1 POP DUP2 LT ISZERO PUSH2 0x147 JUMPI PUSH1 0xA PUSH1 0x0 DUP3 DUP2 SLOAD DUP2 LT PUSH2 0x101 JUMPI PUSH2 0x100 PUSH2 0x269 JUMP JUMPDEST JUMPDEST SWAP1 PUSH1 0x0 MSTORE PUSH1 0x20 PUSH1 0x0 KECCAK256 ADD SLOAD GT ISZERO PUSH2 0x134 JUMPI PUSH1 0x0 DUP2 DUP2 SLOAD DUP2 LT PUSH2 0x126 JUMPI PUSH2 0x125 PUSH2 0x269 JUMP JUMPDEST JUMPDEST SWAP1 PUSH1 0x0 MSTORE PUSH1 0x20 PUSH1 0x0 KECCAK256 ADD SLOAD SWAP2 POP JUMPDEST DUP1 DUP1 PUSH2 0x13F SWAP1 PUSH2 0x1F1 JUMP JUMPDEST SWAP2 POP POP PUSH2 0xDE JUMP JUMPDEST POP DUP1 SWAP2 POP POP SWAP1 JUMP JUMPDEST PUSH1 0x0 DUP2 SWAP1 DUP1 PUSH1 0x1 DUP2 SLOAD ADD DUP1 DUP3 SSTORE DUP1 SWAP2 POP POP PUSH1 0x1 SWAP1 SUB SWAP1 PUSH1 0x0 MSTORE PUSH1 0x20 PUSH1 0x0 KECCAK256 ADD PUSH1 0x0 SWAP1 SWAP2 SWAP1 SWAP2 SWAP1 SWAP2 POP SSTORE POP JUMP JUMPDEST PUSH1 0x0 DUP2 CALLDATALOAD SWAP1 POP PUSH2 0x18A DUP2 PUSH2 0x29D JUMP JUMPDEST SWAP3 SWAP2 POP POP JUMP JUMPDEST PUSH1 0x0 PUSH1 0x20 DUP3 DUP5 SUB SLT ISZERO PUSH2 0x1A6 JUMPI PUSH2 0x1A5 PUSH2 0x298 JUMP JUMPDEST JUMPDEST PUSH1 0x0 PUSH2 0x1B4 DUP5 DUP3 DUP6 ADD PUSH2 0x17B JUMP JUMPDEST SWAP2 POP POP SWAP3 SWAP2 POP POP JUMP JUMPDEST PUSH2 0x1C6 DUP2 PUSH2 0x1E7 JUMP JUMPDEST DUP3 MSTORE POP POP JUMP JUMPDEST PUSH1 0x0 PUSH1 0x20 DUP3 ADD SWAP1 POP PUSH2 0x1E1 PUSH1 0x0 DUP4 ADD DUP5 PUSH2 0x1BD JUMP JUMPDEST SWAP3 SWAP2 POP POP JUMP JUMPDEST PUSH1 0x0 DUP2 SWAP1 POP SWAP2 SWAP1 POP JUMP JUMPDEST PUSH1 0x0 PUSH2 0x1FC DUP3 PUSH2 0x1E7 JUMP JUMPDEST SWAP2 POP PUSH32 0xFFFFFFFFFFFFFFFFFFFFFFFFFFFFFFFFFFFFFFFFFFFFFFFFFFFFFFFFFFFFFFFF DUP3 EQ ISZERO PUSH2 0x22F JUMPI PUSH2 0x22E PUSH2 0x23A JUMP JUMPDEST JUMPDEST PUSH1 0x1 DUP3 ADD SWAP1 POP SWAP2 SWAP1 POP JUMP JUMPDEST PUSH32 0x4E487B7100000000000000000000000000000000000000000000000000000000 PUSH1 0x0 MSTORE PUSH1 0x11 PUSH1 0x4 MSTORE PUSH1 0x24 PUSH1 0x0 REVERT JUMPDEST PUSH32 0x4E487B7100000000000000000000000000000000000000000000000000000000 PUSH1 0x0 MSTORE PUSH1 0x32 PUSH1 0x4 MSTORE PUSH1 0x24 PUSH1 0x0 REVERT JUMPDEST PUSH1 0x0 DUP1 REVERT JUMPDEST PUSH2 0x2A6 DUP2 PUSH2 0x1E7 JUMP JUMPDEST DUP2 EQ PUSH2 0x2B1 JUMPI PUSH1 0x0 DUP1 REVERT JUMPDEST POP JUMP INVALID LOG2 PUSH5 0x6970667358 0x22 SLT KECCAK256 DUP1 0xB6 SWAP13 POP DUP15 OR MOD PUSH21 0x857C49CDA197D550D5DEAC9CEF14B74DE1843B30A2 NUMBER BASEFEE DUP16 PUSH5 0x736F6C6343 STOP ADDMOD SMOD STOP CALLER "
				},
				"gasEstimates": {
					"creation": {
						"codeDepositCost": "149200",
						"executionCost": "196",
						"totalCost": "149396"
					},
					"external": {
						"addNumber(uint256)": "46851",
						"findMaxValue()": "infinite",
						"numbers(uint256)": "infinite"
					}
				},
				"methodIdentifiers": {
					"addNumber(uint256)": "fce68023",
					"findMaxValue()": "f348b11a",
					"numbers(uint256)": "d39fa233"
				}
			},
			"storageLayout": {
				"storage": [
					{
						"astId": 4,
						"contract": "Comparison Optimizer/test4.sol:MaxValue",
						"label": "numbers",
						"offset": 0,
						"slot": "0",
						"type": "t_array(t_uint256)dyn_storage"
					}
				],
				"types": {
					"t_array(t_uint256)dyn_storage": {
						"base": "t_uint256",
						"encoding": "dynamic_array",
						"label": "uint256[]",
						"numberOfBytes": "32"
					},
					"t_uint256": {
						"encoding": "inplace",
						"label": "uint256",
						"numberOfBytes": "32"
					}
				}
			},
			"userdoc": {
				"kind": "user",
				"methods": {},
				"version": 1
			}
		}
	}
}