{
	"Comparison Optimizer/optimized_test1.sol": {
		"GreaterThan100": {
			"abi": [
				{
					"inputs": [],
					"name": "gas",
					"outputs": [
						{
							"internalType": "uint256",
							"name": "",
							"type": "uint256"
						}
					],
					"stateMutability": "view",
					"type": "function"
				},
				{
					"inputs": [
						{
							"internalType": "uint256",
							"name": "number",
							"type": "uint256"
						}
					],
					"name": "isGreaterThan100",
					"outputs": [],
					"stateMutability": "nonpayable",
					"type": "function"
				}
			],
			"devdoc": {
				"kind": "dev",
				"methods": {},
				"version": 1
			},
			"evm": {
				"assembly": "    /* \"Comparison Optimizer/optimized_test1.sol\":64:333  contract GreaterThan100 {... */\n  mstore(0x40, 0x80)\n  callvalue\n  dup1\n  iszero\n  tag_1\n  jumpi\n  0x00\n  dup1\n  revert\ntag_1:\n  pop\n  dataSize(sub_0)\n  dup1\n  dataOffset(sub_0)\n  0x00\n  codecopy\n  0x00\n  return\nstop\n\nsub_0: assembly {\n        /* \"Comparison Optimizer/optimized_test1.sol\":64:333  contract GreaterThan100 {... */\n      mstore(0x40, 0x80)\n      callvalue\n      dup1\n      iszero\n      tag_1\n      jumpi\n      0x00\n      dup1\n      revert\n    tag_1:\n      pop\n      jumpi(tag_2, lt(calldatasize, 0x04))\n      shr(0xe0, calldataload(0x00))\n      dup1\n      0x6ca7c216\n      eq\n      tag_3\n      jumpi\n      dup1\n      0x77320ad4\n      eq\n      tag_4\n      jumpi\n    tag_2:\n      0x00\n      dup1\n      revert\n        /* \"Comparison Optimizer/optimized_test1.sol\":94:112  uint256 public gas */\n    tag_3:\n      tag_5\n      tag_6\n      jump\t// in\n    tag_5:\n      mload(0x40)\n      tag_7\n      swap2\n      swap1\n      tag_8\n      jump\t// in\n    tag_7:\n      mload(0x40)\n      dup1\n      swap2\n      sub\n      swap1\n      return\n        /* \"Comparison Optimizer/optimized_test1.sol\":118:330  function isGreaterThan100(uint256 number) external {         ... */\n    tag_4:\n      tag_9\n      0x04\n      dup1\n      calldatasize\n      sub\n      dup2\n      add\n      swap1\n      tag_10\n      swap2\n      swap1\n      tag_11\n      jump\t// in\n    tag_10:\n      tag_12\n      jump\t// in\n    tag_9:\n      stop\n        /* \"Comparison Optimizer/optimized_test1.sol\":94:112  uint256 public gas */\n    tag_6:\n      sload(0x00)\n      dup2\n      jump\t// out\n        /* \"Comparison Optimizer/optimized_test1.sol\":118:330  function isGreaterThan100(uint256 number) external {         ... */\n    tag_12:\n        /* \"Comparison Optimizer/optimized_test1.sol\":194:203  gasleft() */\n      gas\n        /* \"Comparison Optimizer/optimized_test1.sol\":188:191  gas */\n      0x00\n        /* \"Comparison Optimizer/optimized_test1.sol\":188:203  gas = gasleft() */\n      dup2\n      swap1\n      sstore\n      pop\n        /* \"Comparison Optimizer/optimized_test1.sol\":240:243  101 */\n      0x65\n        /* \"Comparison Optimizer/optimized_test1.sol\":230:236  number */\n      dup2\n        /* \"Comparison Optimizer/optimized_test1.sol\":230:243  number >= 101 */\n      lt\n      iszero\n        /* \"Comparison Optimizer/optimized_test1.sol\":222:279  require(number >= 101, \"Number is not greater than 100.\") */\n      tag_14\n      jumpi\n      mload(0x40)\n      0x08c379a000000000000000000000000000000000000000000000000000000000\n      dup2\n      mstore\n      0x04\n      add\n      tag_15\n      swap1\n      tag_16\n      jump\t// in\n    tag_15:\n      mload(0x40)\n      dup1\n      swap2\n      sub\n      swap1\n      revert\n    tag_14:\n        /* \"Comparison Optimizer/optimized_test1.sol\":305:314  gasleft() */\n      gas\n        /* \"Comparison Optimizer/optimized_test1.sol\":298:301  gas */\n      0x00\n      dup1\n        /* \"Comparison Optimizer/optimized_test1.sol\":298:314  gas -= gasleft() */\n      dup3\n      dup3\n      sload\n      tag_17\n      swap2\n      swap1\n      tag_18\n      jump\t// in\n    tag_17:\n      swap3\n      pop\n      pop\n      dup2\n      swap1\n      sstore\n      pop\n        /* \"Comparison Optimizer/optimized_test1.sol\":118:330  function isGreaterThan100(uint256 number) external {         ... */\n      pop\n      jump\t// out\n        /* \"#utility.yul\":7:146   */\n    tag_20:\n        /* \"#utility.yul\":53:58   */\n      0x00\n        /* \"#utility.yul\":91:97   */\n      dup2\n        /* \"#utility.yul\":78:98   */\n      calldataload\n        /* \"#utility.yul\":69:98   */\n      swap1\n      pop\n        /* \"#utility.yul\":107:140   */\n      tag_22\n        /* \"#utility.yul\":134:139   */\n      dup2\n        /* \"#utility.yul\":107:140   */\n      tag_23\n      jump\t// in\n    tag_22:\n        /* \"#utility.yul\":7:146   */\n      swap3\n      swap2\n      pop\n      pop\n      jump\t// out\n        /* \"#utility.yul\":152:481   */\n    tag_11:\n        /* \"#utility.yul\":211:217   */\n      0x00\n        /* \"#utility.yul\":260:262   */\n      0x20\n        /* \"#utility.yul\":248:257   */\n      dup3\n        /* \"#utility.yul\":239:246   */\n      dup5\n        /* \"#utility.yul\":235:258   */\n      sub\n        /* \"#utility.yul\":231:263   */\n      slt\n        /* \"#utility.yul\":228:347   */\n      iszero\n      tag_25\n      jumpi\n        /* \"#utility.yul\":266:345   */\n      tag_26\n      tag_27\n      jump\t// in\n    tag_26:\n        /* \"#utility.yul\":228:347   */\n    tag_25:\n        /* \"#utility.yul\":386:387   */\n      0x00\n        /* \"#utility.yul\":411:464   */\n      tag_28\n        /* \"#utility.yul\":456:463   */\n      dup5\n        /* \"#utility.yul\":447:453   */\n      dup3\n        /* \"#utility.yul\":436:445   */\n      dup6\n        /* \"#utility.yul\":432:454   */\n      add\n        /* \"#utility.yul\":411:464   */\n      tag_20\n      jump\t// in\n    tag_28:\n        /* \"#utility.yul\":401:464   */\n      swap2\n      pop\n        /* \"#utility.yul\":357:474   */\n      pop\n        /* \"#utility.yul\":152:481   */\n      swap3\n      swap2\n      pop\n      pop\n      jump\t// out\n        /* \"#utility.yul\":487:853   */\n    tag_29:\n        /* \"#utility.yul\":629:632   */\n      0x00\n        /* \"#utility.yul\":650:717   */\n      tag_31\n        /* \"#utility.yul\":714:716   */\n      0x1f\n        /* \"#utility.yul\":709:712   */\n      dup4\n        /* \"#utility.yul\":650:717   */\n      tag_32\n      jump\t// in\n    tag_31:\n        /* \"#utility.yul\":643:717   */\n      swap2\n      pop\n        /* \"#utility.yul\":726:819   */\n      tag_33\n        /* \"#utility.yul\":815:818   */\n      dup3\n        /* \"#utility.yul\":726:819   */\n      tag_34\n      jump\t// in\n    tag_33:\n        /* \"#utility.yul\":844:846   */\n      0x20\n        /* \"#utility.yul\":839:842   */\n      dup3\n        /* \"#utility.yul\":835:847   */\n      add\n        /* \"#utility.yul\":828:847   */\n      swap1\n      pop\n        /* \"#utility.yul\":487:853   */\n      swap2\n      swap1\n      pop\n      jump\t// out\n        /* \"#utility.yul\":859:977   */\n    tag_35:\n        /* \"#utility.yul\":946:970   */\n      tag_37\n        /* \"#utility.yul\":964:969   */\n      dup2\n        /* \"#utility.yul\":946:970   */\n      tag_38\n      jump\t// in\n    tag_37:\n        /* \"#utility.yul\":941:944   */\n      dup3\n        /* \"#utility.yul\":934:971   */\n      mstore\n        /* \"#utility.yul\":859:977   */\n      pop\n      pop\n      jump\t// out\n        /* \"#utility.yul\":983:1402   */\n    tag_16:\n        /* \"#utility.yul\":1149:1153   */\n      0x00\n        /* \"#utility.yul\":1187:1189   */\n      0x20\n        /* \"#utility.yul\":1176:1185   */\n      dup3\n        /* \"#utility.yul\":1172:1190   */\n      add\n        /* \"#utility.yul\":1164:1190   */\n      swap1\n      pop\n        /* \"#utility.yul\":1236:1245   */\n      dup2\n        /* \"#utility.yul\":1230:1234   */\n      dup2\n        /* \"#utility.yul\":1226:1246   */\n      sub\n        /* \"#utility.yul\":1222:1223   */\n      0x00\n        /* \"#utility.yul\":1211:1220   */\n      dup4\n        /* \"#utility.yul\":1207:1224   */\n      add\n        /* \"#utility.yul\":1200:1247   */\n      mstore\n        /* \"#utility.yul\":1264:1395   */\n      tag_40\n        /* \"#utility.yul\":1390:1394   */\n      dup2\n        /* \"#utility.yul\":1264:1395   */\n      tag_29\n      jump\t// in\n    tag_40:\n        /* \"#utility.yul\":1256:1395   */\n      swap1\n      pop\n        /* \"#utility.yul\":983:1402   */\n      swap2\n      swap1\n      pop\n      jump\t// out\n        /* \"#utility.yul\":1408:1630   */\n    tag_8:\n        /* \"#utility.yul\":1501:1505   */\n      0x00\n        /* \"#utility.yul\":1539:1541   */\n      0x20\n        /* \"#utility.yul\":1528:1537   */\n      dup3\n        /* \"#utility.yul\":1524:1542   */\n      add\n        /* \"#utility.yul\":1516:1542   */\n      swap1\n      pop\n        /* \"#utility.yul\":1552:1623   */\n      tag_42\n        /* \"#utility.yul\":1620:1621   */\n      0x00\n        /* \"#utility.yul\":1609:1618   */\n      dup4\n        /* \"#utility.yul\":1605:1622   */\n      add\n        /* \"#utility.yul\":1596:1602   */\n      dup5\n        /* \"#utility.yul\":1552:1623   */\n      tag_35\n      jump\t// in\n    tag_42:\n        /* \"#utility.yul\":1408:1630   */\n      swap3\n      swap2\n      pop\n      pop\n      jump\t// out\n        /* \"#utility.yul\":1717:1886   */\n    tag_32:\n        /* \"#utility.yul\":1801:1812   */\n      0x00\n        /* \"#utility.yul\":1835:1841   */\n      dup3\n        /* \"#utility.yul\":1830:1833   */\n      dup3\n        /* \"#utility.yul\":1823:1842   */\n      mstore\n        /* \"#utility.yul\":1875:1879   */\n      0x20\n        /* \"#utility.yul\":1870:1873   */\n      dup3\n        /* \"#utility.yul\":1866:1880   */\n      add\n        /* \"#utility.yul\":1851:1880   */\n      swap1\n      pop\n        /* \"#utility.yul\":1717:1886   */\n      swap3\n      swap2\n      pop\n      pop\n      jump\t// out\n        /* \"#utility.yul\":1892:2083   */\n    tag_18:\n        /* \"#utility.yul\":1932:1936   */\n      0x00\n        /* \"#utility.yul\":1952:1972   */\n      tag_47\n        /* \"#utility.yul\":1970:1971   */\n      dup3\n        /* \"#utility.yul\":1952:1972   */\n      tag_38\n      jump\t// in\n    tag_47:\n        /* \"#utility.yul\":1947:1972   */\n      swap2\n      pop\n        /* \"#utility.yul\":1986:2006   */\n      tag_48\n        /* \"#utility.yul\":2004:2005   */\n      dup4\n        /* \"#utility.yul\":1986:2006   */\n      tag_38\n      jump\t// in\n    tag_48:\n        /* \"#utility.yul\":1981:2006   */\n      swap3\n      pop\n        /* \"#utility.yul\":2025:2026   */\n      dup3\n        /* \"#utility.yul\":2022:2023   */\n      dup3\n        /* \"#utility.yul\":2019:2027   */\n      lt\n        /* \"#utility.yul\":2016:2050   */\n      iszero\n      tag_49\n      jumpi\n        /* \"#utility.yul\":2030:2048   */\n      tag_50\n      tag_51\n      jump\t// in\n    tag_50:\n        /* \"#utility.yul\":2016:2050   */\n    tag_49:\n        /* \"#utility.yul\":2075:2076   */\n      dup3\n        /* \"#utility.yul\":2072:2073   */\n      dup3\n        /* \"#utility.yul\":2068:2077   */\n      sub\n        /* \"#utility.yul\":2060:2077   */\n      swap1\n      pop\n        /* \"#utility.yul\":1892:2083   */\n      swap3\n      swap2\n      pop\n      pop\n      jump\t// out\n        /* \"#utility.yul\":2089:2166   */\n    tag_38:\n        /* \"#utility.yul\":2126:2133   */\n      0x00\n        /* \"#utility.yul\":2155:2160   */\n      dup2\n        /* \"#utility.yul\":2144:2160   */\n      swap1\n      pop\n        /* \"#utility.yul\":2089:2166   */\n      swap2\n      swap1\n      pop\n      jump\t// out\n        /* \"#utility.yul\":2172:2352   */\n    tag_51:\n        /* \"#utility.yul\":2220:2297   */\n      0x4e487b7100000000000000000000000000000000000000000000000000000000\n        /* \"#utility.yul\":2217:2218   */\n      0x00\n        /* \"#utility.yul\":2210:2298   */\n      mstore\n        /* \"#utility.yul\":2317:2321   */\n      0x11\n        /* \"#utility.yul\":2314:2315   */\n      0x04\n        /* \"#utility.yul\":2307:2322   */\n      mstore\n        /* \"#utility.yul\":2341:2345   */\n      0x24\n        /* \"#utility.yul\":2338:2339   */\n      0x00\n        /* \"#utility.yul\":2331:2346   */\n      revert\n        /* \"#utility.yul\":2481:2598   */\n    tag_27:\n        /* \"#utility.yul\":2590:2591   */\n      0x00\n        /* \"#utility.yul\":2587:2588   */\n      dup1\n        /* \"#utility.yul\":2580:2592   */\n      revert\n        /* \"#utility.yul\":2604:2785   */\n    tag_34:\n        /* \"#utility.yul\":2744:2777   */\n      0x4e756d626572206973206e6f742067726561746572207468616e203130302e00\n        /* \"#utility.yul\":2740:2741   */\n      0x00\n        /* \"#utility.yul\":2732:2738   */\n      dup3\n        /* \"#utility.yul\":2728:2742   */\n      add\n        /* \"#utility.yul\":2721:2778   */\n      mstore\n        /* \"#utility.yul\":2604:2785   */\n      pop\n      jump\t// out\n        /* \"#utility.yul\":2791:2913   */\n    tag_23:\n        /* \"#utility.yul\":2864:2888   */\n      tag_59\n        /* \"#utility.yul\":2882:2887   */\n      dup2\n        /* \"#utility.yul\":2864:2888   */\n      tag_38\n      jump\t// in\n    tag_59:\n        /* \"#utility.yul\":2857:2862   */\n      dup2\n        /* \"#utility.yul\":2854:2889   */\n      eq\n        /* \"#utility.yul\":2844:2907   */\n      tag_60\n      jumpi\n        /* \"#utility.yul\":2903:2904   */\n      0x00\n        /* \"#utility.yul\":2900:2901   */\n      dup1\n        /* \"#utility.yul\":2893:2905   */\n      revert\n        /* \"#utility.yul\":2844:2907   */\n    tag_60:\n        /* \"#utility.yul\":2791:2913   */\n      pop\n      jump\t// out\n\n    auxdata: 0xa2646970667358221220801336c274c02d9d461cf400765e8d2fe546ddbb61521a24caaf4d14735c1e7864736f6c63430008070033\n}\n",
				"bytecode": {
					"linkReferences": {},
					"object": "608060405234801561001057600080fd5b50610289806100206000396000f3fe608060405234801561001057600080fd5b50600436106100365760003560e01c80636ca7c2161461003b57806377320ad414610059575b600080fd5b610043610075565b6040516100509190610175565b60405180910390f35b610073600480360381019061006e91906100f6565b61007b565b005b60005481565b5a60008190555060658110156100c6576040517f08c379a00000000000000000000000000000000000000000000000000000000081526004016100bd90610155565b60405180910390fd5b5a6000808282546100d791906101a1565b9250508190555050565b6000813590506100f08161023c565b92915050565b60006020828403121561010c5761010b61020e565b5b600061011a848285016100e1565b91505092915050565b6000610130601f83610190565b915061013b82610213565b602082019050919050565b61014f816101d5565b82525050565b6000602082019050818103600083015261016e81610123565b9050919050565b600060208201905061018a6000830184610146565b92915050565b600082825260208201905092915050565b60006101ac826101d5565b91506101b7836101d5565b9250828210156101ca576101c96101df565b5b828203905092915050565b6000819050919050565b7f4e487b7100000000000000000000000000000000000000000000000000000000600052601160045260246000fd5b600080fd5b7f4e756d626572206973206e6f742067726561746572207468616e203130302e00600082015250565b610245816101d5565b811461025057600080fd5b5056fea2646970667358221220801336c274c02d9d461cf400765e8d2fe546ddbb61521a24caaf4d14735c1e7864736f6c63430008070033",
					"opcodes": "PUSH1 0x80 PUSH1 0x40 MSTORE CALLVALUE DUP1 ISZERO PUSH2 0x10 JUMPI PUSH1 0x0 DUP1 REVERT JUMPDEST POP PUSH2 0x289 DUP1 PUSH2 0x20 PUSH1 0x0 CODECOPY PUSH1 0x0 RETURN INVALID PUSH1 0x80 PUSH1 0x40 MSTORE CALLVALUE DUP1 ISZERO PUSH2 0x10 JUMPI PUSH1 0x0 DUP1 REVERT JUMPDEST POP PUSH1 0x4 CALLDATASIZE LT PUSH2 0x36 JUMPI PUSH1 0x0 CALLDATALOAD PUSH1 0xE0 SHR DUP1 PUSH4 0x6CA7C216 EQ PUSH2 0x3B JUMPI DUP1 PUSH4 0x77320AD4 EQ PUSH2 0x59 JUMPI JUMPDEST PUSH1 0x0 DUP1 REVERT JUMPDEST PUSH2 0x43 PUSH2 0x75 JUMP JUMPDEST PUSH1 0x40 MLOAD PUSH2 0x50 SWAP2 SWAP1 PUSH2 0x175 JUMP JUMPDEST PUSH1 0x40 MLOAD DUP1 SWAP2 SUB SWAP1 RETURN JUMPDEST PUSH2 0x73 PUSH1 0x4 DUP1 CALLDATASIZE SUB DUP2 ADD SWAP1 PUSH2 0x6E SWAP2 SWAP1 PUSH2 0xF6 JUMP JUMPDEST PUSH2 0x7B JUMP JUMPDEST STOP JUMPDEST PUSH1 0x0 SLOAD DUP2 JUMP JUMPDEST GAS PUSH1 0x0 DUP2 SWAP1 SSTORE POP PUSH1 0x65 DUP2 LT ISZERO PUSH2 0xC6 JUMPI PUSH1 0x40 MLOAD PUSH32 0x8C379A000000000000000000000000000000000000000000000000000000000 DUP2 MSTORE PUSH1 0x4 ADD PUSH2 0xBD SWAP1 PUSH2 0x155 JUMP JUMPDEST PUSH1 0x40 MLOAD DUP1 SWAP2 SUB SWAP1 REVERT JUMPDEST GAS PUSH1 0x0 DUP1 DUP3 DUP3 SLOAD PUSH2 0xD7 SWAP2 SWAP1 PUSH2 0x1A1 JUMP JUMPDEST SWAP3 POP POP DUP2 SWAP1 SSTORE POP POP JUMP JUMPDEST PUSH1 0x0 DUP2 CALLDATALOAD SWAP1 POP PUSH2 0xF0 DUP2 PUSH2 0x23C JUMP JUMPDEST SWAP3 SWAP2 POP POP JUMP JUMPDEST PUSH1 0x0 PUSH1 0x20 DUP3 DUP5 SUB SLT ISZERO PUSH2 0x10C JUMPI PUSH2 0x10B PUSH2 0x20E JUMP JUMPDEST JUMPDEST PUSH1 0x0 PUSH2 0x11A DUP5 DUP3 DUP6 ADD PUSH2 0xE1 JUMP JUMPDEST SWAP2 POP POP SWAP3 SWAP2 POP POP JUMP JUMPDEST PUSH1 0x0 PUSH2 0x130 PUSH1 0x1F DUP4 PUSH2 0x190 JUMP JUMPDEST SWAP2 POP PUSH2 0x13B DUP3 PUSH2 0x213 JUMP JUMPDEST PUSH1 0x20 DUP3 ADD SWAP1 POP SWAP2 SWAP1 POP JUMP JUMPDEST PUSH2 0x14F DUP2 PUSH2 0x1D5 JUMP JUMPDEST DUP3 MSTORE POP POP JUMP JUMPDEST PUSH1 0x0 PUSH1 0x20 DUP3 ADD SWAP1 POP DUP2 DUP2 SUB PUSH1 0x0 DUP4 ADD MSTORE PUSH2 0x16E DUP2 PUSH2 0x123 JUMP JUMPDEST SWAP1 POP SWAP2 SWAP1 POP JUMP JUMPDEST PUSH1 0x0 PUSH1 0x20 DUP3 ADD SWAP1 POP PUSH2 0x18A PUSH1 0x0 DUP4 ADD DUP5 PUSH2 0x146 JUMP JUMPDEST SWAP3 SWAP2 POP POP JUMP JUMPDEST PUSH1 0x0 DUP3 DUP3 MSTORE PUSH1 0x20 DUP3 ADD SWAP1 POP SWAP3 SWAP2 POP POP JUMP JUMPDEST PUSH1 0x0 PUSH2 0x1AC DUP3 PUSH2 0x1D5 JUMP JUMPDEST SWAP2 POP PUSH2 0x1B7 DUP4 PUSH2 0x1D5 JUMP JUMPDEST SWAP3 POP DUP3 DUP3 LT ISZERO PUSH2 0x1CA JUMPI PUSH2 0x1C9 PUSH2 0x1DF JUMP JUMPDEST JUMPDEST DUP3 DUP3 SUB SWAP1 POP SWAP3 SWAP2 POP POP JUMP JUMPDEST PUSH1 0x0 DUP2 SWAP1 POP SWAP2 SWAP1 POP JUMP JUMPDEST PUSH32 0x4E487B7100000000000000000000000000000000000000000000000000000000 PUSH1 0x0 MSTORE PUSH1 0x11 PUSH1 0x4 MSTORE PUSH1 0x24 PUSH1 0x0 REVERT JUMPDEST PUSH1 0x0 DUP1 REVERT JUMPDEST PUSH32 0x4E756D626572206973206E6F742067726561746572207468616E203130302E00 PUSH1 0x0 DUP3 ADD MSTORE POP JUMP JUMPDEST PUSH2 0x245 DUP2 PUSH2 0x1D5 JUMP JUMPDEST DUP2 EQ PUSH2 0x250 JUMPI PUSH1 0x0 DUP1 REVERT JUMPDEST POP JUMP INVALID LOG2 PUSH5 0x6970667358 0x22 SLT KECCAK256 DUP1 SGT CALLDATASIZE 0xC2 PUSH21 0xC02D9D461CF400765E8D2FE546DDBB61521A24CAAF 0x4D EQ PUSH20 0x5C1E7864736F6C63430008070033000000000000 "
				},
				"gasEstimates": {
					"creation": {
						"codeDepositCost": "129800",
						"executionCost": "177",
						"totalCost": "129977"
					},
					"external": {
						"gas()": "2407",
						"isGreaterThan100(uint256)": "infinite"
					}
				},
				"methodIdentifiers": {
					"gas()": "6ca7c216",
					"isGreaterThan100(uint256)": "77320ad4"
				}
			},
			"storageLayout": {
				"storage": [
					{
						"astId": 3,
						"contract": "Comparison Optimizer/optimized_test1.sol:GreaterThan100",
						"label": "gas",
						"offset": 0,
						"slot": "0",
						"type": "t_uint256"
					}
				],
				"types": {
					"t_uint256": {
						"encoding": "inplace",
						"label": "uint256",
						"numberOfBytes": "32"
					}
				}
			},
			"userdoc": {
				"kind": "user",
				"methods": {},
				"version": 1
			}
		}
	}
}