{
	"Comparison Optimizer/test3.sol": {
		"GreaterThan": {
			"abi": [
				{
					"inputs": [
						{
							"internalType": "uint256",
							"name": "_number",
							"type": "uint256"
						}
					],
					"name": "addNumber",
					"outputs": [],
					"stateMutability": "nonpayable",
					"type": "function"
				},
				{
					"inputs": [],
					"name": "findGreaterThan",
					"outputs": [
						{
							"internalType": "uint256[]",
							"name": "",
							"type": "uint256[]"
						}
					],
					"stateMutability": "view",
					"type": "function"
				},
				{
					"inputs": [
						{
							"internalType": "uint256",
							"name": "",
							"type": "uint256"
						}
					],
					"name": "numbers",
					"outputs": [
						{
							"internalType": "uint256",
							"name": "",
							"type": "uint256"
						}
					],
					"stateMutability": "view",
					"type": "function"
				}
			],
			"devdoc": {
				"kind": "dev",
				"methods": {},
				"version": 1
			},
			"evm": {
				"assembly": "    /* \"Comparison Optimizer/test3.sol\":58:858  contract GreaterThan {... */\n  mstore(0x40, 0x80)\n  callvalue\n  dup1\n  iszero\n  tag_1\n  jumpi\n  0x00\n  dup1\n  revert\ntag_1:\n  pop\n  dataSize(sub_0)\n  dup1\n  dataOffset(sub_0)\n  0x00\n  codecopy\n  0x00\n  return\nstop\n\nsub_0: assembly {\n        /* \"Comparison Optimizer/test3.sol\":58:858  contract GreaterThan {... */\n      mstore(0x40, 0x80)\n      callvalue\n      dup1\n      iszero\n      tag_1\n      jumpi\n      0x00\n      dup1\n      revert\n    tag_1:\n      pop\n      jumpi(tag_2, lt(calldatasize, 0x04))\n      shr(0xe0, calldataload(0x00))\n      dup1\n      0xd39fa233\n      eq\n      tag_3\n      jumpi\n      dup1\n      0xf4f98a2f\n      eq\n      tag_4\n      jumpi\n      dup1\n      0xfce68023\n      eq\n      tag_5\n      jumpi\n    tag_2:\n      0x00\n      dup1\n      revert\n        /* \"Comparison Optimizer/test3.sol\":85:106  uint[] public numbers */\n    tag_3:\n      tag_6\n      0x04\n      dup1\n      calldatasize\n      sub\n      dup2\n      add\n      swap1\n      tag_7\n      swap2\n      swap1\n      tag_8\n      jump\t// in\n    tag_7:\n      tag_9\n      jump\t// in\n    tag_6:\n      mload(0x40)\n      tag_10\n      swap2\n      swap1\n      tag_11\n      jump\t// in\n    tag_10:\n      mload(0x40)\n      dup1\n      swap2\n      sub\n      swap1\n      return\n        /* \"Comparison Optimizer/test3.sol\":117:768  function findGreaterThan() public view returns (uint[] memory) {... */\n    tag_4:\n      tag_12\n      tag_13\n      jump\t// in\n    tag_12:\n      mload(0x40)\n      tag_14\n      swap2\n      swap1\n      tag_15\n      jump\t// in\n    tag_14:\n      mload(0x40)\n      dup1\n      swap2\n      sub\n      swap1\n      return\n        /* \"Comparison Optimizer/test3.sol\":778:856  function addNumber(uint _number) public {... */\n    tag_5:\n      tag_16\n      0x04\n      dup1\n      calldatasize\n      sub\n      dup2\n      add\n      swap1\n      tag_17\n      swap2\n      swap1\n      tag_8\n      jump\t// in\n    tag_17:\n      tag_18\n      jump\t// in\n    tag_16:\n      stop\n        /* \"Comparison Optimizer/test3.sol\":85:106  uint[] public numbers */\n    tag_9:\n      0x00\n      dup2\n      dup2\n      sload\n      dup2\n      lt\n      tag_19\n      jumpi\n      0x00\n      dup1\n      revert\n    tag_19:\n      swap1\n      0x00\n      mstore\n      keccak256(0x00, 0x20)\n      add\n      0x00\n      swap2\n      pop\n      swap1\n      pop\n      sload\n      dup2\n      jump\t// out\n        /* \"Comparison Optimizer/test3.sol\":117:768  function findGreaterThan() public view returns (uint[] memory) {... */\n    tag_13:\n        /* \"Comparison Optimizer/test3.sol\":165:178  uint[] memory */\n      0x60\n        /* \"Comparison Optimizer/test3.sol\":190:200  uint count */\n      0x00\n        /* \"Comparison Optimizer/test3.sol\":283:289  uint i */\n      dup1\n        /* \"Comparison Optimizer/test3.sol\":278:404  for (uint i = 0; i < numbers.length; i++) {... */\n    tag_22:\n        /* \"Comparison Optimizer/test3.sol\":299:306  numbers */\n      0x00\n        /* \"Comparison Optimizer/test3.sol\":299:313  numbers.length */\n      dup1\n      sload\n      swap1\n      pop\n        /* \"Comparison Optimizer/test3.sol\":295:296  i */\n      dup2\n        /* \"Comparison Optimizer/test3.sol\":295:313  i < numbers.length */\n      lt\n        /* \"Comparison Optimizer/test3.sol\":278:404  for (uint i = 0; i < numbers.length; i++) {... */\n      iszero\n      tag_23\n      jumpi\n        /* \"Comparison Optimizer/test3.sol\":351:352  5 */\n      0x05\n        /* \"Comparison Optimizer/test3.sol\":338:345  numbers */\n      0x00\n        /* \"Comparison Optimizer/test3.sol\":346:347  i */\n      dup3\n        /* \"Comparison Optimizer/test3.sol\":338:348  numbers[i] */\n      dup2\n      sload\n      dup2\n      lt\n      tag_25\n      jumpi\n      tag_26\n      tag_27\n      jump\t// in\n    tag_26:\n    tag_25:\n      swap1\n      0x00\n      mstore\n      keccak256(0x00, 0x20)\n      add\n      sload\n        /* \"Comparison Optimizer/test3.sol\":338:352  numbers[i] < 5 */\n      lt\n        /* \"Comparison Optimizer/test3.sol\":334:394  if (numbers[i] < 5) {... */\n      iszero\n      tag_29\n      jumpi\n        /* \"Comparison Optimizer/test3.sol\":372:379  count++ */\n      dup2\n      dup1\n      tag_30\n      swap1\n      tag_31\n      jump\t// in\n    tag_30:\n      swap3\n      pop\n      pop\n        /* \"Comparison Optimizer/test3.sol\":334:394  if (numbers[i] < 5) {... */\n    tag_29:\n        /* \"Comparison Optimizer/test3.sol\":315:318  i++ */\n      dup1\n      dup1\n      tag_32\n      swap1\n      tag_31\n      jump\t// in\n    tag_32:\n      swap2\n      pop\n      pop\n        /* \"Comparison Optimizer/test3.sol\":278:404  for (uint i = 0; i < numbers.length; i++) {... */\n      jump(tag_22)\n    tag_23:\n      pop\n        /* \"Comparison Optimizer/test3.sol\":483:504  uint[] memory greater */\n      0x00\n        /* \"Comparison Optimizer/test3.sol\":518:523  count */\n      dup2\n        /* \"Comparison Optimizer/test3.sol\":507:524  new uint[](count) */\n      0xffffffffffffffff\n      dup2\n      gt\n      iszero\n      tag_33\n      jumpi\n      tag_34\n      tag_35\n      jump\t// in\n    tag_34:\n    tag_33:\n      mload(0x40)\n      swap1\n      dup1\n      dup3\n      mstore\n      dup1\n      0x20\n      mul\n      0x20\n      add\n      dup3\n      add\n      0x40\n      mstore\n      dup1\n      iszero\n      tag_36\n      jumpi\n      dup2\n      0x20\n      add\n      0x20\n      dup3\n      mul\n      dup1\n      calldatasize\n      dup4\n      calldatacopy\n      dup1\n      dup3\n      add\n      swap2\n      pop\n      pop\n      swap1\n      pop\n    tag_36:\n      pop\n        /* \"Comparison Optimizer/test3.sol\":483:524  uint[] memory greater = new uint[](count) */\n      swap1\n      pop\n        /* \"Comparison Optimizer/test3.sol\":534:544  uint index */\n      0x00\n        /* \"Comparison Optimizer/test3.sol\":563:569  uint i */\n      dup1\n        /* \"Comparison Optimizer/test3.sol\":558:729  for (uint i = 0; i < numbers.length; i++) {... */\n    tag_37:\n        /* \"Comparison Optimizer/test3.sol\":579:586  numbers */\n      0x00\n        /* \"Comparison Optimizer/test3.sol\":579:593  numbers.length */\n      dup1\n      sload\n      swap1\n      pop\n        /* \"Comparison Optimizer/test3.sol\":575:576  i */\n      dup2\n        /* \"Comparison Optimizer/test3.sol\":575:593  i < numbers.length */\n      lt\n        /* \"Comparison Optimizer/test3.sol\":558:729  for (uint i = 0; i < numbers.length; i++) {... */\n      iszero\n      tag_38\n      jumpi\n        /* \"Comparison Optimizer/test3.sol\":631:632  5 */\n      0x05\n        /* \"Comparison Optimizer/test3.sol\":618:625  numbers */\n      0x00\n        /* \"Comparison Optimizer/test3.sol\":626:627  i */\n      dup3\n        /* \"Comparison Optimizer/test3.sol\":618:628  numbers[i] */\n      dup2\n      sload\n      dup2\n      lt\n      tag_40\n      jumpi\n      tag_41\n      tag_27\n      jump\t// in\n    tag_41:\n    tag_40:\n      swap1\n      0x00\n      mstore\n      keccak256(0x00, 0x20)\n      add\n      sload\n        /* \"Comparison Optimizer/test3.sol\":618:632  numbers[i] < 5 */\n      lt\n        /* \"Comparison Optimizer/test3.sol\":614:719  if (numbers[i] < 5) {... */\n      iszero\n      tag_43\n      jumpi\n        /* \"Comparison Optimizer/test3.sol\":669:676  numbers */\n      0x00\n        /* \"Comparison Optimizer/test3.sol\":677:678  i */\n      dup2\n        /* \"Comparison Optimizer/test3.sol\":669:679  numbers[i] */\n      dup2\n      sload\n      dup2\n      lt\n      tag_44\n      jumpi\n      tag_45\n      tag_27\n      jump\t// in\n    tag_45:\n    tag_44:\n      swap1\n      0x00\n      mstore\n      keccak256(0x00, 0x20)\n      add\n      sload\n        /* \"Comparison Optimizer/test3.sol\":652:659  greater */\n      dup4\n        /* \"Comparison Optimizer/test3.sol\":660:665  index */\n      dup4\n        /* \"Comparison Optimizer/test3.sol\":652:666  greater[index] */\n      dup2\n      mload\n      dup2\n      lt\n      tag_47\n      jumpi\n      tag_48\n      tag_27\n      jump\t// in\n    tag_48:\n    tag_47:\n      0x20\n      mul\n      0x20\n      add\n      add\n        /* \"Comparison Optimizer/test3.sol\":652:679  greater[index] = numbers[i] */\n      dup2\n      dup2\n      mstore\n      pop\n      pop\n        /* \"Comparison Optimizer/test3.sol\":697:704  index++ */\n      dup2\n      dup1\n      tag_49\n      swap1\n      tag_31\n      jump\t// in\n    tag_49:\n      swap3\n      pop\n      pop\n        /* \"Comparison Optimizer/test3.sol\":614:719  if (numbers[i] < 5) {... */\n    tag_43:\n        /* \"Comparison Optimizer/test3.sol\":595:598  i++ */\n      dup1\n      dup1\n      tag_50\n      swap1\n      tag_31\n      jump\t// in\n    tag_50:\n      swap2\n      pop\n      pop\n        /* \"Comparison Optimizer/test3.sol\":558:729  for (uint i = 0; i < numbers.length; i++) {... */\n      jump(tag_37)\n    tag_38:\n      pop\n        /* \"Comparison Optimizer/test3.sol\":754:761  greater */\n      dup2\n        /* \"Comparison Optimizer/test3.sol\":747:761  return greater */\n      swap4\n      pop\n      pop\n      pop\n      pop\n        /* \"Comparison Optimizer/test3.sol\":117:768  function findGreaterThan() public view returns (uint[] memory) {... */\n      swap1\n      jump\t// out\n        /* \"Comparison Optimizer/test3.sol\":778:856  function addNumber(uint _number) public {... */\n    tag_18:\n        /* \"Comparison Optimizer/test3.sol\":828:835  numbers */\n      0x00\n        /* \"Comparison Optimizer/test3.sol\":841:848  _number */\n      dup2\n        /* \"Comparison Optimizer/test3.sol\":828:849  numbers.push(_number) */\n      swap1\n      dup1\n      0x01\n      dup2\n      sload\n      add\n      dup1\n      dup3\n      sstore\n      dup1\n      swap2\n      pop\n      pop\n      0x01\n      swap1\n      sub\n      swap1\n      0x00\n      mstore\n      keccak256(0x00, 0x20)\n      add\n      0x00\n      swap1\n      swap2\n      swap1\n      swap2\n      swap1\n      swap2\n      pop\n      sstore\n        /* \"Comparison Optimizer/test3.sol\":778:856  function addNumber(uint _number) public {... */\n      pop\n      jump\t// out\n        /* \"#utility.yul\":7:146   */\n    tag_54:\n        /* \"#utility.yul\":53:58   */\n      0x00\n        /* \"#utility.yul\":91:97   */\n      dup2\n        /* \"#utility.yul\":78:98   */\n      calldataload\n        /* \"#utility.yul\":69:98   */\n      swap1\n      pop\n        /* \"#utility.yul\":107:140   */\n      tag_56\n        /* \"#utility.yul\":134:139   */\n      dup2\n        /* \"#utility.yul\":107:140   */\n      tag_57\n      jump\t// in\n    tag_56:\n        /* \"#utility.yul\":7:146   */\n      swap3\n      swap2\n      pop\n      pop\n      jump\t// out\n        /* \"#utility.yul\":152:481   */\n    tag_8:\n        /* \"#utility.yul\":211:217   */\n      0x00\n        /* \"#utility.yul\":260:262   */\n      0x20\n        /* \"#utility.yul\":248:257   */\n      dup3\n        /* \"#utility.yul\":239:246   */\n      dup5\n        /* \"#utility.yul\":235:258   */\n      sub\n        /* \"#utility.yul\":231:263   */\n      slt\n        /* \"#utility.yul\":228:347   */\n      iszero\n      tag_59\n      jumpi\n        /* \"#utility.yul\":266:345   */\n      tag_60\n      tag_61\n      jump\t// in\n    tag_60:\n        /* \"#utility.yul\":228:347   */\n    tag_59:\n        /* \"#utility.yul\":386:387   */\n      0x00\n        /* \"#utility.yul\":411:464   */\n      tag_62\n        /* \"#utility.yul\":456:463   */\n      dup5\n        /* \"#utility.yul\":447:453   */\n      dup3\n        /* \"#utility.yul\":436:445   */\n      dup6\n        /* \"#utility.yul\":432:454   */\n      add\n        /* \"#utility.yul\":411:464   */\n      tag_54\n      jump\t// in\n    tag_62:\n        /* \"#utility.yul\":401:464   */\n      swap2\n      pop\n        /* \"#utility.yul\":357:474   */\n      pop\n        /* \"#utility.yul\":152:481   */\n      swap3\n      swap2\n      pop\n      pop\n      jump\t// out\n        /* \"#utility.yul\":487:666   */\n    tag_63:\n        /* \"#utility.yul\":556:566   */\n      0x00\n        /* \"#utility.yul\":577:623   */\n      tag_65\n        /* \"#utility.yul\":619:622   */\n      dup4\n        /* \"#utility.yul\":611:617   */\n      dup4\n        /* \"#utility.yul\":577:623   */\n      tag_66\n      jump\t// in\n    tag_65:\n        /* \"#utility.yul\":655:659   */\n      0x20\n        /* \"#utility.yul\":650:653   */\n      dup4\n        /* \"#utility.yul\":646:660   */\n      add\n        /* \"#utility.yul\":632:660   */\n      swap1\n      pop\n        /* \"#utility.yul\":487:666   */\n      swap3\n      swap2\n      pop\n      pop\n      jump\t// out\n        /* \"#utility.yul\":702:1434   */\n    tag_67:\n        /* \"#utility.yul\":821:824   */\n      0x00\n        /* \"#utility.yul\":850:904   */\n      tag_69\n        /* \"#utility.yul\":898:903   */\n      dup3\n        /* \"#utility.yul\":850:904   */\n      tag_70\n      jump\t// in\n    tag_69:\n        /* \"#utility.yul\":920:1006   */\n      tag_71\n        /* \"#utility.yul\":999:1005   */\n      dup2\n        /* \"#utility.yul\":994:997   */\n      dup6\n        /* \"#utility.yul\":920:1006   */\n      tag_72\n      jump\t// in\n    tag_71:\n        /* \"#utility.yul\":913:1006   */\n      swap4\n      pop\n        /* \"#utility.yul\":1030:1086   */\n      tag_73\n        /* \"#utility.yul\":1080:1085   */\n      dup4\n        /* \"#utility.yul\":1030:1086   */\n      tag_74\n      jump\t// in\n    tag_73:\n        /* \"#utility.yul\":1109:1116   */\n      dup1\n        /* \"#utility.yul\":1140:1141   */\n      0x00\n        /* \"#utility.yul\":1125:1409   */\n    tag_75:\n        /* \"#utility.yul\":1150:1156   */\n      dup4\n        /* \"#utility.yul\":1147:1148   */\n      dup2\n        /* \"#utility.yul\":1144:1157   */\n      lt\n        /* \"#utility.yul\":1125:1409   */\n      iszero\n      tag_77\n      jumpi\n        /* \"#utility.yul\":1226:1232   */\n      dup2\n        /* \"#utility.yul\":1220:1233   */\n      mload\n        /* \"#utility.yul\":1253:1316   */\n      tag_78\n        /* \"#utility.yul\":1312:1315   */\n      dup9\n        /* \"#utility.yul\":1297:1310   */\n      dup3\n        /* \"#utility.yul\":1253:1316   */\n      tag_63\n      jump\t// in\n    tag_78:\n        /* \"#utility.yul\":1246:1316   */\n      swap8\n      pop\n        /* \"#utility.yul\":1339:1399   */\n      tag_79\n        /* \"#utility.yul\":1392:1398   */\n      dup4\n        /* \"#utility.yul\":1339:1399   */\n      tag_80\n      jump\t// in\n    tag_79:\n        /* \"#utility.yul\":1329:1399   */\n      swap3\n      pop\n        /* \"#utility.yul\":1185:1409   */\n      pop\n        /* \"#utility.yul\":1172:1173   */\n      0x01\n        /* \"#utility.yul\":1169:1170   */\n      dup2\n        /* \"#utility.yul\":1165:1174   */\n      add\n        /* \"#utility.yul\":1160:1174   */\n      swap1\n      pop\n        /* \"#utility.yul\":1125:1409   */\n      jump(tag_75)\n    tag_77:\n        /* \"#utility.yul\":1129:1143   */\n      pop\n        /* \"#utility.yul\":1425:1428   */\n      dup6\n        /* \"#utility.yul\":1418:1428   */\n      swap4\n      pop\n        /* \"#utility.yul\":826:1434   */\n      pop\n      pop\n      pop\n        /* \"#utility.yul\":702:1434   */\n      swap3\n      swap2\n      pop\n      pop\n      jump\t// out\n        /* \"#utility.yul\":1440:1548   */\n    tag_66:\n        /* \"#utility.yul\":1517:1541   */\n      tag_82\n        /* \"#utility.yul\":1535:1540   */\n      dup2\n        /* \"#utility.yul\":1517:1541   */\n      tag_83\n      jump\t// in\n    tag_82:\n        /* \"#utility.yul\":1512:1515   */\n      dup3\n        /* \"#utility.yul\":1505:1542   */\n      mstore\n        /* \"#utility.yul\":1440:1548   */\n      pop\n      pop\n      jump\t// out\n        /* \"#utility.yul\":1554:1672   */\n    tag_84:\n        /* \"#utility.yul\":1641:1665   */\n      tag_86\n        /* \"#utility.yul\":1659:1664   */\n      dup2\n        /* \"#utility.yul\":1641:1665   */\n      tag_83\n      jump\t// in\n    tag_86:\n        /* \"#utility.yul\":1636:1639   */\n      dup3\n        /* \"#utility.yul\":1629:1666   */\n      mstore\n        /* \"#utility.yul\":1554:1672   */\n      pop\n      pop\n      jump\t// out\n        /* \"#utility.yul\":1678:2051   */\n    tag_15:\n        /* \"#utility.yul\":1821:1825   */\n      0x00\n        /* \"#utility.yul\":1859:1861   */\n      0x20\n        /* \"#utility.yul\":1848:1857   */\n      dup3\n        /* \"#utility.yul\":1844:1862   */\n      add\n        /* \"#utility.yul\":1836:1862   */\n      swap1\n      pop\n        /* \"#utility.yul\":1908:1917   */\n      dup2\n        /* \"#utility.yul\":1902:1906   */\n      dup2\n        /* \"#utility.yul\":1898:1918   */\n      sub\n        /* \"#utility.yul\":1894:1895   */\n      0x00\n        /* \"#utility.yul\":1883:1892   */\n      dup4\n        /* \"#utility.yul\":1879:1896   */\n      add\n        /* \"#utility.yul\":1872:1919   */\n      mstore\n        /* \"#utility.yul\":1936:2044   */\n      tag_88\n        /* \"#utility.yul\":2039:2043   */\n      dup2\n        /* \"#utility.yul\":2030:2036   */\n      dup5\n        /* \"#utility.yul\":1936:2044   */\n      tag_67\n      jump\t// in\n    tag_88:\n        /* \"#utility.yul\":1928:2044   */\n      swap1\n      pop\n        /* \"#utility.yul\":1678:2051   */\n      swap3\n      swap2\n      pop\n      pop\n      jump\t// out\n        /* \"#utility.yul\":2057:2279   */\n    tag_11:\n        /* \"#utility.yul\":2150:2154   */\n      0x00\n        /* \"#utility.yul\":2188:2190   */\n      0x20\n        /* \"#utility.yul\":2177:2186   */\n      dup3\n        /* \"#utility.yul\":2173:2191   */\n      add\n        /* \"#utility.yul\":2165:2191   */\n      swap1\n      pop\n        /* \"#utility.yul\":2201:2272   */\n      tag_90\n        /* \"#utility.yul\":2269:2270   */\n      0x00\n        /* \"#utility.yul\":2258:2267   */\n      dup4\n        /* \"#utility.yul\":2254:2271   */\n      add\n        /* \"#utility.yul\":2245:2251   */\n      dup5\n        /* \"#utility.yul\":2201:2272   */\n      tag_84\n      jump\t// in\n    tag_90:\n        /* \"#utility.yul\":2057:2279   */\n      swap3\n      swap2\n      pop\n      pop\n      jump\t// out\n        /* \"#utility.yul\":2366:2498   */\n    tag_74:\n        /* \"#utility.yul\":2433:2437   */\n      0x00\n        /* \"#utility.yul\":2456:2459   */\n      dup2\n        /* \"#utility.yul\":2448:2459   */\n      swap1\n      pop\n        /* \"#utility.yul\":2486:2490   */\n      0x20\n        /* \"#utility.yul\":2481:2484   */\n      dup3\n        /* \"#utility.yul\":2477:2491   */\n      add\n        /* \"#utility.yul\":2469:2491   */\n      swap1\n      pop\n        /* \"#utility.yul\":2366:2498   */\n      swap2\n      swap1\n      pop\n      jump\t// out\n        /* \"#utility.yul\":2504:2618   */\n    tag_70:\n        /* \"#utility.yul\":2571:2577   */\n      0x00\n        /* \"#utility.yul\":2605:2610   */\n      dup2\n        /* \"#utility.yul\":2599:2611   */\n      mload\n        /* \"#utility.yul\":2589:2611   */\n      swap1\n      pop\n        /* \"#utility.yul\":2504:2618   */\n      swap2\n      swap1\n      pop\n      jump\t// out\n        /* \"#utility.yul\":2624:2737   */\n    tag_80:\n        /* \"#utility.yul\":2694:2698   */\n      0x00\n        /* \"#utility.yul\":2726:2730   */\n      0x20\n        /* \"#utility.yul\":2721:2724   */\n      dup3\n        /* \"#utility.yul\":2717:2731   */\n      add\n        /* \"#utility.yul\":2709:2731   */\n      swap1\n      pop\n        /* \"#utility.yul\":2624:2737   */\n      swap2\n      swap1\n      pop\n      jump\t// out\n        /* \"#utility.yul\":2743:2927   */\n    tag_72:\n        /* \"#utility.yul\":2842:2853   */\n      0x00\n        /* \"#utility.yul\":2876:2882   */\n      dup3\n        /* \"#utility.yul\":2871:2874   */\n      dup3\n        /* \"#utility.yul\":2864:2883   */\n      mstore\n        /* \"#utility.yul\":2916:2920   */\n      0x20\n        /* \"#utility.yul\":2911:2914   */\n      dup3\n        /* \"#utility.yul\":2907:2921   */\n      add\n        /* \"#utility.yul\":2892:2921   */\n      swap1\n      pop\n        /* \"#utility.yul\":2743:2927   */\n      swap3\n      swap2\n      pop\n      pop\n      jump\t// out\n        /* \"#utility.yul\":2933:3010   */\n    tag_83:\n        /* \"#utility.yul\":2970:2977   */\n      0x00\n        /* \"#utility.yul\":2999:3004   */\n      dup2\n        /* \"#utility.yul\":2988:3004   */\n      swap1\n      pop\n        /* \"#utility.yul\":2933:3010   */\n      swap2\n      swap1\n      pop\n      jump\t// out\n        /* \"#utility.yul\":3016:3249   */\n    tag_31:\n        /* \"#utility.yul\":3055:3058   */\n      0x00\n        /* \"#utility.yul\":3078:3102   */\n      tag_99\n        /* \"#utility.yul\":3096:3101   */\n      dup3\n        /* \"#utility.yul\":3078:3102   */\n      tag_83\n      jump\t// in\n    tag_99:\n        /* \"#utility.yul\":3069:3102   */\n      swap2\n      pop\n        /* \"#utility.yul\":3124:3190   */\n      0xffffffffffffffffffffffffffffffffffffffffffffffffffffffffffffffff\n        /* \"#utility.yul\":3117:3122   */\n      dup3\n        /* \"#utility.yul\":3114:3191   */\n      eq\n        /* \"#utility.yul\":3111:3214   */\n      iszero\n      tag_100\n      jumpi\n        /* \"#utility.yul\":3194:3212   */\n      tag_101\n      tag_102\n      jump\t// in\n    tag_101:\n        /* \"#utility.yul\":3111:3214   */\n    tag_100:\n        /* \"#utility.yul\":3241:3242   */\n      0x01\n        /* \"#utility.yul\":3234:3239   */\n      dup3\n        /* \"#utility.yul\":3230:3243   */\n      add\n        /* \"#utility.yul\":3223:3243   */\n      swap1\n      pop\n        /* \"#utility.yul\":3016:3249   */\n      swap2\n      swap1\n      pop\n      jump\t// out\n        /* \"#utility.yul\":3255:3435   */\n    tag_102:\n        /* \"#utility.yul\":3303:3380   */\n      0x4e487b7100000000000000000000000000000000000000000000000000000000\n        /* \"#utility.yul\":3300:3301   */\n      0x00\n        /* \"#utility.yul\":3293:3381   */\n      mstore\n        /* \"#utility.yul\":3400:3404   */\n      0x11\n        /* \"#utility.yul\":3397:3398   */\n      0x04\n        /* \"#utility.yul\":3390:3405   */\n      mstore\n        /* \"#utility.yul\":3424:3428   */\n      0x24\n        /* \"#utility.yul\":3421:3422   */\n      0x00\n        /* \"#utility.yul\":3414:3429   */\n      revert\n        /* \"#utility.yul\":3441:3621   */\n    tag_27:\n        /* \"#utility.yul\":3489:3566   */\n      0x4e487b7100000000000000000000000000000000000000000000000000000000\n        /* \"#utility.yul\":3486:3487   */\n      0x00\n        /* \"#utility.yul\":3479:3567   */\n      mstore\n        /* \"#utility.yul\":3586:3590   */\n      0x32\n        /* \"#utility.yul\":3583:3584   */\n      0x04\n        /* \"#utility.yul\":3576:3591   */\n      mstore\n        /* \"#utility.yul\":3610:3614   */\n      0x24\n        /* \"#utility.yul\":3607:3608   */\n      0x00\n        /* \"#utility.yul\":3600:3615   */\n      revert\n        /* \"#utility.yul\":3627:3807   */\n    tag_35:\n        /* \"#utility.yul\":3675:3752   */\n      0x4e487b7100000000000000000000000000000000000000000000000000000000\n        /* \"#utility.yul\":3672:3673   */\n      0x00\n        /* \"#utility.yul\":3665:3753   */\n      mstore\n        /* \"#utility.yul\":3772:3776   */\n      0x41\n        /* \"#utility.yul\":3769:3770   */\n      0x04\n        /* \"#utility.yul\":3762:3777   */\n      mstore\n        /* \"#utility.yul\":3796:3800   */\n      0x24\n        /* \"#utility.yul\":3793:3794   */\n      0x00\n        /* \"#utility.yul\":3786:3801   */\n      revert\n        /* \"#utility.yul\":3936:4053   */\n    tag_61:\n        /* \"#utility.yul\":4045:4046   */\n      0x00\n        /* \"#utility.yul\":4042:4043   */\n      dup1\n        /* \"#utility.yul\":4035:4047   */\n      revert\n        /* \"#utility.yul\":4059:4181   */\n    tag_57:\n        /* \"#utility.yul\":4132:4156   */\n      tag_110\n        /* \"#utility.yul\":4150:4155   */\n      dup2\n        /* \"#utility.yul\":4132:4156   */\n      tag_83\n      jump\t// in\n    tag_110:\n        /* \"#utility.yul\":4125:4130   */\n      dup2\n        /* \"#utility.yul\":4122:4157   */\n      eq\n        /* \"#utility.yul\":4112:4175   */\n      tag_111\n      jumpi\n        /* \"#utility.yul\":4171:4172   */\n      0x00\n        /* \"#utility.yul\":4168:4169   */\n      dup1\n        /* \"#utility.yul\":4161:4173   */\n      revert\n        /* \"#utility.yul\":4112:4175   */\n    tag_111:\n        /* \"#utility.yul\":4059:4181   */\n      pop\n      jump\t// out\n\n    auxdata: 0xa264697066735822122073668976f4d1cc3a0953e983bc40957a1d1a85ddcf8ef06719f71e8e2b79ca0e64736f6c63430008070033\n}\n",
				"bytecode": {
					"linkReferences": {},
					"object": "608060405234801561001057600080fd5b506104ca806100206000396000f3fe608060405234801561001057600080fd5b50600436106100415760003560e01c8063d39fa23314610046578063f4f98a2f14610076578063fce6802314610094575b600080fd5b610060600480360381019061005b9190610261565b6100b0565b60405161006d9190610344565b60405180910390f35b61007e6100d4565b60405161008b9190610322565b60405180910390f35b6100ae60048036038101906100a99190610261565b610220565b005b600081815481106100c057600080fd5b906000526020600020016000915090505481565b60606000805b600080549050811015610130576005600082815481106100fd576100fc61041a565b5b9060005260206000200154101561011d578180610119906103a2565b9250505b8080610128906103a2565b9150506100da565b5060008167ffffffffffffffff81111561014d5761014c610449565b5b60405190808252806020026020018201604052801561017b5781602001602082028036833780820191505090505b5090506000805b600080549050811015610216576005600082815481106101a5576101a461041a565b5b9060005260206000200154101561020357600081815481106101ca576101c961041a565b5b90600052602060002001548383815181106101e8576101e761041a565b5b60200260200101818152505081806101ff906103a2565b9250505b808061020e906103a2565b915050610182565b5081935050505090565b600081908060018154018082558091505060019003906000526020600020016000909190919091505550565b60008135905061025b8161047d565b92915050565b60006020828403121561027757610276610478565b5b60006102858482850161024c565b91505092915050565b600061029a8383610304565b60208301905092915050565b60006102b18261036f565b6102bb8185610387565b93506102c68361035f565b8060005b838110156102f75781516102de888261028e565b97506102e98361037a565b9250506001810190506102ca565b5085935050505092915050565b61030d81610398565b82525050565b61031c81610398565b82525050565b6000602082019050818103600083015261033c81846102a6565b905092915050565b60006020820190506103596000830184610313565b92915050565b6000819050602082019050919050565b600081519050919050565b6000602082019050919050565b600082825260208201905092915050565b6000819050919050565b60006103ad82610398565b91507fffffffffffffffffffffffffffffffffffffffffffffffffffffffffffffffff8214156103e0576103df6103eb565b5b600182019050919050565b7f4e487b7100000000000000000000000000000000000000000000000000000000600052601160045260246000fd5b7f4e487b7100000000000000000000000000000000000000000000000000000000600052603260045260246000fd5b7f4e487b7100000000000000000000000000000000000000000000000000000000600052604160045260246000fd5b600080fd5b61048681610398565b811461049157600080fd5b5056fea264697066735822122073668976f4d1cc3a0953e983bc40957a1d1a85ddcf8ef06719f71e8e2b79ca0e64736f6c63430008070033",
					"opcodes": "PUSH1 0x80 PUSH1 0x40 MSTORE CALLVALUE DUP1 ISZERO PUSH2 0x10 JUMPI PUSH1 0x0 DUP1 REVERT JUMPDEST POP PUSH2 0x4CA DUP1 PUSH2 0x20 PUSH1 0x0 CODECOPY PUSH1 0x0 RETURN INVALID PUSH1 0x80 PUSH1 0x40 MSTORE CALLVALUE DUP1 ISZERO PUSH2 0x10 JUMPI PUSH1 0x0 DUP1 REVERT JUMPDEST POP PUSH1 0x4 CALLDATASIZE LT PUSH2 0x41 JUMPI PUSH1 0x0 CALLDATALOAD PUSH1 0xE0 SHR DUP1 PUSH4 0xD39FA233 EQ PUSH2 0x46 JUMPI DUP1 PUSH4 0xF4F98A2F EQ PUSH2 0x76 JUMPI DUP1 PUSH4 0xFCE68023 EQ PUSH2 0x94 JUMPI JUMPDEST PUSH1 0x0 DUP1 REVERT JUMPDEST PUSH2 0x60 PUSH1 0x4 DUP1 CALLDATASIZE SUB DUP2 ADD SWAP1 PUSH2 0x5B SWAP2 SWAP1 PUSH2 0x261 JUMP JUMPDEST PUSH2 0xB0 JUMP JUMPDEST PUSH1 0x40 MLOAD PUSH2 0x6D SWAP2 SWAP1 PUSH2 0x344 JUMP JUMPDEST PUSH1 0x40 MLOAD DUP1 SWAP2 SUB SWAP1 RETURN JUMPDEST PUSH2 0x7E PUSH2 0xD4 JUMP JUMPDEST PUSH1 0x40 MLOAD PUSH2 0x8B SWAP2 SWAP1 PUSH2 0x322 JUMP JUMPDEST PUSH1 0x40 MLOAD DUP1 SWAP2 SUB SWAP1 RETURN JUMPDEST PUSH2 0xAE PUSH1 0x4 DUP1 CALLDATASIZE SUB DUP2 ADD SWAP1 PUSH2 0xA9 SWAP2 SWAP1 PUSH2 0x261 JUMP JUMPDEST PUSH2 0x220 JUMP JUMPDEST STOP JUMPDEST PUSH1 0x0 DUP2 DUP2 SLOAD DUP2 LT PUSH2 0xC0 JUMPI PUSH1 0x0 DUP1 REVERT JUMPDEST SWAP1 PUSH1 0x0 MSTORE PUSH1 0x20 PUSH1 0x0 KECCAK256 ADD PUSH1 0x0 SWAP2 POP SWAP1 POP SLOAD DUP2 JUMP JUMPDEST PUSH1 0x60 PUSH1 0x0 DUP1 JUMPDEST PUSH1 0x0 DUP1 SLOAD SWAP1 POP DUP2 LT ISZERO PUSH2 0x130 JUMPI PUSH1 0x5 PUSH1 0x0 DUP3 DUP2 SLOAD DUP2 LT PUSH2 0xFD JUMPI PUSH2 0xFC PUSH2 0x41A JUMP JUMPDEST JUMPDEST SWAP1 PUSH1 0x0 MSTORE PUSH1 0x20 PUSH1 0x0 KECCAK256 ADD SLOAD LT ISZERO PUSH2 0x11D JUMPI DUP2 DUP1 PUSH2 0x119 SWAP1 PUSH2 0x3A2 JUMP JUMPDEST SWAP3 POP POP JUMPDEST DUP1 DUP1 PUSH2 0x128 SWAP1 PUSH2 0x3A2 JUMP JUMPDEST SWAP2 POP POP PUSH2 0xDA JUMP JUMPDEST POP PUSH1 0x0 DUP2 PUSH8 0xFFFFFFFFFFFFFFFF DUP2 GT ISZERO PUSH2 0x14D JUMPI PUSH2 0x14C PUSH2 0x449 JUMP JUMPDEST JUMPDEST PUSH1 0x40 MLOAD SWAP1 DUP1 DUP3 MSTORE DUP1 PUSH1 0x20 MUL PUSH1 0x20 ADD DUP3 ADD PUSH1 0x40 MSTORE DUP1 ISZERO PUSH2 0x17B JUMPI DUP2 PUSH1 0x20 ADD PUSH1 0x20 DUP3 MUL DUP1 CALLDATASIZE DUP4 CALLDATACOPY DUP1 DUP3 ADD SWAP2 POP POP SWAP1 POP JUMPDEST POP SWAP1 POP PUSH1 0x0 DUP1 JUMPDEST PUSH1 0x0 DUP1 SLOAD SWAP1 POP DUP2 LT ISZERO PUSH2 0x216 JUMPI PUSH1 0x5 PUSH1 0x0 DUP3 DUP2 SLOAD DUP2 LT PUSH2 0x1A5 JUMPI PUSH2 0x1A4 PUSH2 0x41A JUMP JUMPDEST JUMPDEST SWAP1 PUSH1 0x0 MSTORE PUSH1 0x20 PUSH1 0x0 KECCAK256 ADD SLOAD LT ISZERO PUSH2 0x203 JUMPI PUSH1 0x0 DUP2 DUP2 SLOAD DUP2 LT PUSH2 0x1CA JUMPI PUSH2 0x1C9 PUSH2 0x41A JUMP JUMPDEST JUMPDEST SWAP1 PUSH1 0x0 MSTORE PUSH1 0x20 PUSH1 0x0 KECCAK256 ADD SLOAD DUP4 DUP4 DUP2 MLOAD DUP2 LT PUSH2 0x1E8 JUMPI PUSH2 0x1E7 PUSH2 0x41A JUMP JUMPDEST JUMPDEST PUSH1 0x20 MUL PUSH1 0x20 ADD ADD DUP2 DUP2 MSTORE POP POP DUP2 DUP1 PUSH2 0x1FF SWAP1 PUSH2 0x3A2 JUMP JUMPDEST SWAP3 POP POP JUMPDEST DUP1 DUP1 PUSH2 0x20E SWAP1 PUSH2 0x3A2 JUMP JUMPDEST SWAP2 POP POP PUSH2 0x182 JUMP JUMPDEST POP DUP2 SWAP4 POP POP POP POP SWAP1 JUMP JUMPDEST PUSH1 0x0 DUP2 SWAP1 DUP1 PUSH1 0x1 DUP2 SLOAD ADD DUP1 DUP3 SSTORE DUP1 SWAP2 POP POP PUSH1 0x1 SWAP1 SUB SWAP1 PUSH1 0x0 MSTORE PUSH1 0x20 PUSH1 0x0 KECCAK256 ADD PUSH1 0x0 SWAP1 SWAP2 SWAP1 SWAP2 SWAP1 SWAP2 POP SSTORE POP JUMP JUMPDEST PUSH1 0x0 DUP2 CALLDATALOAD SWAP1 POP PUSH2 0x25B DUP2 PUSH2 0x47D JUMP JUMPDEST SWAP3 SWAP2 POP POP JUMP JUMPDEST PUSH1 0x0 PUSH1 0x20 DUP3 DUP5 SUB SLT ISZERO PUSH2 0x277 JUMPI PUSH2 0x276 PUSH2 0x478 JUMP JUMPDEST JUMPDEST PUSH1 0x0 PUSH2 0x285 DUP5 DUP3 DUP6 ADD PUSH2 0x24C JUMP JUMPDEST SWAP2 POP POP SWAP3 SWAP2 POP POP JUMP JUMPDEST PUSH1 0x0 PUSH2 0x29A DUP4 DUP4 PUSH2 0x304 JUMP JUMPDEST PUSH1 0x20 DUP4 ADD SWAP1 POP SWAP3 SWAP2 POP POP JUMP JUMPDEST PUSH1 0x0 PUSH2 0x2B1 DUP3 PUSH2 0x36F JUMP JUMPDEST PUSH2 0x2BB DUP2 DUP6 PUSH2 0x387 JUMP JUMPDEST SWAP4 POP PUSH2 0x2C6 DUP4 PUSH2 0x35F JUMP JUMPDEST DUP1 PUSH1 0x0 JUMPDEST DUP4 DUP2 LT ISZERO PUSH2 0x2F7 JUMPI DUP2 MLOAD PUSH2 0x2DE DUP9 DUP3 PUSH2 0x28E JUMP JUMPDEST SWAP8 POP PUSH2 0x2E9 DUP4 PUSH2 0x37A JUMP JUMPDEST SWAP3 POP POP PUSH1 0x1 DUP2 ADD SWAP1 POP PUSH2 0x2CA JUMP JUMPDEST POP DUP6 SWAP4 POP POP POP POP SWAP3 SWAP2 POP POP JUMP JUMPDEST PUSH2 0x30D DUP2 PUSH2 0x398 JUMP JUMPDEST DUP3 MSTORE POP POP JUMP JUMPDEST PUSH2 0x31C DUP2 PUSH2 0x398 JUMP JUMPDEST DUP3 MSTORE POP POP JUMP JUMPDEST PUSH1 0x0 PUSH1 0x20 DUP3 ADD SWAP1 POP DUP2 DUP2 SUB PUSH1 0x0 DUP4 ADD MSTORE PUSH2 0x33C DUP2 DUP5 PUSH2 0x2A6 JUMP JUMPDEST SWAP1 POP SWAP3 SWAP2 POP POP JUMP JUMPDEST PUSH1 0x0 PUSH1 0x20 DUP3 ADD SWAP1 POP PUSH2 0x359 PUSH1 0x0 DUP4 ADD DUP5 PUSH2 0x313 JUMP JUMPDEST SWAP3 SWAP2 POP POP JUMP JUMPDEST PUSH1 0x0 DUP2 SWAP1 POP PUSH1 0x20 DUP3 ADD SWAP1 POP SWAP2 SWAP1 POP JUMP JUMPDEST PUSH1 0x0 DUP2 MLOAD SWAP1 POP SWAP2 SWAP1 POP JUMP JUMPDEST PUSH1 0x0 PUSH1 0x20 DUP3 ADD SWAP1 POP SWAP2 SWAP1 POP JUMP JUMPDEST PUSH1 0x0 DUP3 DUP3 MSTORE PUSH1 0x20 DUP3 ADD SWAP1 POP SWAP3 SWAP2 POP POP JUMP JUMPDEST PUSH1 0x0 DUP2 SWAP1 POP SWAP2 SWAP1 POP JUMP JUMPDEST PUSH1 0x0 PUSH2 0x3AD DUP3 PUSH2 0x398 JUMP JUMPDEST SWAP2 POP PUSH32 0xFFFFFFFFFFFFFFFFFFFFFFFFFFFFFFFFFFFFFFFFFFFFFFFFFFFFFFFFFFFFFFFF DUP3 EQ ISZERO PUSH2 0x3E0 JUMPI PUSH2 0x3DF PUSH2 0x3EB JUMP JUMPDEST JUMPDEST PUSH1 0x1 DUP3 ADD SWAP1 POP SWAP2 SWAP1 POP JUMP JUMPDEST PUSH32 0x4E487B7100000000000000000000000000000000000000000000000000000000 PUSH1 0x0 MSTORE PUSH1 0x11 PUSH1 0x4 MSTORE PUSH1 0x24 PUSH1 0x0 REVERT JUMPDEST PUSH32 0x4E487B7100000000000000000000000000000000000000000000000000000000 PUSH1 0x0 MSTORE PUSH1 0x32 PUSH1 0x4 MSTORE PUSH1 0x24 PUSH1 0x0 REVERT JUMPDEST PUSH32 0x4E487B7100000000000000000000000000000000000000000000000000000000 PUSH1 0x0 MSTORE PUSH1 0x41 PUSH1 0x4 MSTORE PUSH1 0x24 PUSH1 0x0 REVERT JUMPDEST PUSH1 0x0 DUP1 REVERT JUMPDEST PUSH2 0x486 DUP2 PUSH2 0x398 JUMP JUMPDEST DUP2 EQ PUSH2 0x491 JUMPI PUSH1 0x0 DUP1 REVERT JUMPDEST POP JUMP INVALID LOG2 PUSH5 0x6970667358 0x22 SLT KECCAK256 PUSH20 0x668976F4D1CC3A0953E983BC40957A1D1A85DDCF DUP15 CREATE PUSH8 0x19F71E8E2B79CA0E PUSH5 0x736F6C6343 STOP ADDMOD SMOD STOP CALLER "
				},
				"gasEstimates": {
					"creation": {
						"codeDepositCost": "245200",
						"executionCost": "287",
						"totalCost": "245487"
					},
					"external": {
						"addNumber(uint256)": "46851",
						"findGreaterThan()": "infinite",
						"numbers(uint256)": "infinite"
					}
				},
				"methodIdentifiers": {
					"addNumber(uint256)": "fce68023",
					"findGreaterThan()": "f4f98a2f",
					"numbers(uint256)": "d39fa233"
				}
			},
			"storageLayout": {
				"storage": [
					{
						"astId": 4,
						"contract": "Comparison Optimizer/test3.sol:GreaterThan",
						"label": "numbers",
						"offset": 0,
						"slot": "0",
						"type": "t_array(t_uint256)dyn_storage"
					}
				],
				"types": {
					"t_array(t_uint256)dyn_storage": {
						"base": "t_uint256",
						"encoding": "dynamic_array",
						"label": "uint256[]",
						"numberOfBytes": "32"
					},
					"t_uint256": {
						"encoding": "inplace",
						"label": "uint256",
						"numberOfBytes": "32"
					}
				}
			},
			"userdoc": {
				"kind": "user",
				"methods": {},
				"version": 1
			}
		}
	}
}