{
	"Comparison Optimizer/test5.sol": {
		"ComplexExample": {
			"abi": [
				{
					"inputs": [
						{
							"internalType": "string",
							"name": "_name",
							"type": "string"
						},
						{
							"internalType": "uint256",
							"name": "_age",
							"type": "uint256"
						}
					],
					"name": "addPerson",
					"outputs": [],
					"stateMutability": "nonpayable",
					"type": "function"
				},
				{
					"inputs": [
						{
							"internalType": "uint256",
							"name": "_age",
							"type": "uint256"
						}
					],
					"name": "getPeopleOverAge",
					"outputs": [
						{
							"internalType": "uint256[]",
							"name": "",
							"type": "uint256[]"
						}
					],
					"stateMutability": "view",
					"type": "function"
				},
				{
					"inputs": [
						{
							"internalType": "uint256",
							"name": "",
							"type": "uint256"
						}
					],
					"name": "people",
					"outputs": [
						{
							"internalType": "uint256",
							"name": "id",
							"type": "uint256"
						},
						{
							"internalType": "string",
							"name": "name",
							"type": "string"
						},
						{
							"internalType": "uint256",
							"name": "age",
							"type": "uint256"
						}
					],
					"stateMutability": "view",
					"type": "function"
				},
				{
					"inputs": [],
					"name": "peopleCount",
					"outputs": [
						{
							"internalType": "uint256",
							"name": "",
							"type": "uint256"
						}
					],
					"stateMutability": "view",
					"type": "function"
				}
			],
			"devdoc": {
				"kind": "dev",
				"methods": {},
				"version": 1
			},
			"evm": {
				"assembly": "    /* \"Comparison Optimizer/test5.sol\":58:1004  contract ComplexExample {... */\n  mstore(0x40, 0x80)\n  callvalue\n  dup1\n  iszero\n  tag_1\n  jumpi\n  0x00\n  dup1\n  revert\ntag_1:\n  pop\n  dataSize(sub_0)\n  dup1\n  dataOffset(sub_0)\n  0x00\n  codecopy\n  0x00\n  return\nstop\n\nsub_0: assembly {\n        /* \"Comparison Optimizer/test5.sol\":58:1004  contract ComplexExample {... */\n      mstore(0x40, 0x80)\n      callvalue\n      dup1\n      iszero\n      tag_1\n      jumpi\n      0x00\n      dup1\n      revert\n    tag_1:\n      pop\n      jumpi(tag_2, lt(calldatasize, 0x04))\n      shr(0xe0, calldataload(0x00))\n      dup1\n      0x267c68e0\n      eq\n      tag_3\n      jumpi\n      dup1\n      0x6f760f41\n      eq\n      tag_4\n      jumpi\n      dup1\n      0x9e7a13ad\n      eq\n      tag_5\n      jumpi\n      dup1\n      0xc9de7989\n      eq\n      tag_6\n      jumpi\n    tag_2:\n      0x00\n      dup1\n      revert\n        /* \"Comparison Optimizer/test5.sol\":223:246  uint public peopleCount */\n    tag_3:\n      tag_7\n      tag_8\n      jump\t// in\n    tag_7:\n      mload(0x40)\n      tag_9\n      swap2\n      swap1\n      tag_10\n      jump\t// in\n    tag_9:\n      mload(0x40)\n      dup1\n      swap2\n      sub\n      swap1\n      return\n        /* \"Comparison Optimizer/test5.sol\":257:467  function addPerson(string memory _name, uint _age) public {... */\n    tag_4:\n      tag_11\n      0x04\n      dup1\n      calldatasize\n      sub\n      dup2\n      add\n      swap1\n      tag_12\n      swap2\n      swap1\n      tag_13\n      jump\t// in\n    tag_12:\n      tag_14\n      jump\t// in\n    tag_11:\n      stop\n        /* \"Comparison Optimizer/test5.sol\":180:217  mapping(uint => Person) public people */\n    tag_5:\n      tag_15\n      0x04\n      dup1\n      calldatasize\n      sub\n      dup2\n      add\n      swap1\n      tag_16\n      swap2\n      swap1\n      tag_17\n      jump\t// in\n    tag_16:\n      tag_18\n      jump\t// in\n    tag_15:\n      mload(0x40)\n      tag_19\n      swap4\n      swap3\n      swap2\n      swap1\n      tag_20\n      jump\t// in\n    tag_19:\n      mload(0x40)\n      dup1\n      swap2\n      sub\n      swap1\n      return\n        /* \"Comparison Optimizer/test5.sol\":477:1002  function getPeopleOverAge(uint _age) public view returns (uint[] memory) {... */\n    tag_6:\n      tag_21\n      0x04\n      dup1\n      calldatasize\n      sub\n      dup2\n      add\n      swap1\n      tag_22\n      swap2\n      swap1\n      tag_17\n      jump\t// in\n    tag_22:\n      tag_23\n      jump\t// in\n    tag_21:\n      mload(0x40)\n      tag_24\n      swap2\n      swap1\n      tag_25\n      jump\t// in\n    tag_24:\n      mload(0x40)\n      dup1\n      swap2\n      sub\n      swap1\n      return\n        /* \"Comparison Optimizer/test5.sol\":223:246  uint public peopleCount */\n    tag_8:\n      sload(0x01)\n      dup2\n      jump\t// out\n        /* \"Comparison Optimizer/test5.sol\":257:467  function addPerson(string memory _name, uint _age) public {... */\n    tag_14:\n        /* \"Comparison Optimizer/test5.sol\":340:342  18 */\n      0x12\n        /* \"Comparison Optimizer/test5.sol\":333:337  _age */\n      dup2\n        /* \"Comparison Optimizer/test5.sol\":333:342  _age > 18 */\n      gt\n        /* \"Comparison Optimizer/test5.sol\":325:373  require(_age > 18, \"Must be over 18 years old.\") */\n      tag_27\n      jumpi\n      mload(0x40)\n      0x08c379a000000000000000000000000000000000000000000000000000000000\n      dup2\n      mstore\n      0x04\n      add\n      tag_28\n      swap1\n      tag_29\n      jump\t// in\n    tag_28:\n      mload(0x40)\n      dup1\n      swap2\n      sub\n      swap1\n      revert\n    tag_27:\n        /* \"Comparison Optimizer/test5.sol\":383:394  peopleCount */\n      0x01\n      0x00\n        /* \"Comparison Optimizer/test5.sol\":383:396  peopleCount++ */\n      dup2\n      sload\n      dup1\n      swap3\n      swap2\n      swap1\n      tag_30\n      swap1\n      tag_31\n      jump\t// in\n    tag_30:\n      swap2\n      swap1\n      pop\n      sstore\n      pop\n        /* \"Comparison Optimizer/test5.sol\":428:460  Person(peopleCount, _name, _age) */\n      mload(0x40)\n      dup1\n      0x60\n      add\n      0x40\n      mstore\n      dup1\n        /* \"Comparison Optimizer/test5.sol\":435:446  peopleCount */\n      sload(0x01)\n        /* \"Comparison Optimizer/test5.sol\":428:460  Person(peopleCount, _name, _age) */\n      dup2\n      mstore\n      0x20\n      add\n        /* \"Comparison Optimizer/test5.sol\":448:453  _name */\n      dup4\n        /* \"Comparison Optimizer/test5.sol\":428:460  Person(peopleCount, _name, _age) */\n      dup2\n      mstore\n      0x20\n      add\n        /* \"Comparison Optimizer/test5.sol\":455:459  _age */\n      dup3\n        /* \"Comparison Optimizer/test5.sol\":428:460  Person(peopleCount, _name, _age) */\n      dup2\n      mstore\n      pop\n        /* \"Comparison Optimizer/test5.sol\":406:412  people */\n      0x00\n        /* \"Comparison Optimizer/test5.sol\":406:425  people[peopleCount] */\n      dup1\n        /* \"Comparison Optimizer/test5.sol\":413:424  peopleCount */\n      sload(0x01)\n        /* \"Comparison Optimizer/test5.sol\":406:425  people[peopleCount] */\n      dup2\n      mstore\n      0x20\n      add\n      swap1\n      dup2\n      mstore\n      0x20\n      add\n      0x00\n      keccak256\n        /* \"Comparison Optimizer/test5.sol\":406:460  people[peopleCount] = Person(peopleCount, _name, _age) */\n      0x00\n      dup3\n      add\n      mload\n      dup2\n      0x00\n      add\n      sstore\n      0x20\n      dup3\n      add\n      mload\n      dup2\n      0x01\n      add\n      swap1\n      dup1\n      mload\n      swap1\n      0x20\n      add\n      swap1\n      tag_32\n      swap3\n      swap2\n      swap1\n      tag_33\n      jump\t// in\n    tag_32:\n      pop\n      0x40\n      dup3\n      add\n      mload\n      dup2\n      0x02\n      add\n      sstore\n      swap1\n      pop\n      pop\n        /* \"Comparison Optimizer/test5.sol\":257:467  function addPerson(string memory _name, uint _age) public {... */\n      pop\n      pop\n      jump\t// out\n        /* \"Comparison Optimizer/test5.sol\":180:217  mapping(uint => Person) public people */\n    tag_18:\n      mstore(0x20, 0x00)\n      dup1\n      0x00\n      mstore\n      keccak256(0x00, 0x40)\n      0x00\n      swap2\n      pop\n      swap1\n      pop\n      dup1\n      0x00\n      add\n      sload\n      swap1\n      dup1\n      0x01\n      add\n      dup1\n      sload\n      tag_34\n      swap1\n      tag_35\n      jump\t// in\n    tag_34:\n      dup1\n      0x1f\n      add\n      0x20\n      dup1\n      swap2\n      div\n      mul\n      0x20\n      add\n      mload(0x40)\n      swap1\n      dup2\n      add\n      0x40\n      mstore\n      dup1\n      swap3\n      swap2\n      swap1\n      dup2\n      dup2\n      mstore\n      0x20\n      add\n      dup3\n      dup1\n      sload\n      tag_36\n      swap1\n      tag_35\n      jump\t// in\n    tag_36:\n      dup1\n      iszero\n      tag_37\n      jumpi\n      dup1\n      0x1f\n      lt\n      tag_38\n      jumpi\n      0x0100\n      dup1\n      dup4\n      sload\n      div\n      mul\n      dup4\n      mstore\n      swap2\n      0x20\n      add\n      swap2\n      jump(tag_37)\n    tag_38:\n      dup3\n      add\n      swap2\n      swap1\n      0x00\n      mstore\n      keccak256(0x00, 0x20)\n      swap1\n    tag_39:\n      dup2\n      sload\n      dup2\n      mstore\n      swap1\n      0x01\n      add\n      swap1\n      0x20\n      add\n      dup1\n      dup4\n      gt\n      tag_39\n      jumpi\n      dup3\n      swap1\n      sub\n      0x1f\n      and\n      dup3\n      add\n      swap2\n    tag_37:\n      pop\n      pop\n      pop\n      pop\n      pop\n      swap1\n      dup1\n      0x02\n      add\n      sload\n      swap1\n      pop\n      dup4\n      jump\t// out\n        /* \"Comparison Optimizer/test5.sol\":477:1002  function getPeopleOverAge(uint _age) public view returns (uint[] memory) {... */\n    tag_23:\n        /* \"Comparison Optimizer/test5.sol\":535:548  uint[] memory */\n      0x60\n        /* \"Comparison Optimizer/test5.sol\":560:570  uint count */\n      0x00\n        /* \"Comparison Optimizer/test5.sol\":589:595  uint i */\n      dup1\n        /* \"Comparison Optimizer/test5.sol\":598:599  1 */\n      0x01\n        /* \"Comparison Optimizer/test5.sol\":589:599  uint i = 1 */\n      swap1\n      pop\n        /* \"Comparison Optimizer/test5.sol\":584:714  for (uint i = 1; i <= peopleCount; i++) {... */\n    tag_41:\n        /* \"Comparison Optimizer/test5.sol\":606:617  peopleCount */\n      sload(0x01)\n        /* \"Comparison Optimizer/test5.sol\":601:602  i */\n      dup2\n        /* \"Comparison Optimizer/test5.sol\":601:617  i <= peopleCount */\n      gt\n        /* \"Comparison Optimizer/test5.sol\":584:714  for (uint i = 1; i <= peopleCount; i++) {... */\n      tag_42\n      jumpi\n        /* \"Comparison Optimizer/test5.sol\":658:662  _age */\n      dup4\n        /* \"Comparison Optimizer/test5.sol\":642:648  people */\n      0x00\n        /* \"Comparison Optimizer/test5.sol\":642:651  people[i] */\n      dup1\n        /* \"Comparison Optimizer/test5.sol\":649:650  i */\n      dup4\n        /* \"Comparison Optimizer/test5.sol\":642:651  people[i] */\n      dup2\n      mstore\n      0x20\n      add\n      swap1\n      dup2\n      mstore\n      0x20\n      add\n      0x00\n      keccak256\n        /* \"Comparison Optimizer/test5.sol\":642:655  people[i].age */\n      0x02\n      add\n      sload\n        /* \"Comparison Optimizer/test5.sol\":642:662  people[i].age > _age */\n      gt\n        /* \"Comparison Optimizer/test5.sol\":638:704  if (people[i].age > _age) {... */\n      iszero\n      tag_44\n      jumpi\n        /* \"Comparison Optimizer/test5.sol\":682:689  count++ */\n      dup2\n      dup1\n      tag_45\n      swap1\n      tag_31\n      jump\t// in\n    tag_45:\n      swap3\n      pop\n      pop\n        /* \"Comparison Optimizer/test5.sol\":638:704  if (people[i].age > _age) {... */\n    tag_44:\n        /* \"Comparison Optimizer/test5.sol\":619:622  i++ */\n      dup1\n      dup1\n      tag_46\n      swap1\n      tag_31\n      jump\t// in\n    tag_46:\n      swap2\n      pop\n      pop\n        /* \"Comparison Optimizer/test5.sol\":584:714  for (uint i = 1; i <= peopleCount; i++) {... */\n      jump(tag_41)\n    tag_42:\n      pop\n        /* \"Comparison Optimizer/test5.sol\":723:743  uint[] memory result */\n      0x00\n        /* \"Comparison Optimizer/test5.sol\":757:762  count */\n      dup2\n        /* \"Comparison Optimizer/test5.sol\":746:763  new uint[](count) */\n      0xffffffffffffffff\n      dup2\n      gt\n      iszero\n      tag_47\n      jumpi\n      mstore(0x00, 0x4e487b7100000000000000000000000000000000000000000000000000000000)\n      mstore(0x04, 0x41)\n      revert(0x00, 0x24)\n    tag_47:\n      mload(0x40)\n      swap1\n      dup1\n      dup3\n      mstore\n      dup1\n      0x20\n      mul\n      0x20\n      add\n      dup3\n      add\n      0x40\n      mstore\n      dup1\n      iszero\n      tag_48\n      jumpi\n      dup2\n      0x20\n      add\n      0x20\n      dup3\n      mul\n      dup1\n      calldatasize\n      dup4\n      calldatacopy\n      dup1\n      dup3\n      add\n      swap2\n      pop\n      pop\n      swap1\n      pop\n    tag_48:\n      pop\n        /* \"Comparison Optimizer/test5.sol\":723:763  uint[] memory result = new uint[](count) */\n      swap1\n      pop\n        /* \"Comparison Optimizer/test5.sol\":773:783  uint index */\n      0x00\n        /* \"Comparison Optimizer/test5.sol\":802:808  uint i */\n      dup1\n        /* \"Comparison Optimizer/test5.sol\":811:812  1 */\n      0x01\n        /* \"Comparison Optimizer/test5.sol\":802:812  uint i = 1 */\n      swap1\n      pop\n        /* \"Comparison Optimizer/test5.sol\":797:973  for (uint i = 1; i <= peopleCount; i++) {... */\n    tag_49:\n        /* \"Comparison Optimizer/test5.sol\":819:830  peopleCount */\n      sload(0x01)\n        /* \"Comparison Optimizer/test5.sol\":814:815  i */\n      dup2\n        /* \"Comparison Optimizer/test5.sol\":814:830  i <= peopleCount */\n      gt\n        /* \"Comparison Optimizer/test5.sol\":797:973  for (uint i = 1; i <= peopleCount; i++) {... */\n      tag_50\n      jumpi\n        /* \"Comparison Optimizer/test5.sol\":871:875  _age */\n      dup6\n        /* \"Comparison Optimizer/test5.sol\":855:861  people */\n      0x00\n        /* \"Comparison Optimizer/test5.sol\":855:864  people[i] */\n      dup1\n        /* \"Comparison Optimizer/test5.sol\":862:863  i */\n      dup4\n        /* \"Comparison Optimizer/test5.sol\":855:864  people[i] */\n      dup2\n      mstore\n      0x20\n      add\n      swap1\n      dup2\n      mstore\n      0x20\n      add\n      0x00\n      keccak256\n        /* \"Comparison Optimizer/test5.sol\":855:868  people[i].age */\n      0x02\n      add\n      sload\n        /* \"Comparison Optimizer/test5.sol\":855:875  people[i].age > _age */\n      gt\n        /* \"Comparison Optimizer/test5.sol\":851:963  if (people[i].age > _age) {... */\n      iszero\n      tag_52\n      jumpi\n        /* \"Comparison Optimizer/test5.sol\":911:917  people */\n      0x00\n        /* \"Comparison Optimizer/test5.sol\":911:920  people[i] */\n      dup1\n        /* \"Comparison Optimizer/test5.sol\":918:919  i */\n      dup3\n        /* \"Comparison Optimizer/test5.sol\":911:920  people[i] */\n      dup2\n      mstore\n      0x20\n      add\n      swap1\n      dup2\n      mstore\n      0x20\n      add\n      0x00\n      keccak256\n        /* \"Comparison Optimizer/test5.sol\":911:923  people[i].id */\n      0x00\n      add\n      sload\n        /* \"Comparison Optimizer/test5.sol\":895:901  result */\n      dup4\n        /* \"Comparison Optimizer/test5.sol\":902:907  index */\n      dup4\n        /* \"Comparison Optimizer/test5.sol\":895:908  result[index] */\n      dup2\n      mload\n      dup2\n      lt\n      tag_53\n      jumpi\n      mstore(0x00, 0x4e487b7100000000000000000000000000000000000000000000000000000000)\n      mstore(0x04, 0x32)\n      revert(0x00, 0x24)\n    tag_53:\n      0x20\n      mul\n      0x20\n      add\n      add\n        /* \"Comparison Optimizer/test5.sol\":895:923  result[index] = people[i].id */\n      dup2\n      dup2\n      mstore\n      pop\n      pop\n        /* \"Comparison Optimizer/test5.sol\":941:948  index++ */\n      dup2\n      dup1\n      tag_54\n      swap1\n      tag_31\n      jump\t// in\n    tag_54:\n      swap3\n      pop\n      pop\n        /* \"Comparison Optimizer/test5.sol\":851:963  if (people[i].age > _age) {... */\n    tag_52:\n        /* \"Comparison Optimizer/test5.sol\":832:835  i++ */\n      dup1\n      dup1\n      tag_55\n      swap1\n      tag_31\n      jump\t// in\n    tag_55:\n      swap2\n      pop\n      pop\n        /* \"Comparison Optimizer/test5.sol\":797:973  for (uint i = 1; i <= peopleCount; i++) {... */\n      jump(tag_49)\n    tag_50:\n      pop\n        /* \"Comparison Optimizer/test5.sol\":989:995  result */\n      dup2\n        /* \"Comparison Optimizer/test5.sol\":982:995  return result */\n      swap4\n      pop\n      pop\n      pop\n      pop\n        /* \"Comparison Optimizer/test5.sol\":477:1002  function getPeopleOverAge(uint _age) public view returns (uint[] memory) {... */\n      swap2\n      swap1\n      pop\n      jump\t// out\n    tag_33:\n      dup3\n      dup1\n      sload\n      tag_56\n      swap1\n      tag_35\n      jump\t// in\n    tag_56:\n      swap1\n      0x00\n      mstore\n      keccak256(0x00, 0x20)\n      swap1\n      0x1f\n      add\n      0x20\n      swap1\n      div\n      dup2\n      add\n      swap3\n      dup3\n      tag_58\n      jumpi\n      0x00\n      dup6\n      sstore\n      jump(tag_57)\n    tag_58:\n      dup3\n      0x1f\n      lt\n      tag_59\n      jumpi\n      dup1\n      mload\n      not(0xff)\n      and\n      dup4\n      dup1\n      add\n      or\n      dup6\n      sstore\n      jump(tag_57)\n    tag_59:\n      dup3\n      dup1\n      add\n      0x01\n      add\n      dup6\n      sstore\n      dup3\n      iszero\n      tag_57\n      jumpi\n      swap2\n      dup3\n      add\n    tag_60:\n      dup3\n      dup2\n      gt\n      iszero\n      tag_61\n      jumpi\n      dup3\n      mload\n      dup3\n      sstore\n      swap2\n      0x20\n      add\n      swap2\n      swap1\n      0x01\n      add\n      swap1\n      jump(tag_60)\n    tag_61:\n    tag_57:\n      pop\n      swap1\n      pop\n      tag_62\n      swap2\n      swap1\n      tag_63\n      jump\t// in\n    tag_62:\n      pop\n      swap1\n      jump\t// out\n    tag_63:\n    tag_64:\n      dup1\n      dup3\n      gt\n      iszero\n      tag_65\n      jumpi\n      0x00\n      dup2\n      0x00\n      swap1\n      sstore\n      pop\n      0x01\n      add\n      jump(tag_64)\n    tag_65:\n      pop\n      swap1\n      jump\t// out\n        /* \"#utility.yul\":7:352   */\n    tag_67:\n        /* \"#utility.yul\":85:90   */\n      0x00\n        /* \"#utility.yul\":110:176   */\n      tag_69\n        /* \"#utility.yul\":126:175   */\n      tag_70\n        /* \"#utility.yul\":168:174   */\n      dup5\n        /* \"#utility.yul\":126:175   */\n      tag_71\n      jump\t// in\n    tag_70:\n        /* \"#utility.yul\":110:176   */\n      tag_72\n      jump\t// in\n    tag_69:\n        /* \"#utility.yul\":101:176   */\n      swap1\n      pop\n        /* \"#utility.yul\":199:205   */\n      dup3\n        /* \"#utility.yul\":192:197   */\n      dup2\n        /* \"#utility.yul\":185:206   */\n      mstore\n        /* \"#utility.yul\":237:241   */\n      0x20\n        /* \"#utility.yul\":230:235   */\n      dup2\n        /* \"#utility.yul\":226:242   */\n      add\n        /* \"#utility.yul\":275:278   */\n      dup5\n        /* \"#utility.yul\":266:272   */\n      dup5\n        /* \"#utility.yul\":261:264   */\n      dup5\n        /* \"#utility.yul\":257:273   */\n      add\n        /* \"#utility.yul\":254:279   */\n      gt\n        /* \"#utility.yul\":251:253   */\n      iszero\n      tag_73\n      jumpi\n        /* \"#utility.yul\":292:293   */\n      0x00\n        /* \"#utility.yul\":289:290   */\n      dup1\n        /* \"#utility.yul\":282:294   */\n      revert\n        /* \"#utility.yul\":251:253   */\n    tag_73:\n        /* \"#utility.yul\":305:346   */\n      tag_74\n        /* \"#utility.yul\":339:345   */\n      dup5\n        /* \"#utility.yul\":334:337   */\n      dup3\n        /* \"#utility.yul\":329:332   */\n      dup6\n        /* \"#utility.yul\":305:346   */\n      tag_75\n      jump\t// in\n    tag_74:\n        /* \"#utility.yul\":91:352   */\n      pop\n      swap4\n      swap3\n      pop\n      pop\n      pop\n      jump\t// out\n        /* \"#utility.yul\":372:645   */\n    tag_76:\n        /* \"#utility.yul\":428:433   */\n      0x00\n        /* \"#utility.yul\":477:480   */\n      dup3\n        /* \"#utility.yul\":470:474   */\n      0x1f\n        /* \"#utility.yul\":462:468   */\n      dup4\n        /* \"#utility.yul\":458:475   */\n      add\n        /* \"#utility.yul\":454:481   */\n      slt\n        /* \"#utility.yul\":444:446   */\n      tag_78\n      jumpi\n        /* \"#utility.yul\":495:496   */\n      0x00\n        /* \"#utility.yul\":492:493   */\n      dup1\n        /* \"#utility.yul\":485:497   */\n      revert\n        /* \"#utility.yul\":444:446   */\n    tag_78:\n        /* \"#utility.yul\":535:541   */\n      dup2\n        /* \"#utility.yul\":522:542   */\n      calldataload\n        /* \"#utility.yul\":560:639   */\n      tag_79\n        /* \"#utility.yul\":635:638   */\n      dup5\n        /* \"#utility.yul\":627:633   */\n      dup3\n        /* \"#utility.yul\":620:624   */\n      0x20\n        /* \"#utility.yul\":612:618   */\n      dup7\n        /* \"#utility.yul\":608:625   */\n      add\n        /* \"#utility.yul\":560:639   */\n      tag_67\n      jump\t// in\n    tag_79:\n        /* \"#utility.yul\":551:639   */\n      swap2\n      pop\n        /* \"#utility.yul\":434:645   */\n      pop\n      swap3\n      swap2\n      pop\n      pop\n      jump\t// out\n        /* \"#utility.yul\":651:790   */\n    tag_80:\n        /* \"#utility.yul\":697:702   */\n      0x00\n        /* \"#utility.yul\":735:741   */\n      dup2\n        /* \"#utility.yul\":722:742   */\n      calldataload\n        /* \"#utility.yul\":713:742   */\n      swap1\n      pop\n        /* \"#utility.yul\":751:784   */\n      tag_82\n        /* \"#utility.yul\":778:783   */\n      dup2\n        /* \"#utility.yul\":751:784   */\n      tag_83\n      jump\t// in\n    tag_82:\n        /* \"#utility.yul\":703:790   */\n      swap3\n      swap2\n      pop\n      pop\n      jump\t// out\n        /* \"#utility.yul\":796:1316   */\n    tag_13:\n        /* \"#utility.yul\":874:880   */\n      0x00\n        /* \"#utility.yul\":882:888   */\n      dup1\n        /* \"#utility.yul\":931:933   */\n      0x40\n        /* \"#utility.yul\":919:928   */\n      dup4\n        /* \"#utility.yul\":910:917   */\n      dup6\n        /* \"#utility.yul\":906:929   */\n      sub\n        /* \"#utility.yul\":902:934   */\n      slt\n        /* \"#utility.yul\":899:901   */\n      iszero\n      tag_85\n      jumpi\n        /* \"#utility.yul\":947:948   */\n      0x00\n        /* \"#utility.yul\":944:945   */\n      dup1\n        /* \"#utility.yul\":937:949   */\n      revert\n        /* \"#utility.yul\":899:901   */\n    tag_85:\n        /* \"#utility.yul\":1018:1019   */\n      0x00\n        /* \"#utility.yul\":1007:1016   */\n      dup4\n        /* \"#utility.yul\":1003:1020   */\n      add\n        /* \"#utility.yul\":990:1021   */\n      calldataload\n        /* \"#utility.yul\":1048:1066   */\n      0xffffffffffffffff\n        /* \"#utility.yul\":1040:1046   */\n      dup2\n        /* \"#utility.yul\":1037:1067   */\n      gt\n        /* \"#utility.yul\":1034:1036   */\n      iszero\n      tag_86\n      jumpi\n        /* \"#utility.yul\":1080:1081   */\n      0x00\n        /* \"#utility.yul\":1077:1078   */\n      dup1\n        /* \"#utility.yul\":1070:1082   */\n      revert\n        /* \"#utility.yul\":1034:1036   */\n    tag_86:\n        /* \"#utility.yul\":1108:1171   */\n      tag_87\n        /* \"#utility.yul\":1163:1170   */\n      dup6\n        /* \"#utility.yul\":1154:1160   */\n      dup3\n        /* \"#utility.yul\":1143:1152   */\n      dup7\n        /* \"#utility.yul\":1139:1161   */\n      add\n        /* \"#utility.yul\":1108:1171   */\n      tag_76\n      jump\t// in\n    tag_87:\n        /* \"#utility.yul\":1098:1171   */\n      swap3\n      pop\n        /* \"#utility.yul\":961:1181   */\n      pop\n        /* \"#utility.yul\":1220:1222   */\n      0x20\n        /* \"#utility.yul\":1246:1299   */\n      tag_88\n        /* \"#utility.yul\":1291:1298   */\n      dup6\n        /* \"#utility.yul\":1282:1288   */\n      dup3\n        /* \"#utility.yul\":1271:1280   */\n      dup7\n        /* \"#utility.yul\":1267:1289   */\n      add\n        /* \"#utility.yul\":1246:1299   */\n      tag_80\n      jump\t// in\n    tag_88:\n        /* \"#utility.yul\":1236:1299   */\n      swap2\n      pop\n        /* \"#utility.yul\":1191:1309   */\n      pop\n        /* \"#utility.yul\":889:1316   */\n      swap3\n      pop\n      swap3\n      swap1\n      pop\n      jump\t// out\n        /* \"#utility.yul\":1322:1584   */\n    tag_17:\n        /* \"#utility.yul\":1381:1387   */\n      0x00\n        /* \"#utility.yul\":1430:1432   */\n      0x20\n        /* \"#utility.yul\":1418:1427   */\n      dup3\n        /* \"#utility.yul\":1409:1416   */\n      dup5\n        /* \"#utility.yul\":1405:1428   */\n      sub\n        /* \"#utility.yul\":1401:1433   */\n      slt\n        /* \"#utility.yul\":1398:1400   */\n      iszero\n      tag_90\n      jumpi\n        /* \"#utility.yul\":1446:1447   */\n      0x00\n        /* \"#utility.yul\":1443:1444   */\n      dup1\n        /* \"#utility.yul\":1436:1448   */\n      revert\n        /* \"#utility.yul\":1398:1400   */\n    tag_90:\n        /* \"#utility.yul\":1489:1490   */\n      0x00\n        /* \"#utility.yul\":1514:1567   */\n      tag_91\n        /* \"#utility.yul\":1559:1566   */\n      dup5\n        /* \"#utility.yul\":1550:1556   */\n      dup3\n        /* \"#utility.yul\":1539:1548   */\n      dup6\n        /* \"#utility.yul\":1535:1557   */\n      add\n        /* \"#utility.yul\":1514:1567   */\n      tag_80\n      jump\t// in\n    tag_91:\n        /* \"#utility.yul\":1504:1567   */\n      swap2\n      pop\n        /* \"#utility.yul\":1460:1577   */\n      pop\n        /* \"#utility.yul\":1388:1584   */\n      swap3\n      swap2\n      pop\n      pop\n      jump\t// out\n        /* \"#utility.yul\":1590:1769   */\n    tag_92:\n        /* \"#utility.yul\":1659:1669   */\n      0x00\n        /* \"#utility.yul\":1680:1726   */\n      tag_94\n        /* \"#utility.yul\":1722:1725   */\n      dup4\n        /* \"#utility.yul\":1714:1720   */\n      dup4\n        /* \"#utility.yul\":1680:1726   */\n      tag_95\n      jump\t// in\n    tag_94:\n        /* \"#utility.yul\":1758:1762   */\n      0x20\n        /* \"#utility.yul\":1753:1756   */\n      dup4\n        /* \"#utility.yul\":1749:1763   */\n      add\n        /* \"#utility.yul\":1735:1763   */\n      swap1\n      pop\n        /* \"#utility.yul\":1670:1769   */\n      swap3\n      swap2\n      pop\n      pop\n      jump\t// out\n        /* \"#utility.yul\":1805:2537   */\n    tag_96:\n        /* \"#utility.yul\":1924:1927   */\n      0x00\n        /* \"#utility.yul\":1953:2007   */\n      tag_98\n        /* \"#utility.yul\":2001:2006   */\n      dup3\n        /* \"#utility.yul\":1953:2007   */\n      tag_99\n      jump\t// in\n    tag_98:\n        /* \"#utility.yul\":2023:2109   */\n      tag_100\n        /* \"#utility.yul\":2102:2108   */\n      dup2\n        /* \"#utility.yul\":2097:2100   */\n      dup6\n        /* \"#utility.yul\":2023:2109   */\n      tag_101\n      jump\t// in\n    tag_100:\n        /* \"#utility.yul\":2016:2109   */\n      swap4\n      pop\n        /* \"#utility.yul\":2133:2189   */\n      tag_102\n        /* \"#utility.yul\":2183:2188   */\n      dup4\n        /* \"#utility.yul\":2133:2189   */\n      tag_103\n      jump\t// in\n    tag_102:\n        /* \"#utility.yul\":2212:2219   */\n      dup1\n        /* \"#utility.yul\":2243:2244   */\n      0x00\n        /* \"#utility.yul\":2228:2512   */\n    tag_104:\n        /* \"#utility.yul\":2253:2259   */\n      dup4\n        /* \"#utility.yul\":2250:2251   */\n      dup2\n        /* \"#utility.yul\":2247:2260   */\n      lt\n        /* \"#utility.yul\":2228:2512   */\n      iszero\n      tag_106\n      jumpi\n        /* \"#utility.yul\":2329:2335   */\n      dup2\n        /* \"#utility.yul\":2323:2336   */\n      mload\n        /* \"#utility.yul\":2356:2419   */\n      tag_107\n        /* \"#utility.yul\":2415:2418   */\n      dup9\n        /* \"#utility.yul\":2400:2413   */\n      dup3\n        /* \"#utility.yul\":2356:2419   */\n      tag_92\n      jump\t// in\n    tag_107:\n        /* \"#utility.yul\":2349:2419   */\n      swap8\n      pop\n        /* \"#utility.yul\":2442:2502   */\n      tag_108\n        /* \"#utility.yul\":2495:2501   */\n      dup4\n        /* \"#utility.yul\":2442:2502   */\n      tag_109\n      jump\t// in\n    tag_108:\n        /* \"#utility.yul\":2432:2502   */\n      swap3\n      pop\n        /* \"#utility.yul\":2288:2512   */\n      pop\n        /* \"#utility.yul\":2275:2276   */\n      0x01\n        /* \"#utility.yul\":2272:2273   */\n      dup2\n        /* \"#utility.yul\":2268:2277   */\n      add\n        /* \"#utility.yul\":2263:2277   */\n      swap1\n      pop\n        /* \"#utility.yul\":2228:2512   */\n      jump(tag_104)\n    tag_106:\n        /* \"#utility.yul\":2232:2246   */\n      pop\n        /* \"#utility.yul\":2528:2531   */\n      dup6\n        /* \"#utility.yul\":2521:2531   */\n      swap4\n      pop\n        /* \"#utility.yul\":1929:2537   */\n      pop\n      pop\n      pop\n      swap3\n      swap2\n      pop\n      pop\n      jump\t// out\n        /* \"#utility.yul\":2543:2907   */\n    tag_110:\n        /* \"#utility.yul\":2631:2634   */\n      0x00\n        /* \"#utility.yul\":2659:2698   */\n      tag_112\n        /* \"#utility.yul\":2692:2697   */\n      dup3\n        /* \"#utility.yul\":2659:2698   */\n      tag_113\n      jump\t// in\n    tag_112:\n        /* \"#utility.yul\":2714:2785   */\n      tag_114\n        /* \"#utility.yul\":2778:2784   */\n      dup2\n        /* \"#utility.yul\":2773:2776   */\n      dup6\n        /* \"#utility.yul\":2714:2785   */\n      tag_115\n      jump\t// in\n    tag_114:\n        /* \"#utility.yul\":2707:2785   */\n      swap4\n      pop\n        /* \"#utility.yul\":2794:2846   */\n      tag_116\n        /* \"#utility.yul\":2839:2845   */\n      dup2\n        /* \"#utility.yul\":2834:2837   */\n      dup6\n        /* \"#utility.yul\":2827:2831   */\n      0x20\n        /* \"#utility.yul\":2820:2825   */\n      dup7\n        /* \"#utility.yul\":2816:2832   */\n      add\n        /* \"#utility.yul\":2794:2846   */\n      tag_117\n      jump\t// in\n    tag_116:\n        /* \"#utility.yul\":2871:2900   */\n      tag_118\n        /* \"#utility.yul\":2893:2899   */\n      dup2\n        /* \"#utility.yul\":2871:2900   */\n      tag_119\n      jump\t// in\n    tag_118:\n        /* \"#utility.yul\":2866:2869   */\n      dup5\n        /* \"#utility.yul\":2862:2901   */\n      add\n        /* \"#utility.yul\":2855:2901   */\n      swap2\n      pop\n        /* \"#utility.yul\":2635:2907   */\n      pop\n      swap3\n      swap2\n      pop\n      pop\n      jump\t// out\n        /* \"#utility.yul\":2913:3279   */\n    tag_120:\n        /* \"#utility.yul\":3055:3058   */\n      0x00\n        /* \"#utility.yul\":3076:3143   */\n      tag_122\n        /* \"#utility.yul\":3140:3142   */\n      0x1a\n        /* \"#utility.yul\":3135:3138   */\n      dup4\n        /* \"#utility.yul\":3076:3143   */\n      tag_115\n      jump\t// in\n    tag_122:\n        /* \"#utility.yul\":3069:3143   */\n      swap2\n      pop\n        /* \"#utility.yul\":3152:3245   */\n      tag_123\n        /* \"#utility.yul\":3241:3244   */\n      dup3\n        /* \"#utility.yul\":3152:3245   */\n      tag_124\n      jump\t// in\n    tag_123:\n        /* \"#utility.yul\":3270:3272   */\n      0x20\n        /* \"#utility.yul\":3265:3268   */\n      dup3\n        /* \"#utility.yul\":3261:3273   */\n      add\n        /* \"#utility.yul\":3254:3273   */\n      swap1\n      pop\n        /* \"#utility.yul\":3059:3279   */\n      swap2\n      swap1\n      pop\n      jump\t// out\n        /* \"#utility.yul\":3285:3393   */\n    tag_95:\n        /* \"#utility.yul\":3362:3386   */\n      tag_126\n        /* \"#utility.yul\":3380:3385   */\n      dup2\n        /* \"#utility.yul\":3362:3386   */\n      tag_127\n      jump\t// in\n    tag_126:\n        /* \"#utility.yul\":3357:3360   */\n      dup3\n        /* \"#utility.yul\":3350:3387   */\n      mstore\n        /* \"#utility.yul\":3340:3393   */\n      pop\n      pop\n      jump\t// out\n        /* \"#utility.yul\":3399:3517   */\n    tag_128:\n        /* \"#utility.yul\":3486:3510   */\n      tag_130\n        /* \"#utility.yul\":3504:3509   */\n      dup2\n        /* \"#utility.yul\":3486:3510   */\n      tag_127\n      jump\t// in\n    tag_130:\n        /* \"#utility.yul\":3481:3484   */\n      dup3\n        /* \"#utility.yul\":3474:3511   */\n      mstore\n        /* \"#utility.yul\":3464:3517   */\n      pop\n      pop\n      jump\t// out\n        /* \"#utility.yul\":3523:3896   */\n    tag_25:\n        /* \"#utility.yul\":3666:3670   */\n      0x00\n        /* \"#utility.yul\":3704:3706   */\n      0x20\n        /* \"#utility.yul\":3693:3702   */\n      dup3\n        /* \"#utility.yul\":3689:3707   */\n      add\n        /* \"#utility.yul\":3681:3707   */\n      swap1\n      pop\n        /* \"#utility.yul\":3753:3762   */\n      dup2\n        /* \"#utility.yul\":3747:3751   */\n      dup2\n        /* \"#utility.yul\":3743:3763   */\n      sub\n        /* \"#utility.yul\":3739:3740   */\n      0x00\n        /* \"#utility.yul\":3728:3737   */\n      dup4\n        /* \"#utility.yul\":3724:3741   */\n      add\n        /* \"#utility.yul\":3717:3764   */\n      mstore\n        /* \"#utility.yul\":3781:3889   */\n      tag_132\n        /* \"#utility.yul\":3884:3888   */\n      dup2\n        /* \"#utility.yul\":3875:3881   */\n      dup5\n        /* \"#utility.yul\":3781:3889   */\n      tag_96\n      jump\t// in\n    tag_132:\n        /* \"#utility.yul\":3773:3889   */\n      swap1\n      pop\n        /* \"#utility.yul\":3671:3896   */\n      swap3\n      swap2\n      pop\n      pop\n      jump\t// out\n        /* \"#utility.yul\":3902:4321   */\n    tag_29:\n        /* \"#utility.yul\":4068:4072   */\n      0x00\n        /* \"#utility.yul\":4106:4108   */\n      0x20\n        /* \"#utility.yul\":4095:4104   */\n      dup3\n        /* \"#utility.yul\":4091:4109   */\n      add\n        /* \"#utility.yul\":4083:4109   */\n      swap1\n      pop\n        /* \"#utility.yul\":4155:4164   */\n      dup2\n        /* \"#utility.yul\":4149:4153   */\n      dup2\n        /* \"#utility.yul\":4145:4165   */\n      sub\n        /* \"#utility.yul\":4141:4142   */\n      0x00\n        /* \"#utility.yul\":4130:4139   */\n      dup4\n        /* \"#utility.yul\":4126:4143   */\n      add\n        /* \"#utility.yul\":4119:4166   */\n      mstore\n        /* \"#utility.yul\":4183:4314   */\n      tag_134\n        /* \"#utility.yul\":4309:4313   */\n      dup2\n        /* \"#utility.yul\":4183:4314   */\n      tag_120\n      jump\t// in\n    tag_134:\n        /* \"#utility.yul\":4175:4314   */\n      swap1\n      pop\n        /* \"#utility.yul\":4073:4321   */\n      swap2\n      swap1\n      pop\n      jump\t// out\n        /* \"#utility.yul\":4327:4549   */\n    tag_10:\n        /* \"#utility.yul\":4420:4424   */\n      0x00\n        /* \"#utility.yul\":4458:4460   */\n      0x20\n        /* \"#utility.yul\":4447:4456   */\n      dup3\n        /* \"#utility.yul\":4443:4461   */\n      add\n        /* \"#utility.yul\":4435:4461   */\n      swap1\n      pop\n        /* \"#utility.yul\":4471:4542   */\n      tag_136\n        /* \"#utility.yul\":4539:4540   */\n      0x00\n        /* \"#utility.yul\":4528:4537   */\n      dup4\n        /* \"#utility.yul\":4524:4541   */\n      add\n        /* \"#utility.yul\":4515:4521   */\n      dup5\n        /* \"#utility.yul\":4471:4542   */\n      tag_128\n      jump\t// in\n    tag_136:\n        /* \"#utility.yul\":4425:4549   */\n      swap3\n      swap2\n      pop\n      pop\n      jump\t// out\n        /* \"#utility.yul\":4555:5088   */\n    tag_20:\n        /* \"#utility.yul\":4724:4728   */\n      0x00\n        /* \"#utility.yul\":4762:4764   */\n      0x60\n        /* \"#utility.yul\":4751:4760   */\n      dup3\n        /* \"#utility.yul\":4747:4765   */\n      add\n        /* \"#utility.yul\":4739:4765   */\n      swap1\n      pop\n        /* \"#utility.yul\":4775:4846   */\n      tag_138\n        /* \"#utility.yul\":4843:4844   */\n      0x00\n        /* \"#utility.yul\":4832:4841   */\n      dup4\n        /* \"#utility.yul\":4828:4845   */\n      add\n        /* \"#utility.yul\":4819:4825   */\n      dup7\n        /* \"#utility.yul\":4775:4846   */\n      tag_128\n      jump\t// in\n    tag_138:\n        /* \"#utility.yul\":4893:4902   */\n      dup2\n        /* \"#utility.yul\":4887:4891   */\n      dup2\n        /* \"#utility.yul\":4883:4903   */\n      sub\n        /* \"#utility.yul\":4878:4880   */\n      0x20\n        /* \"#utility.yul\":4867:4876   */\n      dup4\n        /* \"#utility.yul\":4863:4881   */\n      add\n        /* \"#utility.yul\":4856:4904   */\n      mstore\n        /* \"#utility.yul\":4921:4999   */\n      tag_139\n        /* \"#utility.yul\":4994:4998   */\n      dup2\n        /* \"#utility.yul\":4985:4991   */\n      dup6\n        /* \"#utility.yul\":4921:4999   */\n      tag_110\n      jump\t// in\n    tag_139:\n        /* \"#utility.yul\":4913:4999   */\n      swap1\n      pop\n        /* \"#utility.yul\":5009:5081   */\n      tag_140\n        /* \"#utility.yul\":5077:5079   */\n      0x40\n        /* \"#utility.yul\":5066:5075   */\n      dup4\n        /* \"#utility.yul\":5062:5080   */\n      add\n        /* \"#utility.yul\":5053:5059   */\n      dup5\n        /* \"#utility.yul\":5009:5081   */\n      tag_128\n      jump\t// in\n    tag_140:\n        /* \"#utility.yul\":4729:5088   */\n      swap5\n      swap4\n      pop\n      pop\n      pop\n      pop\n      jump\t// out\n        /* \"#utility.yul\":5094:5223   */\n    tag_72:\n        /* \"#utility.yul\":5128:5134   */\n      0x00\n        /* \"#utility.yul\":5155:5175   */\n      tag_142\n      tag_143\n      jump\t// in\n    tag_142:\n        /* \"#utility.yul\":5145:5175   */\n      swap1\n      pop\n        /* \"#utility.yul\":5184:5217   */\n      tag_144\n        /* \"#utility.yul\":5212:5216   */\n      dup3\n        /* \"#utility.yul\":5204:5210   */\n      dup3\n        /* \"#utility.yul\":5184:5217   */\n      tag_145\n      jump\t// in\n    tag_144:\n        /* \"#utility.yul\":5135:5223   */\n      swap2\n      swap1\n      pop\n      jump\t// out\n        /* \"#utility.yul\":5229:5304   */\n    tag_143:\n        /* \"#utility.yul\":5262:5268   */\n      0x00\n        /* \"#utility.yul\":5295:5297   */\n      0x40\n        /* \"#utility.yul\":5289:5298   */\n      mload\n        /* \"#utility.yul\":5279:5298   */\n      swap1\n      pop\n        /* \"#utility.yul\":5269:5304   */\n      swap1\n      jump\t// out\n        /* \"#utility.yul\":5310:5618   */\n    tag_71:\n        /* \"#utility.yul\":5372:5376   */\n      0x00\n        /* \"#utility.yul\":5462:5480   */\n      0xffffffffffffffff\n        /* \"#utility.yul\":5454:5460   */\n      dup3\n        /* \"#utility.yul\":5451:5481   */\n      gt\n        /* \"#utility.yul\":5448:5450   */\n      iszero\n      tag_148\n      jumpi\n        /* \"#utility.yul\":5484:5502   */\n      tag_149\n      tag_150\n      jump\t// in\n    tag_149:\n        /* \"#utility.yul\":5448:5450   */\n    tag_148:\n        /* \"#utility.yul\":5522:5551   */\n      tag_151\n        /* \"#utility.yul\":5544:5550   */\n      dup3\n        /* \"#utility.yul\":5522:5551   */\n      tag_119\n      jump\t// in\n    tag_151:\n        /* \"#utility.yul\":5514:5551   */\n      swap1\n      pop\n        /* \"#utility.yul\":5606:5610   */\n      0x20\n        /* \"#utility.yul\":5600:5604   */\n      dup2\n        /* \"#utility.yul\":5596:5611   */\n      add\n        /* \"#utility.yul\":5588:5611   */\n      swap1\n      pop\n        /* \"#utility.yul\":5377:5618   */\n      swap2\n      swap1\n      pop\n      jump\t// out\n        /* \"#utility.yul\":5624:5756   */\n    tag_103:\n        /* \"#utility.yul\":5691:5695   */\n      0x00\n        /* \"#utility.yul\":5714:5717   */\n      dup2\n        /* \"#utility.yul\":5706:5717   */\n      swap1\n      pop\n        /* \"#utility.yul\":5744:5748   */\n      0x20\n        /* \"#utility.yul\":5739:5742   */\n      dup3\n        /* \"#utility.yul\":5735:5749   */\n      add\n        /* \"#utility.yul\":5727:5749   */\n      swap1\n      pop\n        /* \"#utility.yul\":5696:5756   */\n      swap2\n      swap1\n      pop\n      jump\t// out\n        /* \"#utility.yul\":5762:5876   */\n    tag_99:\n        /* \"#utility.yul\":5829:5835   */\n      0x00\n        /* \"#utility.yul\":5863:5868   */\n      dup2\n        /* \"#utility.yul\":5857:5869   */\n      mload\n        /* \"#utility.yul\":5847:5869   */\n      swap1\n      pop\n        /* \"#utility.yul\":5836:5876   */\n      swap2\n      swap1\n      pop\n      jump\t// out\n        /* \"#utility.yul\":5882:5981   */\n    tag_113:\n        /* \"#utility.yul\":5934:5940   */\n      0x00\n        /* \"#utility.yul\":5968:5973   */\n      dup2\n        /* \"#utility.yul\":5962:5974   */\n      mload\n        /* \"#utility.yul\":5952:5974   */\n      swap1\n      pop\n        /* \"#utility.yul\":5941:5981   */\n      swap2\n      swap1\n      pop\n      jump\t// out\n        /* \"#utility.yul\":5987:6100   */\n    tag_109:\n        /* \"#utility.yul\":6057:6061   */\n      0x00\n        /* \"#utility.yul\":6089:6093   */\n      0x20\n        /* \"#utility.yul\":6084:6087   */\n      dup3\n        /* \"#utility.yul\":6080:6094   */\n      add\n        /* \"#utility.yul\":6072:6094   */\n      swap1\n      pop\n        /* \"#utility.yul\":6062:6100   */\n      swap2\n      swap1\n      pop\n      jump\t// out\n        /* \"#utility.yul\":6106:6290   */\n    tag_101:\n        /* \"#utility.yul\":6205:6216   */\n      0x00\n        /* \"#utility.yul\":6239:6245   */\n      dup3\n        /* \"#utility.yul\":6234:6237   */\n      dup3\n        /* \"#utility.yul\":6227:6246   */\n      mstore\n        /* \"#utility.yul\":6279:6283   */\n      0x20\n        /* \"#utility.yul\":6274:6277   */\n      dup3\n        /* \"#utility.yul\":6270:6284   */\n      add\n        /* \"#utility.yul\":6255:6284   */\n      swap1\n      pop\n        /* \"#utility.yul\":6217:6290   */\n      swap3\n      swap2\n      pop\n      pop\n      jump\t// out\n        /* \"#utility.yul\":6296:6465   */\n    tag_115:\n        /* \"#utility.yul\":6380:6391   */\n      0x00\n        /* \"#utility.yul\":6414:6420   */\n      dup3\n        /* \"#utility.yul\":6409:6412   */\n      dup3\n        /* \"#utility.yul\":6402:6421   */\n      mstore\n        /* \"#utility.yul\":6454:6458   */\n      0x20\n        /* \"#utility.yul\":6449:6452   */\n      dup3\n        /* \"#utility.yul\":6445:6459   */\n      add\n        /* \"#utility.yul\":6430:6459   */\n      swap1\n      pop\n        /* \"#utility.yul\":6392:6465   */\n      swap3\n      swap2\n      pop\n      pop\n      jump\t// out\n        /* \"#utility.yul\":6471:6548   */\n    tag_127:\n        /* \"#utility.yul\":6508:6515   */\n      0x00\n        /* \"#utility.yul\":6537:6542   */\n      dup2\n        /* \"#utility.yul\":6526:6542   */\n      swap1\n      pop\n        /* \"#utility.yul\":6516:6548   */\n      swap2\n      swap1\n      pop\n      jump\t// out\n        /* \"#utility.yul\":6554:6708   */\n    tag_75:\n        /* \"#utility.yul\":6638:6644   */\n      dup3\n        /* \"#utility.yul\":6633:6636   */\n      dup2\n        /* \"#utility.yul\":6628:6631   */\n      dup4\n        /* \"#utility.yul\":6615:6645   */\n      calldatacopy\n        /* \"#utility.yul\":6700:6701   */\n      0x00\n        /* \"#utility.yul\":6691:6697   */\n      dup4\n        /* \"#utility.yul\":6686:6689   */\n      dup4\n        /* \"#utility.yul\":6682:6698   */\n      add\n        /* \"#utility.yul\":6675:6702   */\n      mstore\n        /* \"#utility.yul\":6605:6708   */\n      pop\n      pop\n      pop\n      jump\t// out\n        /* \"#utility.yul\":6714:7021   */\n    tag_117:\n        /* \"#utility.yul\":6782:6783   */\n      0x00\n        /* \"#utility.yul\":6792:6905   */\n    tag_161:\n        /* \"#utility.yul\":6806:6812   */\n      dup4\n        /* \"#utility.yul\":6803:6804   */\n      dup2\n        /* \"#utility.yul\":6800:6813   */\n      lt\n        /* \"#utility.yul\":6792:6905   */\n      iszero\n      tag_163\n      jumpi\n        /* \"#utility.yul\":6891:6892   */\n      dup1\n        /* \"#utility.yul\":6886:6889   */\n      dup3\n        /* \"#utility.yul\":6882:6893   */\n      add\n        /* \"#utility.yul\":6876:6894   */\n      mload\n        /* \"#utility.yul\":6872:6873   */\n      dup2\n        /* \"#utility.yul\":6867:6870   */\n      dup5\n        /* \"#utility.yul\":6863:6874   */\n      add\n        /* \"#utility.yul\":6856:6895   */\n      mstore\n        /* \"#utility.yul\":6828:6830   */\n      0x20\n        /* \"#utility.yul\":6825:6826   */\n      dup2\n        /* \"#utility.yul\":6821:6831   */\n      add\n        /* \"#utility.yul\":6816:6831   */\n      swap1\n      pop\n        /* \"#utility.yul\":6792:6905   */\n      jump(tag_161)\n    tag_163:\n        /* \"#utility.yul\":6923:6929   */\n      dup4\n        /* \"#utility.yul\":6920:6921   */\n      dup2\n        /* \"#utility.yul\":6917:6930   */\n      gt\n        /* \"#utility.yul\":6914:6916   */\n      iszero\n      tag_164\n      jumpi\n        /* \"#utility.yul\":7003:7004   */\n      0x00\n        /* \"#utility.yul\":6994:7000   */\n      dup5\n        /* \"#utility.yul\":6989:6992   */\n      dup5\n        /* \"#utility.yul\":6985:7001   */\n      add\n        /* \"#utility.yul\":6978:7005   */\n      mstore\n        /* \"#utility.yul\":6914:6916   */\n    tag_164:\n        /* \"#utility.yul\":6763:7021   */\n      pop\n      pop\n      pop\n      pop\n      jump\t// out\n        /* \"#utility.yul\":7027:7347   */\n    tag_35:\n        /* \"#utility.yul\":7071:7077   */\n      0x00\n        /* \"#utility.yul\":7108:7109   */\n      0x02\n        /* \"#utility.yul\":7102:7106   */\n      dup3\n        /* \"#utility.yul\":7098:7110   */\n      div\n        /* \"#utility.yul\":7088:7110   */\n      swap1\n      pop\n        /* \"#utility.yul\":7155:7156   */\n      0x01\n        /* \"#utility.yul\":7149:7153   */\n      dup3\n        /* \"#utility.yul\":7145:7157   */\n      and\n        /* \"#utility.yul\":7176:7194   */\n      dup1\n        /* \"#utility.yul\":7166:7168   */\n      tag_166\n      jumpi\n        /* \"#utility.yul\":7232:7236   */\n      0x7f\n        /* \"#utility.yul\":7224:7230   */\n      dup3\n        /* \"#utility.yul\":7220:7237   */\n      and\n        /* \"#utility.yul\":7210:7237   */\n      swap2\n      pop\n        /* \"#utility.yul\":7166:7168   */\n    tag_166:\n        /* \"#utility.yul\":7294:7296   */\n      0x20\n        /* \"#utility.yul\":7286:7292   */\n      dup3\n        /* \"#utility.yul\":7283:7297   */\n      lt\n        /* \"#utility.yul\":7263:7281   */\n      dup2\n        /* \"#utility.yul\":7260:7298   */\n      eq\n        /* \"#utility.yul\":7257:7259   */\n      iszero\n      tag_167\n      jumpi\n        /* \"#utility.yul\":7313:7331   */\n      tag_168\n      tag_169\n      jump\t// in\n    tag_168:\n        /* \"#utility.yul\":7257:7259   */\n    tag_167:\n        /* \"#utility.yul\":7078:7347   */\n      pop\n      swap2\n      swap1\n      pop\n      jump\t// out\n        /* \"#utility.yul\":7353:7634   */\n    tag_145:\n        /* \"#utility.yul\":7436:7463   */\n      tag_171\n        /* \"#utility.yul\":7458:7462   */\n      dup3\n        /* \"#utility.yul\":7436:7463   */\n      tag_119\n      jump\t// in\n    tag_171:\n        /* \"#utility.yul\":7428:7434   */\n      dup2\n        /* \"#utility.yul\":7424:7464   */\n      add\n        /* \"#utility.yul\":7566:7572   */\n      dup2\n        /* \"#utility.yul\":7554:7564   */\n      dup2\n        /* \"#utility.yul\":7551:7573   */\n      lt\n        /* \"#utility.yul\":7530:7548   */\n      0xffffffffffffffff\n        /* \"#utility.yul\":7518:7528   */\n      dup3\n        /* \"#utility.yul\":7515:7549   */\n      gt\n        /* \"#utility.yul\":7512:7574   */\n      or\n        /* \"#utility.yul\":7509:7511   */\n      iszero\n      tag_172\n      jumpi\n        /* \"#utility.yul\":7577:7595   */\n      tag_173\n      tag_150\n      jump\t// in\n    tag_173:\n        /* \"#utility.yul\":7509:7511   */\n    tag_172:\n        /* \"#utility.yul\":7617:7627   */\n      dup1\n        /* \"#utility.yul\":7613:7615   */\n      0x40\n        /* \"#utility.yul\":7606:7628   */\n      mstore\n        /* \"#utility.yul\":7396:7634   */\n      pop\n      pop\n      pop\n      jump\t// out\n        /* \"#utility.yul\":7640:7873   */\n    tag_31:\n        /* \"#utility.yul\":7679:7682   */\n      0x00\n        /* \"#utility.yul\":7702:7726   */\n      tag_175\n        /* \"#utility.yul\":7720:7725   */\n      dup3\n        /* \"#utility.yul\":7702:7726   */\n      tag_127\n      jump\t// in\n    tag_175:\n        /* \"#utility.yul\":7693:7726   */\n      swap2\n      pop\n        /* \"#utility.yul\":7748:7814   */\n      0xffffffffffffffffffffffffffffffffffffffffffffffffffffffffffffffff\n        /* \"#utility.yul\":7741:7746   */\n      dup3\n        /* \"#utility.yul\":7738:7815   */\n      eq\n        /* \"#utility.yul\":7735:7737   */\n      iszero\n      tag_176\n      jumpi\n        /* \"#utility.yul\":7818:7836   */\n      tag_177\n      tag_178\n      jump\t// in\n    tag_177:\n        /* \"#utility.yul\":7735:7737   */\n    tag_176:\n        /* \"#utility.yul\":7865:7866   */\n      0x01\n        /* \"#utility.yul\":7858:7863   */\n      dup3\n        /* \"#utility.yul\":7854:7867   */\n      add\n        /* \"#utility.yul\":7847:7867   */\n      swap1\n      pop\n        /* \"#utility.yul\":7683:7873   */\n      swap2\n      swap1\n      pop\n      jump\t// out\n        /* \"#utility.yul\":7879:8059   */\n    tag_178:\n        /* \"#utility.yul\":7927:8004   */\n      0x4e487b7100000000000000000000000000000000000000000000000000000000\n        /* \"#utility.yul\":7924:7925   */\n      0x00\n        /* \"#utility.yul\":7917:8005   */\n      mstore\n        /* \"#utility.yul\":8024:8028   */\n      0x11\n        /* \"#utility.yul\":8021:8022   */\n      0x04\n        /* \"#utility.yul\":8014:8029   */\n      mstore\n        /* \"#utility.yul\":8048:8052   */\n      0x24\n        /* \"#utility.yul\":8045:8046   */\n      0x00\n        /* \"#utility.yul\":8038:8053   */\n      revert\n        /* \"#utility.yul\":8065:8245   */\n    tag_169:\n        /* \"#utility.yul\":8113:8190   */\n      0x4e487b7100000000000000000000000000000000000000000000000000000000\n        /* \"#utility.yul\":8110:8111   */\n      0x00\n        /* \"#utility.yul\":8103:8191   */\n      mstore\n        /* \"#utility.yul\":8210:8214   */\n      0x22\n        /* \"#utility.yul\":8207:8208   */\n      0x04\n        /* \"#utility.yul\":8200:8215   */\n      mstore\n        /* \"#utility.yul\":8234:8238   */\n      0x24\n        /* \"#utility.yul\":8231:8232   */\n      0x00\n        /* \"#utility.yul\":8224:8239   */\n      revert\n        /* \"#utility.yul\":8251:8431   */\n    tag_150:\n        /* \"#utility.yul\":8299:8376   */\n      0x4e487b7100000000000000000000000000000000000000000000000000000000\n        /* \"#utility.yul\":8296:8297   */\n      0x00\n        /* \"#utility.yul\":8289:8377   */\n      mstore\n        /* \"#utility.yul\":8396:8400   */\n      0x41\n        /* \"#utility.yul\":8393:8394   */\n      0x04\n        /* \"#utility.yul\":8386:8401   */\n      mstore\n        /* \"#utility.yul\":8420:8424   */\n      0x24\n        /* \"#utility.yul\":8417:8418   */\n      0x00\n        /* \"#utility.yul\":8410:8425   */\n      revert\n        /* \"#utility.yul\":8437:8539   */\n    tag_119:\n        /* \"#utility.yul\":8478:8484   */\n      0x00\n        /* \"#utility.yul\":8529:8531   */\n      0x1f\n        /* \"#utility.yul\":8525:8532   */\n      not\n        /* \"#utility.yul\":8520:8522   */\n      0x1f\n        /* \"#utility.yul\":8513:8518   */\n      dup4\n        /* \"#utility.yul\":8509:8523   */\n      add\n        /* \"#utility.yul\":8505:8533   */\n      and\n        /* \"#utility.yul\":8495:8533   */\n      swap1\n      pop\n        /* \"#utility.yul\":8485:8539   */\n      swap2\n      swap1\n      pop\n      jump\t// out\n        /* \"#utility.yul\":8545:8721   */\n    tag_124:\n        /* \"#utility.yul\":8685:8713   */\n      0x4d757374206265206f766572203138207965617273206f6c642e000000000000\n        /* \"#utility.yul\":8681:8682   */\n      0x00\n        /* \"#utility.yul\":8673:8679   */\n      dup3\n        /* \"#utility.yul\":8669:8683   */\n      add\n        /* \"#utility.yul\":8662:8714   */\n      mstore\n        /* \"#utility.yul\":8651:8721   */\n      pop\n      jump\t// out\n        /* \"#utility.yul\":8727:8849   */\n    tag_83:\n        /* \"#utility.yul\":8800:8824   */\n      tag_185\n        /* \"#utility.yul\":8818:8823   */\n      dup2\n        /* \"#utility.yul\":8800:8824   */\n      tag_127\n      jump\t// in\n    tag_185:\n        /* \"#utility.yul\":8793:8798   */\n      dup2\n        /* \"#utility.yul\":8790:8825   */\n      eq\n        /* \"#utility.yul\":8780:8782   */\n      tag_186\n      jumpi\n        /* \"#utility.yul\":8839:8840   */\n      0x00\n        /* \"#utility.yul\":8836:8837   */\n      dup1\n        /* \"#utility.yul\":8829:8841   */\n      revert\n        /* \"#utility.yul\":8780:8782   */\n    tag_186:\n        /* \"#utility.yul\":8770:8849   */\n      pop\n      jump\t// out\n\n    auxdata: 0xa2646970667358221220b2ef10ec23a7cba86b1410ef6fbab3130fc30c9e8127a7344a747970e6718d7664736f6c63430008040033\n}\n",
				"bytecode": {
					"linkReferences": {},
					"object": "608060405234801561001057600080fd5b506109c5806100206000396000f3fe608060405234801561001057600080fd5b506004361061004c5760003560e01c8063267c68e0146100515780636f760f411461006f5780639e7a13ad1461008b578063c9de7989146100bd575b600080fd5b6100596100ed565b60405161006691906106b5565b60405180910390f35b61008960048036038101906100849190610506565b6100f3565b005b6100a560048036038101906100a0919061055a565b6101b7565b6040516100b4939291906106d0565b60405180910390f35b6100d760048036038101906100d2919061055a565b610269565b6040516100e49190610673565b60405180910390f35b60015481565b60128111610136576040517f08c379a000000000000000000000000000000000000000000000000000000000815260040161012d90610695565b60405180910390fd5b6001600081548092919061014990610868565b9190505550604051806060016040528060015481526020018381526020018281525060008060015481526020019081526020016000206000820151816000015560208201518160010190805190602001906101a59291906103e6565b50604082015181600201559050505050565b60006020528060005260406000206000915090508060000154908060010180546101e090610805565b80601f016020809104026020016040519081016040528092919081815260200182805461020c90610805565b80156102595780601f1061022e57610100808354040283529160200191610259565b820191906000526020600020905b81548152906001019060200180831161023c57829003601f168201915b5050505050908060020154905083565b6060600080600190505b60015481116102bb57836000808381526020019081526020016000206002015411156102a85781806102a490610868565b9250505b80806102b390610868565b915050610273565b5060008167ffffffffffffffff8111156102fe577f4e487b7100000000000000000000000000000000000000000000000000000000600052604160045260246000fd5b60405190808252806020026020018201604052801561032c5781602001602082028036833780820191505090505b509050600080600190505b60015481116103da57856000808381526020019081526020016000206002015411156103c757600080828152602001908152602001600020600001548383815181106103ac577f4e487b7100000000000000000000000000000000000000000000000000000000600052603260045260246000fd5b60200260200101818152505081806103c390610868565b9250505b80806103d290610868565b915050610337565b50819350505050919050565b8280546103f290610805565b90600052602060002090601f016020900481019282610414576000855561045b565b82601f1061042d57805160ff191683800117855561045b565b8280016001018555821561045b579182015b8281111561045a57825182559160200191906001019061043f565b5b509050610468919061046c565b5090565b5b8082111561048557600081600090555060010161046d565b5090565b600061049c61049784610733565b61070e565b9050828152602081018484840111156104b457600080fd5b6104bf8482856107c3565b509392505050565b600082601f8301126104d857600080fd5b81356104e8848260208601610489565b91505092915050565b60008135905061050081610978565b92915050565b6000806040838503121561051957600080fd5b600083013567ffffffffffffffff81111561053357600080fd5b61053f858286016104c7565b9250506020610550858286016104f1565b9150509250929050565b60006020828403121561056c57600080fd5b600061057a848285016104f1565b91505092915050565b600061058f8383610655565b60208301905092915050565b60006105a682610774565b6105b08185610797565b93506105bb83610764565b8060005b838110156105ec5781516105d38882610583565b97506105de8361078a565b9250506001810190506105bf565b5085935050505092915050565b60006106048261077f565b61060e81856107a8565b935061061e8185602086016107d2565b6106278161093e565b840191505092915050565b600061063f601a836107a8565b915061064a8261094f565b602082019050919050565b61065e816107b9565b82525050565b61066d816107b9565b82525050565b6000602082019050818103600083015261068d818461059b565b905092915050565b600060208201905081810360008301526106ae81610632565b9050919050565b60006020820190506106ca6000830184610664565b92915050565b60006060820190506106e56000830186610664565b81810360208301526106f781856105f9565b90506107066040830184610664565b949350505050565b6000610718610729565b90506107248282610837565b919050565b6000604051905090565b600067ffffffffffffffff82111561074e5761074d61090f565b5b6107578261093e565b9050602081019050919050565b6000819050602082019050919050565b600081519050919050565b600081519050919050565b6000602082019050919050565b600082825260208201905092915050565b600082825260208201905092915050565b6000819050919050565b82818337600083830152505050565b60005b838110156107f05780820151818401526020810190506107d5565b838111156107ff576000848401525b50505050565b6000600282049050600182168061081d57607f821691505b60208210811415610831576108306108e0565b5b50919050565b6108408261093e565b810181811067ffffffffffffffff8211171561085f5761085e61090f565b5b80604052505050565b6000610873826107b9565b91507fffffffffffffffffffffffffffffffffffffffffffffffffffffffffffffffff8214156108a6576108a56108b1565b5b600182019050919050565b7f4e487b7100000000000000000000000000000000000000000000000000000000600052601160045260246000fd5b7f4e487b7100000000000000000000000000000000000000000000000000000000600052602260045260246000fd5b7f4e487b7100000000000000000000000000000000000000000000000000000000600052604160045260246000fd5b6000601f19601f8301169050919050565b7f4d757374206265206f766572203138207965617273206f6c642e000000000000600082015250565b610981816107b9565b811461098c57600080fd5b5056fea2646970667358221220b2ef10ec23a7cba86b1410ef6fbab3130fc30c9e8127a7344a747970e6718d7664736f6c63430008040033",
					"opcodes": "PUSH1 0x80 PUSH1 0x40 MSTORE CALLVALUE DUP1 ISZERO PUSH2 0x10 JUMPI PUSH1 0x0 DUP1 REVERT JUMPDEST POP PUSH2 0x9C5 DUP1 PUSH2 0x20 PUSH1 0x0 CODECOPY PUSH1 0x0 RETURN INVALID PUSH1 0x80 PUSH1 0x40 MSTORE CALLVALUE DUP1 ISZERO PUSH2 0x10 JUMPI PUSH1 0x0 DUP1 REVERT JUMPDEST POP PUSH1 0x4 CALLDATASIZE LT PUSH2 0x4C JUMPI PUSH1 0x0 CALLDATALOAD PUSH1 0xE0 SHR DUP1 PUSH4 0x267C68E0 EQ PUSH2 0x51 JUMPI DUP1 PUSH4 0x6F760F41 EQ PUSH2 0x6F JUMPI DUP1 PUSH4 0x9E7A13AD EQ PUSH2 0x8B JUMPI DUP1 PUSH4 0xC9DE7989 EQ PUSH2 0xBD JUMPI JUMPDEST PUSH1 0x0 DUP1 REVERT JUMPDEST PUSH2 0x59 PUSH2 0xED JUMP JUMPDEST PUSH1 0x40 MLOAD PUSH2 0x66 SWAP2 SWAP1 PUSH2 0x6B5 JUMP JUMPDEST PUSH1 0x40 MLOAD DUP1 SWAP2 SUB SWAP1 RETURN JUMPDEST PUSH2 0x89 PUSH1 0x4 DUP1 CALLDATASIZE SUB DUP2 ADD SWAP1 PUSH2 0x84 SWAP2 SWAP1 PUSH2 0x506 JUMP JUMPDEST PUSH2 0xF3 JUMP JUMPDEST STOP JUMPDEST PUSH2 0xA5 PUSH1 0x4 DUP1 CALLDATASIZE SUB DUP2 ADD SWAP1 PUSH2 0xA0 SWAP2 SWAP1 PUSH2 0x55A JUMP JUMPDEST PUSH2 0x1B7 JUMP JUMPDEST PUSH1 0x40 MLOAD PUSH2 0xB4 SWAP4 SWAP3 SWAP2 SWAP1 PUSH2 0x6D0 JUMP JUMPDEST PUSH1 0x40 MLOAD DUP1 SWAP2 SUB SWAP1 RETURN JUMPDEST PUSH2 0xD7 PUSH1 0x4 DUP1 CALLDATASIZE SUB DUP2 ADD SWAP1 PUSH2 0xD2 SWAP2 SWAP1 PUSH2 0x55A JUMP JUMPDEST PUSH2 0x269 JUMP JUMPDEST PUSH1 0x40 MLOAD PUSH2 0xE4 SWAP2 SWAP1 PUSH2 0x673 JUMP JUMPDEST PUSH1 0x40 MLOAD DUP1 SWAP2 SUB SWAP1 RETURN JUMPDEST PUSH1 0x1 SLOAD DUP2 JUMP JUMPDEST PUSH1 0x12 DUP2 GT PUSH2 0x136 JUMPI PUSH1 0x40 MLOAD PUSH32 0x8C379A000000000000000000000000000000000000000000000000000000000 DUP2 MSTORE PUSH1 0x4 ADD PUSH2 0x12D SWAP1 PUSH2 0x695 JUMP JUMPDEST PUSH1 0x40 MLOAD DUP1 SWAP2 SUB SWAP1 REVERT JUMPDEST PUSH1 0x1 PUSH1 0x0 DUP2 SLOAD DUP1 SWAP3 SWAP2 SWAP1 PUSH2 0x149 SWAP1 PUSH2 0x868 JUMP JUMPDEST SWAP2 SWAP1 POP SSTORE POP PUSH1 0x40 MLOAD DUP1 PUSH1 0x60 ADD PUSH1 0x40 MSTORE DUP1 PUSH1 0x1 SLOAD DUP2 MSTORE PUSH1 0x20 ADD DUP4 DUP2 MSTORE PUSH1 0x20 ADD DUP3 DUP2 MSTORE POP PUSH1 0x0 DUP1 PUSH1 0x1 SLOAD DUP2 MSTORE PUSH1 0x20 ADD SWAP1 DUP2 MSTORE PUSH1 0x20 ADD PUSH1 0x0 KECCAK256 PUSH1 0x0 DUP3 ADD MLOAD DUP2 PUSH1 0x0 ADD SSTORE PUSH1 0x20 DUP3 ADD MLOAD DUP2 PUSH1 0x1 ADD SWAP1 DUP1 MLOAD SWAP1 PUSH1 0x20 ADD SWAP1 PUSH2 0x1A5 SWAP3 SWAP2 SWAP1 PUSH2 0x3E6 JUMP JUMPDEST POP PUSH1 0x40 DUP3 ADD MLOAD DUP2 PUSH1 0x2 ADD SSTORE SWAP1 POP POP POP POP JUMP JUMPDEST PUSH1 0x0 PUSH1 0x20 MSTORE DUP1 PUSH1 0x0 MSTORE PUSH1 0x40 PUSH1 0x0 KECCAK256 PUSH1 0x0 SWAP2 POP SWAP1 POP DUP1 PUSH1 0x0 ADD SLOAD SWAP1 DUP1 PUSH1 0x1 ADD DUP1 SLOAD PUSH2 0x1E0 SWAP1 PUSH2 0x805 JUMP JUMPDEST DUP1 PUSH1 0x1F ADD PUSH1 0x20 DUP1 SWAP2 DIV MUL PUSH1 0x20 ADD PUSH1 0x40 MLOAD SWAP1 DUP2 ADD PUSH1 0x40 MSTORE DUP1 SWAP3 SWAP2 SWAP1 DUP2 DUP2 MSTORE PUSH1 0x20 ADD DUP3 DUP1 SLOAD PUSH2 0x20C SWAP1 PUSH2 0x805 JUMP JUMPDEST DUP1 ISZERO PUSH2 0x259 JUMPI DUP1 PUSH1 0x1F LT PUSH2 0x22E JUMPI PUSH2 0x100 DUP1 DUP4 SLOAD DIV MUL DUP4 MSTORE SWAP2 PUSH1 0x20 ADD SWAP2 PUSH2 0x259 JUMP JUMPDEST DUP3 ADD SWAP2 SWAP1 PUSH1 0x0 MSTORE PUSH1 0x20 PUSH1 0x0 KECCAK256 SWAP1 JUMPDEST DUP2 SLOAD DUP2 MSTORE SWAP1 PUSH1 0x1 ADD SWAP1 PUSH1 0x20 ADD DUP1 DUP4 GT PUSH2 0x23C JUMPI DUP3 SWAP1 SUB PUSH1 0x1F AND DUP3 ADD SWAP2 JUMPDEST POP POP POP POP POP SWAP1 DUP1 PUSH1 0x2 ADD SLOAD SWAP1 POP DUP4 JUMP JUMPDEST PUSH1 0x60 PUSH1 0x0 DUP1 PUSH1 0x1 SWAP1 POP JUMPDEST PUSH1 0x1 SLOAD DUP2 GT PUSH2 0x2BB JUMPI DUP4 PUSH1 0x0 DUP1 DUP4 DUP2 MSTORE PUSH1 0x20 ADD SWAP1 DUP2 MSTORE PUSH1 0x20 ADD PUSH1 0x0 KECCAK256 PUSH1 0x2 ADD SLOAD GT ISZERO PUSH2 0x2A8 JUMPI DUP2 DUP1 PUSH2 0x2A4 SWAP1 PUSH2 0x868 JUMP JUMPDEST SWAP3 POP POP JUMPDEST DUP1 DUP1 PUSH2 0x2B3 SWAP1 PUSH2 0x868 JUMP JUMPDEST SWAP2 POP POP PUSH2 0x273 JUMP JUMPDEST POP PUSH1 0x0 DUP2 PUSH8 0xFFFFFFFFFFFFFFFF DUP2 GT ISZERO PUSH2 0x2FE JUMPI PUSH32 0x4E487B7100000000000000000000000000000000000000000000000000000000 PUSH1 0x0 MSTORE PUSH1 0x41 PUSH1 0x4 MSTORE PUSH1 0x24 PUSH1 0x0 REVERT JUMPDEST PUSH1 0x40 MLOAD SWAP1 DUP1 DUP3 MSTORE DUP1 PUSH1 0x20 MUL PUSH1 0x20 ADD DUP3 ADD PUSH1 0x40 MSTORE DUP1 ISZERO PUSH2 0x32C JUMPI DUP2 PUSH1 0x20 ADD PUSH1 0x20 DUP3 MUL DUP1 CALLDATASIZE DUP4 CALLDATACOPY DUP1 DUP3 ADD SWAP2 POP POP SWAP1 POP JUMPDEST POP SWAP1 POP PUSH1 0x0 DUP1 PUSH1 0x1 SWAP1 POP JUMPDEST PUSH1 0x1 SLOAD DUP2 GT PUSH2 0x3DA JUMPI DUP6 PUSH1 0x0 DUP1 DUP4 DUP2 MSTORE PUSH1 0x20 ADD SWAP1 DUP2 MSTORE PUSH1 0x20 ADD PUSH1 0x0 KECCAK256 PUSH1 0x2 ADD SLOAD GT ISZERO PUSH2 0x3C7 JUMPI PUSH1 0x0 DUP1 DUP3 DUP2 MSTORE PUSH1 0x20 ADD SWAP1 DUP2 MSTORE PUSH1 0x20 ADD PUSH1 0x0 KECCAK256 PUSH1 0x0 ADD SLOAD DUP4 DUP4 DUP2 MLOAD DUP2 LT PUSH2 0x3AC JUMPI PUSH32 0x4E487B7100000000000000000000000000000000000000000000000000000000 PUSH1 0x0 MSTORE PUSH1 0x32 PUSH1 0x4 MSTORE PUSH1 0x24 PUSH1 0x0 REVERT JUMPDEST PUSH1 0x20 MUL PUSH1 0x20 ADD ADD DUP2 DUP2 MSTORE POP POP DUP2 DUP1 PUSH2 0x3C3 SWAP1 PUSH2 0x868 JUMP JUMPDEST SWAP3 POP POP JUMPDEST DUP1 DUP1 PUSH2 0x3D2 SWAP1 PUSH2 0x868 JUMP JUMPDEST SWAP2 POP POP PUSH2 0x337 JUMP JUMPDEST POP DUP2 SWAP4 POP POP POP POP SWAP2 SWAP1 POP JUMP JUMPDEST DUP3 DUP1 SLOAD PUSH2 0x3F2 SWAP1 PUSH2 0x805 JUMP JUMPDEST SWAP1 PUSH1 0x0 MSTORE PUSH1 0x20 PUSH1 0x0 KECCAK256 SWAP1 PUSH1 0x1F ADD PUSH1 0x20 SWAP1 DIV DUP2 ADD SWAP3 DUP3 PUSH2 0x414 JUMPI PUSH1 0x0 DUP6 SSTORE PUSH2 0x45B JUMP JUMPDEST DUP3 PUSH1 0x1F LT PUSH2 0x42D JUMPI DUP1 MLOAD PUSH1 0xFF NOT AND DUP4 DUP1 ADD OR DUP6 SSTORE PUSH2 0x45B JUMP JUMPDEST DUP3 DUP1 ADD PUSH1 0x1 ADD DUP6 SSTORE DUP3 ISZERO PUSH2 0x45B JUMPI SWAP2 DUP3 ADD JUMPDEST DUP3 DUP2 GT ISZERO PUSH2 0x45A JUMPI DUP3 MLOAD DUP3 SSTORE SWAP2 PUSH1 0x20 ADD SWAP2 SWAP1 PUSH1 0x1 ADD SWAP1 PUSH2 0x43F JUMP JUMPDEST JUMPDEST POP SWAP1 POP PUSH2 0x468 SWAP2 SWAP1 PUSH2 0x46C JUMP JUMPDEST POP SWAP1 JUMP JUMPDEST JUMPDEST DUP1 DUP3 GT ISZERO PUSH2 0x485 JUMPI PUSH1 0x0 DUP2 PUSH1 0x0 SWAP1 SSTORE POP PUSH1 0x1 ADD PUSH2 0x46D JUMP JUMPDEST POP SWAP1 JUMP JUMPDEST PUSH1 0x0 PUSH2 0x49C PUSH2 0x497 DUP5 PUSH2 0x733 JUMP JUMPDEST PUSH2 0x70E JUMP JUMPDEST SWAP1 POP DUP3 DUP2 MSTORE PUSH1 0x20 DUP2 ADD DUP5 DUP5 DUP5 ADD GT ISZERO PUSH2 0x4B4 JUMPI PUSH1 0x0 DUP1 REVERT JUMPDEST PUSH2 0x4BF DUP5 DUP3 DUP6 PUSH2 0x7C3 JUMP JUMPDEST POP SWAP4 SWAP3 POP POP POP JUMP JUMPDEST PUSH1 0x0 DUP3 PUSH1 0x1F DUP4 ADD SLT PUSH2 0x4D8 JUMPI PUSH1 0x0 DUP1 REVERT JUMPDEST DUP2 CALLDATALOAD PUSH2 0x4E8 DUP5 DUP3 PUSH1 0x20 DUP7 ADD PUSH2 0x489 JUMP JUMPDEST SWAP2 POP POP SWAP3 SWAP2 POP POP JUMP JUMPDEST PUSH1 0x0 DUP2 CALLDATALOAD SWAP1 POP PUSH2 0x500 DUP2 PUSH2 0x978 JUMP JUMPDEST SWAP3 SWAP2 POP POP JUMP JUMPDEST PUSH1 0x0 DUP1 PUSH1 0x40 DUP4 DUP6 SUB SLT ISZERO PUSH2 0x519 JUMPI PUSH1 0x0 DUP1 REVERT JUMPDEST PUSH1 0x0 DUP4 ADD CALLDATALOAD PUSH8 0xFFFFFFFFFFFFFFFF DUP2 GT ISZERO PUSH2 0x533 JUMPI PUSH1 0x0 DUP1 REVERT JUMPDEST PUSH2 0x53F DUP6 DUP3 DUP7 ADD PUSH2 0x4C7 JUMP JUMPDEST SWAP3 POP POP PUSH1 0x20 PUSH2 0x550 DUP6 DUP3 DUP7 ADD PUSH2 0x4F1 JUMP JUMPDEST SWAP2 POP POP SWAP3 POP SWAP3 SWAP1 POP JUMP JUMPDEST PUSH1 0x0 PUSH1 0x20 DUP3 DUP5 SUB SLT ISZERO PUSH2 0x56C JUMPI PUSH1 0x0 DUP1 REVERT JUMPDEST PUSH1 0x0 PUSH2 0x57A DUP5 DUP3 DUP6 ADD PUSH2 0x4F1 JUMP JUMPDEST SWAP2 POP POP SWAP3 SWAP2 POP POP JUMP JUMPDEST PUSH1 0x0 PUSH2 0x58F DUP4 DUP4 PUSH2 0x655 JUMP JUMPDEST PUSH1 0x20 DUP4 ADD SWAP1 POP SWAP3 SWAP2 POP POP JUMP JUMPDEST PUSH1 0x0 PUSH2 0x5A6 DUP3 PUSH2 0x774 JUMP JUMPDEST PUSH2 0x5B0 DUP2 DUP6 PUSH2 0x797 JUMP JUMPDEST SWAP4 POP PUSH2 0x5BB DUP4 PUSH2 0x764 JUMP JUMPDEST DUP1 PUSH1 0x0 JUMPDEST DUP4 DUP2 LT ISZERO PUSH2 0x5EC JUMPI DUP2 MLOAD PUSH2 0x5D3 DUP9 DUP3 PUSH2 0x583 JUMP JUMPDEST SWAP8 POP PUSH2 0x5DE DUP4 PUSH2 0x78A JUMP JUMPDEST SWAP3 POP POP PUSH1 0x1 DUP2 ADD SWAP1 POP PUSH2 0x5BF JUMP JUMPDEST POP DUP6 SWAP4 POP POP POP POP SWAP3 SWAP2 POP POP JUMP JUMPDEST PUSH1 0x0 PUSH2 0x604 DUP3 PUSH2 0x77F JUMP JUMPDEST PUSH2 0x60E DUP2 DUP6 PUSH2 0x7A8 JUMP JUMPDEST SWAP4 POP PUSH2 0x61E DUP2 DUP6 PUSH1 0x20 DUP7 ADD PUSH2 0x7D2 JUMP JUMPDEST PUSH2 0x627 DUP2 PUSH2 0x93E JUMP JUMPDEST DUP5 ADD SWAP2 POP POP SWAP3 SWAP2 POP POP JUMP JUMPDEST PUSH1 0x0 PUSH2 0x63F PUSH1 0x1A DUP4 PUSH2 0x7A8 JUMP JUMPDEST SWAP2 POP PUSH2 0x64A DUP3 PUSH2 0x94F JUMP JUMPDEST PUSH1 0x20 DUP3 ADD SWAP1 POP SWAP2 SWAP1 POP JUMP JUMPDEST PUSH2 0x65E DUP2 PUSH2 0x7B9 JUMP JUMPDEST DUP3 MSTORE POP POP JUMP JUMPDEST PUSH2 0x66D DUP2 PUSH2 0x7B9 JUMP JUMPDEST DUP3 MSTORE POP POP JUMP JUMPDEST PUSH1 0x0 PUSH1 0x20 DUP3 ADD SWAP1 POP DUP2 DUP2 SUB PUSH1 0x0 DUP4 ADD MSTORE PUSH2 0x68D DUP2 DUP5 PUSH2 0x59B JUMP JUMPDEST SWAP1 POP SWAP3 SWAP2 POP POP JUMP JUMPDEST PUSH1 0x0 PUSH1 0x20 DUP3 ADD SWAP1 POP DUP2 DUP2 SUB PUSH1 0x0 DUP4 ADD MSTORE PUSH2 0x6AE DUP2 PUSH2 0x632 JUMP JUMPDEST SWAP1 POP SWAP2 SWAP1 POP JUMP JUMPDEST PUSH1 0x0 PUSH1 0x20 DUP3 ADD SWAP1 POP PUSH2 0x6CA PUSH1 0x0 DUP4 ADD DUP5 PUSH2 0x664 JUMP JUMPDEST SWAP3 SWAP2 POP POP JUMP JUMPDEST PUSH1 0x0 PUSH1 0x60 DUP3 ADD SWAP1 POP PUSH2 0x6E5 PUSH1 0x0 DUP4 ADD DUP7 PUSH2 0x664 JUMP JUMPDEST DUP2 DUP2 SUB PUSH1 0x20 DUP4 ADD MSTORE PUSH2 0x6F7 DUP2 DUP6 PUSH2 0x5F9 JUMP JUMPDEST SWAP1 POP PUSH2 0x706 PUSH1 0x40 DUP4 ADD DUP5 PUSH2 0x664 JUMP JUMPDEST SWAP5 SWAP4 POP POP POP POP JUMP JUMPDEST PUSH1 0x0 PUSH2 0x718 PUSH2 0x729 JUMP JUMPDEST SWAP1 POP PUSH2 0x724 DUP3 DUP3 PUSH2 0x837 JUMP JUMPDEST SWAP2 SWAP1 POP JUMP JUMPDEST PUSH1 0x0 PUSH1 0x40 MLOAD SWAP1 POP SWAP1 JUMP JUMPDEST PUSH1 0x0 PUSH8 0xFFFFFFFFFFFFFFFF DUP3 GT ISZERO PUSH2 0x74E JUMPI PUSH2 0x74D PUSH2 0x90F JUMP JUMPDEST JUMPDEST PUSH2 0x757 DUP3 PUSH2 0x93E JUMP JUMPDEST SWAP1 POP PUSH1 0x20 DUP2 ADD SWAP1 POP SWAP2 SWAP1 POP JUMP JUMPDEST PUSH1 0x0 DUP2 SWAP1 POP PUSH1 0x20 DUP3 ADD SWAP1 POP SWAP2 SWAP1 POP JUMP JUMPDEST PUSH1 0x0 DUP2 MLOAD SWAP1 POP SWAP2 SWAP1 POP JUMP JUMPDEST PUSH1 0x0 DUP2 MLOAD SWAP1 POP SWAP2 SWAP1 POP JUMP JUMPDEST PUSH1 0x0 PUSH1 0x20 DUP3 ADD SWAP1 POP SWAP2 SWAP1 POP JUMP JUMPDEST PUSH1 0x0 DUP3 DUP3 MSTORE PUSH1 0x20 DUP3 ADD SWAP1 POP SWAP3 SWAP2 POP POP JUMP JUMPDEST PUSH1 0x0 DUP3 DUP3 MSTORE PUSH1 0x20 DUP3 ADD SWAP1 POP SWAP3 SWAP2 POP POP JUMP JUMPDEST PUSH1 0x0 DUP2 SWAP1 POP SWAP2 SWAP1 POP JUMP JUMPDEST DUP3 DUP2 DUP4 CALLDATACOPY PUSH1 0x0 DUP4 DUP4 ADD MSTORE POP POP POP JUMP JUMPDEST PUSH1 0x0 JUMPDEST DUP4 DUP2 LT ISZERO PUSH2 0x7F0 JUMPI DUP1 DUP3 ADD MLOAD DUP2 DUP5 ADD MSTORE PUSH1 0x20 DUP2 ADD SWAP1 POP PUSH2 0x7D5 JUMP JUMPDEST DUP4 DUP2 GT ISZERO PUSH2 0x7FF JUMPI PUSH1 0x0 DUP5 DUP5 ADD MSTORE JUMPDEST POP POP POP POP JUMP JUMPDEST PUSH1 0x0 PUSH1 0x2 DUP3 DIV SWAP1 POP PUSH1 0x1 DUP3 AND DUP1 PUSH2 0x81D JUMPI PUSH1 0x7F DUP3 AND SWAP2 POP JUMPDEST PUSH1 0x20 DUP3 LT DUP2 EQ ISZERO PUSH2 0x831 JUMPI PUSH2 0x830 PUSH2 0x8E0 JUMP JUMPDEST JUMPDEST POP SWAP2 SWAP1 POP JUMP JUMPDEST PUSH2 0x840 DUP3 PUSH2 0x93E JUMP JUMPDEST DUP2 ADD DUP2 DUP2 LT PUSH8 0xFFFFFFFFFFFFFFFF DUP3 GT OR ISZERO PUSH2 0x85F JUMPI PUSH2 0x85E PUSH2 0x90F JUMP JUMPDEST JUMPDEST DUP1 PUSH1 0x40 MSTORE POP POP POP JUMP JUMPDEST PUSH1 0x0 PUSH2 0x873 DUP3 PUSH2 0x7B9 JUMP JUMPDEST SWAP2 POP PUSH32 0xFFFFFFFFFFFFFFFFFFFFFFFFFFFFFFFFFFFFFFFFFFFFFFFFFFFFFFFFFFFFFFFF DUP3 EQ ISZERO PUSH2 0x8A6 JUMPI PUSH2 0x8A5 PUSH2 0x8B1 JUMP JUMPDEST JUMPDEST PUSH1 0x1 DUP3 ADD SWAP1 POP SWAP2 SWAP1 POP JUMP JUMPDEST PUSH32 0x4E487B7100000000000000000000000000000000000000000000000000000000 PUSH1 0x0 MSTORE PUSH1 0x11 PUSH1 0x4 MSTORE PUSH1 0x24 PUSH1 0x0 REVERT JUMPDEST PUSH32 0x4E487B7100000000000000000000000000000000000000000000000000000000 PUSH1 0x0 MSTORE PUSH1 0x22 PUSH1 0x4 MSTORE PUSH1 0x24 PUSH1 0x0 REVERT JUMPDEST PUSH32 0x4E487B7100000000000000000000000000000000000000000000000000000000 PUSH1 0x0 MSTORE PUSH1 0x41 PUSH1 0x4 MSTORE PUSH1 0x24 PUSH1 0x0 REVERT JUMPDEST PUSH1 0x0 PUSH1 0x1F NOT PUSH1 0x1F DUP4 ADD AND SWAP1 POP SWAP2 SWAP1 POP JUMP JUMPDEST PUSH32 0x4D757374206265206F766572203138207965617273206F6C642E000000000000 PUSH1 0x0 DUP3 ADD MSTORE POP JUMP JUMPDEST PUSH2 0x981 DUP2 PUSH2 0x7B9 JUMP JUMPDEST DUP2 EQ PUSH2 0x98C JUMPI PUSH1 0x0 DUP1 REVERT JUMPDEST POP JUMP INVALID LOG2 PUSH5 0x6970667358 0x22 SLT KECCAK256 0xB2 0xEF LT 0xEC 0x23 0xA7 0xCB 0xA8 PUSH12 0x1410EF6FBAB3130FC30C9E81 0x27 0xA7 CALLVALUE 0x4A PUSH21 0x7970E6718D7664736F6C6343000804003300000000 "
				},
				"gasEstimates": {
					"creation": {
						"codeDepositCost": "500200",
						"executionCost": "537",
						"totalCost": "500737"
					},
					"external": {
						"addPerson(string,uint256)": "infinite",
						"getPeopleOverAge(uint256)": "infinite",
						"people(uint256)": "infinite",
						"peopleCount()": "1107"
					}
				},
				"methodIdentifiers": {
					"addPerson(string,uint256)": "6f760f41",
					"getPeopleOverAge(uint256)": "c9de7989",
					"people(uint256)": "9e7a13ad",
					"peopleCount()": "267c68e0"
				}
			},
			"storageLayout": {
				"storage": [
					{
						"astId": 13,
						"contract": "Comparison Optimizer/test5.sol:ComplexExample",
						"label": "people",
						"offset": 0,
						"slot": "0",
						"type": "t_mapping(t_uint256,t_struct(Person)8_storage)"
					},
					{
						"astId": 15,
						"contract": "Comparison Optimizer/test5.sol:ComplexExample",
						"label": "peopleCount",
						"offset": 0,
						"slot": "1",
						"type": "t_uint256"
					}
				],
				"types": {
					"t_mapping(t_uint256,t_struct(Person)8_storage)": {
						"encoding": "mapping",
						"key": "t_uint256",
						"label": "mapping(uint256 => struct ComplexExample.Person)",
						"numberOfBytes": "32",
						"value": "t_struct(Person)8_storage"
					},
					"t_string_storage": {
						"encoding": "bytes",
						"label": "string",
						"numberOfBytes": "32"
					},
					"t_struct(Person)8_storage": {
						"encoding": "inplace",
						"label": "struct ComplexExample.Person",
						"members": [
							{
								"astId": 3,
								"contract": "Comparison Optimizer/test5.sol:ComplexExample",
								"label": "id",
								"offset": 0,
								"slot": "0",
								"type": "t_uint256"
							},
							{
								"astId": 5,
								"contract": "Comparison Optimizer/test5.sol:ComplexExample",
								"label": "name",
								"offset": 0,
								"slot": "1",
								"type": "t_string_storage"
							},
							{
								"astId": 7,
								"contract": "Comparison Optimizer/test5.sol:ComplexExample",
								"label": "age",
								"offset": 0,
								"slot": "2",
								"type": "t_uint256"
							}
						],
						"numberOfBytes": "96"
					},
					"t_uint256": {
						"encoding": "inplace",
						"label": "uint256",
						"numberOfBytes": "32"
					}
				}
			},
			"userdoc": {
				"kind": "user",
				"methods": {},
				"version": 1
			}
		}
	}
}