{
	"Packing Variables into a single block Optimizer/test26.sol": {
		"TestContract": {
			"abi": [
				{
					"inputs": [],
					"name": "getValues",
					"outputs": [
						{
							"internalType": "uint128",
							"name": "",
							"type": "uint128"
						},
						{
							"internalType": "uint256",
							"name": "",
							"type": "uint256"
						},
						{
							"internalType": "uint128",
							"name": "",
							"type": "uint128"
						}
					],
					"stateMutability": "view",
					"type": "function"
				},
				{
					"inputs": [
						{
							"internalType": "uint128",
							"name": "_a",
							"type": "uint128"
						},
						{
							"internalType": "uint256",
							"name": "_b",
							"type": "uint256"
						},
						{
							"internalType": "uint128",
							"name": "_c",
							"type": "uint128"
						}
					],
					"name": "setValues",
					"outputs": [],
					"stateMutability": "nonpayable",
					"type": "function"
				}
			],
			"devdoc": {
				"kind": "dev",
				"methods": {},
				"version": 1
			},
			"evm": {
				"assembly": "    /* \"Packing Variables into a single block Optimizer/test26.sol\":64:339  contract TestContract {... */\n  mstore(0x40, 0x80)\n  callvalue\n  dup1\n  iszero\n  tag_1\n  jumpi\n  0x00\n  dup1\n  revert\ntag_1:\n  pop\n  dataSize(sub_0)\n  dup1\n  dataOffset(sub_0)\n  0x00\n  codecopy\n  0x00\n  return\nstop\n\nsub_0: assembly {\n        /* \"Packing Variables into a single block Optimizer/test26.sol\":64:339  contract TestContract {... */\n      mstore(0x40, 0x80)\n      callvalue\n      dup1\n      iszero\n      tag_1\n      jumpi\n      0x00\n      dup1\n      revert\n    tag_1:\n      pop\n      jumpi(tag_2, lt(calldatasize, 0x04))\n      shr(0xe0, calldataload(0x00))\n      dup1\n      0x19eb4a90\n      eq\n      tag_3\n      jumpi\n      dup1\n      0xcf280206\n      eq\n      tag_4\n      jumpi\n    tag_2:\n      0x00\n      dup1\n      revert\n        /* \"Packing Variables into a single block Optimizer/test26.sol\":241:337  function getValues() public view returns (uint128, uint256, uint128) {... */\n    tag_3:\n        /* \"Packing Variables into a single block Optimizer/test26.sol\":283:290  uint128 */\n      0x00\n        /* \"Packing Variables into a single block Optimizer/test26.sol\":324:325  a */\n      sload\n      0x01\n        /* \"Packing Variables into a single block Optimizer/test26.sol\":327:328  b */\n      sload\n        /* \"Packing Variables into a single block Optimizer/test26.sol\":330:331  c */\n      sload(0x02)\n        /* \"Packing Variables into a single block Optimizer/test26.sol\":241:337  function getValues() public view returns (uint128, uint256, uint128) {... */\n      0x40\n      dup1\n      mload\n      sub(shl(0x80, 0x01), 0x01)\n        /* \"Packing Variables into a single block Optimizer/test26.sol\":324:325  a */\n      swap5\n      dup6\n      and\n        /* \"#utility.yul\":805:839   */\n      dup2\n      mstore\n        /* \"#utility.yul\":870:872   */\n      0x20\n        /* \"#utility.yul\":855:873   */\n      dup2\n      add\n        /* \"#utility.yul\":848:882   */\n      swap4\n      swap1\n      swap4\n      mstore\n        /* \"Packing Variables into a single block Optimizer/test26.sol\":330:331  c */\n      swap3\n      and\n        /* \"#utility.yul\":898:916   */\n      dup2\n      dup4\n      add\n        /* \"#utility.yul\":891:934   */\n      mstore\n        /* \"Packing Variables into a single block Optimizer/test26.sol\":241:337  function getValues() public view returns (uint128, uint256, uint128) {... */\n      swap1\n      mload\n      swap1\n      dup2\n      swap1\n      sub\n        /* \"#utility.yul\":740:742   */\n      0x60\n        /* \"Packing Variables into a single block Optimizer/test26.sol\":241:337  function getValues() public view returns (uint128, uint256, uint128) {... */\n      add\n      swap1\n      return\n        /* \"Packing Variables into a single block Optimizer/test26.sol\":132:235  function setValues(uint128 _a, uint256 _b, uint128 _c) public {... */\n    tag_4:\n      tag_9\n      tag_10\n      calldatasize\n      0x04\n      tag_11\n      jump\t// in\n    tag_10:\n        /* \"Packing Variables into a single block Optimizer/test26.sol\":200:201  a */\n      0x00\n        /* \"Packing Variables into a single block Optimizer/test26.sol\":200:206  a = _a */\n      dup1\n      sload\n      sub(shl(0x80, 0x01), 0x01)\n      swap5\n      dup6\n      and\n      not(0xffffffffffffffffffffffffffffffff)\n      swap2\n      dup3\n      and\n      or\n      swap1\n      swap2\n      sstore\n      0x01\n        /* \"Packing Variables into a single block Optimizer/test26.sol\":212:218  b = _b */\n      swap3\n      swap1\n      swap3\n      sstore\n        /* \"Packing Variables into a single block Optimizer/test26.sol\":224:225  c */\n      0x02\n        /* \"Packing Variables into a single block Optimizer/test26.sol\":224:230  c = _c */\n      dup1\n      sload\n      swap2\n      swap1\n      swap4\n      and\n      swap2\n      and\n      or\n      swap1\n      sstore\n        /* \"Packing Variables into a single block Optimizer/test26.sol\":132:235  function setValues(uint128 _a, uint256 _b, uint128 _c) public {... */\n      jump\n    tag_9:\n      stop\n        /* \"#utility.yul\":14:202   */\n    tag_16:\n        /* \"#utility.yul\":82:102   */\n      dup1\n      calldataload\n      sub(shl(0x80, 0x01), 0x01)\n        /* \"#utility.yul\":131:177   */\n      dup2\n      and\n        /* \"#utility.yul\":121:178   */\n      dup2\n      eq\n        /* \"#utility.yul\":111:113   */\n      tag_18\n      jumpi\n        /* \"#utility.yul\":192:193   */\n      0x00\n        /* \"#utility.yul\":189:190   */\n      dup1\n        /* \"#utility.yul\":182:194   */\n      revert\n        /* \"#utility.yul\":111:113   */\n    tag_18:\n        /* \"#utility.yul\":63:202   */\n      swap2\n      swap1\n      pop\n      jump\t// out\n        /* \"#utility.yul\":207:545   */\n    tag_11:\n        /* \"#utility.yul\":284:290   */\n      0x00\n        /* \"#utility.yul\":292:298   */\n      dup1\n        /* \"#utility.yul\":300:306   */\n      0x00\n        /* \"#utility.yul\":353:355   */\n      0x60\n        /* \"#utility.yul\":341:350   */\n      dup5\n        /* \"#utility.yul\":332:339   */\n      dup7\n        /* \"#utility.yul\":328:351   */\n      sub\n        /* \"#utility.yul\":324:356   */\n      slt\n        /* \"#utility.yul\":321:323   */\n      iszero\n      tag_20\n      jumpi\n        /* \"#utility.yul\":374:380   */\n      dup3\n        /* \"#utility.yul\":366:372   */\n      dup4\n        /* \"#utility.yul\":359:381   */\n      revert\n        /* \"#utility.yul\":321:323   */\n    tag_20:\n        /* \"#utility.yul\":402:431   */\n      tag_21\n        /* \"#utility.yul\":421:430   */\n      dup5\n        /* \"#utility.yul\":402:431   */\n      tag_16\n      jump\t// in\n    tag_21:\n        /* \"#utility.yul\":392:431   */\n      swap3\n      pop\n        /* \"#utility.yul\":478:480   */\n      0x20\n        /* \"#utility.yul\":467:476   */\n      dup5\n        /* \"#utility.yul\":463:481   */\n      add\n        /* \"#utility.yul\":450:482   */\n      calldataload\n        /* \"#utility.yul\":440:482   */\n      swap2\n      pop\n        /* \"#utility.yul\":501:539   */\n      tag_22\n        /* \"#utility.yul\":535:537   */\n      0x40\n        /* \"#utility.yul\":524:533   */\n      dup6\n        /* \"#utility.yul\":520:538   */\n      add\n        /* \"#utility.yul\":501:539   */\n      tag_16\n      jump\t// in\n    tag_22:\n        /* \"#utility.yul\":491:539   */\n      swap1\n      pop\n        /* \"#utility.yul\":311:545   */\n      swap3\n      pop\n      swap3\n      pop\n      swap3\n      jump\t// out\n\n    auxdata: 0xa264697066735822122030c85fa48e222413dc8f141d7737913a6b77e51b7bac5b64d48415808f10345264736f6c63430008040033\n}\n",
				"bytecode": {
					"linkReferences": {},
					"object": "608060405234801561001057600080fd5b50610149806100206000396000f3fe608060405234801561001057600080fd5b50600436106100365760003560e01c806319eb4a901461003b578063cf2802061461006f575b600080fd5b600054600154600254604080516001600160801b039485168152602081019390935292168183015290519081900360600190f35b6100ba61007d3660046100d8565b600080546001600160801b039485166fffffffffffffffffffffffffffffffff199182161790915560019290925560028054919093169116179055565b005b80356001600160801b03811681146100d357600080fd5b919050565b6000806000606084860312156100ec578283fd5b6100f5846100bc565b92506020840135915061010a604085016100bc565b9050925092509256fea264697066735822122030c85fa48e222413dc8f141d7737913a6b77e51b7bac5b64d48415808f10345264736f6c63430008040033",
					"opcodes": "PUSH1 0x80 PUSH1 0x40 MSTORE CALLVALUE DUP1 ISZERO PUSH2 0x10 JUMPI PUSH1 0x0 DUP1 REVERT JUMPDEST POP PUSH2 0x149 DUP1 PUSH2 0x20 PUSH1 0x0 CODECOPY PUSH1 0x0 RETURN INVALID PUSH1 0x80 PUSH1 0x40 MSTORE CALLVALUE DUP1 ISZERO PUSH2 0x10 JUMPI PUSH1 0x0 DUP1 REVERT JUMPDEST POP PUSH1 0x4 CALLDATASIZE LT PUSH2 0x36 JUMPI PUSH1 0x0 CALLDATALOAD PUSH1 0xE0 SHR DUP1 PUSH4 0x19EB4A90 EQ PUSH2 0x3B JUMPI DUP1 PUSH4 0xCF280206 EQ PUSH2 0x6F JUMPI JUMPDEST PUSH1 0x0 DUP1 REVERT JUMPDEST PUSH1 0x0 SLOAD PUSH1 0x1 SLOAD PUSH1 0x2 SLOAD PUSH1 0x40 DUP1 MLOAD PUSH1 0x1 PUSH1 0x1 PUSH1 0x80 SHL SUB SWAP5 DUP6 AND DUP2 MSTORE PUSH1 0x20 DUP2 ADD SWAP4 SWAP1 SWAP4 MSTORE SWAP3 AND DUP2 DUP4 ADD MSTORE SWAP1 MLOAD SWAP1 DUP2 SWAP1 SUB PUSH1 0x60 ADD SWAP1 RETURN JUMPDEST PUSH2 0xBA PUSH2 0x7D CALLDATASIZE PUSH1 0x4 PUSH2 0xD8 JUMP JUMPDEST PUSH1 0x0 DUP1 SLOAD PUSH1 0x1 PUSH1 0x1 PUSH1 0x80 SHL SUB SWAP5 DUP6 AND PUSH16 0xFFFFFFFFFFFFFFFFFFFFFFFFFFFFFFFF NOT SWAP2 DUP3 AND OR SWAP1 SWAP2 SSTORE PUSH1 0x1 SWAP3 SWAP1 SWAP3 SSTORE PUSH1 0x2 DUP1 SLOAD SWAP2 SWAP1 SWAP4 AND SWAP2 AND OR SWAP1 SSTORE JUMP JUMPDEST STOP JUMPDEST DUP1 CALLDATALOAD PUSH1 0x1 PUSH1 0x1 PUSH1 0x80 SHL SUB DUP2 AND DUP2 EQ PUSH2 0xD3 JUMPI PUSH1 0x0 DUP1 REVERT JUMPDEST SWAP2 SWAP1 POP JUMP JUMPDEST PUSH1 0x0 DUP1 PUSH1 0x0 PUSH1 0x60 DUP5 DUP7 SUB SLT ISZERO PUSH2 0xEC JUMPI DUP3 DUP4 REVERT JUMPDEST PUSH2 0xF5 DUP5 PUSH2 0xBC JUMP JUMPDEST SWAP3 POP PUSH1 0x20 DUP5 ADD CALLDATALOAD SWAP2 POP PUSH2 0x10A PUSH1 0x40 DUP6 ADD PUSH2 0xBC JUMP JUMPDEST SWAP1 POP SWAP3 POP SWAP3 POP SWAP3 JUMP INVALID LOG2 PUSH5 0x6970667358 0x22 SLT KECCAK256 ADDRESS 0xC8 0x5F LOG4 DUP15 0x22 0x24 SGT 0xDC DUP16 EQ SAR PUSH24 0x37913A6B77E51B7BAC5B64D48415808F10345264736F6C63 NUMBER STOP ADDMOD DIV STOP CALLER "
				},
				"gasEstimates": {
					"creation": {
						"codeDepositCost": "65800",
						"executionCost": "117",
						"totalCost": "65917"
					},
					"external": {
						"getValues()": "2624",
						"setValues(uint128,uint256,uint128)": "infinite"
					}
				},
				"methodIdentifiers": {
					"getValues()": "19eb4a90",
					"setValues(uint128,uint256,uint128)": "cf280206"
				}
			},
			"storageLayout": {
				"storage": [
					{
						"astId": 3,
						"contract": "Packing Variables into a single block Optimizer/test26.sol:TestContract",
						"label": "a",
						"offset": 0,
						"slot": "0",
						"type": "t_uint128"
					},
					{
						"astId": 5,
						"contract": "Packing Variables into a single block Optimizer/test26.sol:TestContract",
						"label": "b",
						"offset": 0,
						"slot": "1",
						"type": "t_uint256"
					},
					{
						"astId": 7,
						"contract": "Packing Variables into a single block Optimizer/test26.sol:TestContract",
						"label": "c",
						"offset": 0,
						"slot": "2",
						"type": "t_uint128"
					}
				],
				"types": {
					"t_uint128": {
						"encoding": "inplace",
						"label": "uint128",
						"numberOfBytes": "16"
					},
					"t_uint256": {
						"encoding": "inplace",
						"label": "uint256",
						"numberOfBytes": "32"
					}
				}
			},
			"userdoc": {
				"kind": "user",
				"methods": {},
				"version": 1
			}
		}
	}
}