{
	"Packing Variables into a single block Optimizer/optimized_test26.sol": {
		"TestContract": {
			"abi": [
				{
					"inputs": [],
					"name": "getValues",
					"outputs": [
						{
							"internalType": "uint128",
							"name": "",
							"type": "uint128"
						},
						{
							"internalType": "uint256",
							"name": "",
							"type": "uint256"
						},
						{
							"internalType": "uint128",
							"name": "",
							"type": "uint128"
						}
					],
					"stateMutability": "view",
					"type": "function"
				},
				{
					"inputs": [
						{
							"internalType": "uint128",
							"name": "_a",
							"type": "uint128"
						},
						{
							"internalType": "uint256",
							"name": "_b",
							"type": "uint256"
						},
						{
							"internalType": "uint128",
							"name": "_c",
							"type": "uint128"
						}
					],
					"name": "setValues",
					"outputs": [],
					"stateMutability": "nonpayable",
					"type": "function"
				}
			],
			"devdoc": {
				"kind": "dev",
				"methods": {},
				"version": 1
			},
			"evm": {
				"assembly": "    /* \"Packing Variables into a single block Optimizer/optimized_test26.sol\":64:339  contract TestContract {... */\n  mstore(0x40, 0x80)\n  callvalue\n  dup1\n  iszero\n  tag_1\n  jumpi\n  0x00\n  dup1\n  revert\ntag_1:\n  pop\n  dataSize(sub_0)\n  dup1\n  dataOffset(sub_0)\n  0x00\n  codecopy\n  0x00\n  return\nstop\n\nsub_0: assembly {\n        /* \"Packing Variables into a single block Optimizer/optimized_test26.sol\":64:339  contract TestContract {... */\n      mstore(0x40, 0x80)\n      callvalue\n      dup1\n      iszero\n      tag_1\n      jumpi\n      0x00\n      dup1\n      revert\n    tag_1:\n      pop\n      jumpi(tag_2, lt(calldatasize, 0x04))\n      shr(0xe0, calldataload(0x00))\n      dup1\n      0x19eb4a90\n      eq\n      tag_3\n      jumpi\n      dup1\n      0xcf280206\n      eq\n      tag_4\n      jumpi\n    tag_2:\n      0x00\n      dup1\n      revert\n        /* \"Packing Variables into a single block Optimizer/optimized_test26.sol\":241:337  function getValues() public view returns (uint128, uint256, uint128) {... */\n    tag_3:\n      tag_5\n      tag_6\n      jump\t// in\n    tag_5:\n      mload(0x40)\n      tag_7\n      swap4\n      swap3\n      swap2\n      swap1\n      tag_8\n      jump\t// in\n    tag_7:\n      mload(0x40)\n      dup1\n      swap2\n      sub\n      swap1\n      return\n        /* \"Packing Variables into a single block Optimizer/optimized_test26.sol\":132:235  function setValues(uint128 _a, uint256 _b, uint128 _c) public {... */\n    tag_4:\n      tag_9\n      0x04\n      dup1\n      calldatasize\n      sub\n      dup2\n      add\n      swap1\n      tag_10\n      swap2\n      swap1\n      tag_11\n      jump\t// in\n    tag_10:\n      tag_12\n      jump\t// in\n    tag_9:\n      stop\n        /* \"Packing Variables into a single block Optimizer/optimized_test26.sol\":241:337  function getValues() public view returns (uint128, uint256, uint128) {... */\n    tag_6:\n        /* \"Packing Variables into a single block Optimizer/optimized_test26.sol\":283:290  uint128 */\n      0x00\n        /* \"Packing Variables into a single block Optimizer/optimized_test26.sol\":292:299  uint256 */\n      dup1\n        /* \"Packing Variables into a single block Optimizer/optimized_test26.sol\":301:308  uint128 */\n      0x00\n        /* \"Packing Variables into a single block Optimizer/optimized_test26.sol\":324:325  a */\n      dup1\n      0x00\n      swap1\n      sload\n      swap1\n      0x0100\n      exp\n      swap1\n      div\n      0xffffffffffffffffffffffffffffffff\n      and\n        /* \"Packing Variables into a single block Optimizer/optimized_test26.sol\":327:328  b */\n      sload(0x01)\n        /* \"Packing Variables into a single block Optimizer/optimized_test26.sol\":330:331  c */\n      0x00\n      0x10\n      swap1\n      sload\n      swap1\n      0x0100\n      exp\n      swap1\n      div\n      0xffffffffffffffffffffffffffffffff\n      and\n        /* \"Packing Variables into a single block Optimizer/optimized_test26.sol\":316:332  return (a, b, c) */\n      swap3\n      pop\n      swap3\n      pop\n      swap3\n      pop\n        /* \"Packing Variables into a single block Optimizer/optimized_test26.sol\":241:337  function getValues() public view returns (uint128, uint256, uint128) {... */\n      swap1\n      swap2\n      swap3\n      jump\t// out\n        /* \"Packing Variables into a single block Optimizer/optimized_test26.sol\":132:235  function setValues(uint128 _a, uint256 _b, uint128 _c) public {... */\n    tag_12:\n        /* \"Packing Variables into a single block Optimizer/optimized_test26.sol\":204:206  _a */\n      dup3\n        /* \"Packing Variables into a single block Optimizer/optimized_test26.sol\":200:201  a */\n      0x00\n      dup1\n        /* \"Packing Variables into a single block Optimizer/optimized_test26.sol\":200:206  a = _a */\n      0x0100\n      exp\n      dup2\n      sload\n      dup2\n      0xffffffffffffffffffffffffffffffff\n      mul\n      not\n      and\n      swap1\n      dup4\n      0xffffffffffffffffffffffffffffffff\n      and\n      mul\n      or\n      swap1\n      sstore\n      pop\n        /* \"Packing Variables into a single block Optimizer/optimized_test26.sol\":216:218  _b */\n      dup2\n        /* \"Packing Variables into a single block Optimizer/optimized_test26.sol\":212:213  b */\n      0x01\n        /* \"Packing Variables into a single block Optimizer/optimized_test26.sol\":212:218  b = _b */\n      dup2\n      swap1\n      sstore\n      pop\n        /* \"Packing Variables into a single block Optimizer/optimized_test26.sol\":228:230  _c */\n      dup1\n        /* \"Packing Variables into a single block Optimizer/optimized_test26.sol\":224:225  c */\n      0x00\n      0x10\n        /* \"Packing Variables into a single block Optimizer/optimized_test26.sol\":224:230  c = _c */\n      0x0100\n      exp\n      dup2\n      sload\n      dup2\n      0xffffffffffffffffffffffffffffffff\n      mul\n      not\n      and\n      swap1\n      dup4\n      0xffffffffffffffffffffffffffffffff\n      and\n      mul\n      or\n      swap1\n      sstore\n      pop\n        /* \"Packing Variables into a single block Optimizer/optimized_test26.sol\":132:235  function setValues(uint128 _a, uint256 _b, uint128 _c) public {... */\n      pop\n      pop\n      pop\n      jump\t// out\n        /* \"#utility.yul\":7:146   */\n    tag_16:\n        /* \"#utility.yul\":53:58   */\n      0x00\n        /* \"#utility.yul\":91:97   */\n      dup2\n        /* \"#utility.yul\":78:98   */\n      calldataload\n        /* \"#utility.yul\":69:98   */\n      swap1\n      pop\n        /* \"#utility.yul\":107:140   */\n      tag_18\n        /* \"#utility.yul\":134:139   */\n      dup2\n        /* \"#utility.yul\":107:140   */\n      tag_19\n      jump\t// in\n    tag_18:\n        /* \"#utility.yul\":59:146   */\n      swap3\n      swap2\n      pop\n      pop\n      jump\t// out\n        /* \"#utility.yul\":152:291   */\n    tag_20:\n        /* \"#utility.yul\":198:203   */\n      0x00\n        /* \"#utility.yul\":236:242   */\n      dup2\n        /* \"#utility.yul\":223:243   */\n      calldataload\n        /* \"#utility.yul\":214:243   */\n      swap1\n      pop\n        /* \"#utility.yul\":252:285   */\n      tag_22\n        /* \"#utility.yul\":279:284   */\n      dup2\n        /* \"#utility.yul\":252:285   */\n      tag_23\n      jump\t// in\n    tag_22:\n        /* \"#utility.yul\":204:291   */\n      swap3\n      swap2\n      pop\n      pop\n      jump\t// out\n        /* \"#utility.yul\":297:849   */\n    tag_11:\n        /* \"#utility.yul\":374:380   */\n      0x00\n        /* \"#utility.yul\":382:388   */\n      dup1\n        /* \"#utility.yul\":390:396   */\n      0x00\n        /* \"#utility.yul\":439:441   */\n      0x60\n        /* \"#utility.yul\":427:436   */\n      dup5\n        /* \"#utility.yul\":418:425   */\n      dup7\n        /* \"#utility.yul\":414:437   */\n      sub\n        /* \"#utility.yul\":410:442   */\n      slt\n        /* \"#utility.yul\":407:409   */\n      iszero\n      tag_25\n      jumpi\n        /* \"#utility.yul\":455:456   */\n      0x00\n        /* \"#utility.yul\":452:453   */\n      dup1\n        /* \"#utility.yul\":445:457   */\n      revert\n        /* \"#utility.yul\":407:409   */\n    tag_25:\n        /* \"#utility.yul\":498:499   */\n      0x00\n        /* \"#utility.yul\":523:576   */\n      tag_26\n        /* \"#utility.yul\":568:575   */\n      dup7\n        /* \"#utility.yul\":559:565   */\n      dup3\n        /* \"#utility.yul\":548:557   */\n      dup8\n        /* \"#utility.yul\":544:566   */\n      add\n        /* \"#utility.yul\":523:576   */\n      tag_16\n      jump\t// in\n    tag_26:\n        /* \"#utility.yul\":513:576   */\n      swap4\n      pop\n        /* \"#utility.yul\":469:586   */\n      pop\n        /* \"#utility.yul\":625:627   */\n      0x20\n        /* \"#utility.yul\":651:704   */\n      tag_27\n        /* \"#utility.yul\":696:703   */\n      dup7\n        /* \"#utility.yul\":687:693   */\n      dup3\n        /* \"#utility.yul\":676:685   */\n      dup8\n        /* \"#utility.yul\":672:694   */\n      add\n        /* \"#utility.yul\":651:704   */\n      tag_20\n      jump\t// in\n    tag_27:\n        /* \"#utility.yul\":641:704   */\n      swap3\n      pop\n        /* \"#utility.yul\":596:714   */\n      pop\n        /* \"#utility.yul\":753:755   */\n      0x40\n        /* \"#utility.yul\":779:832   */\n      tag_28\n        /* \"#utility.yul\":824:831   */\n      dup7\n        /* \"#utility.yul\":815:821   */\n      dup3\n        /* \"#utility.yul\":804:813   */\n      dup8\n        /* \"#utility.yul\":800:822   */\n      add\n        /* \"#utility.yul\":779:832   */\n      tag_16\n      jump\t// in\n    tag_28:\n        /* \"#utility.yul\":769:832   */\n      swap2\n      pop\n        /* \"#utility.yul\":724:842   */\n      pop\n        /* \"#utility.yul\":397:849   */\n      swap3\n      pop\n      swap3\n      pop\n      swap3\n      jump\t// out\n        /* \"#utility.yul\":855:973   */\n    tag_29:\n        /* \"#utility.yul\":942:966   */\n      tag_31\n        /* \"#utility.yul\":960:965   */\n      dup2\n        /* \"#utility.yul\":942:966   */\n      tag_32\n      jump\t// in\n    tag_31:\n        /* \"#utility.yul\":937:940   */\n      dup3\n        /* \"#utility.yul\":930:967   */\n      mstore\n        /* \"#utility.yul\":920:973   */\n      pop\n      pop\n      jump\t// out\n        /* \"#utility.yul\":979:1097   */\n    tag_33:\n        /* \"#utility.yul\":1066:1090   */\n      tag_35\n        /* \"#utility.yul\":1084:1089   */\n      dup2\n        /* \"#utility.yul\":1066:1090   */\n      tag_36\n      jump\t// in\n    tag_35:\n        /* \"#utility.yul\":1061:1064   */\n      dup3\n        /* \"#utility.yul\":1054:1091   */\n      mstore\n        /* \"#utility.yul\":1044:1097   */\n      pop\n      pop\n      jump\t// out\n        /* \"#utility.yul\":1103:1545   */\n    tag_8:\n        /* \"#utility.yul\":1252:1256   */\n      0x00\n        /* \"#utility.yul\":1290:1292   */\n      0x60\n        /* \"#utility.yul\":1279:1288   */\n      dup3\n        /* \"#utility.yul\":1275:1293   */\n      add\n        /* \"#utility.yul\":1267:1293   */\n      swap1\n      pop\n        /* \"#utility.yul\":1303:1374   */\n      tag_38\n        /* \"#utility.yul\":1371:1372   */\n      0x00\n        /* \"#utility.yul\":1360:1369   */\n      dup4\n        /* \"#utility.yul\":1356:1373   */\n      add\n        /* \"#utility.yul\":1347:1353   */\n      dup7\n        /* \"#utility.yul\":1303:1374   */\n      tag_29\n      jump\t// in\n    tag_38:\n        /* \"#utility.yul\":1384:1456   */\n      tag_39\n        /* \"#utility.yul\":1452:1454   */\n      0x20\n        /* \"#utility.yul\":1441:1450   */\n      dup4\n        /* \"#utility.yul\":1437:1455   */\n      add\n        /* \"#utility.yul\":1428:1434   */\n      dup6\n        /* \"#utility.yul\":1384:1456   */\n      tag_33\n      jump\t// in\n    tag_39:\n        /* \"#utility.yul\":1466:1538   */\n      tag_40\n        /* \"#utility.yul\":1534:1536   */\n      0x40\n        /* \"#utility.yul\":1523:1532   */\n      dup4\n        /* \"#utility.yul\":1519:1537   */\n      add\n        /* \"#utility.yul\":1510:1516   */\n      dup5\n        /* \"#utility.yul\":1466:1538   */\n      tag_29\n      jump\t// in\n    tag_40:\n        /* \"#utility.yul\":1257:1545   */\n      swap5\n      swap4\n      pop\n      pop\n      pop\n      pop\n      jump\t// out\n        /* \"#utility.yul\":1551:1669   */\n    tag_32:\n        /* \"#utility.yul\":1588:1595   */\n      0x00\n        /* \"#utility.yul\":1628:1662   */\n      0xffffffffffffffffffffffffffffffff\n        /* \"#utility.yul\":1621:1626   */\n      dup3\n        /* \"#utility.yul\":1617:1663   */\n      and\n        /* \"#utility.yul\":1606:1663   */\n      swap1\n      pop\n        /* \"#utility.yul\":1596:1669   */\n      swap2\n      swap1\n      pop\n      jump\t// out\n        /* \"#utility.yul\":1675:1752   */\n    tag_36:\n        /* \"#utility.yul\":1712:1719   */\n      0x00\n        /* \"#utility.yul\":1741:1746   */\n      dup2\n        /* \"#utility.yul\":1730:1746   */\n      swap1\n      pop\n        /* \"#utility.yul\":1720:1752   */\n      swap2\n      swap1\n      pop\n      jump\t// out\n        /* \"#utility.yul\":1758:1880   */\n    tag_19:\n        /* \"#utility.yul\":1831:1855   */\n      tag_44\n        /* \"#utility.yul\":1849:1854   */\n      dup2\n        /* \"#utility.yul\":1831:1855   */\n      tag_32\n      jump\t// in\n    tag_44:\n        /* \"#utility.yul\":1824:1829   */\n      dup2\n        /* \"#utility.yul\":1821:1856   */\n      eq\n        /* \"#utility.yul\":1811:1813   */\n      tag_45\n      jumpi\n        /* \"#utility.yul\":1870:1871   */\n      0x00\n        /* \"#utility.yul\":1867:1868   */\n      dup1\n        /* \"#utility.yul\":1860:1872   */\n      revert\n        /* \"#utility.yul\":1811:1813   */\n    tag_45:\n        /* \"#utility.yul\":1801:1880   */\n      pop\n      jump\t// out\n        /* \"#utility.yul\":1886:2008   */\n    tag_23:\n        /* \"#utility.yul\":1959:1983   */\n      tag_47\n        /* \"#utility.yul\":1977:1982   */\n      dup2\n        /* \"#utility.yul\":1959:1983   */\n      tag_36\n      jump\t// in\n    tag_47:\n        /* \"#utility.yul\":1952:1957   */\n      dup2\n        /* \"#utility.yul\":1949:1984   */\n      eq\n        /* \"#utility.yul\":1939:1941   */\n      tag_48\n      jumpi\n        /* \"#utility.yul\":1998:1999   */\n      0x00\n        /* \"#utility.yul\":1995:1996   */\n      dup1\n        /* \"#utility.yul\":1988:2000   */\n      revert\n        /* \"#utility.yul\":1939:1941   */\n    tag_48:\n        /* \"#utility.yul\":1929:2008   */\n      pop\n      jump\t// out\n\n    auxdata: 0xa2646970667358221220d6220918ea27feb533a305b3e641e849fb7ac80e1ae96886ee8065bac6e6ef4764736f6c63430008040033\n}\n",
				"bytecode": {
					"linkReferences": {},
					"object": "608060405234801561001057600080fd5b5061029c806100206000396000f3fe608060405234801561001057600080fd5b50600436106100365760003560e01c806319eb4a901461003b578063cf2802061461005b575b600080fd5b610043610077565b604051610052939291906101db565b60405180910390f35b6100756004803603810190610070919061016e565b6100c7565b005b60008060008060009054906101000a90046fffffffffffffffffffffffffffffffff16600154600060109054906101000a90046fffffffffffffffffffffffffffffffff16925092509250909192565b826000806101000a8154816fffffffffffffffffffffffffffffffff02191690836fffffffffffffffffffffffffffffffff1602179055508160018190555080600060106101000a8154816fffffffffffffffffffffffffffffffff02191690836fffffffffffffffffffffffffffffffff160217905550505050565b60008135905061015381610238565b92915050565b6000813590506101688161024f565b92915050565b60008060006060848603121561018357600080fd5b600061019186828701610144565b93505060206101a286828701610159565b92505060406101b386828701610144565b9150509250925092565b6101c681610212565b82525050565b6101d58161022e565b82525050565b60006060820190506101f060008301866101bd565b6101fd60208301856101cc565b61020a60408301846101bd565b949350505050565b60006fffffffffffffffffffffffffffffffff82169050919050565b6000819050919050565b61024181610212565b811461024c57600080fd5b50565b6102588161022e565b811461026357600080fd5b5056fea2646970667358221220d6220918ea27feb533a305b3e641e849fb7ac80e1ae96886ee8065bac6e6ef4764736f6c63430008040033",
					"opcodes": "PUSH1 0x80 PUSH1 0x40 MSTORE CALLVALUE DUP1 ISZERO PUSH2 0x10 JUMPI PUSH1 0x0 DUP1 REVERT JUMPDEST POP PUSH2 0x29C DUP1 PUSH2 0x20 PUSH1 0x0 CODECOPY PUSH1 0x0 RETURN INVALID PUSH1 0x80 PUSH1 0x40 MSTORE CALLVALUE DUP1 ISZERO PUSH2 0x10 JUMPI PUSH1 0x0 DUP1 REVERT JUMPDEST POP PUSH1 0x4 CALLDATASIZE LT PUSH2 0x36 JUMPI PUSH1 0x0 CALLDATALOAD PUSH1 0xE0 SHR DUP1 PUSH4 0x19EB4A90 EQ PUSH2 0x3B JUMPI DUP1 PUSH4 0xCF280206 EQ PUSH2 0x5B JUMPI JUMPDEST PUSH1 0x0 DUP1 REVERT JUMPDEST PUSH2 0x43 PUSH2 0x77 JUMP JUMPDEST PUSH1 0x40 MLOAD PUSH2 0x52 SWAP4 SWAP3 SWAP2 SWAP1 PUSH2 0x1DB JUMP JUMPDEST PUSH1 0x40 MLOAD DUP1 SWAP2 SUB SWAP1 RETURN JUMPDEST PUSH2 0x75 PUSH1 0x4 DUP1 CALLDATASIZE SUB DUP2 ADD SWAP1 PUSH2 0x70 SWAP2 SWAP1 PUSH2 0x16E JUMP JUMPDEST PUSH2 0xC7 JUMP JUMPDEST STOP JUMPDEST PUSH1 0x0 DUP1 PUSH1 0x0 DUP1 PUSH1 0x0 SWAP1 SLOAD SWAP1 PUSH2 0x100 EXP SWAP1 DIV PUSH16 0xFFFFFFFFFFFFFFFFFFFFFFFFFFFFFFFF AND PUSH1 0x1 SLOAD PUSH1 0x0 PUSH1 0x10 SWAP1 SLOAD SWAP1 PUSH2 0x100 EXP SWAP1 DIV PUSH16 0xFFFFFFFFFFFFFFFFFFFFFFFFFFFFFFFF AND SWAP3 POP SWAP3 POP SWAP3 POP SWAP1 SWAP2 SWAP3 JUMP JUMPDEST DUP3 PUSH1 0x0 DUP1 PUSH2 0x100 EXP DUP2 SLOAD DUP2 PUSH16 0xFFFFFFFFFFFFFFFFFFFFFFFFFFFFFFFF MUL NOT AND SWAP1 DUP4 PUSH16 0xFFFFFFFFFFFFFFFFFFFFFFFFFFFFFFFF AND MUL OR SWAP1 SSTORE POP DUP2 PUSH1 0x1 DUP2 SWAP1 SSTORE POP DUP1 PUSH1 0x0 PUSH1 0x10 PUSH2 0x100 EXP DUP2 SLOAD DUP2 PUSH16 0xFFFFFFFFFFFFFFFFFFFFFFFFFFFFFFFF MUL NOT AND SWAP1 DUP4 PUSH16 0xFFFFFFFFFFFFFFFFFFFFFFFFFFFFFFFF AND MUL OR SWAP1 SSTORE POP POP POP POP JUMP JUMPDEST PUSH1 0x0 DUP2 CALLDATALOAD SWAP1 POP PUSH2 0x153 DUP2 PUSH2 0x238 JUMP JUMPDEST SWAP3 SWAP2 POP POP JUMP JUMPDEST PUSH1 0x0 DUP2 CALLDATALOAD SWAP1 POP PUSH2 0x168 DUP2 PUSH2 0x24F JUMP JUMPDEST SWAP3 SWAP2 POP POP JUMP JUMPDEST PUSH1 0x0 DUP1 PUSH1 0x0 PUSH1 0x60 DUP5 DUP7 SUB SLT ISZERO PUSH2 0x183 JUMPI PUSH1 0x0 DUP1 REVERT JUMPDEST PUSH1 0x0 PUSH2 0x191 DUP7 DUP3 DUP8 ADD PUSH2 0x144 JUMP JUMPDEST SWAP4 POP POP PUSH1 0x20 PUSH2 0x1A2 DUP7 DUP3 DUP8 ADD PUSH2 0x159 JUMP JUMPDEST SWAP3 POP POP PUSH1 0x40 PUSH2 0x1B3 DUP7 DUP3 DUP8 ADD PUSH2 0x144 JUMP JUMPDEST SWAP2 POP POP SWAP3 POP SWAP3 POP SWAP3 JUMP JUMPDEST PUSH2 0x1C6 DUP2 PUSH2 0x212 JUMP JUMPDEST DUP3 MSTORE POP POP JUMP JUMPDEST PUSH2 0x1D5 DUP2 PUSH2 0x22E JUMP JUMPDEST DUP3 MSTORE POP POP JUMP JUMPDEST PUSH1 0x0 PUSH1 0x60 DUP3 ADD SWAP1 POP PUSH2 0x1F0 PUSH1 0x0 DUP4 ADD DUP7 PUSH2 0x1BD JUMP JUMPDEST PUSH2 0x1FD PUSH1 0x20 DUP4 ADD DUP6 PUSH2 0x1CC JUMP JUMPDEST PUSH2 0x20A PUSH1 0x40 DUP4 ADD DUP5 PUSH2 0x1BD JUMP JUMPDEST SWAP5 SWAP4 POP POP POP POP JUMP JUMPDEST PUSH1 0x0 PUSH16 0xFFFFFFFFFFFFFFFFFFFFFFFFFFFFFFFF DUP3 AND SWAP1 POP SWAP2 SWAP1 POP JUMP JUMPDEST PUSH1 0x0 DUP2 SWAP1 POP SWAP2 SWAP1 POP JUMP JUMPDEST PUSH2 0x241 DUP2 PUSH2 0x212 JUMP JUMPDEST DUP2 EQ PUSH2 0x24C JUMPI PUSH1 0x0 DUP1 REVERT JUMPDEST POP JUMP JUMPDEST PUSH2 0x258 DUP2 PUSH2 0x22E JUMP JUMPDEST DUP2 EQ PUSH2 0x263 JUMPI PUSH1 0x0 DUP1 REVERT JUMPDEST POP JUMP INVALID LOG2 PUSH5 0x6970667358 0x22 SLT KECCAK256 0xD6 0x22 MULMOD XOR 0xEA 0x27 INVALID 0xB5 CALLER LOG3 SDIV 0xB3 0xE6 COINBASE 0xE8 0x49 0xFB PUSH27 0xC80E1AE96886EE8065BAC6E6EF4764736F6C634300080400330000 "
				},
				"gasEstimates": {
					"creation": {
						"codeDepositCost": "133600",
						"executionCost": "177",
						"totalCost": "133777"
					},
					"external": {
						"getValues()": "infinite",
						"setValues(uint128,uint256,uint128)": "infinite"
					}
				},
				"methodIdentifiers": {
					"getValues()": "19eb4a90",
					"setValues(uint128,uint256,uint128)": "cf280206"
				}
			},
			"storageLayout": {
				"storage": [
					{
						"astId": 3,
						"contract": "Packing Variables into a single block Optimizer/optimized_test26.sol:TestContract",
						"label": "a",
						"offset": 0,
						"slot": "0",
						"type": "t_uint128"
					},
					{
						"astId": 5,
						"contract": "Packing Variables into a single block Optimizer/optimized_test26.sol:TestContract",
						"label": "c",
						"offset": 16,
						"slot": "0",
						"type": "t_uint128"
					},
					{
						"astId": 7,
						"contract": "Packing Variables into a single block Optimizer/optimized_test26.sol:TestContract",
						"label": "b",
						"offset": 0,
						"slot": "1",
						"type": "t_uint256"
					}
				],
				"types": {
					"t_uint128": {
						"encoding": "inplace",
						"label": "uint128",
						"numberOfBytes": "16"
					},
					"t_uint256": {
						"encoding": "inplace",
						"label": "uint256",
						"numberOfBytes": "32"
					}
				}
			},
			"userdoc": {
				"kind": "user",
				"methods": {},
				"version": 1
			}
		}
	}
}