{
	"Unsigned Integer Types Optimizer/optimized_test25.sol": {
		"Crowdfunding": {
			"abi": [
				{
					"inputs": [
						{
							"internalType": "uint256",
							"name": "_goalAmount",
							"type": "uint256"
						}
					],
					"stateMutability": "nonpayable",
					"type": "constructor"
				},
				{
					"inputs": [
						{
							"internalType": "uint256",
							"name": "x",
							"type": "uint256"
						}
					],
					"name": "checkNonZero",
					"outputs": [],
					"stateMutability": "pure",
					"type": "function"
				},
				{
					"inputs": [],
					"name": "contribute",
					"outputs": [],
					"stateMutability": "payable",
					"type": "function"
				},
				{
					"inputs": [
						{
							"internalType": "address",
							"name": "",
							"type": "address"
						}
					],
					"name": "contributions",
					"outputs": [
						{
							"internalType": "uint256",
							"name": "",
							"type": "uint256"
						}
					],
					"stateMutability": "view",
					"type": "function"
				},
				{
					"inputs": [],
					"name": "goalAmount",
					"outputs": [
						{
							"internalType": "uint256",
							"name": "",
							"type": "uint256"
						}
					],
					"stateMutability": "view",
					"type": "function"
				},
				{
					"inputs": [],
					"name": "owner",
					"outputs": [
						{
							"internalType": "address",
							"name": "",
							"type": "address"
						}
					],
					"stateMutability": "view",
					"type": "function"
				},
				{
					"inputs": [],
					"name": "totalRaised",
					"outputs": [
						{
							"internalType": "uint256",
							"name": "",
							"type": "uint256"
						}
					],
					"stateMutability": "view",
					"type": "function"
				}
			],
			"devdoc": {
				"kind": "dev",
				"methods": {},
				"version": 1
			},
			"evm": {
				"assembly": "    /* \"Unsigned Integer Types Optimizer/optimized_test25.sol\":56:690  contract Crowdfunding {... */\n  mstore(0x40, 0x80)\n    /* \"Unsigned Integer Types Optimizer/optimized_test25.sol\":228:330  constructor(uint256 _goalAmount) {... */\n  callvalue\n  dup1\n  iszero\n  tag_1\n  jumpi\n  0x00\n  dup1\n  revert\ntag_1:\n  pop\n  mload(0x40)\n  sub(codesize, bytecodeSize)\n  dup1\n  bytecodeSize\n  dup4\n  codecopy\n  dup2\n  dup2\n  add\n  0x40\n  mstore\n  dup2\n  add\n  swap1\n  tag_2\n  swap2\n  swap1\n  tag_3\n  jump\t// in\ntag_2:\n    /* \"Unsigned Integer Types Optimizer/optimized_test25.sol\":279:289  msg.sender */\n  caller\n    /* \"Unsigned Integer Types Optimizer/optimized_test25.sol\":271:276  owner */\n  0x00\n  dup1\n    /* \"Unsigned Integer Types Optimizer/optimized_test25.sol\":271:289  owner = msg.sender */\n  0x0100\n  exp\n  dup2\n  sload\n  dup2\n  0xffffffffffffffffffffffffffffffffffffffff\n  mul\n  not\n  and\n  swap1\n  dup4\n  0xffffffffffffffffffffffffffffffffffffffff\n  and\n  mul\n  or\n  swap1\n  sstore\n  pop\n    /* \"Unsigned Integer Types Optimizer/optimized_test25.sol\":312:323  _goalAmount */\n  dup1\n    /* \"Unsigned Integer Types Optimizer/optimized_test25.sol\":299:309  goalAmount */\n  0x01\n    /* \"Unsigned Integer Types Optimizer/optimized_test25.sol\":299:323  goalAmount = _goalAmount */\n  dup2\n  swap1\n  sstore\n  pop\n    /* \"Unsigned Integer Types Optimizer/optimized_test25.sol\":228:330  constructor(uint256 _goalAmount) {... */\n  pop\n    /* \"Unsigned Integer Types Optimizer/optimized_test25.sol\":56:690  contract Crowdfunding {... */\n  jump(tag_6)\n    /* \"#utility.yul\":7:150   */\ntag_8:\n    /* \"#utility.yul\":64:69   */\n  0x00\n    /* \"#utility.yul\":95:101   */\n  dup2\n    /* \"#utility.yul\":89:102   */\n  mload\n    /* \"#utility.yul\":80:102   */\n  swap1\n  pop\n    /* \"#utility.yul\":111:144   */\n  tag_10\n    /* \"#utility.yul\":138:143   */\n  dup2\n    /* \"#utility.yul\":111:144   */\n  tag_11\n  jump\t// in\ntag_10:\n    /* \"#utility.yul\":70:150   */\n  swap3\n  swap2\n  pop\n  pop\n  jump\t// out\n    /* \"#utility.yul\":156:440   */\ntag_3:\n    /* \"#utility.yul\":226:232   */\n  0x00\n    /* \"#utility.yul\":275:277   */\n  0x20\n    /* \"#utility.yul\":263:272   */\n  dup3\n    /* \"#utility.yul\":254:261   */\n  dup5\n    /* \"#utility.yul\":250:273   */\n  sub\n    /* \"#utility.yul\":246:278   */\n  slt\n    /* \"#utility.yul\":243:245   */\n  iszero\n  tag_13\n  jumpi\n    /* \"#utility.yul\":291:292   */\n  0x00\n    /* \"#utility.yul\":288:289   */\n  dup1\n    /* \"#utility.yul\":281:293   */\n  revert\n    /* \"#utility.yul\":243:245   */\ntag_13:\n    /* \"#utility.yul\":334:335   */\n  0x00\n    /* \"#utility.yul\":359:423   */\n  tag_14\n    /* \"#utility.yul\":415:422   */\n  dup5\n    /* \"#utility.yul\":406:412   */\n  dup3\n    /* \"#utility.yul\":395:404   */\n  dup6\n    /* \"#utility.yul\":391:413   */\n  add\n    /* \"#utility.yul\":359:423   */\n  tag_8\n  jump\t// in\ntag_14:\n    /* \"#utility.yul\":349:423   */\n  swap2\n  pop\n    /* \"#utility.yul\":305:433   */\n  pop\n    /* \"#utility.yul\":233:440   */\n  swap3\n  swap2\n  pop\n  pop\n  jump\t// out\n    /* \"#utility.yul\":446:523   */\ntag_15:\n    /* \"#utility.yul\":483:490   */\n  0x00\n    /* \"#utility.yul\":512:517   */\n  dup2\n    /* \"#utility.yul\":501:517   */\n  swap1\n  pop\n    /* \"#utility.yul\":491:523   */\n  swap2\n  swap1\n  pop\n  jump\t// out\n    /* \"#utility.yul\":529:651   */\ntag_11:\n    /* \"#utility.yul\":602:626   */\n  tag_18\n    /* \"#utility.yul\":620:625   */\n  dup2\n    /* \"#utility.yul\":602:626   */\n  tag_15\n  jump\t// in\ntag_18:\n    /* \"#utility.yul\":595:600   */\n  dup2\n    /* \"#utility.yul\":592:627   */\n  eq\n    /* \"#utility.yul\":582:584   */\n  tag_19\n  jumpi\n    /* \"#utility.yul\":641:642   */\n  0x00\n    /* \"#utility.yul\":638:639   */\n  dup1\n    /* \"#utility.yul\":631:643   */\n  revert\n    /* \"#utility.yul\":582:584   */\ntag_19:\n    /* \"#utility.yul\":572:651   */\n  pop\n  jump\t// out\n    /* \"Unsigned Integer Types Optimizer/optimized_test25.sol\":56:690  contract Crowdfunding {... */\ntag_6:\n  dataSize(sub_0)\n  dup1\n  dataOffset(sub_0)\n  0x00\n  codecopy\n  0x00\n  return\nstop\n\nsub_0: assembly {\n        /* \"Unsigned Integer Types Optimizer/optimized_test25.sol\":56:690  contract Crowdfunding {... */\n      mstore(0x40, 0x80)\n      jumpi(tag_1, lt(calldatasize, 0x04))\n      shr(0xe0, calldataload(0x00))\n      dup1\n      0x2636b945\n      eq\n      tag_2\n      jumpi\n      dup1\n      0x42e94c90\n      eq\n      tag_3\n      jumpi\n      dup1\n      0x8da5cb5b\n      eq\n      tag_4\n      jumpi\n      dup1\n      0xc5c4744c\n      eq\n      tag_5\n      jumpi\n      dup1\n      0xc5cafc2a\n      eq\n      tag_6\n      jumpi\n      dup1\n      0xd7bb99ba\n      eq\n      tag_7\n      jumpi\n    tag_1:\n      0x00\n      dup1\n      revert\n        /* \"Unsigned Integer Types Optimizer/optimized_test25.sol\":110:135  uint256 public goalAmount */\n    tag_2:\n      callvalue\n      dup1\n      iszero\n      tag_8\n      jumpi\n      0x00\n      dup1\n      revert\n    tag_8:\n      pop\n      tag_9\n      tag_10\n      jump\t// in\n    tag_9:\n      mload(0x40)\n      tag_11\n      swap2\n      swap1\n      tag_12\n      jump\t// in\n    tag_11:\n      mload(0x40)\n      dup1\n      swap2\n      sub\n      swap1\n      return\n        /* \"Unsigned Integer Types Optimizer/optimized_test25.sol\":173:221  mapping(address => uint256) public contributions */\n    tag_3:\n      callvalue\n      dup1\n      iszero\n      tag_13\n      jumpi\n      0x00\n      dup1\n      revert\n    tag_13:\n      pop\n      tag_14\n      0x04\n      dup1\n      calldatasize\n      sub\n      dup2\n      add\n      swap1\n      tag_15\n      swap2\n      swap1\n      tag_16\n      jump\t// in\n    tag_15:\n      tag_17\n      jump\t// in\n    tag_14:\n      mload(0x40)\n      tag_18\n      swap2\n      swap1\n      tag_12\n      jump\t// in\n    tag_18:\n      mload(0x40)\n      dup1\n      swap2\n      sub\n      swap1\n      return\n        /* \"Unsigned Integer Types Optimizer/optimized_test25.sol\":84:104  address public owner */\n    tag_4:\n      callvalue\n      dup1\n      iszero\n      tag_19\n      jumpi\n      0x00\n      dup1\n      revert\n    tag_19:\n      pop\n      tag_20\n      tag_21\n      jump\t// in\n    tag_20:\n      mload(0x40)\n      tag_22\n      swap2\n      swap1\n      tag_23\n      jump\t// in\n    tag_22:\n      mload(0x40)\n      dup1\n      swap2\n      sub\n      swap1\n      return\n        /* \"Unsigned Integer Types Optimizer/optimized_test25.sol\":141:167  uint256 public totalRaised */\n    tag_5:\n      callvalue\n      dup1\n      iszero\n      tag_24\n      jumpi\n      0x00\n      dup1\n      revert\n    tag_24:\n      pop\n      tag_25\n      tag_26\n      jump\t// in\n    tag_25:\n      mload(0x40)\n      tag_27\n      swap2\n      swap1\n      tag_12\n      jump\t// in\n    tag_27:\n      mload(0x40)\n      dup1\n      swap2\n      sub\n      swap1\n      return\n        /* \"Unsigned Integer Types Optimizer/optimized_test25.sol\":612:688  function checkNonZero(uint256 x) public pure {... */\n    tag_6:\n      callvalue\n      dup1\n      iszero\n      tag_28\n      jumpi\n      0x00\n      dup1\n      revert\n    tag_28:\n      pop\n      tag_29\n      0x04\n      dup1\n      calldatasize\n      sub\n      dup2\n      add\n      swap1\n      tag_30\n      swap2\n      swap1\n      tag_31\n      jump\t// in\n    tag_30:\n      tag_32\n      jump\t// in\n    tag_29:\n      stop\n        /* \"Unsigned Integer Types Optimizer/optimized_test25.sol\":336:606  function contribute() public payable {... */\n    tag_7:\n      tag_33\n      tag_34\n      jump\t// in\n    tag_33:\n      stop\n        /* \"Unsigned Integer Types Optimizer/optimized_test25.sol\":110:135  uint256 public goalAmount */\n    tag_10:\n      sload(0x01)\n      dup2\n      jump\t// out\n        /* \"Unsigned Integer Types Optimizer/optimized_test25.sol\":173:221  mapping(address => uint256) public contributions */\n    tag_17:\n      mstore(0x20, 0x03)\n      dup1\n      0x00\n      mstore\n      keccak256(0x00, 0x40)\n      0x00\n      swap2\n      pop\n      swap1\n      pop\n      sload\n      dup2\n      jump\t// out\n        /* \"Unsigned Integer Types Optimizer/optimized_test25.sol\":84:104  address public owner */\n    tag_21:\n      0x00\n      dup1\n      sload\n      swap1\n      0x0100\n      exp\n      swap1\n      div\n      0xffffffffffffffffffffffffffffffffffffffff\n      and\n      dup2\n      jump\t// out\n        /* \"Unsigned Integer Types Optimizer/optimized_test25.sol\":141:167  uint256 public totalRaised */\n    tag_26:\n      sload(0x02)\n      dup2\n      jump\t// out\n        /* \"Unsigned Integer Types Optimizer/optimized_test25.sol\":612:688  function checkNonZero(uint256 x) public pure {... */\n    tag_32:\n        /* \"Unsigned Integer Types Optimizer/optimized_test25.sol\":679:680  0 */\n      0x00\n        /* \"Unsigned Integer Types Optimizer/optimized_test25.sol\":675:676  x */\n      dup2\n        /* \"Unsigned Integer Types Optimizer/optimized_test25.sol\":675:680  x > 0 */\n      gt\n        /* \"Unsigned Integer Types Optimizer/optimized_test25.sol\":667:681  require(x > 0) */\n      tag_36\n      jumpi\n      0x00\n      dup1\n      revert\n    tag_36:\n        /* \"Unsigned Integer Types Optimizer/optimized_test25.sol\":612:688  function checkNonZero(uint256 x) public pure {... */\n      pop\n      jump\t// out\n        /* \"Unsigned Integer Types Optimizer/optimized_test25.sol\":336:606  function contribute() public payable {... */\n    tag_34:\n        /* \"Unsigned Integer Types Optimizer/optimized_test25.sol\":403:404  0 */\n      0x00\n        /* \"Unsigned Integer Types Optimizer/optimized_test25.sol\":391:400  msg.value */\n      callvalue\n        /* \"Unsigned Integer Types Optimizer/optimized_test25.sol\":391:404  msg.value > 0 */\n      gt\n        /* \"Unsigned Integer Types Optimizer/optimized_test25.sol\":383:437  require(msg.value > 0, \"Invalid contribution amount.\") */\n      tag_38\n      jumpi\n      mload(0x40)\n      0x08c379a000000000000000000000000000000000000000000000000000000000\n      dup2\n      mstore\n      0x04\n      add\n      tag_39\n      swap1\n      tag_40\n      jump\t// in\n    tag_39:\n      mload(0x40)\n      dup1\n      swap2\n      sub\n      swap1\n      revert\n    tag_38:\n        /* \"Unsigned Integer Types Optimizer/optimized_test25.sol\":482:492  goalAmount */\n      sload(0x01)\n        /* \"Unsigned Integer Types Optimizer/optimized_test25.sol\":469:478  msg.value */\n      callvalue\n        /* \"Unsigned Integer Types Optimizer/optimized_test25.sol\":455:466  totalRaised */\n      sload(0x02)\n        /* \"Unsigned Integer Types Optimizer/optimized_test25.sol\":455:478  totalRaised + msg.value */\n      tag_41\n      swap2\n      swap1\n      tag_42\n      jump\t// in\n    tag_41:\n        /* \"Unsigned Integer Types Optimizer/optimized_test25.sol\":455:492  totalRaised + msg.value <= goalAmount */\n      gt\n      iszero\n        /* \"Unsigned Integer Types Optimizer/optimized_test25.sol\":447:517  require(totalRaised + msg.value <= goalAmount, \"Goal amount reached.\") */\n      tag_43\n      jumpi\n      mload(0x40)\n      0x08c379a000000000000000000000000000000000000000000000000000000000\n      dup2\n      mstore\n      0x04\n      add\n      tag_44\n      swap1\n      tag_45\n      jump\t// in\n    tag_44:\n      mload(0x40)\n      dup1\n      swap2\n      sub\n      swap1\n      revert\n    tag_43:\n        /* \"Unsigned Integer Types Optimizer/optimized_test25.sol\":556:565  msg.value */\n      callvalue\n        /* \"Unsigned Integer Types Optimizer/optimized_test25.sol\":527:540  contributions */\n      0x03\n        /* \"Unsigned Integer Types Optimizer/optimized_test25.sol\":527:552  contributions[msg.sender] */\n      0x00\n        /* \"Unsigned Integer Types Optimizer/optimized_test25.sol\":541:551  msg.sender */\n      caller\n        /* \"Unsigned Integer Types Optimizer/optimized_test25.sol\":527:552  contributions[msg.sender] */\n      0xffffffffffffffffffffffffffffffffffffffff\n      and\n      0xffffffffffffffffffffffffffffffffffffffff\n      and\n      dup2\n      mstore\n      0x20\n      add\n      swap1\n      dup2\n      mstore\n      0x20\n      add\n      0x00\n      keccak256\n      0x00\n        /* \"Unsigned Integer Types Optimizer/optimized_test25.sol\":527:565  contributions[msg.sender] += msg.value */\n      dup3\n      dup3\n      sload\n      tag_46\n      swap2\n      swap1\n      tag_42\n      jump\t// in\n    tag_46:\n      swap3\n      pop\n      pop\n      dup2\n      swap1\n      sstore\n      pop\n        /* \"Unsigned Integer Types Optimizer/optimized_test25.sol\":590:599  msg.value */\n      callvalue\n        /* \"Unsigned Integer Types Optimizer/optimized_test25.sol\":575:586  totalRaised */\n      0x02\n      0x00\n        /* \"Unsigned Integer Types Optimizer/optimized_test25.sol\":575:599  totalRaised += msg.value */\n      dup3\n      dup3\n      sload\n      tag_47\n      swap2\n      swap1\n      tag_42\n      jump\t// in\n    tag_47:\n      swap3\n      pop\n      pop\n      dup2\n      swap1\n      sstore\n      pop\n        /* \"Unsigned Integer Types Optimizer/optimized_test25.sol\":336:606  function contribute() public payable {... */\n      jump\t// out\n        /* \"#utility.yul\":7:146   */\n    tag_49:\n        /* \"#utility.yul\":53:58   */\n      0x00\n        /* \"#utility.yul\":91:97   */\n      dup2\n        /* \"#utility.yul\":78:98   */\n      calldataload\n        /* \"#utility.yul\":69:98   */\n      swap1\n      pop\n        /* \"#utility.yul\":107:140   */\n      tag_51\n        /* \"#utility.yul\":134:139   */\n      dup2\n        /* \"#utility.yul\":107:140   */\n      tag_52\n      jump\t// in\n    tag_51:\n        /* \"#utility.yul\":59:146   */\n      swap3\n      swap2\n      pop\n      pop\n      jump\t// out\n        /* \"#utility.yul\":152:291   */\n    tag_53:\n        /* \"#utility.yul\":198:203   */\n      0x00\n        /* \"#utility.yul\":236:242   */\n      dup2\n        /* \"#utility.yul\":223:243   */\n      calldataload\n        /* \"#utility.yul\":214:243   */\n      swap1\n      pop\n        /* \"#utility.yul\":252:285   */\n      tag_55\n        /* \"#utility.yul\":279:284   */\n      dup2\n        /* \"#utility.yul\":252:285   */\n      tag_56\n      jump\t// in\n    tag_55:\n        /* \"#utility.yul\":204:291   */\n      swap3\n      swap2\n      pop\n      pop\n      jump\t// out\n        /* \"#utility.yul\":297:559   */\n    tag_16:\n        /* \"#utility.yul\":356:362   */\n      0x00\n        /* \"#utility.yul\":405:407   */\n      0x20\n        /* \"#utility.yul\":393:402   */\n      dup3\n        /* \"#utility.yul\":384:391   */\n      dup5\n        /* \"#utility.yul\":380:403   */\n      sub\n        /* \"#utility.yul\":376:408   */\n      slt\n        /* \"#utility.yul\":373:375   */\n      iszero\n      tag_58\n      jumpi\n        /* \"#utility.yul\":421:422   */\n      0x00\n        /* \"#utility.yul\":418:419   */\n      dup1\n        /* \"#utility.yul\":411:423   */\n      revert\n        /* \"#utility.yul\":373:375   */\n    tag_58:\n        /* \"#utility.yul\":464:465   */\n      0x00\n        /* \"#utility.yul\":489:542   */\n      tag_59\n        /* \"#utility.yul\":534:541   */\n      dup5\n        /* \"#utility.yul\":525:531   */\n      dup3\n        /* \"#utility.yul\":514:523   */\n      dup6\n        /* \"#utility.yul\":510:532   */\n      add\n        /* \"#utility.yul\":489:542   */\n      tag_49\n      jump\t// in\n    tag_59:\n        /* \"#utility.yul\":479:542   */\n      swap2\n      pop\n        /* \"#utility.yul\":435:552   */\n      pop\n        /* \"#utility.yul\":363:559   */\n      swap3\n      swap2\n      pop\n      pop\n      jump\t// out\n        /* \"#utility.yul\":565:827   */\n    tag_31:\n        /* \"#utility.yul\":624:630   */\n      0x00\n        /* \"#utility.yul\":673:675   */\n      0x20\n        /* \"#utility.yul\":661:670   */\n      dup3\n        /* \"#utility.yul\":652:659   */\n      dup5\n        /* \"#utility.yul\":648:671   */\n      sub\n        /* \"#utility.yul\":644:676   */\n      slt\n        /* \"#utility.yul\":641:643   */\n      iszero\n      tag_61\n      jumpi\n        /* \"#utility.yul\":689:690   */\n      0x00\n        /* \"#utility.yul\":686:687   */\n      dup1\n        /* \"#utility.yul\":679:691   */\n      revert\n        /* \"#utility.yul\":641:643   */\n    tag_61:\n        /* \"#utility.yul\":732:733   */\n      0x00\n        /* \"#utility.yul\":757:810   */\n      tag_62\n        /* \"#utility.yul\":802:809   */\n      dup5\n        /* \"#utility.yul\":793:799   */\n      dup3\n        /* \"#utility.yul\":782:791   */\n      dup6\n        /* \"#utility.yul\":778:800   */\n      add\n        /* \"#utility.yul\":757:810   */\n      tag_53\n      jump\t// in\n    tag_62:\n        /* \"#utility.yul\":747:810   */\n      swap2\n      pop\n        /* \"#utility.yul\":703:820   */\n      pop\n        /* \"#utility.yul\":631:827   */\n      swap3\n      swap2\n      pop\n      pop\n      jump\t// out\n        /* \"#utility.yul\":833:951   */\n    tag_63:\n        /* \"#utility.yul\":920:944   */\n      tag_65\n        /* \"#utility.yul\":938:943   */\n      dup2\n        /* \"#utility.yul\":920:944   */\n      tag_66\n      jump\t// in\n    tag_65:\n        /* \"#utility.yul\":915:918   */\n      dup3\n        /* \"#utility.yul\":908:945   */\n      mstore\n        /* \"#utility.yul\":898:951   */\n      pop\n      pop\n      jump\t// out\n        /* \"#utility.yul\":957:1323   */\n    tag_67:\n        /* \"#utility.yul\":1099:1102   */\n      0x00\n        /* \"#utility.yul\":1120:1187   */\n      tag_69\n        /* \"#utility.yul\":1184:1186   */\n      0x1c\n        /* \"#utility.yul\":1179:1182   */\n      dup4\n        /* \"#utility.yul\":1120:1187   */\n      tag_70\n      jump\t// in\n    tag_69:\n        /* \"#utility.yul\":1113:1187   */\n      swap2\n      pop\n        /* \"#utility.yul\":1196:1289   */\n      tag_71\n        /* \"#utility.yul\":1285:1288   */\n      dup3\n        /* \"#utility.yul\":1196:1289   */\n      tag_72\n      jump\t// in\n    tag_71:\n        /* \"#utility.yul\":1314:1316   */\n      0x20\n        /* \"#utility.yul\":1309:1312   */\n      dup3\n        /* \"#utility.yul\":1305:1317   */\n      add\n        /* \"#utility.yul\":1298:1317   */\n      swap1\n      pop\n        /* \"#utility.yul\":1103:1323   */\n      swap2\n      swap1\n      pop\n      jump\t// out\n        /* \"#utility.yul\":1329:1695   */\n    tag_73:\n        /* \"#utility.yul\":1471:1474   */\n      0x00\n        /* \"#utility.yul\":1492:1559   */\n      tag_75\n        /* \"#utility.yul\":1556:1558   */\n      0x14\n        /* \"#utility.yul\":1551:1554   */\n      dup4\n        /* \"#utility.yul\":1492:1559   */\n      tag_70\n      jump\t// in\n    tag_75:\n        /* \"#utility.yul\":1485:1559   */\n      swap2\n      pop\n        /* \"#utility.yul\":1568:1661   */\n      tag_76\n        /* \"#utility.yul\":1657:1660   */\n      dup3\n        /* \"#utility.yul\":1568:1661   */\n      tag_77\n      jump\t// in\n    tag_76:\n        /* \"#utility.yul\":1686:1688   */\n      0x20\n        /* \"#utility.yul\":1681:1684   */\n      dup3\n        /* \"#utility.yul\":1677:1689   */\n      add\n        /* \"#utility.yul\":1670:1689   */\n      swap1\n      pop\n        /* \"#utility.yul\":1475:1695   */\n      swap2\n      swap1\n      pop\n      jump\t// out\n        /* \"#utility.yul\":1701:1819   */\n    tag_78:\n        /* \"#utility.yul\":1788:1812   */\n      tag_80\n        /* \"#utility.yul\":1806:1811   */\n      dup2\n        /* \"#utility.yul\":1788:1812   */\n      tag_81\n      jump\t// in\n    tag_80:\n        /* \"#utility.yul\":1783:1786   */\n      dup3\n        /* \"#utility.yul\":1776:1813   */\n      mstore\n        /* \"#utility.yul\":1766:1819   */\n      pop\n      pop\n      jump\t// out\n        /* \"#utility.yul\":1825:2047   */\n    tag_23:\n        /* \"#utility.yul\":1918:1922   */\n      0x00\n        /* \"#utility.yul\":1956:1958   */\n      0x20\n        /* \"#utility.yul\":1945:1954   */\n      dup3\n        /* \"#utility.yul\":1941:1959   */\n      add\n        /* \"#utility.yul\":1933:1959   */\n      swap1\n      pop\n        /* \"#utility.yul\":1969:2040   */\n      tag_83\n        /* \"#utility.yul\":2037:2038   */\n      0x00\n        /* \"#utility.yul\":2026:2035   */\n      dup4\n        /* \"#utility.yul\":2022:2039   */\n      add\n        /* \"#utility.yul\":2013:2019   */\n      dup5\n        /* \"#utility.yul\":1969:2040   */\n      tag_63\n      jump\t// in\n    tag_83:\n        /* \"#utility.yul\":1923:2047   */\n      swap3\n      swap2\n      pop\n      pop\n      jump\t// out\n        /* \"#utility.yul\":2053:2472   */\n    tag_40:\n        /* \"#utility.yul\":2219:2223   */\n      0x00\n        /* \"#utility.yul\":2257:2259   */\n      0x20\n        /* \"#utility.yul\":2246:2255   */\n      dup3\n        /* \"#utility.yul\":2242:2260   */\n      add\n        /* \"#utility.yul\":2234:2260   */\n      swap1\n      pop\n        /* \"#utility.yul\":2306:2315   */\n      dup2\n        /* \"#utility.yul\":2300:2304   */\n      dup2\n        /* \"#utility.yul\":2296:2316   */\n      sub\n        /* \"#utility.yul\":2292:2293   */\n      0x00\n        /* \"#utility.yul\":2281:2290   */\n      dup4\n        /* \"#utility.yul\":2277:2294   */\n      add\n        /* \"#utility.yul\":2270:2317   */\n      mstore\n        /* \"#utility.yul\":2334:2465   */\n      tag_85\n        /* \"#utility.yul\":2460:2464   */\n      dup2\n        /* \"#utility.yul\":2334:2465   */\n      tag_67\n      jump\t// in\n    tag_85:\n        /* \"#utility.yul\":2326:2465   */\n      swap1\n      pop\n        /* \"#utility.yul\":2224:2472   */\n      swap2\n      swap1\n      pop\n      jump\t// out\n        /* \"#utility.yul\":2478:2897   */\n    tag_45:\n        /* \"#utility.yul\":2644:2648   */\n      0x00\n        /* \"#utility.yul\":2682:2684   */\n      0x20\n        /* \"#utility.yul\":2671:2680   */\n      dup3\n        /* \"#utility.yul\":2667:2685   */\n      add\n        /* \"#utility.yul\":2659:2685   */\n      swap1\n      pop\n        /* \"#utility.yul\":2731:2740   */\n      dup2\n        /* \"#utility.yul\":2725:2729   */\n      dup2\n        /* \"#utility.yul\":2721:2741   */\n      sub\n        /* \"#utility.yul\":2717:2718   */\n      0x00\n        /* \"#utility.yul\":2706:2715   */\n      dup4\n        /* \"#utility.yul\":2702:2719   */\n      add\n        /* \"#utility.yul\":2695:2742   */\n      mstore\n        /* \"#utility.yul\":2759:2890   */\n      tag_87\n        /* \"#utility.yul\":2885:2889   */\n      dup2\n        /* \"#utility.yul\":2759:2890   */\n      tag_73\n      jump\t// in\n    tag_87:\n        /* \"#utility.yul\":2751:2890   */\n      swap1\n      pop\n        /* \"#utility.yul\":2649:2897   */\n      swap2\n      swap1\n      pop\n      jump\t// out\n        /* \"#utility.yul\":2903:3125   */\n    tag_12:\n        /* \"#utility.yul\":2996:3000   */\n      0x00\n        /* \"#utility.yul\":3034:3036   */\n      0x20\n        /* \"#utility.yul\":3023:3032   */\n      dup3\n        /* \"#utility.yul\":3019:3037   */\n      add\n        /* \"#utility.yul\":3011:3037   */\n      swap1\n      pop\n        /* \"#utility.yul\":3047:3118   */\n      tag_89\n        /* \"#utility.yul\":3115:3116   */\n      0x00\n        /* \"#utility.yul\":3104:3113   */\n      dup4\n        /* \"#utility.yul\":3100:3117   */\n      add\n        /* \"#utility.yul\":3091:3097   */\n      dup5\n        /* \"#utility.yul\":3047:3118   */\n      tag_78\n      jump\t// in\n    tag_89:\n        /* \"#utility.yul\":3001:3125   */\n      swap3\n      swap2\n      pop\n      pop\n      jump\t// out\n        /* \"#utility.yul\":3131:3300   */\n    tag_70:\n        /* \"#utility.yul\":3215:3226   */\n      0x00\n        /* \"#utility.yul\":3249:3255   */\n      dup3\n        /* \"#utility.yul\":3244:3247   */\n      dup3\n        /* \"#utility.yul\":3237:3256   */\n      mstore\n        /* \"#utility.yul\":3289:3293   */\n      0x20\n        /* \"#utility.yul\":3284:3287   */\n      dup3\n        /* \"#utility.yul\":3280:3294   */\n      add\n        /* \"#utility.yul\":3265:3294   */\n      swap1\n      pop\n        /* \"#utility.yul\":3227:3300   */\n      swap3\n      swap2\n      pop\n      pop\n      jump\t// out\n        /* \"#utility.yul\":3306:3611   */\n    tag_42:\n        /* \"#utility.yul\":3346:3349   */\n      0x00\n        /* \"#utility.yul\":3365:3385   */\n      tag_92\n        /* \"#utility.yul\":3383:3384   */\n      dup3\n        /* \"#utility.yul\":3365:3385   */\n      tag_81\n      jump\t// in\n    tag_92:\n        /* \"#utility.yul\":3360:3385   */\n      swap2\n      pop\n        /* \"#utility.yul\":3399:3419   */\n      tag_93\n        /* \"#utility.yul\":3417:3418   */\n      dup4\n        /* \"#utility.yul\":3399:3419   */\n      tag_81\n      jump\t// in\n    tag_93:\n        /* \"#utility.yul\":3394:3419   */\n      swap3\n      pop\n        /* \"#utility.yul\":3553:3554   */\n      dup3\n        /* \"#utility.yul\":3485:3551   */\n      0xffffffffffffffffffffffffffffffffffffffffffffffffffffffffffffffff\n        /* \"#utility.yul\":3481:3555   */\n      sub\n        /* \"#utility.yul\":3478:3479   */\n      dup3\n        /* \"#utility.yul\":3475:3556   */\n      gt\n        /* \"#utility.yul\":3472:3474   */\n      iszero\n      tag_94\n      jumpi\n        /* \"#utility.yul\":3559:3577   */\n      tag_95\n      tag_96\n      jump\t// in\n    tag_95:\n        /* \"#utility.yul\":3472:3474   */\n    tag_94:\n        /* \"#utility.yul\":3603:3604   */\n      dup3\n        /* \"#utility.yul\":3600:3601   */\n      dup3\n        /* \"#utility.yul\":3596:3605   */\n      add\n        /* \"#utility.yul\":3589:3605   */\n      swap1\n      pop\n        /* \"#utility.yul\":3350:3611   */\n      swap3\n      swap2\n      pop\n      pop\n      jump\t// out\n        /* \"#utility.yul\":3617:3713   */\n    tag_66:\n        /* \"#utility.yul\":3654:3661   */\n      0x00\n        /* \"#utility.yul\":3683:3707   */\n      tag_98\n        /* \"#utility.yul\":3701:3706   */\n      dup3\n        /* \"#utility.yul\":3683:3707   */\n      tag_99\n      jump\t// in\n    tag_98:\n        /* \"#utility.yul\":3672:3707   */\n      swap1\n      pop\n        /* \"#utility.yul\":3662:3713   */\n      swap2\n      swap1\n      pop\n      jump\t// out\n        /* \"#utility.yul\":3719:3845   */\n    tag_99:\n        /* \"#utility.yul\":3756:3763   */\n      0x00\n        /* \"#utility.yul\":3796:3838   */\n      0xffffffffffffffffffffffffffffffffffffffff\n        /* \"#utility.yul\":3789:3794   */\n      dup3\n        /* \"#utility.yul\":3785:3839   */\n      and\n        /* \"#utility.yul\":3774:3839   */\n      swap1\n      pop\n        /* \"#utility.yul\":3764:3845   */\n      swap2\n      swap1\n      pop\n      jump\t// out\n        /* \"#utility.yul\":3851:3928   */\n    tag_81:\n        /* \"#utility.yul\":3888:3895   */\n      0x00\n        /* \"#utility.yul\":3917:3922   */\n      dup2\n        /* \"#utility.yul\":3906:3922   */\n      swap1\n      pop\n        /* \"#utility.yul\":3896:3928   */\n      swap2\n      swap1\n      pop\n      jump\t// out\n        /* \"#utility.yul\":3934:4114   */\n    tag_96:\n        /* \"#utility.yul\":3982:4059   */\n      0x4e487b7100000000000000000000000000000000000000000000000000000000\n        /* \"#utility.yul\":3979:3980   */\n      0x00\n        /* \"#utility.yul\":3972:4060   */\n      mstore\n        /* \"#utility.yul\":4079:4083   */\n      0x11\n        /* \"#utility.yul\":4076:4077   */\n      0x04\n        /* \"#utility.yul\":4069:4084   */\n      mstore\n        /* \"#utility.yul\":4103:4107   */\n      0x24\n        /* \"#utility.yul\":4100:4101   */\n      0x00\n        /* \"#utility.yul\":4093:4108   */\n      revert\n        /* \"#utility.yul\":4120:4298   */\n    tag_72:\n        /* \"#utility.yul\":4260:4290   */\n      0x496e76616c696420636f6e747269627574696f6e20616d6f756e742e00000000\n        /* \"#utility.yul\":4256:4257   */\n      0x00\n        /* \"#utility.yul\":4248:4254   */\n      dup3\n        /* \"#utility.yul\":4244:4258   */\n      add\n        /* \"#utility.yul\":4237:4291   */\n      mstore\n        /* \"#utility.yul\":4226:4298   */\n      pop\n      jump\t// out\n        /* \"#utility.yul\":4304:4474   */\n    tag_77:\n        /* \"#utility.yul\":4444:4466   */\n      0x476f616c20616d6f756e7420726561636865642e000000000000000000000000\n        /* \"#utility.yul\":4440:4441   */\n      0x00\n        /* \"#utility.yul\":4432:4438   */\n      dup3\n        /* \"#utility.yul\":4428:4442   */\n      add\n        /* \"#utility.yul\":4421:4467   */\n      mstore\n        /* \"#utility.yul\":4410:4474   */\n      pop\n      jump\t// out\n        /* \"#utility.yul\":4480:4602   */\n    tag_52:\n        /* \"#utility.yul\":4553:4577   */\n      tag_106\n        /* \"#utility.yul\":4571:4576   */\n      dup2\n        /* \"#utility.yul\":4553:4577   */\n      tag_66\n      jump\t// in\n    tag_106:\n        /* \"#utility.yul\":4546:4551   */\n      dup2\n        /* \"#utility.yul\":4543:4578   */\n      eq\n        /* \"#utility.yul\":4533:4535   */\n      tag_107\n      jumpi\n        /* \"#utility.yul\":4592:4593   */\n      0x00\n        /* \"#utility.yul\":4589:4590   */\n      dup1\n        /* \"#utility.yul\":4582:4594   */\n      revert\n        /* \"#utility.yul\":4533:4535   */\n    tag_107:\n        /* \"#utility.yul\":4523:4602   */\n      pop\n      jump\t// out\n        /* \"#utility.yul\":4608:4730   */\n    tag_56:\n        /* \"#utility.yul\":4681:4705   */\n      tag_109\n        /* \"#utility.yul\":4699:4704   */\n      dup2\n        /* \"#utility.yul\":4681:4705   */\n      tag_81\n      jump\t// in\n    tag_109:\n        /* \"#utility.yul\":4674:4679   */\n      dup2\n        /* \"#utility.yul\":4671:4706   */\n      eq\n        /* \"#utility.yul\":4661:4663   */\n      tag_110\n      jumpi\n        /* \"#utility.yul\":4720:4721   */\n      0x00\n        /* \"#utility.yul\":4717:4718   */\n      dup1\n        /* \"#utility.yul\":4710:4722   */\n      revert\n        /* \"#utility.yul\":4661:4663   */\n    tag_110:\n        /* \"#utility.yul\":4651:4730   */\n      pop\n      jump\t// out\n\n    auxdata: 0xa2646970667358221220170d966b2fbbe4b58de0da929540200791a5b2fb8e7c9a072ea8be336c9a85ff64736f6c63430008040033\n}\n",
				"bytecode": {
					"linkReferences": {},
					"object": "608060405234801561001057600080fd5b5060405161067438038061067483398181016040528101906100329190610094565b336000806101000a81548173ffffffffffffffffffffffffffffffffffffffff021916908373ffffffffffffffffffffffffffffffffffffffff16021790555080600181905550506100de565b60008151905061008e816100c7565b92915050565b6000602082840312156100a657600080fd5b60006100b48482850161007f565b91505092915050565b6000819050919050565b6100d0816100bd565b81146100db57600080fd5b50565b610587806100ed6000396000f3fe6080604052600436106100555760003560e01c80632636b9451461005a57806342e94c90146100855780638da5cb5b146100c2578063c5c4744c146100ed578063c5cafc2a14610118578063d7bb99ba14610141575b600080fd5b34801561006657600080fd5b5061006f61014b565b60405161007c91906103e4565b60405180910390f35b34801561009157600080fd5b506100ac60048036038101906100a791906102d3565b610151565b6040516100b991906103e4565b60405180910390f35b3480156100ce57600080fd5b506100d7610169565b6040516100e49190610389565b60405180910390f35b3480156100f957600080fd5b5061010261018d565b60405161010f91906103e4565b60405180910390f35b34801561012457600080fd5b5061013f600480360381019061013a91906102fc565b610193565b005b6101496101a3565b005b60015481565b60036020528060005260406000206000915090505481565b60008054906101000a900473ffffffffffffffffffffffffffffffffffffffff1681565b60025481565b600081116101a057600080fd5b50565b600034116101e6576040517f08c379a00000000000000000000000000000000000000000000000000000000081526004016101dd906103a4565b60405180910390fd5b600154346002546101f79190610410565b1115610238576040517f08c379a000000000000000000000000000000000000000000000000000000000815260040161022f906103c4565b60405180910390fd5b34600360003373ffffffffffffffffffffffffffffffffffffffff1673ffffffffffffffffffffffffffffffffffffffff16815260200190815260200160002060008282546102879190610410565b9250508190555034600260008282546102a09190610410565b92505081905550565b6000813590506102b881610523565b92915050565b6000813590506102cd8161053a565b92915050565b6000602082840312156102e557600080fd5b60006102f3848285016102a9565b91505092915050565b60006020828403121561030e57600080fd5b600061031c848285016102be565b91505092915050565b61032e81610466565b82525050565b6000610341601c836103ff565b915061034c826104d1565b602082019050919050565b60006103646014836103ff565b915061036f826104fa565b602082019050919050565b61038381610498565b82525050565b600060208201905061039e6000830184610325565b92915050565b600060208201905081810360008301526103bd81610334565b9050919050565b600060208201905081810360008301526103dd81610357565b9050919050565b60006020820190506103f9600083018461037a565b92915050565b600082825260208201905092915050565b600061041b82610498565b915061042683610498565b9250827fffffffffffffffffffffffffffffffffffffffffffffffffffffffffffffffff0382111561045b5761045a6104a2565b5b828201905092915050565b600061047182610478565b9050919050565b600073ffffffffffffffffffffffffffffffffffffffff82169050919050565b6000819050919050565b7f4e487b7100000000000000000000000000000000000000000000000000000000600052601160045260246000fd5b7f496e76616c696420636f6e747269627574696f6e20616d6f756e742e00000000600082015250565b7f476f616c20616d6f756e7420726561636865642e000000000000000000000000600082015250565b61052c81610466565b811461053757600080fd5b50565b61054381610498565b811461054e57600080fd5b5056fea2646970667358221220170d966b2fbbe4b58de0da929540200791a5b2fb8e7c9a072ea8be336c9a85ff64736f6c63430008040033",
					"opcodes": "PUSH1 0x80 PUSH1 0x40 MSTORE CALLVALUE DUP1 ISZERO PUSH2 0x10 JUMPI PUSH1 0x0 DUP1 REVERT JUMPDEST POP PUSH1 0x40 MLOAD PUSH2 0x674 CODESIZE SUB DUP1 PUSH2 0x674 DUP4 CODECOPY DUP2 DUP2 ADD PUSH1 0x40 MSTORE DUP2 ADD SWAP1 PUSH2 0x32 SWAP2 SWAP1 PUSH2 0x94 JUMP JUMPDEST CALLER PUSH1 0x0 DUP1 PUSH2 0x100 EXP DUP2 SLOAD DUP2 PUSH20 0xFFFFFFFFFFFFFFFFFFFFFFFFFFFFFFFFFFFFFFFF MUL NOT AND SWAP1 DUP4 PUSH20 0xFFFFFFFFFFFFFFFFFFFFFFFFFFFFFFFFFFFFFFFF AND MUL OR SWAP1 SSTORE POP DUP1 PUSH1 0x1 DUP2 SWAP1 SSTORE POP POP PUSH2 0xDE JUMP JUMPDEST PUSH1 0x0 DUP2 MLOAD SWAP1 POP PUSH2 0x8E DUP2 PUSH2 0xC7 JUMP JUMPDEST SWAP3 SWAP2 POP POP JUMP JUMPDEST PUSH1 0x0 PUSH1 0x20 DUP3 DUP5 SUB SLT ISZERO PUSH2 0xA6 JUMPI PUSH1 0x0 DUP1 REVERT JUMPDEST PUSH1 0x0 PUSH2 0xB4 DUP5 DUP3 DUP6 ADD PUSH2 0x7F JUMP JUMPDEST SWAP2 POP POP SWAP3 SWAP2 POP POP JUMP JUMPDEST PUSH1 0x0 DUP2 SWAP1 POP SWAP2 SWAP1 POP JUMP JUMPDEST PUSH2 0xD0 DUP2 PUSH2 0xBD JUMP JUMPDEST DUP2 EQ PUSH2 0xDB JUMPI PUSH1 0x0 DUP1 REVERT JUMPDEST POP JUMP JUMPDEST PUSH2 0x587 DUP1 PUSH2 0xED PUSH1 0x0 CODECOPY PUSH1 0x0 RETURN INVALID PUSH1 0x80 PUSH1 0x40 MSTORE PUSH1 0x4 CALLDATASIZE LT PUSH2 0x55 JUMPI PUSH1 0x0 CALLDATALOAD PUSH1 0xE0 SHR DUP1 PUSH4 0x2636B945 EQ PUSH2 0x5A JUMPI DUP1 PUSH4 0x42E94C90 EQ PUSH2 0x85 JUMPI DUP1 PUSH4 0x8DA5CB5B EQ PUSH2 0xC2 JUMPI DUP1 PUSH4 0xC5C4744C EQ PUSH2 0xED JUMPI DUP1 PUSH4 0xC5CAFC2A EQ PUSH2 0x118 JUMPI DUP1 PUSH4 0xD7BB99BA EQ PUSH2 0x141 JUMPI JUMPDEST PUSH1 0x0 DUP1 REVERT JUMPDEST CALLVALUE DUP1 ISZERO PUSH2 0x66 JUMPI PUSH1 0x0 DUP1 REVERT JUMPDEST POP PUSH2 0x6F PUSH2 0x14B JUMP JUMPDEST PUSH1 0x40 MLOAD PUSH2 0x7C SWAP2 SWAP1 PUSH2 0x3E4 JUMP JUMPDEST PUSH1 0x40 MLOAD DUP1 SWAP2 SUB SWAP1 RETURN JUMPDEST CALLVALUE DUP1 ISZERO PUSH2 0x91 JUMPI PUSH1 0x0 DUP1 REVERT JUMPDEST POP PUSH2 0xAC PUSH1 0x4 DUP1 CALLDATASIZE SUB DUP2 ADD SWAP1 PUSH2 0xA7 SWAP2 SWAP1 PUSH2 0x2D3 JUMP JUMPDEST PUSH2 0x151 JUMP JUMPDEST PUSH1 0x40 MLOAD PUSH2 0xB9 SWAP2 SWAP1 PUSH2 0x3E4 JUMP JUMPDEST PUSH1 0x40 MLOAD DUP1 SWAP2 SUB SWAP1 RETURN JUMPDEST CALLVALUE DUP1 ISZERO PUSH2 0xCE JUMPI PUSH1 0x0 DUP1 REVERT JUMPDEST POP PUSH2 0xD7 PUSH2 0x169 JUMP JUMPDEST PUSH1 0x40 MLOAD PUSH2 0xE4 SWAP2 SWAP1 PUSH2 0x389 JUMP JUMPDEST PUSH1 0x40 MLOAD DUP1 SWAP2 SUB SWAP1 RETURN JUMPDEST CALLVALUE DUP1 ISZERO PUSH2 0xF9 JUMPI PUSH1 0x0 DUP1 REVERT JUMPDEST POP PUSH2 0x102 PUSH2 0x18D JUMP JUMPDEST PUSH1 0x40 MLOAD PUSH2 0x10F SWAP2 SWAP1 PUSH2 0x3E4 JUMP JUMPDEST PUSH1 0x40 MLOAD DUP1 SWAP2 SUB SWAP1 RETURN JUMPDEST CALLVALUE DUP1 ISZERO PUSH2 0x124 JUMPI PUSH1 0x0 DUP1 REVERT JUMPDEST POP PUSH2 0x13F PUSH1 0x4 DUP1 CALLDATASIZE SUB DUP2 ADD SWAP1 PUSH2 0x13A SWAP2 SWAP1 PUSH2 0x2FC JUMP JUMPDEST PUSH2 0x193 JUMP JUMPDEST STOP JUMPDEST PUSH2 0x149 PUSH2 0x1A3 JUMP JUMPDEST STOP JUMPDEST PUSH1 0x1 SLOAD DUP2 JUMP JUMPDEST PUSH1 0x3 PUSH1 0x20 MSTORE DUP1 PUSH1 0x0 MSTORE PUSH1 0x40 PUSH1 0x0 KECCAK256 PUSH1 0x0 SWAP2 POP SWAP1 POP SLOAD DUP2 JUMP JUMPDEST PUSH1 0x0 DUP1 SLOAD SWAP1 PUSH2 0x100 EXP SWAP1 DIV PUSH20 0xFFFFFFFFFFFFFFFFFFFFFFFFFFFFFFFFFFFFFFFF AND DUP2 JUMP JUMPDEST PUSH1 0x2 SLOAD DUP2 JUMP JUMPDEST PUSH1 0x0 DUP2 GT PUSH2 0x1A0 JUMPI PUSH1 0x0 DUP1 REVERT JUMPDEST POP JUMP JUMPDEST PUSH1 0x0 CALLVALUE GT PUSH2 0x1E6 JUMPI PUSH1 0x40 MLOAD PUSH32 0x8C379A000000000000000000000000000000000000000000000000000000000 DUP2 MSTORE PUSH1 0x4 ADD PUSH2 0x1DD SWAP1 PUSH2 0x3A4 JUMP JUMPDEST PUSH1 0x40 MLOAD DUP1 SWAP2 SUB SWAP1 REVERT JUMPDEST PUSH1 0x1 SLOAD CALLVALUE PUSH1 0x2 SLOAD PUSH2 0x1F7 SWAP2 SWAP1 PUSH2 0x410 JUMP JUMPDEST GT ISZERO PUSH2 0x238 JUMPI PUSH1 0x40 MLOAD PUSH32 0x8C379A000000000000000000000000000000000000000000000000000000000 DUP2 MSTORE PUSH1 0x4 ADD PUSH2 0x22F SWAP1 PUSH2 0x3C4 JUMP JUMPDEST PUSH1 0x40 MLOAD DUP1 SWAP2 SUB SWAP1 REVERT JUMPDEST CALLVALUE PUSH1 0x3 PUSH1 0x0 CALLER PUSH20 0xFFFFFFFFFFFFFFFFFFFFFFFFFFFFFFFFFFFFFFFF AND PUSH20 0xFFFFFFFFFFFFFFFFFFFFFFFFFFFFFFFFFFFFFFFF AND DUP2 MSTORE PUSH1 0x20 ADD SWAP1 DUP2 MSTORE PUSH1 0x20 ADD PUSH1 0x0 KECCAK256 PUSH1 0x0 DUP3 DUP3 SLOAD PUSH2 0x287 SWAP2 SWAP1 PUSH2 0x410 JUMP JUMPDEST SWAP3 POP POP DUP2 SWAP1 SSTORE POP CALLVALUE PUSH1 0x2 PUSH1 0x0 DUP3 DUP3 SLOAD PUSH2 0x2A0 SWAP2 SWAP1 PUSH2 0x410 JUMP JUMPDEST SWAP3 POP POP DUP2 SWAP1 SSTORE POP JUMP JUMPDEST PUSH1 0x0 DUP2 CALLDATALOAD SWAP1 POP PUSH2 0x2B8 DUP2 PUSH2 0x523 JUMP JUMPDEST SWAP3 SWAP2 POP POP JUMP JUMPDEST PUSH1 0x0 DUP2 CALLDATALOAD SWAP1 POP PUSH2 0x2CD DUP2 PUSH2 0x53A JUMP JUMPDEST SWAP3 SWAP2 POP POP JUMP JUMPDEST PUSH1 0x0 PUSH1 0x20 DUP3 DUP5 SUB SLT ISZERO PUSH2 0x2E5 JUMPI PUSH1 0x0 DUP1 REVERT JUMPDEST PUSH1 0x0 PUSH2 0x2F3 DUP5 DUP3 DUP6 ADD PUSH2 0x2A9 JUMP JUMPDEST SWAP2 POP POP SWAP3 SWAP2 POP POP JUMP JUMPDEST PUSH1 0x0 PUSH1 0x20 DUP3 DUP5 SUB SLT ISZERO PUSH2 0x30E JUMPI PUSH1 0x0 DUP1 REVERT JUMPDEST PUSH1 0x0 PUSH2 0x31C DUP5 DUP3 DUP6 ADD PUSH2 0x2BE JUMP JUMPDEST SWAP2 POP POP SWAP3 SWAP2 POP POP JUMP JUMPDEST PUSH2 0x32E DUP2 PUSH2 0x466 JUMP JUMPDEST DUP3 MSTORE POP POP JUMP JUMPDEST PUSH1 0x0 PUSH2 0x341 PUSH1 0x1C DUP4 PUSH2 0x3FF JUMP JUMPDEST SWAP2 POP PUSH2 0x34C DUP3 PUSH2 0x4D1 JUMP JUMPDEST PUSH1 0x20 DUP3 ADD SWAP1 POP SWAP2 SWAP1 POP JUMP JUMPDEST PUSH1 0x0 PUSH2 0x364 PUSH1 0x14 DUP4 PUSH2 0x3FF JUMP JUMPDEST SWAP2 POP PUSH2 0x36F DUP3 PUSH2 0x4FA JUMP JUMPDEST PUSH1 0x20 DUP3 ADD SWAP1 POP SWAP2 SWAP1 POP JUMP JUMPDEST PUSH2 0x383 DUP2 PUSH2 0x498 JUMP JUMPDEST DUP3 MSTORE POP POP JUMP JUMPDEST PUSH1 0x0 PUSH1 0x20 DUP3 ADD SWAP1 POP PUSH2 0x39E PUSH1 0x0 DUP4 ADD DUP5 PUSH2 0x325 JUMP JUMPDEST SWAP3 SWAP2 POP POP JUMP JUMPDEST PUSH1 0x0 PUSH1 0x20 DUP3 ADD SWAP1 POP DUP2 DUP2 SUB PUSH1 0x0 DUP4 ADD MSTORE PUSH2 0x3BD DUP2 PUSH2 0x334 JUMP JUMPDEST SWAP1 POP SWAP2 SWAP1 POP JUMP JUMPDEST PUSH1 0x0 PUSH1 0x20 DUP3 ADD SWAP1 POP DUP2 DUP2 SUB PUSH1 0x0 DUP4 ADD MSTORE PUSH2 0x3DD DUP2 PUSH2 0x357 JUMP JUMPDEST SWAP1 POP SWAP2 SWAP1 POP JUMP JUMPDEST PUSH1 0x0 PUSH1 0x20 DUP3 ADD SWAP1 POP PUSH2 0x3F9 PUSH1 0x0 DUP4 ADD DUP5 PUSH2 0x37A JUMP JUMPDEST SWAP3 SWAP2 POP POP JUMP JUMPDEST PUSH1 0x0 DUP3 DUP3 MSTORE PUSH1 0x20 DUP3 ADD SWAP1 POP SWAP3 SWAP2 POP POP JUMP JUMPDEST PUSH1 0x0 PUSH2 0x41B DUP3 PUSH2 0x498 JUMP JUMPDEST SWAP2 POP PUSH2 0x426 DUP4 PUSH2 0x498 JUMP JUMPDEST SWAP3 POP DUP3 PUSH32 0xFFFFFFFFFFFFFFFFFFFFFFFFFFFFFFFFFFFFFFFFFFFFFFFFFFFFFFFFFFFFFFFF SUB DUP3 GT ISZERO PUSH2 0x45B JUMPI PUSH2 0x45A PUSH2 0x4A2 JUMP JUMPDEST JUMPDEST DUP3 DUP3 ADD SWAP1 POP SWAP3 SWAP2 POP POP JUMP JUMPDEST PUSH1 0x0 PUSH2 0x471 DUP3 PUSH2 0x478 JUMP JUMPDEST SWAP1 POP SWAP2 SWAP1 POP JUMP JUMPDEST PUSH1 0x0 PUSH20 0xFFFFFFFFFFFFFFFFFFFFFFFFFFFFFFFFFFFFFFFF DUP3 AND SWAP1 POP SWAP2 SWAP1 POP JUMP JUMPDEST PUSH1 0x0 DUP2 SWAP1 POP SWAP2 SWAP1 POP JUMP JUMPDEST PUSH32 0x4E487B7100000000000000000000000000000000000000000000000000000000 PUSH1 0x0 MSTORE PUSH1 0x11 PUSH1 0x4 MSTORE PUSH1 0x24 PUSH1 0x0 REVERT JUMPDEST PUSH32 0x496E76616C696420636F6E747269627574696F6E20616D6F756E742E00000000 PUSH1 0x0 DUP3 ADD MSTORE POP JUMP JUMPDEST PUSH32 0x476F616C20616D6F756E7420726561636865642E000000000000000000000000 PUSH1 0x0 DUP3 ADD MSTORE POP JUMP JUMPDEST PUSH2 0x52C DUP2 PUSH2 0x466 JUMP JUMPDEST DUP2 EQ PUSH2 0x537 JUMPI PUSH1 0x0 DUP1 REVERT JUMPDEST POP JUMP JUMPDEST PUSH2 0x543 DUP2 PUSH2 0x498 JUMP JUMPDEST DUP2 EQ PUSH2 0x54E JUMPI PUSH1 0x0 DUP1 REVERT JUMPDEST POP JUMP INVALID LOG2 PUSH5 0x6970667358 0x22 SLT KECCAK256 OR 0xD SWAP7 PUSH12 0x2FBBE4B58DE0DA9295402007 SWAP2 0xA5 0xB2 0xFB DUP15 PUSH29 0x9A072EA8BE336C9A85FF64736F6C634300080400330000000000000000 "
				},
				"gasEstimates": {
					"creation": {
						"codeDepositCost": "283000",
						"executionCost": "infinite",
						"totalCost": "infinite"
					},
					"external": {
						"checkNonZero(uint256)": "495",
						"contribute()": "infinite",
						"contributions(address)": "1514",
						"goalAmount()": "1107",
						"owner()": "1233",
						"totalRaised()": "1173"
					}
				},
				"methodIdentifiers": {
					"checkNonZero(uint256)": "c5cafc2a",
					"contribute()": "d7bb99ba",
					"contributions(address)": "42e94c90",
					"goalAmount()": "2636b945",
					"owner()": "8da5cb5b",
					"totalRaised()": "c5c4744c"
				}
			},
			"storageLayout": {
				"storage": [
					{
						"astId": 3,
						"contract": "Unsigned Integer Types Optimizer/optimized_test25.sol:Crowdfunding",
						"label": "owner",
						"offset": 0,
						"slot": "0",
						"type": "t_address"
					},
					{
						"astId": 5,
						"contract": "Unsigned Integer Types Optimizer/optimized_test25.sol:Crowdfunding",
						"label": "goalAmount",
						"offset": 0,
						"slot": "1",
						"type": "t_uint256"
					},
					{
						"astId": 7,
						"contract": "Unsigned Integer Types Optimizer/optimized_test25.sol:Crowdfunding",
						"label": "totalRaised",
						"offset": 0,
						"slot": "2",
						"type": "t_uint256"
					},
					{
						"astId": 11,
						"contract": "Unsigned Integer Types Optimizer/optimized_test25.sol:Crowdfunding",
						"label": "contributions",
						"offset": 0,
						"slot": "3",
						"type": "t_mapping(t_address,t_uint256)"
					}
				],
				"types": {
					"t_address": {
						"encoding": "inplace",
						"label": "address",
						"numberOfBytes": "20"
					},
					"t_mapping(t_address,t_uint256)": {
						"encoding": "mapping",
						"key": "t_address",
						"label": "mapping(address => uint256)",
						"numberOfBytes": "32",
						"value": "t_uint256"
					},
					"t_uint256": {
						"encoding": "inplace",
						"label": "uint256",
						"numberOfBytes": "32"
					}
				}
			},
			"userdoc": {
				"kind": "user",
				"methods": {},
				"version": 1
			}
		}
	}
}