{
	"Unsigned Integer Types Optimizer/optimized_test22.sol": {
		"lottery": {
			"abi": [
				{
					"inputs": [
						{
							"internalType": "uint256",
							"name": "_ticketPrice",
							"type": "uint256"
						}
					],
					"stateMutability": "nonpayable",
					"type": "constructor"
				},
				{
					"inputs": [
						{
							"internalType": "uint256",
							"name": "x",
							"type": "uint256"
						}
					],
					"name": "checkNonZero",
					"outputs": [],
					"stateMutability": "pure",
					"type": "function"
				},
				{
					"inputs": [],
					"name": "enter",
					"outputs": [],
					"stateMutability": "payable",
					"type": "function"
				},
				{
					"inputs": [],
					"name": "manager",
					"outputs": [
						{
							"internalType": "address",
							"name": "",
							"type": "address"
						}
					],
					"stateMutability": "view",
					"type": "function"
				},
				{
					"inputs": [
						{
							"internalType": "uint256",
							"name": "",
							"type": "uint256"
						}
					],
					"name": "players",
					"outputs": [
						{
							"internalType": "address",
							"name": "",
							"type": "address"
						}
					],
					"stateMutability": "view",
					"type": "function"
				},
				{
					"inputs": [],
					"name": "ticketPrice",
					"outputs": [
						{
							"internalType": "uint256",
							"name": "",
							"type": "uint256"
						}
					],
					"stateMutability": "view",
					"type": "function"
				}
			],
			"devdoc": {
				"kind": "dev",
				"methods": {},
				"version": 1
			},
			"evm": {
				"assembly": "    /* \"Unsigned Integer Types Optimizer/optimized_test22.sol\":56:752  contract lottery {... */\n  mstore(0x40, 0x80)\n    /* \"Unsigned Integer Types Optimizer/optimized_test22.sol\":166:261  constructor(uint256 _ticketPrice) {... */\n  callvalue\n  dup1\n  iszero\n  tag_1\n  jumpi\n  0x00\n  dup1\n  revert\ntag_1:\n  pop\n  mload(0x40)\n  sub(codesize, bytecodeSize)\n  dup1\n  bytecodeSize\n  dup4\n  codecopy\n  dup2\n  dup2\n  add\n  0x40\n  mstore\n  dup2\n  add\n  swap1\n  tag_2\n  swap2\n  swap1\n  tag_3\n  jump\t// in\ntag_2:\n    /* \"Unsigned Integer Types Optimizer/optimized_test22.sol\":216:226  msg.sender */\n  caller\n    /* \"Unsigned Integer Types Optimizer/optimized_test22.sol\":206:213  manager */\n  0x00\n  dup1\n    /* \"Unsigned Integer Types Optimizer/optimized_test22.sol\":206:226  manager = msg.sender */\n  0x0100\n  exp\n  dup2\n  sload\n  dup2\n  0xffffffffffffffffffffffffffffffffffffffff\n  mul\n  not\n  and\n  swap1\n  dup4\n  0xffffffffffffffffffffffffffffffffffffffff\n  and\n  mul\n  or\n  swap1\n  sstore\n  pop\n    /* \"Unsigned Integer Types Optimizer/optimized_test22.sol\":246:258  _ticketPrice */\n  dup1\n    /* \"Unsigned Integer Types Optimizer/optimized_test22.sol\":232:243  ticketPrice */\n  0x02\n    /* \"Unsigned Integer Types Optimizer/optimized_test22.sol\":232:258  ticketPrice = _ticketPrice */\n  dup2\n  swap1\n  sstore\n  pop\n    /* \"Unsigned Integer Types Optimizer/optimized_test22.sol\":166:261  constructor(uint256 _ticketPrice) {... */\n  pop\n    /* \"Unsigned Integer Types Optimizer/optimized_test22.sol\":56:752  contract lottery {... */\n  jump(tag_6)\n    /* \"#utility.yul\":7:150   */\ntag_8:\n    /* \"#utility.yul\":64:69   */\n  0x00\n    /* \"#utility.yul\":95:101   */\n  dup2\n    /* \"#utility.yul\":89:102   */\n  mload\n    /* \"#utility.yul\":80:102   */\n  swap1\n  pop\n    /* \"#utility.yul\":111:144   */\n  tag_10\n    /* \"#utility.yul\":138:143   */\n  dup2\n    /* \"#utility.yul\":111:144   */\n  tag_11\n  jump\t// in\ntag_10:\n    /* \"#utility.yul\":70:150   */\n  swap3\n  swap2\n  pop\n  pop\n  jump\t// out\n    /* \"#utility.yul\":156:440   */\ntag_3:\n    /* \"#utility.yul\":226:232   */\n  0x00\n    /* \"#utility.yul\":275:277   */\n  0x20\n    /* \"#utility.yul\":263:272   */\n  dup3\n    /* \"#utility.yul\":254:261   */\n  dup5\n    /* \"#utility.yul\":250:273   */\n  sub\n    /* \"#utility.yul\":246:278   */\n  slt\n    /* \"#utility.yul\":243:245   */\n  iszero\n  tag_13\n  jumpi\n    /* \"#utility.yul\":291:292   */\n  0x00\n    /* \"#utility.yul\":288:289   */\n  dup1\n    /* \"#utility.yul\":281:293   */\n  revert\n    /* \"#utility.yul\":243:245   */\ntag_13:\n    /* \"#utility.yul\":334:335   */\n  0x00\n    /* \"#utility.yul\":359:423   */\n  tag_14\n    /* \"#utility.yul\":415:422   */\n  dup5\n    /* \"#utility.yul\":406:412   */\n  dup3\n    /* \"#utility.yul\":395:404   */\n  dup6\n    /* \"#utility.yul\":391:413   */\n  add\n    /* \"#utility.yul\":359:423   */\n  tag_8\n  jump\t// in\ntag_14:\n    /* \"#utility.yul\":349:423   */\n  swap2\n  pop\n    /* \"#utility.yul\":305:433   */\n  pop\n    /* \"#utility.yul\":233:440   */\n  swap3\n  swap2\n  pop\n  pop\n  jump\t// out\n    /* \"#utility.yul\":446:523   */\ntag_15:\n    /* \"#utility.yul\":483:490   */\n  0x00\n    /* \"#utility.yul\":512:517   */\n  dup2\n    /* \"#utility.yul\":501:517   */\n  swap1\n  pop\n    /* \"#utility.yul\":491:523   */\n  swap2\n  swap1\n  pop\n  jump\t// out\n    /* \"#utility.yul\":529:651   */\ntag_11:\n    /* \"#utility.yul\":602:626   */\n  tag_18\n    /* \"#utility.yul\":620:625   */\n  dup2\n    /* \"#utility.yul\":602:626   */\n  tag_15\n  jump\t// in\ntag_18:\n    /* \"#utility.yul\":595:600   */\n  dup2\n    /* \"#utility.yul\":592:627   */\n  eq\n    /* \"#utility.yul\":582:584   */\n  tag_19\n  jumpi\n    /* \"#utility.yul\":641:642   */\n  0x00\n    /* \"#utility.yul\":638:639   */\n  dup1\n    /* \"#utility.yul\":631:643   */\n  revert\n    /* \"#utility.yul\":582:584   */\ntag_19:\n    /* \"#utility.yul\":572:651   */\n  pop\n  jump\t// out\n    /* \"Unsigned Integer Types Optimizer/optimized_test22.sol\":56:752  contract lottery {... */\ntag_6:\n  dataSize(sub_0)\n  dup1\n  dataOffset(sub_0)\n  0x00\n  codecopy\n  0x00\n  return\nstop\n\nsub_0: assembly {\n        /* \"Unsigned Integer Types Optimizer/optimized_test22.sol\":56:752  contract lottery {... */\n      mstore(0x40, 0x80)\n      jumpi(tag_1, lt(calldatasize, 0x04))\n      shr(0xe0, calldataload(0x00))\n      dup1\n      0x1209b1f6\n      eq\n      tag_2\n      jumpi\n      dup1\n      0x481c6a75\n      eq\n      tag_3\n      jumpi\n      dup1\n      0xc5cafc2a\n      eq\n      tag_4\n      jumpi\n      dup1\n      0xe97dcb62\n      eq\n      tag_5\n      jumpi\n      dup1\n      0xf71d96cb\n      eq\n      tag_6\n      jumpi\n    tag_1:\n      0x00\n      dup1\n      revert\n        /* \"Unsigned Integer Types Optimizer/optimized_test22.sol\":137:163  uint256 public ticketPrice */\n    tag_2:\n      callvalue\n      dup1\n      iszero\n      tag_7\n      jumpi\n      0x00\n      dup1\n      revert\n    tag_7:\n      pop\n      tag_8\n      tag_9\n      jump\t// in\n    tag_8:\n      mload(0x40)\n      tag_10\n      swap2\n      swap1\n      tag_11\n      jump\t// in\n    tag_10:\n      mload(0x40)\n      dup1\n      swap2\n      sub\n      swap1\n      return\n        /* \"Unsigned Integer Types Optimizer/optimized_test22.sol\":79:101  address public manager */\n    tag_3:\n      callvalue\n      dup1\n      iszero\n      tag_12\n      jumpi\n      0x00\n      dup1\n      revert\n    tag_12:\n      pop\n      tag_13\n      tag_14\n      jump\t// in\n    tag_13:\n      mload(0x40)\n      tag_15\n      swap2\n      swap1\n      tag_16\n      jump\t// in\n    tag_15:\n      mload(0x40)\n      dup1\n      swap2\n      sub\n      swap1\n      return\n        /* \"Unsigned Integer Types Optimizer/optimized_test22.sol\":682:750  function checkNonZero(uint256 x) public pure {... */\n    tag_4:\n      callvalue\n      dup1\n      iszero\n      tag_17\n      jumpi\n      0x00\n      dup1\n      revert\n    tag_17:\n      pop\n      tag_18\n      0x04\n      dup1\n      calldatasize\n      sub\n      dup2\n      add\n      swap1\n      tag_19\n      swap2\n      swap1\n      tag_20\n      jump\t// in\n    tag_19:\n      tag_21\n      jump\t// in\n    tag_18:\n      stop\n        /* \"Unsigned Integer Types Optimizer/optimized_test22.sol\":263:592  function enter() public payable {... */\n    tag_5:\n      tag_22\n      tag_23\n      jump\t// in\n    tag_22:\n      stop\n        /* \"Unsigned Integer Types Optimizer/optimized_test22.sol\":107:131  address[] public players */\n    tag_6:\n      callvalue\n      dup1\n      iszero\n      tag_24\n      jumpi\n      0x00\n      dup1\n      revert\n    tag_24:\n      pop\n      tag_25\n      0x04\n      dup1\n      calldatasize\n      sub\n      dup2\n      add\n      swap1\n      tag_26\n      swap2\n      swap1\n      tag_20\n      jump\t// in\n    tag_26:\n      tag_27\n      jump\t// in\n    tag_25:\n      mload(0x40)\n      tag_28\n      swap2\n      swap1\n      tag_16\n      jump\t// in\n    tag_28:\n      mload(0x40)\n      dup1\n      swap2\n      sub\n      swap1\n      return\n        /* \"Unsigned Integer Types Optimizer/optimized_test22.sol\":137:163  uint256 public ticketPrice */\n    tag_9:\n      sload(0x02)\n      dup2\n      jump\t// out\n        /* \"Unsigned Integer Types Optimizer/optimized_test22.sol\":79:101  address public manager */\n    tag_14:\n      0x00\n      dup1\n      sload\n      swap1\n      0x0100\n      exp\n      swap1\n      div\n      0xffffffffffffffffffffffffffffffffffffffff\n      and\n      dup2\n      jump\t// out\n        /* \"Unsigned Integer Types Optimizer/optimized_test22.sol\":682:750  function checkNonZero(uint256 x) public pure {... */\n    tag_21:\n        /* \"Unsigned Integer Types Optimizer/optimized_test22.sol\":745:746  0 */\n      0x00\n        /* \"Unsigned Integer Types Optimizer/optimized_test22.sol\":741:742  x */\n      dup2\n        /* \"Unsigned Integer Types Optimizer/optimized_test22.sol\":741:746  x > 0 */\n      gt\n        /* \"Unsigned Integer Types Optimizer/optimized_test22.sol\":733:747  require(x > 0) */\n      tag_30\n      jumpi\n      0x00\n      dup1\n      revert\n    tag_30:\n        /* \"Unsigned Integer Types Optimizer/optimized_test22.sol\":682:750  function checkNonZero(uint256 x) public pure {... */\n      pop\n      jump\t// out\n        /* \"Unsigned Integer Types Optimizer/optimized_test22.sol\":263:592  function enter() public payable {... */\n    tag_23:\n        /* \"Unsigned Integer Types Optimizer/optimized_test22.sol\":322:333  ticketPrice */\n      sload(0x02)\n        /* \"Unsigned Integer Types Optimizer/optimized_test22.sol\":309:318  msg.value */\n      callvalue\n        /* \"Unsigned Integer Types Optimizer/optimized_test22.sol\":309:333  msg.value == ticketPrice */\n      eq\n        /* \"Unsigned Integer Types Optimizer/optimized_test22.sol\":301:359  require(msg.value == ticketPrice, \"Invalid ticket price.\") */\n      tag_32\n      jumpi\n      mload(0x40)\n      0x08c379a000000000000000000000000000000000000000000000000000000000\n      dup2\n      mstore\n      0x04\n      add\n      tag_33\n      swap1\n      tag_34\n      jump\t// in\n    tag_33:\n      mload(0x40)\n      dup1\n      swap2\n      sub\n      swap1\n      revert\n    tag_32:\n        /* \"Unsigned Integer Types Optimizer/optimized_test22.sol\":387:394  manager */\n      0x00\n      dup1\n      sload\n      swap1\n      0x0100\n      exp\n      swap1\n      div\n      0xffffffffffffffffffffffffffffffffffffffff\n      and\n        /* \"Unsigned Integer Types Optimizer/optimized_test22.sol\":373:394  msg.sender != manager */\n      0xffffffffffffffffffffffffffffffffffffffff\n      and\n        /* \"Unsigned Integer Types Optimizer/optimized_test22.sol\":373:383  msg.sender */\n      caller\n        /* \"Unsigned Integer Types Optimizer/optimized_test22.sol\":373:394  msg.sender != manager */\n      0xffffffffffffffffffffffffffffffffffffffff\n      and\n      eq\n      iszero\n        /* \"Unsigned Integer Types Optimizer/optimized_test22.sol\":365:428  require(msg.sender != manager, \"Manager cannot enter lottery.\") */\n      tag_35\n      jumpi\n      mload(0x40)\n      0x08c379a000000000000000000000000000000000000000000000000000000000\n      dup2\n      mstore\n      0x04\n      add\n      tag_36\n      swap1\n      tag_37\n      jump\t// in\n    tag_36:\n      mload(0x40)\n      dup1\n      swap2\n      sub\n      swap1\n      revert\n    tag_35:\n        /* \"Unsigned Integer Types Optimizer/optimized_test22.sol\":464:465  0 */\n      0x00\n        /* \"Unsigned Integer Types Optimizer/optimized_test22.sol\":442:466  msg.sender != address(0) */\n      0xffffffffffffffffffffffffffffffffffffffff\n      and\n        /* \"Unsigned Integer Types Optimizer/optimized_test22.sol\":442:452  msg.sender */\n      caller\n        /* \"Unsigned Integer Types Optimizer/optimized_test22.sol\":442:466  msg.sender != address(0) */\n      0xffffffffffffffffffffffffffffffffffffffff\n      and\n      eq\n      iszero\n        /* \"Unsigned Integer Types Optimizer/optimized_test22.sol\":434:487  require(msg.sender != address(0), \"Invalid address.\") */\n      tag_38\n      jumpi\n      mload(0x40)\n      0x08c379a000000000000000000000000000000000000000000000000000000000\n      dup2\n      mstore\n      0x04\n      add\n      tag_39\n      swap1\n      tag_40\n      jump\t// in\n    tag_39:\n      mload(0x40)\n      dup1\n      swap2\n      sub\n      swap1\n      revert\n    tag_38:\n        /* \"Unsigned Integer Types Optimizer/optimized_test22.sol\":518:520  10 */\n      0x0a\n        /* \"Unsigned Integer Types Optimizer/optimized_test22.sol\":501:508  players */\n      0x01\n        /* \"Unsigned Integer Types Optimizer/optimized_test22.sol\":501:515  players.length */\n      dup1\n      sload\n      swap1\n      pop\n        /* \"Unsigned Integer Types Optimizer/optimized_test22.sol\":501:520  players.length < 10 */\n      lt\n        /* \"Unsigned Integer Types Optimizer/optimized_test22.sol\":493:559  require(players.length < 10, \"Maximum number of players reached.\") */\n      tag_41\n      jumpi\n      mload(0x40)\n      0x08c379a000000000000000000000000000000000000000000000000000000000\n      dup2\n      mstore\n      0x04\n      add\n      tag_42\n      swap1\n      tag_43\n      jump\t// in\n    tag_42:\n      mload(0x40)\n      dup1\n      swap2\n      sub\n      swap1\n      revert\n    tag_41:\n        /* \"Unsigned Integer Types Optimizer/optimized_test22.sol\":565:572  players */\n      0x01\n        /* \"Unsigned Integer Types Optimizer/optimized_test22.sol\":578:588  msg.sender */\n      caller\n        /* \"Unsigned Integer Types Optimizer/optimized_test22.sol\":565:589  players.push(msg.sender) */\n      swap1\n      dup1\n      0x01\n      dup2\n      sload\n      add\n      dup1\n      dup3\n      sstore\n      dup1\n      swap2\n      pop\n      pop\n      0x01\n      swap1\n      sub\n      swap1\n      0x00\n      mstore\n      keccak256(0x00, 0x20)\n      add\n      0x00\n      swap1\n      swap2\n      swap1\n      swap2\n      swap1\n      swap2\n      0x0100\n      exp\n      dup2\n      sload\n      dup2\n      0xffffffffffffffffffffffffffffffffffffffff\n      mul\n      not\n      and\n      swap1\n      dup4\n      0xffffffffffffffffffffffffffffffffffffffff\n      and\n      mul\n      or\n      swap1\n      sstore\n      pop\n        /* \"Unsigned Integer Types Optimizer/optimized_test22.sol\":263:592  function enter() public payable {... */\n      jump\t// out\n        /* \"Unsigned Integer Types Optimizer/optimized_test22.sol\":107:131  address[] public players */\n    tag_27:\n      0x01\n      dup2\n      dup2\n      sload\n      dup2\n      lt\n      tag_45\n      jumpi\n      0x00\n      dup1\n      revert\n    tag_45:\n      swap1\n      0x00\n      mstore\n      keccak256(0x00, 0x20)\n      add\n      0x00\n      swap2\n      pop\n      sload\n      swap1\n      0x0100\n      exp\n      swap1\n      div\n      0xffffffffffffffffffffffffffffffffffffffff\n      and\n      dup2\n      jump\t// out\n        /* \"#utility.yul\":7:146   */\n    tag_48:\n        /* \"#utility.yul\":53:58   */\n      0x00\n        /* \"#utility.yul\":91:97   */\n      dup2\n        /* \"#utility.yul\":78:98   */\n      calldataload\n        /* \"#utility.yul\":69:98   */\n      swap1\n      pop\n        /* \"#utility.yul\":107:140   */\n      tag_50\n        /* \"#utility.yul\":134:139   */\n      dup2\n        /* \"#utility.yul\":107:140   */\n      tag_51\n      jump\t// in\n    tag_50:\n        /* \"#utility.yul\":59:146   */\n      swap3\n      swap2\n      pop\n      pop\n      jump\t// out\n        /* \"#utility.yul\":152:414   */\n    tag_20:\n        /* \"#utility.yul\":211:217   */\n      0x00\n        /* \"#utility.yul\":260:262   */\n      0x20\n        /* \"#utility.yul\":248:257   */\n      dup3\n        /* \"#utility.yul\":239:246   */\n      dup5\n        /* \"#utility.yul\":235:258   */\n      sub\n        /* \"#utility.yul\":231:263   */\n      slt\n        /* \"#utility.yul\":228:230   */\n      iszero\n      tag_53\n      jumpi\n        /* \"#utility.yul\":276:277   */\n      0x00\n        /* \"#utility.yul\":273:274   */\n      dup1\n        /* \"#utility.yul\":266:278   */\n      revert\n        /* \"#utility.yul\":228:230   */\n    tag_53:\n        /* \"#utility.yul\":319:320   */\n      0x00\n        /* \"#utility.yul\":344:397   */\n      tag_54\n        /* \"#utility.yul\":389:396   */\n      dup5\n        /* \"#utility.yul\":380:386   */\n      dup3\n        /* \"#utility.yul\":369:378   */\n      dup6\n        /* \"#utility.yul\":365:387   */\n      add\n        /* \"#utility.yul\":344:397   */\n      tag_48\n      jump\t// in\n    tag_54:\n        /* \"#utility.yul\":334:397   */\n      swap2\n      pop\n        /* \"#utility.yul\":290:407   */\n      pop\n        /* \"#utility.yul\":218:414   */\n      swap3\n      swap2\n      pop\n      pop\n      jump\t// out\n        /* \"#utility.yul\":420:538   */\n    tag_55:\n        /* \"#utility.yul\":507:531   */\n      tag_57\n        /* \"#utility.yul\":525:530   */\n      dup2\n        /* \"#utility.yul\":507:531   */\n      tag_58\n      jump\t// in\n    tag_57:\n        /* \"#utility.yul\":502:505   */\n      dup3\n        /* \"#utility.yul\":495:532   */\n      mstore\n        /* \"#utility.yul\":485:538   */\n      pop\n      pop\n      jump\t// out\n        /* \"#utility.yul\":544:910   */\n    tag_59:\n        /* \"#utility.yul\":686:689   */\n      0x00\n        /* \"#utility.yul\":707:774   */\n      tag_61\n        /* \"#utility.yul\":771:773   */\n      0x22\n        /* \"#utility.yul\":766:769   */\n      dup4\n        /* \"#utility.yul\":707:774   */\n      tag_62\n      jump\t// in\n    tag_61:\n        /* \"#utility.yul\":700:774   */\n      swap2\n      pop\n        /* \"#utility.yul\":783:876   */\n      tag_63\n        /* \"#utility.yul\":872:875   */\n      dup3\n        /* \"#utility.yul\":783:876   */\n      tag_64\n      jump\t// in\n    tag_63:\n        /* \"#utility.yul\":901:903   */\n      0x40\n        /* \"#utility.yul\":896:899   */\n      dup3\n        /* \"#utility.yul\":892:904   */\n      add\n        /* \"#utility.yul\":885:904   */\n      swap1\n      pop\n        /* \"#utility.yul\":690:910   */\n      swap2\n      swap1\n      pop\n      jump\t// out\n        /* \"#utility.yul\":916:1282   */\n    tag_65:\n        /* \"#utility.yul\":1058:1061   */\n      0x00\n        /* \"#utility.yul\":1079:1146   */\n      tag_67\n        /* \"#utility.yul\":1143:1145   */\n      0x10\n        /* \"#utility.yul\":1138:1141   */\n      dup4\n        /* \"#utility.yul\":1079:1146   */\n      tag_62\n      jump\t// in\n    tag_67:\n        /* \"#utility.yul\":1072:1146   */\n      swap2\n      pop\n        /* \"#utility.yul\":1155:1248   */\n      tag_68\n        /* \"#utility.yul\":1244:1247   */\n      dup3\n        /* \"#utility.yul\":1155:1248   */\n      tag_69\n      jump\t// in\n    tag_68:\n        /* \"#utility.yul\":1273:1275   */\n      0x20\n        /* \"#utility.yul\":1268:1271   */\n      dup3\n        /* \"#utility.yul\":1264:1276   */\n      add\n        /* \"#utility.yul\":1257:1276   */\n      swap1\n      pop\n        /* \"#utility.yul\":1062:1282   */\n      swap2\n      swap1\n      pop\n      jump\t// out\n        /* \"#utility.yul\":1288:1654   */\n    tag_70:\n        /* \"#utility.yul\":1430:1433   */\n      0x00\n        /* \"#utility.yul\":1451:1518   */\n      tag_72\n        /* \"#utility.yul\":1515:1517   */\n      0x1d\n        /* \"#utility.yul\":1510:1513   */\n      dup4\n        /* \"#utility.yul\":1451:1518   */\n      tag_62\n      jump\t// in\n    tag_72:\n        /* \"#utility.yul\":1444:1518   */\n      swap2\n      pop\n        /* \"#utility.yul\":1527:1620   */\n      tag_73\n        /* \"#utility.yul\":1616:1619   */\n      dup3\n        /* \"#utility.yul\":1527:1620   */\n      tag_74\n      jump\t// in\n    tag_73:\n        /* \"#utility.yul\":1645:1647   */\n      0x20\n        /* \"#utility.yul\":1640:1643   */\n      dup3\n        /* \"#utility.yul\":1636:1648   */\n      add\n        /* \"#utility.yul\":1629:1648   */\n      swap1\n      pop\n        /* \"#utility.yul\":1434:1654   */\n      swap2\n      swap1\n      pop\n      jump\t// out\n        /* \"#utility.yul\":1660:2026   */\n    tag_75:\n        /* \"#utility.yul\":1802:1805   */\n      0x00\n        /* \"#utility.yul\":1823:1890   */\n      tag_77\n        /* \"#utility.yul\":1887:1889   */\n      0x15\n        /* \"#utility.yul\":1882:1885   */\n      dup4\n        /* \"#utility.yul\":1823:1890   */\n      tag_62\n      jump\t// in\n    tag_77:\n        /* \"#utility.yul\":1816:1890   */\n      swap2\n      pop\n        /* \"#utility.yul\":1899:1992   */\n      tag_78\n        /* \"#utility.yul\":1988:1991   */\n      dup3\n        /* \"#utility.yul\":1899:1992   */\n      tag_79\n      jump\t// in\n    tag_78:\n        /* \"#utility.yul\":2017:2019   */\n      0x20\n        /* \"#utility.yul\":2012:2015   */\n      dup3\n        /* \"#utility.yul\":2008:2020   */\n      add\n        /* \"#utility.yul\":2001:2020   */\n      swap1\n      pop\n        /* \"#utility.yul\":1806:2026   */\n      swap2\n      swap1\n      pop\n      jump\t// out\n        /* \"#utility.yul\":2032:2150   */\n    tag_80:\n        /* \"#utility.yul\":2119:2143   */\n      tag_82\n        /* \"#utility.yul\":2137:2142   */\n      dup2\n        /* \"#utility.yul\":2119:2143   */\n      tag_83\n      jump\t// in\n    tag_82:\n        /* \"#utility.yul\":2114:2117   */\n      dup3\n        /* \"#utility.yul\":2107:2144   */\n      mstore\n        /* \"#utility.yul\":2097:2150   */\n      pop\n      pop\n      jump\t// out\n        /* \"#utility.yul\":2156:2378   */\n    tag_16:\n        /* \"#utility.yul\":2249:2253   */\n      0x00\n        /* \"#utility.yul\":2287:2289   */\n      0x20\n        /* \"#utility.yul\":2276:2285   */\n      dup3\n        /* \"#utility.yul\":2272:2290   */\n      add\n        /* \"#utility.yul\":2264:2290   */\n      swap1\n      pop\n        /* \"#utility.yul\":2300:2371   */\n      tag_85\n        /* \"#utility.yul\":2368:2369   */\n      0x00\n        /* \"#utility.yul\":2357:2366   */\n      dup4\n        /* \"#utility.yul\":2353:2370   */\n      add\n        /* \"#utility.yul\":2344:2350   */\n      dup5\n        /* \"#utility.yul\":2300:2371   */\n      tag_55\n      jump\t// in\n    tag_85:\n        /* \"#utility.yul\":2254:2378   */\n      swap3\n      swap2\n      pop\n      pop\n      jump\t// out\n        /* \"#utility.yul\":2384:2803   */\n    tag_43:\n        /* \"#utility.yul\":2550:2554   */\n      0x00\n        /* \"#utility.yul\":2588:2590   */\n      0x20\n        /* \"#utility.yul\":2577:2586   */\n      dup3\n        /* \"#utility.yul\":2573:2591   */\n      add\n        /* \"#utility.yul\":2565:2591   */\n      swap1\n      pop\n        /* \"#utility.yul\":2637:2646   */\n      dup2\n        /* \"#utility.yul\":2631:2635   */\n      dup2\n        /* \"#utility.yul\":2627:2647   */\n      sub\n        /* \"#utility.yul\":2623:2624   */\n      0x00\n        /* \"#utility.yul\":2612:2621   */\n      dup4\n        /* \"#utility.yul\":2608:2625   */\n      add\n        /* \"#utility.yul\":2601:2648   */\n      mstore\n        /* \"#utility.yul\":2665:2796   */\n      tag_87\n        /* \"#utility.yul\":2791:2795   */\n      dup2\n        /* \"#utility.yul\":2665:2796   */\n      tag_59\n      jump\t// in\n    tag_87:\n        /* \"#utility.yul\":2657:2796   */\n      swap1\n      pop\n        /* \"#utility.yul\":2555:2803   */\n      swap2\n      swap1\n      pop\n      jump\t// out\n        /* \"#utility.yul\":2809:3228   */\n    tag_40:\n        /* \"#utility.yul\":2975:2979   */\n      0x00\n        /* \"#utility.yul\":3013:3015   */\n      0x20\n        /* \"#utility.yul\":3002:3011   */\n      dup3\n        /* \"#utility.yul\":2998:3016   */\n      add\n        /* \"#utility.yul\":2990:3016   */\n      swap1\n      pop\n        /* \"#utility.yul\":3062:3071   */\n      dup2\n        /* \"#utility.yul\":3056:3060   */\n      dup2\n        /* \"#utility.yul\":3052:3072   */\n      sub\n        /* \"#utility.yul\":3048:3049   */\n      0x00\n        /* \"#utility.yul\":3037:3046   */\n      dup4\n        /* \"#utility.yul\":3033:3050   */\n      add\n        /* \"#utility.yul\":3026:3073   */\n      mstore\n        /* \"#utility.yul\":3090:3221   */\n      tag_89\n        /* \"#utility.yul\":3216:3220   */\n      dup2\n        /* \"#utility.yul\":3090:3221   */\n      tag_65\n      jump\t// in\n    tag_89:\n        /* \"#utility.yul\":3082:3221   */\n      swap1\n      pop\n        /* \"#utility.yul\":2980:3228   */\n      swap2\n      swap1\n      pop\n      jump\t// out\n        /* \"#utility.yul\":3234:3653   */\n    tag_37:\n        /* \"#utility.yul\":3400:3404   */\n      0x00\n        /* \"#utility.yul\":3438:3440   */\n      0x20\n        /* \"#utility.yul\":3427:3436   */\n      dup3\n        /* \"#utility.yul\":3423:3441   */\n      add\n        /* \"#utility.yul\":3415:3441   */\n      swap1\n      pop\n        /* \"#utility.yul\":3487:3496   */\n      dup2\n        /* \"#utility.yul\":3481:3485   */\n      dup2\n        /* \"#utility.yul\":3477:3497   */\n      sub\n        /* \"#utility.yul\":3473:3474   */\n      0x00\n        /* \"#utility.yul\":3462:3471   */\n      dup4\n        /* \"#utility.yul\":3458:3475   */\n      add\n        /* \"#utility.yul\":3451:3498   */\n      mstore\n        /* \"#utility.yul\":3515:3646   */\n      tag_91\n        /* \"#utility.yul\":3641:3645   */\n      dup2\n        /* \"#utility.yul\":3515:3646   */\n      tag_70\n      jump\t// in\n    tag_91:\n        /* \"#utility.yul\":3507:3646   */\n      swap1\n      pop\n        /* \"#utility.yul\":3405:3653   */\n      swap2\n      swap1\n      pop\n      jump\t// out\n        /* \"#utility.yul\":3659:4078   */\n    tag_34:\n        /* \"#utility.yul\":3825:3829   */\n      0x00\n        /* \"#utility.yul\":3863:3865   */\n      0x20\n        /* \"#utility.yul\":3852:3861   */\n      dup3\n        /* \"#utility.yul\":3848:3866   */\n      add\n        /* \"#utility.yul\":3840:3866   */\n      swap1\n      pop\n        /* \"#utility.yul\":3912:3921   */\n      dup2\n        /* \"#utility.yul\":3906:3910   */\n      dup2\n        /* \"#utility.yul\":3902:3922   */\n      sub\n        /* \"#utility.yul\":3898:3899   */\n      0x00\n        /* \"#utility.yul\":3887:3896   */\n      dup4\n        /* \"#utility.yul\":3883:3900   */\n      add\n        /* \"#utility.yul\":3876:3923   */\n      mstore\n        /* \"#utility.yul\":3940:4071   */\n      tag_93\n        /* \"#utility.yul\":4066:4070   */\n      dup2\n        /* \"#utility.yul\":3940:4071   */\n      tag_75\n      jump\t// in\n    tag_93:\n        /* \"#utility.yul\":3932:4071   */\n      swap1\n      pop\n        /* \"#utility.yul\":3830:4078   */\n      swap2\n      swap1\n      pop\n      jump\t// out\n        /* \"#utility.yul\":4084:4306   */\n    tag_11:\n        /* \"#utility.yul\":4177:4181   */\n      0x00\n        /* \"#utility.yul\":4215:4217   */\n      0x20\n        /* \"#utility.yul\":4204:4213   */\n      dup3\n        /* \"#utility.yul\":4200:4218   */\n      add\n        /* \"#utility.yul\":4192:4218   */\n      swap1\n      pop\n        /* \"#utility.yul\":4228:4299   */\n      tag_95\n        /* \"#utility.yul\":4296:4297   */\n      0x00\n        /* \"#utility.yul\":4285:4294   */\n      dup4\n        /* \"#utility.yul\":4281:4298   */\n      add\n        /* \"#utility.yul\":4272:4278   */\n      dup5\n        /* \"#utility.yul\":4228:4299   */\n      tag_80\n      jump\t// in\n    tag_95:\n        /* \"#utility.yul\":4182:4306   */\n      swap3\n      swap2\n      pop\n      pop\n      jump\t// out\n        /* \"#utility.yul\":4312:4481   */\n    tag_62:\n        /* \"#utility.yul\":4396:4407   */\n      0x00\n        /* \"#utility.yul\":4430:4436   */\n      dup3\n        /* \"#utility.yul\":4425:4428   */\n      dup3\n        /* \"#utility.yul\":4418:4437   */\n      mstore\n        /* \"#utility.yul\":4470:4474   */\n      0x20\n        /* \"#utility.yul\":4465:4468   */\n      dup3\n        /* \"#utility.yul\":4461:4475   */\n      add\n        /* \"#utility.yul\":4446:4475   */\n      swap1\n      pop\n        /* \"#utility.yul\":4408:4481   */\n      swap3\n      swap2\n      pop\n      pop\n      jump\t// out\n        /* \"#utility.yul\":4487:4583   */\n    tag_58:\n        /* \"#utility.yul\":4524:4531   */\n      0x00\n        /* \"#utility.yul\":4553:4577   */\n      tag_98\n        /* \"#utility.yul\":4571:4576   */\n      dup3\n        /* \"#utility.yul\":4553:4577   */\n      tag_99\n      jump\t// in\n    tag_98:\n        /* \"#utility.yul\":4542:4577   */\n      swap1\n      pop\n        /* \"#utility.yul\":4532:4583   */\n      swap2\n      swap1\n      pop\n      jump\t// out\n        /* \"#utility.yul\":4589:4715   */\n    tag_99:\n        /* \"#utility.yul\":4626:4633   */\n      0x00\n        /* \"#utility.yul\":4666:4708   */\n      0xffffffffffffffffffffffffffffffffffffffff\n        /* \"#utility.yul\":4659:4664   */\n      dup3\n        /* \"#utility.yul\":4655:4709   */\n      and\n        /* \"#utility.yul\":4644:4709   */\n      swap1\n      pop\n        /* \"#utility.yul\":4634:4715   */\n      swap2\n      swap1\n      pop\n      jump\t// out\n        /* \"#utility.yul\":4721:4798   */\n    tag_83:\n        /* \"#utility.yul\":4758:4765   */\n      0x00\n        /* \"#utility.yul\":4787:4792   */\n      dup2\n        /* \"#utility.yul\":4776:4792   */\n      swap1\n      pop\n        /* \"#utility.yul\":4766:4798   */\n      swap2\n      swap1\n      pop\n      jump\t// out\n        /* \"#utility.yul\":4804:5025   */\n    tag_64:\n        /* \"#utility.yul\":4944:4978   */\n      0x4d6178696d756d206e756d626572206f6620706c617965727320726561636865\n        /* \"#utility.yul\":4940:4941   */\n      0x00\n        /* \"#utility.yul\":4932:4938   */\n      dup3\n        /* \"#utility.yul\":4928:4942   */\n      add\n        /* \"#utility.yul\":4921:4979   */\n      mstore\n        /* \"#utility.yul\":5013:5017   */\n      0x642e000000000000000000000000000000000000000000000000000000000000\n        /* \"#utility.yul\":5008:5010   */\n      0x20\n        /* \"#utility.yul\":5000:5006   */\n      dup3\n        /* \"#utility.yul\":4996:5011   */\n      add\n        /* \"#utility.yul\":4989:5018   */\n      mstore\n        /* \"#utility.yul\":4910:5025   */\n      pop\n      jump\t// out\n        /* \"#utility.yul\":5031:5197   */\n    tag_69:\n        /* \"#utility.yul\":5171:5189   */\n      0x496e76616c696420616464726573732e00000000000000000000000000000000\n        /* \"#utility.yul\":5167:5168   */\n      0x00\n        /* \"#utility.yul\":5159:5165   */\n      dup3\n        /* \"#utility.yul\":5155:5169   */\n      add\n        /* \"#utility.yul\":5148:5190   */\n      mstore\n        /* \"#utility.yul\":5137:5197   */\n      pop\n      jump\t// out\n        /* \"#utility.yul\":5203:5382   */\n    tag_74:\n        /* \"#utility.yul\":5343:5374   */\n      0x4d616e616765722063616e6e6f7420656e746572206c6f74746572792e000000\n        /* \"#utility.yul\":5339:5340   */\n      0x00\n        /* \"#utility.yul\":5331:5337   */\n      dup3\n        /* \"#utility.yul\":5327:5341   */\n      add\n        /* \"#utility.yul\":5320:5375   */\n      mstore\n        /* \"#utility.yul\":5309:5382   */\n      pop\n      jump\t// out\n        /* \"#utility.yul\":5388:5559   */\n    tag_79:\n        /* \"#utility.yul\":5528:5551   */\n      0x496e76616c6964207469636b65742070726963652e0000000000000000000000\n        /* \"#utility.yul\":5524:5525   */\n      0x00\n        /* \"#utility.yul\":5516:5522   */\n      dup3\n        /* \"#utility.yul\":5512:5526   */\n      add\n        /* \"#utility.yul\":5505:5552   */\n      mstore\n        /* \"#utility.yul\":5494:5559   */\n      pop\n      jump\t// out\n        /* \"#utility.yul\":5565:5687   */\n    tag_51:\n        /* \"#utility.yul\":5638:5662   */\n      tag_107\n        /* \"#utility.yul\":5656:5661   */\n      dup2\n        /* \"#utility.yul\":5638:5662   */\n      tag_83\n      jump\t// in\n    tag_107:\n        /* \"#utility.yul\":5631:5636   */\n      dup2\n        /* \"#utility.yul\":5628:5663   */\n      eq\n        /* \"#utility.yul\":5618:5620   */\n      tag_108\n      jumpi\n        /* \"#utility.yul\":5677:5678   */\n      0x00\n        /* \"#utility.yul\":5674:5675   */\n      dup1\n        /* \"#utility.yul\":5667:5679   */\n      revert\n        /* \"#utility.yul\":5618:5620   */\n    tag_108:\n        /* \"#utility.yul\":5608:5687   */\n      pop\n      jump\t// out\n\n    auxdata: 0xa2646970667358221220920162231fffac7f3d388d37dc76e38cebdb02bbe12f22e889164c485e8c3c7c64736f6c63430008040033\n}\n",
				"bytecode": {
					"linkReferences": {},
					"object": "608060405234801561001057600080fd5b5060405161076d38038061076d83398181016040528101906100329190610094565b336000806101000a81548173ffffffffffffffffffffffffffffffffffffffff021916908373ffffffffffffffffffffffffffffffffffffffff16021790555080600281905550506100de565b60008151905061008e816100c7565b92915050565b6000602082840312156100a657600080fd5b60006100b48482850161007f565b91505092915050565b6000819050919050565b6100d0816100bd565b81146100db57600080fd5b50565b610680806100ed6000396000f3fe60806040526004361061004a5760003560e01c80631209b1f61461004f578063481c6a751461007a578063c5cafc2a146100a5578063e97dcb62146100ce578063f71d96cb146100d8575b600080fd5b34801561005b57600080fd5b50610064610115565b6040516100719190610501565b60405180910390f35b34801561008657600080fd5b5061008f61011b565b60405161009c9190610466565b60405180910390f35b3480156100b157600080fd5b506100cc60048036038101906100c79190610393565b61013f565b005b6100d661014f565b005b3480156100e457600080fd5b506100ff60048036038101906100fa9190610393565b61033f565b60405161010c9190610466565b60405180910390f35b60025481565b60008054906101000a900473ffffffffffffffffffffffffffffffffffffffff1681565b6000811161014c57600080fd5b50565b6002543414610193576040517f08c379a000000000000000000000000000000000000000000000000000000000815260040161018a906104e1565b60405180910390fd5b60008054906101000a900473ffffffffffffffffffffffffffffffffffffffff1673ffffffffffffffffffffffffffffffffffffffff163373ffffffffffffffffffffffffffffffffffffffff161415610222576040517f08c379a0000000000000000000000000000000000000000000000000000000008152600401610219906104c1565b60405180910390fd5b600073ffffffffffffffffffffffffffffffffffffffff163373ffffffffffffffffffffffffffffffffffffffff161415610292576040517f08c379a0000000000000000000000000000000000000000000000000000000008152600401610289906104a1565b60405180910390fd5b600a600180549050106102da576040517f08c379a00000000000000000000000000000000000000000000000000000000081526004016102d190610481565b60405180910390fd5b6001339080600181540180825580915050600190039060005260206000200160009091909190916101000a81548173ffffffffffffffffffffffffffffffffffffffff021916908373ffffffffffffffffffffffffffffffffffffffff160217905550565b6001818154811061034f57600080fd5b906000526020600020016000915054906101000a900473ffffffffffffffffffffffffffffffffffffffff1681565b60008135905061038d81610633565b92915050565b6000602082840312156103a557600080fd5b60006103b38482850161037e565b91505092915050565b6103c58161052d565b82525050565b60006103d860228361051c565b91506103e382610569565b604082019050919050565b60006103fb60108361051c565b9150610406826105b8565b602082019050919050565b600061041e601d8361051c565b9150610429826105e1565b602082019050919050565b600061044160158361051c565b915061044c8261060a565b602082019050919050565b6104608161055f565b82525050565b600060208201905061047b60008301846103bc565b92915050565b6000602082019050818103600083015261049a816103cb565b9050919050565b600060208201905081810360008301526104ba816103ee565b9050919050565b600060208201905081810360008301526104da81610411565b9050919050565b600060208201905081810360008301526104fa81610434565b9050919050565b60006020820190506105166000830184610457565b92915050565b600082825260208201905092915050565b60006105388261053f565b9050919050565b600073ffffffffffffffffffffffffffffffffffffffff82169050919050565b6000819050919050565b7f4d6178696d756d206e756d626572206f6620706c61796572732072656163686560008201527f642e000000000000000000000000000000000000000000000000000000000000602082015250565b7f496e76616c696420616464726573732e00000000000000000000000000000000600082015250565b7f4d616e616765722063616e6e6f7420656e746572206c6f74746572792e000000600082015250565b7f496e76616c6964207469636b65742070726963652e0000000000000000000000600082015250565b61063c8161055f565b811461064757600080fd5b5056fea2646970667358221220920162231fffac7f3d388d37dc76e38cebdb02bbe12f22e889164c485e8c3c7c64736f6c63430008040033",
					"opcodes": "PUSH1 0x80 PUSH1 0x40 MSTORE CALLVALUE DUP1 ISZERO PUSH2 0x10 JUMPI PUSH1 0x0 DUP1 REVERT JUMPDEST POP PUSH1 0x40 MLOAD PUSH2 0x76D CODESIZE SUB DUP1 PUSH2 0x76D DUP4 CODECOPY DUP2 DUP2 ADD PUSH1 0x40 MSTORE DUP2 ADD SWAP1 PUSH2 0x32 SWAP2 SWAP1 PUSH2 0x94 JUMP JUMPDEST CALLER PUSH1 0x0 DUP1 PUSH2 0x100 EXP DUP2 SLOAD DUP2 PUSH20 0xFFFFFFFFFFFFFFFFFFFFFFFFFFFFFFFFFFFFFFFF MUL NOT AND SWAP1 DUP4 PUSH20 0xFFFFFFFFFFFFFFFFFFFFFFFFFFFFFFFFFFFFFFFF AND MUL OR SWAP1 SSTORE POP DUP1 PUSH1 0x2 DUP2 SWAP1 SSTORE POP POP PUSH2 0xDE JUMP JUMPDEST PUSH1 0x0 DUP2 MLOAD SWAP1 POP PUSH2 0x8E DUP2 PUSH2 0xC7 JUMP JUMPDEST SWAP3 SWAP2 POP POP JUMP JUMPDEST PUSH1 0x0 PUSH1 0x20 DUP3 DUP5 SUB SLT ISZERO PUSH2 0xA6 JUMPI PUSH1 0x0 DUP1 REVERT JUMPDEST PUSH1 0x0 PUSH2 0xB4 DUP5 DUP3 DUP6 ADD PUSH2 0x7F JUMP JUMPDEST SWAP2 POP POP SWAP3 SWAP2 POP POP JUMP JUMPDEST PUSH1 0x0 DUP2 SWAP1 POP SWAP2 SWAP1 POP JUMP JUMPDEST PUSH2 0xD0 DUP2 PUSH2 0xBD JUMP JUMPDEST DUP2 EQ PUSH2 0xDB JUMPI PUSH1 0x0 DUP1 REVERT JUMPDEST POP JUMP JUMPDEST PUSH2 0x680 DUP1 PUSH2 0xED PUSH1 0x0 CODECOPY PUSH1 0x0 RETURN INVALID PUSH1 0x80 PUSH1 0x40 MSTORE PUSH1 0x4 CALLDATASIZE LT PUSH2 0x4A JUMPI PUSH1 0x0 CALLDATALOAD PUSH1 0xE0 SHR DUP1 PUSH4 0x1209B1F6 EQ PUSH2 0x4F JUMPI DUP1 PUSH4 0x481C6A75 EQ PUSH2 0x7A JUMPI DUP1 PUSH4 0xC5CAFC2A EQ PUSH2 0xA5 JUMPI DUP1 PUSH4 0xE97DCB62 EQ PUSH2 0xCE JUMPI DUP1 PUSH4 0xF71D96CB EQ PUSH2 0xD8 JUMPI JUMPDEST PUSH1 0x0 DUP1 REVERT JUMPDEST CALLVALUE DUP1 ISZERO PUSH2 0x5B JUMPI PUSH1 0x0 DUP1 REVERT JUMPDEST POP PUSH2 0x64 PUSH2 0x115 JUMP JUMPDEST PUSH1 0x40 MLOAD PUSH2 0x71 SWAP2 SWAP1 PUSH2 0x501 JUMP JUMPDEST PUSH1 0x40 MLOAD DUP1 SWAP2 SUB SWAP1 RETURN JUMPDEST CALLVALUE DUP1 ISZERO PUSH2 0x86 JUMPI PUSH1 0x0 DUP1 REVERT JUMPDEST POP PUSH2 0x8F PUSH2 0x11B JUMP JUMPDEST PUSH1 0x40 MLOAD PUSH2 0x9C SWAP2 SWAP1 PUSH2 0x466 JUMP JUMPDEST PUSH1 0x40 MLOAD DUP1 SWAP2 SUB SWAP1 RETURN JUMPDEST CALLVALUE DUP1 ISZERO PUSH2 0xB1 JUMPI PUSH1 0x0 DUP1 REVERT JUMPDEST POP PUSH2 0xCC PUSH1 0x4 DUP1 CALLDATASIZE SUB DUP2 ADD SWAP1 PUSH2 0xC7 SWAP2 SWAP1 PUSH2 0x393 JUMP JUMPDEST PUSH2 0x13F JUMP JUMPDEST STOP JUMPDEST PUSH2 0xD6 PUSH2 0x14F JUMP JUMPDEST STOP JUMPDEST CALLVALUE DUP1 ISZERO PUSH2 0xE4 JUMPI PUSH1 0x0 DUP1 REVERT JUMPDEST POP PUSH2 0xFF PUSH1 0x4 DUP1 CALLDATASIZE SUB DUP2 ADD SWAP1 PUSH2 0xFA SWAP2 SWAP1 PUSH2 0x393 JUMP JUMPDEST PUSH2 0x33F JUMP JUMPDEST PUSH1 0x40 MLOAD PUSH2 0x10C SWAP2 SWAP1 PUSH2 0x466 JUMP JUMPDEST PUSH1 0x40 MLOAD DUP1 SWAP2 SUB SWAP1 RETURN JUMPDEST PUSH1 0x2 SLOAD DUP2 JUMP JUMPDEST PUSH1 0x0 DUP1 SLOAD SWAP1 PUSH2 0x100 EXP SWAP1 DIV PUSH20 0xFFFFFFFFFFFFFFFFFFFFFFFFFFFFFFFFFFFFFFFF AND DUP2 JUMP JUMPDEST PUSH1 0x0 DUP2 GT PUSH2 0x14C JUMPI PUSH1 0x0 DUP1 REVERT JUMPDEST POP JUMP JUMPDEST PUSH1 0x2 SLOAD CALLVALUE EQ PUSH2 0x193 JUMPI PUSH1 0x40 MLOAD PUSH32 0x8C379A000000000000000000000000000000000000000000000000000000000 DUP2 MSTORE PUSH1 0x4 ADD PUSH2 0x18A SWAP1 PUSH2 0x4E1 JUMP JUMPDEST PUSH1 0x40 MLOAD DUP1 SWAP2 SUB SWAP1 REVERT JUMPDEST PUSH1 0x0 DUP1 SLOAD SWAP1 PUSH2 0x100 EXP SWAP1 DIV PUSH20 0xFFFFFFFFFFFFFFFFFFFFFFFFFFFFFFFFFFFFFFFF AND PUSH20 0xFFFFFFFFFFFFFFFFFFFFFFFFFFFFFFFFFFFFFFFF AND CALLER PUSH20 0xFFFFFFFFFFFFFFFFFFFFFFFFFFFFFFFFFFFFFFFF AND EQ ISZERO PUSH2 0x222 JUMPI PUSH1 0x40 MLOAD PUSH32 0x8C379A000000000000000000000000000000000000000000000000000000000 DUP2 MSTORE PUSH1 0x4 ADD PUSH2 0x219 SWAP1 PUSH2 0x4C1 JUMP JUMPDEST PUSH1 0x40 MLOAD DUP1 SWAP2 SUB SWAP1 REVERT JUMPDEST PUSH1 0x0 PUSH20 0xFFFFFFFFFFFFFFFFFFFFFFFFFFFFFFFFFFFFFFFF AND CALLER PUSH20 0xFFFFFFFFFFFFFFFFFFFFFFFFFFFFFFFFFFFFFFFF AND EQ ISZERO PUSH2 0x292 JUMPI PUSH1 0x40 MLOAD PUSH32 0x8C379A000000000000000000000000000000000000000000000000000000000 DUP2 MSTORE PUSH1 0x4 ADD PUSH2 0x289 SWAP1 PUSH2 0x4A1 JUMP JUMPDEST PUSH1 0x40 MLOAD DUP1 SWAP2 SUB SWAP1 REVERT JUMPDEST PUSH1 0xA PUSH1 0x1 DUP1 SLOAD SWAP1 POP LT PUSH2 0x2DA JUMPI PUSH1 0x40 MLOAD PUSH32 0x8C379A000000000000000000000000000000000000000000000000000000000 DUP2 MSTORE PUSH1 0x4 ADD PUSH2 0x2D1 SWAP1 PUSH2 0x481 JUMP JUMPDEST PUSH1 0x40 MLOAD DUP1 SWAP2 SUB SWAP1 REVERT JUMPDEST PUSH1 0x1 CALLER SWAP1 DUP1 PUSH1 0x1 DUP2 SLOAD ADD DUP1 DUP3 SSTORE DUP1 SWAP2 POP POP PUSH1 0x1 SWAP1 SUB SWAP1 PUSH1 0x0 MSTORE PUSH1 0x20 PUSH1 0x0 KECCAK256 ADD PUSH1 0x0 SWAP1 SWAP2 SWAP1 SWAP2 SWAP1 SWAP2 PUSH2 0x100 EXP DUP2 SLOAD DUP2 PUSH20 0xFFFFFFFFFFFFFFFFFFFFFFFFFFFFFFFFFFFFFFFF MUL NOT AND SWAP1 DUP4 PUSH20 0xFFFFFFFFFFFFFFFFFFFFFFFFFFFFFFFFFFFFFFFF AND MUL OR SWAP1 SSTORE POP JUMP JUMPDEST PUSH1 0x1 DUP2 DUP2 SLOAD DUP2 LT PUSH2 0x34F JUMPI PUSH1 0x0 DUP1 REVERT JUMPDEST SWAP1 PUSH1 0x0 MSTORE PUSH1 0x20 PUSH1 0x0 KECCAK256 ADD PUSH1 0x0 SWAP2 POP SLOAD SWAP1 PUSH2 0x100 EXP SWAP1 DIV PUSH20 0xFFFFFFFFFFFFFFFFFFFFFFFFFFFFFFFFFFFFFFFF AND DUP2 JUMP JUMPDEST PUSH1 0x0 DUP2 CALLDATALOAD SWAP1 POP PUSH2 0x38D DUP2 PUSH2 0x633 JUMP JUMPDEST SWAP3 SWAP2 POP POP JUMP JUMPDEST PUSH1 0x0 PUSH1 0x20 DUP3 DUP5 SUB SLT ISZERO PUSH2 0x3A5 JUMPI PUSH1 0x0 DUP1 REVERT JUMPDEST PUSH1 0x0 PUSH2 0x3B3 DUP5 DUP3 DUP6 ADD PUSH2 0x37E JUMP JUMPDEST SWAP2 POP POP SWAP3 SWAP2 POP POP JUMP JUMPDEST PUSH2 0x3C5 DUP2 PUSH2 0x52D JUMP JUMPDEST DUP3 MSTORE POP POP JUMP JUMPDEST PUSH1 0x0 PUSH2 0x3D8 PUSH1 0x22 DUP4 PUSH2 0x51C JUMP JUMPDEST SWAP2 POP PUSH2 0x3E3 DUP3 PUSH2 0x569 JUMP JUMPDEST PUSH1 0x40 DUP3 ADD SWAP1 POP SWAP2 SWAP1 POP JUMP JUMPDEST PUSH1 0x0 PUSH2 0x3FB PUSH1 0x10 DUP4 PUSH2 0x51C JUMP JUMPDEST SWAP2 POP PUSH2 0x406 DUP3 PUSH2 0x5B8 JUMP JUMPDEST PUSH1 0x20 DUP3 ADD SWAP1 POP SWAP2 SWAP1 POP JUMP JUMPDEST PUSH1 0x0 PUSH2 0x41E PUSH1 0x1D DUP4 PUSH2 0x51C JUMP JUMPDEST SWAP2 POP PUSH2 0x429 DUP3 PUSH2 0x5E1 JUMP JUMPDEST PUSH1 0x20 DUP3 ADD SWAP1 POP SWAP2 SWAP1 POP JUMP JUMPDEST PUSH1 0x0 PUSH2 0x441 PUSH1 0x15 DUP4 PUSH2 0x51C JUMP JUMPDEST SWAP2 POP PUSH2 0x44C DUP3 PUSH2 0x60A JUMP JUMPDEST PUSH1 0x20 DUP3 ADD SWAP1 POP SWAP2 SWAP1 POP JUMP JUMPDEST PUSH2 0x460 DUP2 PUSH2 0x55F JUMP JUMPDEST DUP3 MSTORE POP POP JUMP JUMPDEST PUSH1 0x0 PUSH1 0x20 DUP3 ADD SWAP1 POP PUSH2 0x47B PUSH1 0x0 DUP4 ADD DUP5 PUSH2 0x3BC JUMP JUMPDEST SWAP3 SWAP2 POP POP JUMP JUMPDEST PUSH1 0x0 PUSH1 0x20 DUP3 ADD SWAP1 POP DUP2 DUP2 SUB PUSH1 0x0 DUP4 ADD MSTORE PUSH2 0x49A DUP2 PUSH2 0x3CB JUMP JUMPDEST SWAP1 POP SWAP2 SWAP1 POP JUMP JUMPDEST PUSH1 0x0 PUSH1 0x20 DUP3 ADD SWAP1 POP DUP2 DUP2 SUB PUSH1 0x0 DUP4 ADD MSTORE PUSH2 0x4BA DUP2 PUSH2 0x3EE JUMP JUMPDEST SWAP1 POP SWAP2 SWAP1 POP JUMP JUMPDEST PUSH1 0x0 PUSH1 0x20 DUP3 ADD SWAP1 POP DUP2 DUP2 SUB PUSH1 0x0 DUP4 ADD MSTORE PUSH2 0x4DA DUP2 PUSH2 0x411 JUMP JUMPDEST SWAP1 POP SWAP2 SWAP1 POP JUMP JUMPDEST PUSH1 0x0 PUSH1 0x20 DUP3 ADD SWAP1 POP DUP2 DUP2 SUB PUSH1 0x0 DUP4 ADD MSTORE PUSH2 0x4FA DUP2 PUSH2 0x434 JUMP JUMPDEST SWAP1 POP SWAP2 SWAP1 POP JUMP JUMPDEST PUSH1 0x0 PUSH1 0x20 DUP3 ADD SWAP1 POP PUSH2 0x516 PUSH1 0x0 DUP4 ADD DUP5 PUSH2 0x457 JUMP JUMPDEST SWAP3 SWAP2 POP POP JUMP JUMPDEST PUSH1 0x0 DUP3 DUP3 MSTORE PUSH1 0x20 DUP3 ADD SWAP1 POP SWAP3 SWAP2 POP POP JUMP JUMPDEST PUSH1 0x0 PUSH2 0x538 DUP3 PUSH2 0x53F JUMP JUMPDEST SWAP1 POP SWAP2 SWAP1 POP JUMP JUMPDEST PUSH1 0x0 PUSH20 0xFFFFFFFFFFFFFFFFFFFFFFFFFFFFFFFFFFFFFFFF DUP3 AND SWAP1 POP SWAP2 SWAP1 POP JUMP JUMPDEST PUSH1 0x0 DUP2 SWAP1 POP SWAP2 SWAP1 POP JUMP JUMPDEST PUSH32 0x4D6178696D756D206E756D626572206F6620706C617965727320726561636865 PUSH1 0x0 DUP3 ADD MSTORE PUSH32 0x642E000000000000000000000000000000000000000000000000000000000000 PUSH1 0x20 DUP3 ADD MSTORE POP JUMP JUMPDEST PUSH32 0x496E76616C696420616464726573732E00000000000000000000000000000000 PUSH1 0x0 DUP3 ADD MSTORE POP JUMP JUMPDEST PUSH32 0x4D616E616765722063616E6E6F7420656E746572206C6F74746572792E000000 PUSH1 0x0 DUP3 ADD MSTORE POP JUMP JUMPDEST PUSH32 0x496E76616C6964207469636B65742070726963652E0000000000000000000000 PUSH1 0x0 DUP3 ADD MSTORE POP JUMP JUMPDEST PUSH2 0x63C DUP2 PUSH2 0x55F JUMP JUMPDEST DUP2 EQ PUSH2 0x647 JUMPI PUSH1 0x0 DUP1 REVERT JUMPDEST POP JUMP INVALID LOG2 PUSH5 0x6970667358 0x22 SLT KECCAK256 SWAP3 ADD PUSH3 0x231FFF 0xAC PUSH32 0x3D388D37DC76E38CEBDB02BBE12F22E889164C485E8C3C7C64736F6C63430008 DIV STOP CALLER "
				},
				"gasEstimates": {
					"creation": {
						"codeDepositCost": "332800",
						"executionCost": "infinite",
						"totalCost": "infinite"
					},
					"external": {
						"checkNonZero(uint256)": "451",
						"enter()": "44502",
						"manager()": "1211",
						"players(uint256)": "2422",
						"ticketPrice()": "1107"
					}
				},
				"methodIdentifiers": {
					"checkNonZero(uint256)": "c5cafc2a",
					"enter()": "e97dcb62",
					"manager()": "481c6a75",
					"players(uint256)": "f71d96cb",
					"ticketPrice()": "1209b1f6"
				}
			},
			"storageLayout": {
				"storage": [
					{
						"astId": 3,
						"contract": "Unsigned Integer Types Optimizer/optimized_test22.sol:lottery",
						"label": "manager",
						"offset": 0,
						"slot": "0",
						"type": "t_address"
					},
					{
						"astId": 6,
						"contract": "Unsigned Integer Types Optimizer/optimized_test22.sol:lottery",
						"label": "players",
						"offset": 0,
						"slot": "1",
						"type": "t_array(t_address)dyn_storage"
					},
					{
						"astId": 8,
						"contract": "Unsigned Integer Types Optimizer/optimized_test22.sol:lottery",
						"label": "ticketPrice",
						"offset": 0,
						"slot": "2",
						"type": "t_uint256"
					}
				],
				"types": {
					"t_address": {
						"encoding": "inplace",
						"label": "address",
						"numberOfBytes": "20"
					},
					"t_array(t_address)dyn_storage": {
						"base": "t_address",
						"encoding": "dynamic_array",
						"label": "address[]",
						"numberOfBytes": "32"
					},
					"t_uint256": {
						"encoding": "inplace",
						"label": "uint256",
						"numberOfBytes": "32"
					}
				}
			},
			"userdoc": {
				"kind": "user",
				"methods": {},
				"version": 1
			}
		}
	}
}