{
	"Unsigned Integer Types Optimizer/test23.sol": {
		"Auction": {
			"abi": [
				{
					"inputs": [],
					"stateMutability": "nonpayable",
					"type": "constructor"
				},
				{
					"inputs": [],
					"name": "bid",
					"outputs": [],
					"stateMutability": "payable",
					"type": "function"
				},
				{
					"inputs": [
						{
							"internalType": "uint256",
							"name": "x",
							"type": "uint256"
						}
					],
					"name": "checkNonZero",
					"outputs": [],
					"stateMutability": "pure",
					"type": "function"
				},
				{
					"inputs": [],
					"name": "highestBid",
					"outputs": [
						{
							"internalType": "uint256",
							"name": "",
							"type": "uint256"
						}
					],
					"stateMutability": "view",
					"type": "function"
				},
				{
					"inputs": [],
					"name": "highestBidder",
					"outputs": [
						{
							"internalType": "address",
							"name": "",
							"type": "address"
						}
					],
					"stateMutability": "view",
					"type": "function"
				},
				{
					"inputs": [],
					"name": "owner",
					"outputs": [
						{
							"internalType": "address",
							"name": "",
							"type": "address"
						}
					],
					"stateMutability": "view",
					"type": "function"
				}
			],
			"devdoc": {
				"kind": "dev",
				"methods": {},
				"version": 1
			},
			"evm": {
				"assembly": "    /* \"Unsigned Integer Types Optimizer/test23.sol\":56:634  contract Auction {... */\n  mstore(0x40, 0x80)\n    /* \"Unsigned Integer Types Optimizer/test23.sol\":171:280  constructor() {... */\n  callvalue\n  dup1\n  iszero\n  tag_1\n  jumpi\n  0x00\n  dup1\n  revert\ntag_1:\n  pop\n    /* \"Unsigned Integer Types Optimizer/test23.sol\":195:200  owner */\n  0x00\n    /* \"Unsigned Integer Types Optimizer/test23.sol\":195:213  owner = msg.sender */\n  dup1\n  sload\n  not(sub(shl(0xa0, 0x01), 0x01))\n  swap1\n  dup2\n  and\n    /* \"Unsigned Integer Types Optimizer/test23.sol\":203:213  msg.sender */\n  caller\n    /* \"Unsigned Integer Types Optimizer/test23.sol\":195:213  owner = msg.sender */\n  or\n  dup3\n  sstore\n  0x01\n    /* \"Unsigned Integer Types Optimizer/test23.sol\":223:237  highestBid = 0 */\n  swap2\n  swap1\n  swap2\n  sstore\n    /* \"Unsigned Integer Types Optimizer/test23.sol\":247:260  highestBidder */\n  0x02\n    /* \"Unsigned Integer Types Optimizer/test23.sol\":247:273  highestBidder = address(0) */\n  dup1\n  sload\n  swap1\n  swap2\n  and\n  swap1\n  sstore\n    /* \"Unsigned Integer Types Optimizer/test23.sol\":56:634  contract Auction {... */\n  dataSize(sub_0)\n  dup1\n  dataOffset(sub_0)\n  0x00\n  codecopy\n  0x00\n  return\nstop\n\nsub_0: assembly {\n        /* \"Unsigned Integer Types Optimizer/test23.sol\":56:634  contract Auction {... */\n      mstore(0x40, 0x80)\n      jumpi(tag_1, lt(calldatasize, 0x04))\n      shr(0xe0, calldataload(0x00))\n      dup1\n      0x1998aeef\n      eq\n      tag_2\n      jumpi\n      dup1\n      0x8da5cb5b\n      eq\n      tag_3\n      jumpi\n      dup1\n      0x91f90157\n      eq\n      tag_4\n      jumpi\n      dup1\n      0xc5cafc2a\n      eq\n      tag_5\n      jumpi\n      dup1\n      0xd57bde79\n      eq\n      tag_6\n      jumpi\n    tag_1:\n      0x00\n      dup1\n      revert\n        /* \"Unsigned Integer Types Optimizer/test23.sol\":286:549  function bid() public payable {... */\n    tag_2:\n      tag_7\n      tag_8\n      jump\t// in\n    tag_7:\n      stop\n        /* \"Unsigned Integer Types Optimizer/test23.sol\":79:99  address public owner */\n    tag_3:\n      callvalue\n      dup1\n      iszero\n      tag_9\n      jumpi\n      0x00\n      dup1\n      revert\n    tag_9:\n      pop\n      sload(0x00)\n      tag_10\n      swap1\n      sub(shl(0xa0, 0x01), 0x01)\n      and\n      dup2\n      jump\n    tag_10:\n      mload(0x40)\n      sub(shl(0xa0, 0x01), 0x01)\n        /* \"#utility.yul\":373:405   */\n      swap1\n      swap2\n      and\n        /* \"#utility.yul\":355:406   */\n      dup2\n      mstore\n        /* \"#utility.yul\":343:345   */\n      0x20\n        /* \"#utility.yul\":328:346   */\n      add\n        /* \"Unsigned Integer Types Optimizer/test23.sol\":79:99  address public owner */\n    tag_12:\n      mload(0x40)\n      dup1\n      swap2\n      sub\n      swap1\n      return\n        /* \"Unsigned Integer Types Optimizer/test23.sol\":136:164  address public highestBidder */\n    tag_4:\n      callvalue\n      dup1\n      iszero\n      tag_14\n      jumpi\n      0x00\n      dup1\n      revert\n    tag_14:\n      pop\n      sload(0x02)\n      tag_10\n      swap1\n      sub(shl(0xa0, 0x01), 0x01)\n      and\n      dup2\n      jump\n        /* \"Unsigned Integer Types Optimizer/test23.sol\":555:632  function checkNonZero(uint256 x) public pure {... */\n    tag_5:\n      callvalue\n      dup1\n      iszero\n      tag_18\n      jumpi\n      0x00\n      dup1\n      revert\n    tag_18:\n      pop\n      tag_7\n      tag_20\n      calldatasize\n      0x04\n      tag_21\n      jump\t// in\n    tag_20:\n      tag_22\n      jump\t// in\n        /* \"Unsigned Integer Types Optimizer/test23.sol\":105:130  uint256 public highestBid */\n    tag_6:\n      callvalue\n      dup1\n      iszero\n      tag_23\n      jumpi\n      0x00\n      dup1\n      revert\n    tag_23:\n      pop\n      tag_24\n      sload(0x01)\n      dup2\n      jump\n    tag_24:\n      mload(0x40)\n        /* \"#utility.yul\":1332:1357   */\n      swap1\n      dup2\n      mstore\n        /* \"#utility.yul\":1320:1322   */\n      0x20\n        /* \"#utility.yul\":1305:1323   */\n      add\n        /* \"Unsigned Integer Types Optimizer/test23.sol\":105:130  uint256 public highestBid */\n      tag_12\n        /* \"#utility.yul\":1287:1363   */\n      jump\n        /* \"Unsigned Integer Types Optimizer/test23.sol\":286:549  function bid() public payable {... */\n    tag_8:\n        /* \"Unsigned Integer Types Optimizer/test23.sol\":346:356  highestBid */\n      sload(0x01)\n        /* \"Unsigned Integer Types Optimizer/test23.sol\":334:343  msg.value */\n      callvalue\n        /* \"Unsigned Integer Types Optimizer/test23.sol\":334:356  msg.value > highestBid */\n      gt\n        /* \"Unsigned Integer Types Optimizer/test23.sol\":326:407  require(msg.value > highestBid, \"Bid amount should be greater than highest bid.\") */\n      tag_29\n      jumpi\n      mload(0x40)\n      shl(0xe5, 0x461bcd)\n      dup2\n      mstore\n        /* \"#utility.yul\":973:975   */\n      0x20\n        /* \"Unsigned Integer Types Optimizer/test23.sol\":326:407  require(msg.value > highestBid, \"Bid amount should be greater than highest bid.\") */\n      0x04\n      dup3\n      add\n        /* \"#utility.yul\":955:976   */\n      mstore\n        /* \"#utility.yul\":1012:1014   */\n      0x2e\n        /* \"#utility.yul\":992:1010   */\n      0x24\n      dup3\n      add\n        /* \"#utility.yul\":985:1015   */\n      mstore\n        /* \"#utility.yul\":1051:1085   */\n      0x42696420616d6f756e742073686f756c64206265206772656174657220746861\n        /* \"#utility.yul\":1031:1049   */\n      0x44\n      dup3\n      add\n        /* \"#utility.yul\":1024:1086   */\n      mstore\n      shl(0x91, 0x37103434b3b432b9ba103134b217)\n        /* \"#utility.yul\":1102:1120   */\n      0x64\n      dup3\n      add\n        /* \"#utility.yul\":1095:1139   */\n      mstore\n        /* \"#utility.yul\":1156:1175   */\n      0x84\n      add\n        /* \"Unsigned Integer Types Optimizer/test23.sol\":326:407  require(msg.value > highestBid, \"Bid amount should be greater than highest bid.\") */\n    tag_30:\n      mload(0x40)\n      dup1\n      swap2\n      sub\n      swap1\n      revert\n    tag_29:\n        /* \"Unsigned Integer Types Optimizer/test23.sol\":439:444  owner */\n      and(sub(shl(0xa0, 0x01), 0x01), sload(0x00))\n        /* \"Unsigned Integer Types Optimizer/test23.sol\":425:435  msg.sender */\n      caller\n        /* \"Unsigned Integer Types Optimizer/test23.sol\":425:444  msg.sender != owner */\n      eq\n      iszero\n        /* \"Unsigned Integer Types Optimizer/test23.sol\":417:474  require(msg.sender != owner, \"Owner cannot place a bid.\") */\n      tag_32\n      jumpi\n      mload(0x40)\n      shl(0xe5, 0x461bcd)\n      dup2\n      mstore\n        /* \"#utility.yul\":619:621   */\n      0x20\n        /* \"Unsigned Integer Types Optimizer/test23.sol\":417:474  require(msg.sender != owner, \"Owner cannot place a bid.\") */\n      0x04\n      dup3\n      add\n        /* \"#utility.yul\":601:622   */\n      mstore\n        /* \"#utility.yul\":658:660   */\n      0x19\n        /* \"#utility.yul\":638:656   */\n      0x24\n      dup3\n      add\n        /* \"#utility.yul\":631:661   */\n      mstore\n        /* \"#utility.yul\":697:724   */\n      0x4f776e65722063616e6e6f7420706c6163652061206269642e00000000000000\n        /* \"#utility.yul\":677:695   */\n      0x44\n      dup3\n      add\n        /* \"#utility.yul\":670:725   */\n      mstore\n        /* \"#utility.yul\":742:760   */\n      0x64\n      add\n        /* \"Unsigned Integer Types Optimizer/test23.sol\":417:474  require(msg.sender != owner, \"Owner cannot place a bid.\") */\n      tag_30\n        /* \"#utility.yul\":591:766   */\n      jump\n        /* \"Unsigned Integer Types Optimizer/test23.sol\":417:474  require(msg.sender != owner, \"Owner cannot place a bid.\") */\n    tag_32:\n        /* \"Unsigned Integer Types Optimizer/test23.sol\":497:506  msg.value */\n      callvalue\n        /* \"Unsigned Integer Types Optimizer/test23.sol\":484:494  highestBid */\n      0x01\n        /* \"Unsigned Integer Types Optimizer/test23.sol\":484:506  highestBid = msg.value */\n      sstore\n        /* \"Unsigned Integer Types Optimizer/test23.sol\":516:529  highestBidder */\n      0x02\n        /* \"Unsigned Integer Types Optimizer/test23.sol\":516:542  highestBidder = msg.sender */\n      dup1\n      sload\n      not(sub(shl(0xa0, 0x01), 0x01))\n      and\n        /* \"Unsigned Integer Types Optimizer/test23.sol\":532:542  msg.sender */\n      caller\n        /* \"Unsigned Integer Types Optimizer/test23.sol\":516:542  highestBidder = msg.sender */\n      or\n      swap1\n      sstore\n        /* \"Unsigned Integer Types Optimizer/test23.sol\":286:549  function bid() public payable {... */\n      jump\t// out\n        /* \"Unsigned Integer Types Optimizer/test23.sol\":555:632  function checkNonZero(uint256 x) public pure {... */\n    tag_22:\n        /* \"Unsigned Integer Types Optimizer/test23.sol\":618:624  x != 0 */\n      dup1\n        /* \"Unsigned Integer Types Optimizer/test23.sol\":610:625  require(x != 0) */\n      tag_36\n      jumpi\n      0x00\n      dup1\n      revert\n    tag_36:\n        /* \"Unsigned Integer Types Optimizer/test23.sol\":555:632  function checkNonZero(uint256 x) public pure {... */\n      pop\n      jump\t// out\n        /* \"#utility.yul\":14:204   */\n    tag_21:\n        /* \"#utility.yul\":73:79   */\n      0x00\n        /* \"#utility.yul\":126:128   */\n      0x20\n        /* \"#utility.yul\":114:123   */\n      dup3\n        /* \"#utility.yul\":105:112   */\n      dup5\n        /* \"#utility.yul\":101:124   */\n      sub\n        /* \"#utility.yul\":97:129   */\n      slt\n        /* \"#utility.yul\":94:96   */\n      iszero\n      tag_39\n      jumpi\n        /* \"#utility.yul\":147:153   */\n      dup1\n        /* \"#utility.yul\":139:145   */\n      dup2\n        /* \"#utility.yul\":132:154   */\n      revert\n        /* \"#utility.yul\":94:96   */\n    tag_39:\n      pop\n        /* \"#utility.yul\":175:198   */\n      calldataload\n      swap2\n        /* \"#utility.yul\":84:204   */\n      swap1\n      pop\n      jump\t// out\n\n    auxdata: 0xa2646970667358221220a2821713b2cf6942c56193ead174656c0ecc36f15b0c58b3d2ca35998d978d6464736f6c63430008040033\n}\n",
				"bytecode": {
					"linkReferences": {},
					"object": "608060405234801561001057600080fd5b50600080546001600160a01b031990811633178255600191909155600280549091169055610235806100436000396000f3fe60806040526004361061004a5760003560e01c80631998aeef1461004f5780638da5cb5b1461005957806391f9015714610096578063c5cafc2a146100b6578063d57bde79146100d6575b600080fd5b6100576100fa565b005b34801561006557600080fd5b50600054610079906001600160a01b031681565b6040516001600160a01b0390911681526020015b60405180910390f35b3480156100a257600080fd5b50600254610079906001600160a01b031681565b3480156100c257600080fd5b506100576100d13660046101e7565b6101da565b3480156100e257600080fd5b506100ec60015481565b60405190815260200161008d565b60015434116101675760405162461bcd60e51b815260206004820152602e60248201527f42696420616d6f756e742073686f756c6420626520677265617465722074686160448201526d37103434b3b432b9ba103134b21760911b60648201526084015b60405180910390fd5b6000546001600160a01b03163314156101c25760405162461bcd60e51b815260206004820152601960248201527f4f776e65722063616e6e6f7420706c6163652061206269642e00000000000000604482015260640161015e565b34600155600280546001600160a01b03191633179055565b806101e457600080fd5b50565b6000602082840312156101f8578081fd5b503591905056fea2646970667358221220a2821713b2cf6942c56193ead174656c0ecc36f15b0c58b3d2ca35998d978d6464736f6c63430008040033",
					"opcodes": "PUSH1 0x80 PUSH1 0x40 MSTORE CALLVALUE DUP1 ISZERO PUSH2 0x10 JUMPI PUSH1 0x0 DUP1 REVERT JUMPDEST POP PUSH1 0x0 DUP1 SLOAD PUSH1 0x1 PUSH1 0x1 PUSH1 0xA0 SHL SUB NOT SWAP1 DUP2 AND CALLER OR DUP3 SSTORE PUSH1 0x1 SWAP2 SWAP1 SWAP2 SSTORE PUSH1 0x2 DUP1 SLOAD SWAP1 SWAP2 AND SWAP1 SSTORE PUSH2 0x235 DUP1 PUSH2 0x43 PUSH1 0x0 CODECOPY PUSH1 0x0 RETURN INVALID PUSH1 0x80 PUSH1 0x40 MSTORE PUSH1 0x4 CALLDATASIZE LT PUSH2 0x4A JUMPI PUSH1 0x0 CALLDATALOAD PUSH1 0xE0 SHR DUP1 PUSH4 0x1998AEEF EQ PUSH2 0x4F JUMPI DUP1 PUSH4 0x8DA5CB5B EQ PUSH2 0x59 JUMPI DUP1 PUSH4 0x91F90157 EQ PUSH2 0x96 JUMPI DUP1 PUSH4 0xC5CAFC2A EQ PUSH2 0xB6 JUMPI DUP1 PUSH4 0xD57BDE79 EQ PUSH2 0xD6 JUMPI JUMPDEST PUSH1 0x0 DUP1 REVERT JUMPDEST PUSH2 0x57 PUSH2 0xFA JUMP JUMPDEST STOP JUMPDEST CALLVALUE DUP1 ISZERO PUSH2 0x65 JUMPI PUSH1 0x0 DUP1 REVERT JUMPDEST POP PUSH1 0x0 SLOAD PUSH2 0x79 SWAP1 PUSH1 0x1 PUSH1 0x1 PUSH1 0xA0 SHL SUB AND DUP2 JUMP JUMPDEST PUSH1 0x40 MLOAD PUSH1 0x1 PUSH1 0x1 PUSH1 0xA0 SHL SUB SWAP1 SWAP2 AND DUP2 MSTORE PUSH1 0x20 ADD JUMPDEST PUSH1 0x40 MLOAD DUP1 SWAP2 SUB SWAP1 RETURN JUMPDEST CALLVALUE DUP1 ISZERO PUSH2 0xA2 JUMPI PUSH1 0x0 DUP1 REVERT JUMPDEST POP PUSH1 0x2 SLOAD PUSH2 0x79 SWAP1 PUSH1 0x1 PUSH1 0x1 PUSH1 0xA0 SHL SUB AND DUP2 JUMP JUMPDEST CALLVALUE DUP1 ISZERO PUSH2 0xC2 JUMPI PUSH1 0x0 DUP1 REVERT JUMPDEST POP PUSH2 0x57 PUSH2 0xD1 CALLDATASIZE PUSH1 0x4 PUSH2 0x1E7 JUMP JUMPDEST PUSH2 0x1DA JUMP JUMPDEST CALLVALUE DUP1 ISZERO PUSH2 0xE2 JUMPI PUSH1 0x0 DUP1 REVERT JUMPDEST POP PUSH2 0xEC PUSH1 0x1 SLOAD DUP2 JUMP JUMPDEST PUSH1 0x40 MLOAD SWAP1 DUP2 MSTORE PUSH1 0x20 ADD PUSH2 0x8D JUMP JUMPDEST PUSH1 0x1 SLOAD CALLVALUE GT PUSH2 0x167 JUMPI PUSH1 0x40 MLOAD PUSH3 0x461BCD PUSH1 0xE5 SHL DUP2 MSTORE PUSH1 0x20 PUSH1 0x4 DUP3 ADD MSTORE PUSH1 0x2E PUSH1 0x24 DUP3 ADD MSTORE PUSH32 0x42696420616D6F756E742073686F756C64206265206772656174657220746861 PUSH1 0x44 DUP3 ADD MSTORE PUSH14 0x37103434B3B432B9BA103134B217 PUSH1 0x91 SHL PUSH1 0x64 DUP3 ADD MSTORE PUSH1 0x84 ADD JUMPDEST PUSH1 0x40 MLOAD DUP1 SWAP2 SUB SWAP1 REVERT JUMPDEST PUSH1 0x0 SLOAD PUSH1 0x1 PUSH1 0x1 PUSH1 0xA0 SHL SUB AND CALLER EQ ISZERO PUSH2 0x1C2 JUMPI PUSH1 0x40 MLOAD PUSH3 0x461BCD PUSH1 0xE5 SHL DUP2 MSTORE PUSH1 0x20 PUSH1 0x4 DUP3 ADD MSTORE PUSH1 0x19 PUSH1 0x24 DUP3 ADD MSTORE PUSH32 0x4F776E65722063616E6E6F7420706C6163652061206269642E00000000000000 PUSH1 0x44 DUP3 ADD MSTORE PUSH1 0x64 ADD PUSH2 0x15E JUMP JUMPDEST CALLVALUE PUSH1 0x1 SSTORE PUSH1 0x2 DUP1 SLOAD PUSH1 0x1 PUSH1 0x1 PUSH1 0xA0 SHL SUB NOT AND CALLER OR SWAP1 SSTORE JUMP JUMPDEST DUP1 PUSH2 0x1E4 JUMPI PUSH1 0x0 DUP1 REVERT JUMPDEST POP JUMP JUMPDEST PUSH1 0x0 PUSH1 0x20 DUP3 DUP5 SUB SLT ISZERO PUSH2 0x1F8 JUMPI DUP1 DUP2 REVERT JUMPDEST POP CALLDATALOAD SWAP2 SWAP1 POP JUMP INVALID LOG2 PUSH5 0x6970667358 0x22 SLT KECCAK256 LOG2 DUP3 OR SGT 0xB2 0xCF PUSH10 0x42C56193EAD174656C0E 0xCC CALLDATASIZE CALL JUMPDEST 0xC PC 0xB3 0xD2 0xCA CALLDATALOAD SWAP10 DUP14 SWAP8 DUP14 PUSH5 0x64736F6C63 NUMBER STOP ADDMOD DIV STOP CALLER "
				},
				"gasEstimates": {
					"creation": {
						"codeDepositCost": "113000",
						"executionCost": "46830",
						"totalCost": "159830"
					},
					"external": {
						"bid()": "42603",
						"checkNonZero(uint256)": "284",
						"highestBid()": "1061",
						"highestBidder()": "1048",
						"owner()": "1026"
					}
				},
				"methodIdentifiers": {
					"bid()": "1998aeef",
					"checkNonZero(uint256)": "c5cafc2a",
					"highestBid()": "d57bde79",
					"highestBidder()": "91f90157",
					"owner()": "8da5cb5b"
				}
			},
			"storageLayout": {
				"storage": [
					{
						"astId": 3,
						"contract": "Unsigned Integer Types Optimizer/test23.sol:Auction",
						"label": "owner",
						"offset": 0,
						"slot": "0",
						"type": "t_address"
					},
					{
						"astId": 5,
						"contract": "Unsigned Integer Types Optimizer/test23.sol:Auction",
						"label": "highestBid",
						"offset": 0,
						"slot": "1",
						"type": "t_uint256"
					},
					{
						"astId": 7,
						"contract": "Unsigned Integer Types Optimizer/test23.sol:Auction",
						"label": "highestBidder",
						"offset": 0,
						"slot": "2",
						"type": "t_address"
					}
				],
				"types": {
					"t_address": {
						"encoding": "inplace",
						"label": "address",
						"numberOfBytes": "20"
					},
					"t_uint256": {
						"encoding": "inplace",
						"label": "uint256",
						"numberOfBytes": "32"
					}
				}
			},
			"userdoc": {
				"kind": "user",
				"methods": {},
				"version": 1
			}
		}
	}
}