{
	"Unsigned Integer Types Optimizer/test22.sol": {
		"lottery": {
			"abi": [
				{
					"inputs": [
						{
							"internalType": "uint256",
							"name": "_ticketPrice",
							"type": "uint256"
						}
					],
					"stateMutability": "nonpayable",
					"type": "constructor"
				},
				{
					"inputs": [
						{
							"internalType": "uint256",
							"name": "x",
							"type": "uint256"
						}
					],
					"name": "checkNonZero",
					"outputs": [],
					"stateMutability": "pure",
					"type": "function"
				},
				{
					"inputs": [],
					"name": "enter",
					"outputs": [],
					"stateMutability": "payable",
					"type": "function"
				},
				{
					"inputs": [],
					"name": "manager",
					"outputs": [
						{
							"internalType": "address",
							"name": "",
							"type": "address"
						}
					],
					"stateMutability": "view",
					"type": "function"
				},
				{
					"inputs": [
						{
							"internalType": "uint256",
							"name": "",
							"type": "uint256"
						}
					],
					"name": "players",
					"outputs": [
						{
							"internalType": "address",
							"name": "",
							"type": "address"
						}
					],
					"stateMutability": "view",
					"type": "function"
				},
				{
					"inputs": [],
					"name": "ticketPrice",
					"outputs": [
						{
							"internalType": "uint256",
							"name": "",
							"type": "uint256"
						}
					],
					"stateMutability": "view",
					"type": "function"
				}
			],
			"devdoc": {
				"kind": "dev",
				"methods": {},
				"version": 1
			},
			"evm": {
				"assembly": "    /* \"Unsigned Integer Types Optimizer/test22.sol\":56:753  contract lottery {... */\n  mstore(0x40, 0x80)\n    /* \"Unsigned Integer Types Optimizer/test22.sol\":166:261  constructor(uint256 _ticketPrice) {... */\n  callvalue\n  dup1\n  iszero\n  tag_1\n  jumpi\n  0x00\n  dup1\n  revert\ntag_1:\n  pop\n  mload(0x40)\n  sub(codesize, bytecodeSize)\n  dup1\n  bytecodeSize\n  dup4\n  codecopy\n  dup2\n  add\n  0x40\n  dup2\n  swap1\n  mstore\n  tag_2\n  swap2\n  tag_3\n  jump\t// in\ntag_2:\n    /* \"Unsigned Integer Types Optimizer/test22.sol\":206:213  manager */\n  0x00\n    /* \"Unsigned Integer Types Optimizer/test22.sol\":206:226  manager = msg.sender */\n  dup1\n  sload\n  not(sub(shl(0xa0, 0x01), 0x01))\n  and\n    /* \"Unsigned Integer Types Optimizer/test22.sol\":216:226  msg.sender */\n  caller\n    /* \"Unsigned Integer Types Optimizer/test22.sol\":206:226  manager = msg.sender */\n  or\n  swap1\n  sstore\n    /* \"Unsigned Integer Types Optimizer/test22.sol\":232:243  ticketPrice */\n  0x02\n    /* \"Unsigned Integer Types Optimizer/test22.sol\":232:258  ticketPrice = _ticketPrice */\n  sstore\n    /* \"Unsigned Integer Types Optimizer/test22.sol\":56:753  contract lottery {... */\n  jump(tag_7)\n    /* \"#utility.yul\":14:208   */\ntag_3:\n    /* \"#utility.yul\":84:90   */\n  0x00\n    /* \"#utility.yul\":137:139   */\n  0x20\n    /* \"#utility.yul\":125:134   */\n  dup3\n    /* \"#utility.yul\":116:123   */\n  dup5\n    /* \"#utility.yul\":112:135   */\n  sub\n    /* \"#utility.yul\":108:140   */\n  slt\n    /* \"#utility.yul\":105:107   */\n  iszero\n  tag_9\n  jumpi\n    /* \"#utility.yul\":158:164   */\n  dup1\n    /* \"#utility.yul\":150:156   */\n  dup2\n    /* \"#utility.yul\":143:165   */\n  revert\n    /* \"#utility.yul\":105:107   */\ntag_9:\n  pop\n    /* \"#utility.yul\":186:202   */\n  mload\n  swap2\n    /* \"#utility.yul\":95:208   */\n  swap1\n  pop\n  jump\t// out\ntag_7:\n    /* \"Unsigned Integer Types Optimizer/test22.sol\":56:753  contract lottery {... */\n  dataSize(sub_0)\n  dup1\n  dataOffset(sub_0)\n  0x00\n  codecopy\n  0x00\n  return\nstop\n\nsub_0: assembly {\n        /* \"Unsigned Integer Types Optimizer/test22.sol\":56:753  contract lottery {... */\n      mstore(0x40, 0x80)\n      jumpi(tag_1, lt(calldatasize, 0x04))\n      shr(0xe0, calldataload(0x00))\n      dup1\n      0x1209b1f6\n      eq\n      tag_2\n      jumpi\n      dup1\n      0x481c6a75\n      eq\n      tag_3\n      jumpi\n      dup1\n      0xc5cafc2a\n      eq\n      tag_4\n      jumpi\n      dup1\n      0xe97dcb62\n      eq\n      tag_5\n      jumpi\n      dup1\n      0xf71d96cb\n      eq\n      tag_6\n      jumpi\n    tag_1:\n      0x00\n      dup1\n      revert\n        /* \"Unsigned Integer Types Optimizer/test22.sol\":137:163  uint256 public ticketPrice */\n    tag_2:\n      callvalue\n      dup1\n      iszero\n      tag_7\n      jumpi\n      0x00\n      dup1\n      revert\n    tag_7:\n      pop\n      tag_8\n      sload(0x02)\n      dup2\n      jump\n    tag_8:\n      mload(0x40)\n        /* \"#utility.yul\":2019:2044   */\n      swap1\n      dup2\n      mstore\n        /* \"#utility.yul\":2007:2009   */\n      0x20\n        /* \"#utility.yul\":1992:2010   */\n      add\n        /* \"Unsigned Integer Types Optimizer/test22.sol\":137:163  uint256 public ticketPrice */\n    tag_10:\n      mload(0x40)\n      dup1\n      swap2\n      sub\n      swap1\n      return\n        /* \"Unsigned Integer Types Optimizer/test22.sol\":79:101  address public manager */\n    tag_3:\n      callvalue\n      dup1\n      iszero\n      tag_12\n      jumpi\n      0x00\n      dup1\n      revert\n    tag_12:\n      pop\n      sload(0x00)\n      tag_13\n      swap1\n      sub(shl(0xa0, 0x01), 0x01)\n      and\n      dup2\n      jump\n    tag_13:\n      mload(0x40)\n      sub(shl(0xa0, 0x01), 0x01)\n        /* \"#utility.yul\":373:405   */\n      swap1\n      swap2\n      and\n        /* \"#utility.yul\":355:406   */\n      dup2\n      mstore\n        /* \"#utility.yul\":343:345   */\n      0x20\n        /* \"#utility.yul\":328:346   */\n      add\n        /* \"Unsigned Integer Types Optimizer/test22.sol\":79:101  address public manager */\n      tag_10\n        /* \"#utility.yul\":310:412   */\n      jump\n        /* \"Unsigned Integer Types Optimizer/test22.sol\":682:751  function checkNonZero(uint256 x) public pure {... */\n    tag_4:\n      callvalue\n      dup1\n      iszero\n      tag_17\n      jumpi\n      0x00\n      dup1\n      revert\n    tag_17:\n      pop\n      tag_18\n      tag_19\n      calldatasize\n      0x04\n      tag_20\n      jump\t// in\n    tag_19:\n      tag_21\n      jump\t// in\n    tag_18:\n      stop\n        /* \"Unsigned Integer Types Optimizer/test22.sol\":263:592  function enter() public payable {... */\n    tag_5:\n      tag_18\n      tag_23\n      jump\t// in\n        /* \"Unsigned Integer Types Optimizer/test22.sol\":107:131  address[] public players */\n    tag_6:\n      callvalue\n      dup1\n      iszero\n      tag_24\n      jumpi\n      0x00\n      dup1\n      revert\n    tag_24:\n      pop\n      tag_13\n      tag_26\n      calldatasize\n      0x04\n      tag_20\n      jump\t// in\n    tag_26:\n      tag_27\n      jump\t// in\n        /* \"Unsigned Integer Types Optimizer/test22.sol\":682:751  function checkNonZero(uint256 x) public pure {... */\n    tag_21:\n        /* \"Unsigned Integer Types Optimizer/test22.sol\":741:747  x != 0 */\n      dup1\n        /* \"Unsigned Integer Types Optimizer/test22.sol\":733:748  require(x != 0) */\n      tag_30\n      jumpi\n      0x00\n      dup1\n      revert\n    tag_30:\n        /* \"Unsigned Integer Types Optimizer/test22.sol\":682:751  function checkNonZero(uint256 x) public pure {... */\n      pop\n      jump\t// out\n        /* \"Unsigned Integer Types Optimizer/test22.sol\":263:592  function enter() public payable {... */\n    tag_23:\n        /* \"Unsigned Integer Types Optimizer/test22.sol\":322:333  ticketPrice */\n      sload(0x02)\n        /* \"Unsigned Integer Types Optimizer/test22.sol\":309:318  msg.value */\n      callvalue\n        /* \"Unsigned Integer Types Optimizer/test22.sol\":309:333  msg.value == ticketPrice */\n      eq\n        /* \"Unsigned Integer Types Optimizer/test22.sol\":301:359  require(msg.value == ticketPrice, \"Invalid ticket price.\") */\n      tag_32\n      jumpi\n      mload(0x40)\n      shl(0xe5, 0x461bcd)\n      dup2\n      mstore\n        /* \"#utility.yul\":1725:1727   */\n      0x20\n        /* \"Unsigned Integer Types Optimizer/test22.sol\":301:359  require(msg.value == ticketPrice, \"Invalid ticket price.\") */\n      0x04\n      dup3\n      add\n        /* \"#utility.yul\":1707:1728   */\n      mstore\n        /* \"#utility.yul\":1764:1766   */\n      0x15\n        /* \"#utility.yul\":1744:1762   */\n      0x24\n      dup3\n      add\n        /* \"#utility.yul\":1737:1767   */\n      mstore\n      shl(0x59, 0x24b73b30b634b2103a34b1b5b2ba10383934b1b297)\n        /* \"#utility.yul\":1783:1801   */\n      0x44\n      dup3\n      add\n        /* \"#utility.yul\":1776:1827   */\n      mstore\n        /* \"#utility.yul\":1844:1862   */\n      0x64\n      add\n        /* \"Unsigned Integer Types Optimizer/test22.sol\":301:359  require(msg.value == ticketPrice, \"Invalid ticket price.\") */\n    tag_33:\n      mload(0x40)\n      dup1\n      swap2\n      sub\n      swap1\n      revert\n    tag_32:\n        /* \"Unsigned Integer Types Optimizer/test22.sol\":387:394  manager */\n      and(sub(shl(0xa0, 0x01), 0x01), sload(0x00))\n        /* \"Unsigned Integer Types Optimizer/test22.sol\":373:383  msg.sender */\n      caller\n        /* \"Unsigned Integer Types Optimizer/test22.sol\":373:394  msg.sender != manager */\n      eq\n      iszero\n        /* \"Unsigned Integer Types Optimizer/test22.sol\":365:428  require(msg.sender != manager, \"Manager cannot enter lottery.\") */\n      tag_35\n      jumpi\n      mload(0x40)\n      shl(0xe5, 0x461bcd)\n      dup2\n      mstore\n        /* \"#utility.yul\":1367:1369   */\n      0x20\n        /* \"Unsigned Integer Types Optimizer/test22.sol\":365:428  require(msg.sender != manager, \"Manager cannot enter lottery.\") */\n      0x04\n      dup3\n      add\n        /* \"#utility.yul\":1349:1370   */\n      mstore\n        /* \"#utility.yul\":1406:1408   */\n      0x1d\n        /* \"#utility.yul\":1386:1404   */\n      0x24\n      dup3\n      add\n        /* \"#utility.yul\":1379:1409   */\n      mstore\n        /* \"#utility.yul\":1445:1476   */\n      0x4d616e616765722063616e6e6f7420656e746572206c6f74746572792e000000\n        /* \"#utility.yul\":1425:1443   */\n      0x44\n      dup3\n      add\n        /* \"#utility.yul\":1418:1477   */\n      mstore\n        /* \"#utility.yul\":1494:1512   */\n      0x64\n      add\n        /* \"Unsigned Integer Types Optimizer/test22.sol\":365:428  require(msg.sender != manager, \"Manager cannot enter lottery.\") */\n      tag_33\n        /* \"#utility.yul\":1339:1518   */\n      jump\n        /* \"Unsigned Integer Types Optimizer/test22.sol\":365:428  require(msg.sender != manager, \"Manager cannot enter lottery.\") */\n    tag_35:\n        /* \"Unsigned Integer Types Optimizer/test22.sol\":442:452  msg.sender */\n      caller\n        /* \"Unsigned Integer Types Optimizer/test22.sol\":434:487  require(msg.sender != address(0), \"Invalid address.\") */\n      tag_38\n      jumpi\n      mload(0x40)\n      shl(0xe5, 0x461bcd)\n      dup2\n      mstore\n        /* \"#utility.yul\":1022:1024   */\n      0x20\n        /* \"Unsigned Integer Types Optimizer/test22.sol\":434:487  require(msg.sender != address(0), \"Invalid address.\") */\n      0x04\n      dup3\n      add\n        /* \"#utility.yul\":1004:1025   */\n      mstore\n        /* \"#utility.yul\":1061:1063   */\n      0x10\n        /* \"#utility.yul\":1041:1059   */\n      0x24\n      dup3\n      add\n        /* \"#utility.yul\":1034:1064   */\n      mstore\n      shl(0x81, 0x24b73b30b634b21030b2323932b9b997)\n        /* \"#utility.yul\":1080:1098   */\n      0x44\n      dup3\n      add\n        /* \"#utility.yul\":1073:1119   */\n      mstore\n        /* \"#utility.yul\":1136:1154   */\n      0x64\n      add\n        /* \"Unsigned Integer Types Optimizer/test22.sol\":434:487  require(msg.sender != address(0), \"Invalid address.\") */\n      tag_33\n        /* \"#utility.yul\":994:1160   */\n      jump\n        /* \"Unsigned Integer Types Optimizer/test22.sol\":434:487  require(msg.sender != address(0), \"Invalid address.\") */\n    tag_38:\n        /* \"Unsigned Integer Types Optimizer/test22.sol\":501:508  players */\n      0x01\n        /* \"Unsigned Integer Types Optimizer/test22.sol\":501:515  players.length */\n      sload\n        /* \"Unsigned Integer Types Optimizer/test22.sol\":518:520  10 */\n      0x0a\n      gt\n        /* \"Unsigned Integer Types Optimizer/test22.sol\":493:559  require(players.length < 10, \"Maximum number of players reached.\") */\n      tag_41\n      jumpi\n      mload(0x40)\n      shl(0xe5, 0x461bcd)\n      dup2\n      mstore\n        /* \"#utility.yul\":619:621   */\n      0x20\n        /* \"Unsigned Integer Types Optimizer/test22.sol\":493:559  require(players.length < 10, \"Maximum number of players reached.\") */\n      0x04\n      dup3\n      add\n        /* \"#utility.yul\":601:622   */\n      mstore\n        /* \"#utility.yul\":658:660   */\n      0x22\n        /* \"#utility.yul\":638:656   */\n      0x24\n      dup3\n      add\n        /* \"#utility.yul\":631:661   */\n      mstore\n        /* \"#utility.yul\":697:731   */\n      0x4d6178696d756d206e756d626572206f6620706c617965727320726561636865\n        /* \"#utility.yul\":677:695   */\n      0x44\n      dup3\n      add\n        /* \"#utility.yul\":670:732   */\n      mstore\n      shl(0xf1, 0x3217)\n        /* \"#utility.yul\":748:766   */\n      0x64\n      dup3\n      add\n        /* \"#utility.yul\":741:773   */\n      mstore\n        /* \"#utility.yul\":790:809   */\n      0x84\n      add\n        /* \"Unsigned Integer Types Optimizer/test22.sol\":493:559  require(players.length < 10, \"Maximum number of players reached.\") */\n      tag_33\n        /* \"#utility.yul\":591:815   */\n      jump\n        /* \"Unsigned Integer Types Optimizer/test22.sol\":493:559  require(players.length < 10, \"Maximum number of players reached.\") */\n    tag_41:\n        /* \"Unsigned Integer Types Optimizer/test22.sol\":565:572  players */\n      0x01\n        /* \"Unsigned Integer Types Optimizer/test22.sol\":565:589  players.push(msg.sender) */\n      dup1\n      sload\n      dup1\n      dup3\n      add\n      dup3\n      sstore\n      0x00\n      swap2\n      swap1\n      swap2\n      mstore\n      0xb10e2d527612073b26eecdfd717e6a320cf44b4afac2b0732d9fcbe2b7fa0cf6\n      add\n      dup1\n      sload\n      not(sub(shl(0xa0, 0x01), 0x01))\n      and\n        /* \"Unsigned Integer Types Optimizer/test22.sol\":578:588  msg.sender */\n      caller\n        /* \"Unsigned Integer Types Optimizer/test22.sol\":565:589  players.push(msg.sender) */\n      or\n      swap1\n      sstore\n        /* \"Unsigned Integer Types Optimizer/test22.sol\":263:592  function enter() public payable {... */\n      jump\t// out\n        /* \"Unsigned Integer Types Optimizer/test22.sol\":107:131  address[] public players */\n    tag_27:\n      0x01\n      dup2\n      dup2\n      sload\n      dup2\n      lt\n      tag_45\n      jumpi\n      0x00\n      dup1\n      revert\n    tag_45:\n      0x00\n      swap2\n      dup3\n      mstore\n      0x20\n      swap1\n      swap2\n      keccak256\n      add\n      sload\n      sub(shl(0xa0, 0x01), 0x01)\n      and\n      swap1\n      pop\n      dup2\n      jump\t// out\n        /* \"#utility.yul\":14:204   */\n    tag_20:\n        /* \"#utility.yul\":73:79   */\n      0x00\n        /* \"#utility.yul\":126:128   */\n      0x20\n        /* \"#utility.yul\":114:123   */\n      dup3\n        /* \"#utility.yul\":105:112   */\n      dup5\n        /* \"#utility.yul\":101:124   */\n      sub\n        /* \"#utility.yul\":97:129   */\n      slt\n        /* \"#utility.yul\":94:96   */\n      iszero\n      tag_49\n      jumpi\n        /* \"#utility.yul\":147:153   */\n      dup1\n        /* \"#utility.yul\":139:145   */\n      dup2\n        /* \"#utility.yul\":132:154   */\n      revert\n        /* \"#utility.yul\":94:96   */\n    tag_49:\n      pop\n        /* \"#utility.yul\":175:198   */\n      calldataload\n      swap2\n        /* \"#utility.yul\":84:204   */\n      swap1\n      pop\n      jump\t// out\n\n    auxdata: 0xa26469706673582212208b6105547f951f737566da510b9242f1b0e6defc57ec09ccc142fff1b9f87a3664736f6c63430008040033\n}\n",
				"bytecode": {
					"linkReferences": {},
					"object": "608060405234801561001057600080fd5b5060405161037838038061037883398101604081905261002f91610049565b600080546001600160a01b03191633179055600255610061565b60006020828403121561005a578081fd5b5051919050565b610308806100706000396000f3fe60806040526004361061004a5760003560e01c80631209b1f61461004f578063481c6a7514610078578063c5cafc2a146100b0578063e97dcb62146100d2578063f71d96cb146100da575b600080fd5b34801561005b57600080fd5b5061006560025481565b6040519081526020015b60405180910390f35b34801561008457600080fd5b50600054610098906001600160a01b031681565b6040516001600160a01b03909116815260200161006f565b3480156100bc57600080fd5b506100d06100cb3660046102ba565b6100fa565b005b6100d0610107565b3480156100e657600080fd5b506100986100f53660046102ba565b610290565b8061010457600080fd5b50565b60025434146101555760405162461bcd60e51b815260206004820152601560248201527424b73b30b634b2103a34b1b5b2ba10383934b1b29760591b60448201526064015b60405180910390fd5b6000546001600160a01b03163314156101b05760405162461bcd60e51b815260206004820152601d60248201527f4d616e616765722063616e6e6f7420656e746572206c6f74746572792e000000604482015260640161014c565b336101f05760405162461bcd60e51b815260206004820152601060248201526f24b73b30b634b21030b2323932b9b99760811b604482015260640161014c565b600154600a1161024d5760405162461bcd60e51b815260206004820152602260248201527f4d6178696d756d206e756d626572206f6620706c617965727320726561636865604482015261321760f11b606482015260840161014c565b6001805480820182556000919091527fb10e2d527612073b26eecdfd717e6a320cf44b4afac2b0732d9fcbe2b7fa0cf60180546001600160a01b03191633179055565b600181815481106102a057600080fd5b6000918252602090912001546001600160a01b0316905081565b6000602082840312156102cb578081fd5b503591905056fea26469706673582212208b6105547f951f737566da510b9242f1b0e6defc57ec09ccc142fff1b9f87a3664736f6c63430008040033",
					"opcodes": "PUSH1 0x80 PUSH1 0x40 MSTORE CALLVALUE DUP1 ISZERO PUSH2 0x10 JUMPI PUSH1 0x0 DUP1 REVERT JUMPDEST POP PUSH1 0x40 MLOAD PUSH2 0x378 CODESIZE SUB DUP1 PUSH2 0x378 DUP4 CODECOPY DUP2 ADD PUSH1 0x40 DUP2 SWAP1 MSTORE PUSH2 0x2F SWAP2 PUSH2 0x49 JUMP JUMPDEST PUSH1 0x0 DUP1 SLOAD PUSH1 0x1 PUSH1 0x1 PUSH1 0xA0 SHL SUB NOT AND CALLER OR SWAP1 SSTORE PUSH1 0x2 SSTORE PUSH2 0x61 JUMP JUMPDEST PUSH1 0x0 PUSH1 0x20 DUP3 DUP5 SUB SLT ISZERO PUSH2 0x5A JUMPI DUP1 DUP2 REVERT JUMPDEST POP MLOAD SWAP2 SWAP1 POP JUMP JUMPDEST PUSH2 0x308 DUP1 PUSH2 0x70 PUSH1 0x0 CODECOPY PUSH1 0x0 RETURN INVALID PUSH1 0x80 PUSH1 0x40 MSTORE PUSH1 0x4 CALLDATASIZE LT PUSH2 0x4A JUMPI PUSH1 0x0 CALLDATALOAD PUSH1 0xE0 SHR DUP1 PUSH4 0x1209B1F6 EQ PUSH2 0x4F JUMPI DUP1 PUSH4 0x481C6A75 EQ PUSH2 0x78 JUMPI DUP1 PUSH4 0xC5CAFC2A EQ PUSH2 0xB0 JUMPI DUP1 PUSH4 0xE97DCB62 EQ PUSH2 0xD2 JUMPI DUP1 PUSH4 0xF71D96CB EQ PUSH2 0xDA JUMPI JUMPDEST PUSH1 0x0 DUP1 REVERT JUMPDEST CALLVALUE DUP1 ISZERO PUSH2 0x5B JUMPI PUSH1 0x0 DUP1 REVERT JUMPDEST POP PUSH2 0x65 PUSH1 0x2 SLOAD DUP2 JUMP JUMPDEST PUSH1 0x40 MLOAD SWAP1 DUP2 MSTORE PUSH1 0x20 ADD JUMPDEST PUSH1 0x40 MLOAD DUP1 SWAP2 SUB SWAP1 RETURN JUMPDEST CALLVALUE DUP1 ISZERO PUSH2 0x84 JUMPI PUSH1 0x0 DUP1 REVERT JUMPDEST POP PUSH1 0x0 SLOAD PUSH2 0x98 SWAP1 PUSH1 0x1 PUSH1 0x1 PUSH1 0xA0 SHL SUB AND DUP2 JUMP JUMPDEST PUSH1 0x40 MLOAD PUSH1 0x1 PUSH1 0x1 PUSH1 0xA0 SHL SUB SWAP1 SWAP2 AND DUP2 MSTORE PUSH1 0x20 ADD PUSH2 0x6F JUMP JUMPDEST CALLVALUE DUP1 ISZERO PUSH2 0xBC JUMPI PUSH1 0x0 DUP1 REVERT JUMPDEST POP PUSH2 0xD0 PUSH2 0xCB CALLDATASIZE PUSH1 0x4 PUSH2 0x2BA JUMP JUMPDEST PUSH2 0xFA JUMP JUMPDEST STOP JUMPDEST PUSH2 0xD0 PUSH2 0x107 JUMP JUMPDEST CALLVALUE DUP1 ISZERO PUSH2 0xE6 JUMPI PUSH1 0x0 DUP1 REVERT JUMPDEST POP PUSH2 0x98 PUSH2 0xF5 CALLDATASIZE PUSH1 0x4 PUSH2 0x2BA JUMP JUMPDEST PUSH2 0x290 JUMP JUMPDEST DUP1 PUSH2 0x104 JUMPI PUSH1 0x0 DUP1 REVERT JUMPDEST POP JUMP JUMPDEST PUSH1 0x2 SLOAD CALLVALUE EQ PUSH2 0x155 JUMPI PUSH1 0x40 MLOAD PUSH3 0x461BCD PUSH1 0xE5 SHL DUP2 MSTORE PUSH1 0x20 PUSH1 0x4 DUP3 ADD MSTORE PUSH1 0x15 PUSH1 0x24 DUP3 ADD MSTORE PUSH21 0x24B73B30B634B2103A34B1B5B2BA10383934B1B297 PUSH1 0x59 SHL PUSH1 0x44 DUP3 ADD MSTORE PUSH1 0x64 ADD JUMPDEST PUSH1 0x40 MLOAD DUP1 SWAP2 SUB SWAP1 REVERT JUMPDEST PUSH1 0x0 SLOAD PUSH1 0x1 PUSH1 0x1 PUSH1 0xA0 SHL SUB AND CALLER EQ ISZERO PUSH2 0x1B0 JUMPI PUSH1 0x40 MLOAD PUSH3 0x461BCD PUSH1 0xE5 SHL DUP2 MSTORE PUSH1 0x20 PUSH1 0x4 DUP3 ADD MSTORE PUSH1 0x1D PUSH1 0x24 DUP3 ADD MSTORE PUSH32 0x4D616E616765722063616E6E6F7420656E746572206C6F74746572792E000000 PUSH1 0x44 DUP3 ADD MSTORE PUSH1 0x64 ADD PUSH2 0x14C JUMP JUMPDEST CALLER PUSH2 0x1F0 JUMPI PUSH1 0x40 MLOAD PUSH3 0x461BCD PUSH1 0xE5 SHL DUP2 MSTORE PUSH1 0x20 PUSH1 0x4 DUP3 ADD MSTORE PUSH1 0x10 PUSH1 0x24 DUP3 ADD MSTORE PUSH16 0x24B73B30B634B21030B2323932B9B997 PUSH1 0x81 SHL PUSH1 0x44 DUP3 ADD MSTORE PUSH1 0x64 ADD PUSH2 0x14C JUMP JUMPDEST PUSH1 0x1 SLOAD PUSH1 0xA GT PUSH2 0x24D JUMPI PUSH1 0x40 MLOAD PUSH3 0x461BCD PUSH1 0xE5 SHL DUP2 MSTORE PUSH1 0x20 PUSH1 0x4 DUP3 ADD MSTORE PUSH1 0x22 PUSH1 0x24 DUP3 ADD MSTORE PUSH32 0x4D6178696D756D206E756D626572206F6620706C617965727320726561636865 PUSH1 0x44 DUP3 ADD MSTORE PUSH2 0x3217 PUSH1 0xF1 SHL PUSH1 0x64 DUP3 ADD MSTORE PUSH1 0x84 ADD PUSH2 0x14C JUMP JUMPDEST PUSH1 0x1 DUP1 SLOAD DUP1 DUP3 ADD DUP3 SSTORE PUSH1 0x0 SWAP2 SWAP1 SWAP2 MSTORE PUSH32 0xB10E2D527612073B26EECDFD717E6A320CF44B4AFAC2B0732D9FCBE2B7FA0CF6 ADD DUP1 SLOAD PUSH1 0x1 PUSH1 0x1 PUSH1 0xA0 SHL SUB NOT AND CALLER OR SWAP1 SSTORE JUMP JUMPDEST PUSH1 0x1 DUP2 DUP2 SLOAD DUP2 LT PUSH2 0x2A0 JUMPI PUSH1 0x0 DUP1 REVERT JUMPDEST PUSH1 0x0 SWAP2 DUP3 MSTORE PUSH1 0x20 SWAP1 SWAP2 KECCAK256 ADD SLOAD PUSH1 0x1 PUSH1 0x1 PUSH1 0xA0 SHL SUB AND SWAP1 POP DUP2 JUMP JUMPDEST PUSH1 0x0 PUSH1 0x20 DUP3 DUP5 SUB SLT ISZERO PUSH2 0x2CB JUMPI DUP1 DUP2 REVERT JUMPDEST POP CALLDATALOAD SWAP2 SWAP1 POP JUMP INVALID LOG2 PUSH5 0x6970667358 0x22 SLT KECCAK256 DUP12 PUSH2 0x554 PUSH32 0x951F737566DA510B9242F1B0E6DEFC57EC09CCC142FFF1B9F87A3664736F6C63 NUMBER STOP ADDMOD DIV STOP CALLER "
				},
				"gasEstimates": {
					"creation": {
						"codeDepositCost": "155200",
						"executionCost": "infinite",
						"totalCost": "infinite"
					},
					"external": {
						"checkNonZero(uint256)": "262",
						"enter()": "44339",
						"manager()": "1037",
						"players(uint256)": "2080",
						"ticketPrice()": "962"
					}
				},
				"methodIdentifiers": {
					"checkNonZero(uint256)": "c5cafc2a",
					"enter()": "e97dcb62",
					"manager()": "481c6a75",
					"players(uint256)": "f71d96cb",
					"ticketPrice()": "1209b1f6"
				}
			},
			"storageLayout": {
				"storage": [
					{
						"astId": 3,
						"contract": "Unsigned Integer Types Optimizer/test22.sol:lottery",
						"label": "manager",
						"offset": 0,
						"slot": "0",
						"type": "t_address"
					},
					{
						"astId": 6,
						"contract": "Unsigned Integer Types Optimizer/test22.sol:lottery",
						"label": "players",
						"offset": 0,
						"slot": "1",
						"type": "t_array(t_address)dyn_storage"
					},
					{
						"astId": 8,
						"contract": "Unsigned Integer Types Optimizer/test22.sol:lottery",
						"label": "ticketPrice",
						"offset": 0,
						"slot": "2",
						"type": "t_uint256"
					}
				],
				"types": {
					"t_address": {
						"encoding": "inplace",
						"label": "address",
						"numberOfBytes": "20"
					},
					"t_array(t_address)dyn_storage": {
						"base": "t_address",
						"encoding": "dynamic_array",
						"label": "address[]",
						"numberOfBytes": "32"
					},
					"t_uint256": {
						"encoding": "inplace",
						"label": "uint256",
						"numberOfBytes": "32"
					}
				}
			},
			"userdoc": {
				"kind": "user",
				"methods": {},
				"version": 1
			}
		}
	}
}