{
	"Unsigned Integer Types Optimizer/optimized_test24.sol": {
		"Token": {
			"abi": [
				{
					"inputs": [
						{
							"internalType": "string",
							"name": "_name",
							"type": "string"
						},
						{
							"internalType": "string",
							"name": "_symbol",
							"type": "string"
						},
						{
							"internalType": "uint256",
							"name": "_totalSupply",
							"type": "uint256"
						}
					],
					"stateMutability": "nonpayable",
					"type": "constructor"
				},
				{
					"inputs": [
						{
							"internalType": "address",
							"name": "",
							"type": "address"
						}
					],
					"name": "balanceOf",
					"outputs": [
						{
							"internalType": "uint256",
							"name": "",
							"type": "uint256"
						}
					],
					"stateMutability": "view",
					"type": "function"
				},
				{
					"inputs": [
						{
							"internalType": "uint256",
							"name": "x",
							"type": "uint256"
						}
					],
					"name": "checkNonZero",
					"outputs": [],
					"stateMutability": "pure",
					"type": "function"
				},
				{
					"inputs": [],
					"name": "name",
					"outputs": [
						{
							"internalType": "string",
							"name": "",
							"type": "string"
						}
					],
					"stateMutability": "view",
					"type": "function"
				},
				{
					"inputs": [],
					"name": "owner",
					"outputs": [
						{
							"internalType": "address",
							"name": "",
							"type": "address"
						}
					],
					"stateMutability": "view",
					"type": "function"
				},
				{
					"inputs": [],
					"name": "symbol",
					"outputs": [
						{
							"internalType": "string",
							"name": "",
							"type": "string"
						}
					],
					"stateMutability": "view",
					"type": "function"
				},
				{
					"inputs": [],
					"name": "totalSupply",
					"outputs": [
						{
							"internalType": "uint256",
							"name": "",
							"type": "uint256"
						}
					],
					"stateMutability": "view",
					"type": "function"
				},
				{
					"inputs": [
						{
							"internalType": "address",
							"name": "to",
							"type": "address"
						},
						{
							"internalType": "uint256",
							"name": "amount",
							"type": "uint256"
						}
					],
					"name": "transfer",
					"outputs": [],
					"stateMutability": "nonpayable",
					"type": "function"
				}
			],
			"devdoc": {
				"kind": "dev",
				"methods": {},
				"version": 1
			},
			"evm": {
				"assembly": "    /* \"Unsigned Integer Types Optimizer/optimized_test24.sol\":56:834  contract Token {... */\n  mstore(0x40, 0x80)\n    /* \"Unsigned Integer Types Optimizer/optimized_test24.sol\":237:480  constructor(string memory _name, string memory _symbol, uint256 _totalSupply) {... */\n  callvalue\n  dup1\n  iszero\n  tag_1\n  jumpi\n  0x00\n  dup1\n  revert\ntag_1:\n  pop\n  mload(0x40)\n  sub(codesize, bytecodeSize)\n  dup1\n  bytecodeSize\n  dup4\n  codecopy\n  dup2\n  dup2\n  add\n  0x40\n  mstore\n  dup2\n  add\n  swap1\n  tag_2\n  swap2\n  swap1\n  tag_3\n  jump\t// in\ntag_2:\n    /* \"Unsigned Integer Types Optimizer/optimized_test24.sol\":333:343  msg.sender */\n  caller\n    /* \"Unsigned Integer Types Optimizer/optimized_test24.sol\":325:330  owner */\n  0x00\n  dup1\n    /* \"Unsigned Integer Types Optimizer/optimized_test24.sol\":325:343  owner = msg.sender */\n  0x0100\n  exp\n  dup2\n  sload\n  dup2\n  0xffffffffffffffffffffffffffffffffffffffff\n  mul\n  not\n  and\n  swap1\n  dup4\n  0xffffffffffffffffffffffffffffffffffffffff\n  and\n  mul\n  or\n  swap1\n  sstore\n  pop\n    /* \"Unsigned Integer Types Optimizer/optimized_test24.sol\":360:365  _name */\n  dup3\n    /* \"Unsigned Integer Types Optimizer/optimized_test24.sol\":353:357  name */\n  0x01\n    /* \"Unsigned Integer Types Optimizer/optimized_test24.sol\":353:365  name = _name */\n  swap1\n  dup1\n  mload\n  swap1\n  0x20\n  add\n  swap1\n  tag_6\n  swap3\n  swap2\n  swap1\n  tag_7\n  jump\t// in\ntag_6:\n  pop\n    /* \"Unsigned Integer Types Optimizer/optimized_test24.sol\":384:391  _symbol */\n  dup2\n    /* \"Unsigned Integer Types Optimizer/optimized_test24.sol\":375:381  symbol */\n  0x02\n    /* \"Unsigned Integer Types Optimizer/optimized_test24.sol\":375:391  symbol = _symbol */\n  swap1\n  dup1\n  mload\n  swap1\n  0x20\n  add\n  swap1\n  tag_8\n  swap3\n  swap2\n  swap1\n  tag_7\n  jump\t// in\ntag_8:\n  pop\n    /* \"Unsigned Integer Types Optimizer/optimized_test24.sol\":415:427  _totalSupply */\n  dup1\n    /* \"Unsigned Integer Types Optimizer/optimized_test24.sol\":401:412  totalSupply */\n  0x03\n    /* \"Unsigned Integer Types Optimizer/optimized_test24.sol\":401:427  totalSupply = _totalSupply */\n  dup2\n  swap1\n  sstore\n  pop\n    /* \"Unsigned Integer Types Optimizer/optimized_test24.sol\":461:473  _totalSupply */\n  dup1\n    /* \"Unsigned Integer Types Optimizer/optimized_test24.sol\":437:446  balanceOf */\n  0x04\n    /* \"Unsigned Integer Types Optimizer/optimized_test24.sol\":437:458  balanceOf[msg.sender] */\n  0x00\n    /* \"Unsigned Integer Types Optimizer/optimized_test24.sol\":447:457  msg.sender */\n  caller\n    /* \"Unsigned Integer Types Optimizer/optimized_test24.sol\":437:458  balanceOf[msg.sender] */\n  0xffffffffffffffffffffffffffffffffffffffff\n  and\n  0xffffffffffffffffffffffffffffffffffffffff\n  and\n  dup2\n  mstore\n  0x20\n  add\n  swap1\n  dup2\n  mstore\n  0x20\n  add\n  0x00\n  keccak256\n    /* \"Unsigned Integer Types Optimizer/optimized_test24.sol\":437:473  balanceOf[msg.sender] = _totalSupply */\n  dup2\n  swap1\n  sstore\n  pop\n    /* \"Unsigned Integer Types Optimizer/optimized_test24.sol\":237:480  constructor(string memory _name, string memory _symbol, uint256 _totalSupply) {... */\n  pop\n  pop\n  pop\n    /* \"Unsigned Integer Types Optimizer/optimized_test24.sol\":56:834  contract Token {... */\n  jump(tag_9)\ntag_7:\n  dup3\n  dup1\n  sload\n  tag_10\n  swap1\n  tag_11\n  jump\t// in\ntag_10:\n  swap1\n  0x00\n  mstore\n  keccak256(0x00, 0x20)\n  swap1\n  0x1f\n  add\n  0x20\n  swap1\n  div\n  dup2\n  add\n  swap3\n  dup3\n  tag_13\n  jumpi\n  0x00\n  dup6\n  sstore\n  jump(tag_12)\ntag_13:\n  dup3\n  0x1f\n  lt\n  tag_14\n  jumpi\n  dup1\n  mload\n  not(0xff)\n  and\n  dup4\n  dup1\n  add\n  or\n  dup6\n  sstore\n  jump(tag_12)\ntag_14:\n  dup3\n  dup1\n  add\n  0x01\n  add\n  dup6\n  sstore\n  dup3\n  iszero\n  tag_12\n  jumpi\n  swap2\n  dup3\n  add\ntag_15:\n  dup3\n  dup2\n  gt\n  iszero\n  tag_16\n  jumpi\n  dup3\n  mload\n  dup3\n  sstore\n  swap2\n  0x20\n  add\n  swap2\n  swap1\n  0x01\n  add\n  swap1\n  jump(tag_15)\ntag_16:\ntag_12:\n  pop\n  swap1\n  pop\n  tag_17\n  swap2\n  swap1\n  tag_18\n  jump\t// in\ntag_17:\n  pop\n  swap1\n  jump\t// out\ntag_18:\ntag_19:\n  dup1\n  dup3\n  gt\n  iszero\n  tag_20\n  jumpi\n  0x00\n  dup2\n  0x00\n  swap1\n  sstore\n  pop\n  0x01\n  add\n  jump(tag_19)\ntag_20:\n  pop\n  swap1\n  jump\t// out\n    /* \"#utility.yul\":7:361   */\ntag_22:\n    /* \"#utility.yul\":96:101   */\n  0x00\n    /* \"#utility.yul\":121:187   */\n  tag_24\n    /* \"#utility.yul\":137:186   */\n  tag_25\n    /* \"#utility.yul\":179:185   */\n  dup5\n    /* \"#utility.yul\":137:186   */\n  tag_26\n  jump\t// in\ntag_25:\n    /* \"#utility.yul\":121:187   */\n  tag_27\n  jump\t// in\ntag_24:\n    /* \"#utility.yul\":112:187   */\n  swap1\n  pop\n    /* \"#utility.yul\":210:216   */\n  dup3\n    /* \"#utility.yul\":203:208   */\n  dup2\n    /* \"#utility.yul\":196:217   */\n  mstore\n    /* \"#utility.yul\":248:252   */\n  0x20\n    /* \"#utility.yul\":241:246   */\n  dup2\n    /* \"#utility.yul\":237:253   */\n  add\n    /* \"#utility.yul\":286:289   */\n  dup5\n    /* \"#utility.yul\":277:283   */\n  dup5\n    /* \"#utility.yul\":272:275   */\n  dup5\n    /* \"#utility.yul\":268:284   */\n  add\n    /* \"#utility.yul\":265:290   */\n  gt\n    /* \"#utility.yul\":262:264   */\n  iszero\n  tag_28\n  jumpi\n    /* \"#utility.yul\":303:304   */\n  0x00\n    /* \"#utility.yul\":300:301   */\n  dup1\n    /* \"#utility.yul\":293:305   */\n  revert\n    /* \"#utility.yul\":262:264   */\ntag_28:\n    /* \"#utility.yul\":316:355   */\n  tag_29\n    /* \"#utility.yul\":348:354   */\n  dup5\n    /* \"#utility.yul\":343:346   */\n  dup3\n    /* \"#utility.yul\":338:341   */\n  dup6\n    /* \"#utility.yul\":316:355   */\n  tag_30\n  jump\t// in\ntag_29:\n    /* \"#utility.yul\":102:361   */\n  pop\n  swap4\n  swap3\n  pop\n  pop\n  pop\n  jump\t// out\n    /* \"#utility.yul\":381:669   */\ntag_31:\n    /* \"#utility.yul\":448:453   */\n  0x00\n    /* \"#utility.yul\":497:500   */\n  dup3\n    /* \"#utility.yul\":490:494   */\n  0x1f\n    /* \"#utility.yul\":482:488   */\n  dup4\n    /* \"#utility.yul\":478:495   */\n  add\n    /* \"#utility.yul\":474:501   */\n  slt\n    /* \"#utility.yul\":464:466   */\n  tag_33\n  jumpi\n    /* \"#utility.yul\":515:516   */\n  0x00\n    /* \"#utility.yul\":512:513   */\n  dup1\n    /* \"#utility.yul\":505:517   */\n  revert\n    /* \"#utility.yul\":464:466   */\ntag_33:\n    /* \"#utility.yul\":548:554   */\n  dup2\n    /* \"#utility.yul\":542:555   */\n  mload\n    /* \"#utility.yul\":573:663   */\n  tag_34\n    /* \"#utility.yul\":659:662   */\n  dup5\n    /* \"#utility.yul\":651:657   */\n  dup3\n    /* \"#utility.yul\":644:648   */\n  0x20\n    /* \"#utility.yul\":636:642   */\n  dup7\n    /* \"#utility.yul\":632:649   */\n  add\n    /* \"#utility.yul\":573:663   */\n  tag_22\n  jump\t// in\ntag_34:\n    /* \"#utility.yul\":564:663   */\n  swap2\n  pop\n    /* \"#utility.yul\":454:669   */\n  pop\n  swap3\n  swap2\n  pop\n  pop\n  jump\t// out\n    /* \"#utility.yul\":675:818   */\ntag_35:\n    /* \"#utility.yul\":732:737   */\n  0x00\n    /* \"#utility.yul\":763:769   */\n  dup2\n    /* \"#utility.yul\":757:770   */\n  mload\n    /* \"#utility.yul\":748:770   */\n  swap1\n  pop\n    /* \"#utility.yul\":779:812   */\n  tag_37\n    /* \"#utility.yul\":806:811   */\n  dup2\n    /* \"#utility.yul\":779:812   */\n  tag_38\n  jump\t// in\ntag_37:\n    /* \"#utility.yul\":738:818   */\n  swap3\n  swap2\n  pop\n  pop\n  jump\t// out\n    /* \"#utility.yul\":824:1632   */\ntag_3:\n    /* \"#utility.yul\":932:938   */\n  0x00\n    /* \"#utility.yul\":940:946   */\n  dup1\n    /* \"#utility.yul\":948:954   */\n  0x00\n    /* \"#utility.yul\":997:999   */\n  0x60\n    /* \"#utility.yul\":985:994   */\n  dup5\n    /* \"#utility.yul\":976:983   */\n  dup7\n    /* \"#utility.yul\":972:995   */\n  sub\n    /* \"#utility.yul\":968:1000   */\n  slt\n    /* \"#utility.yul\":965:967   */\n  iszero\n  tag_40\n  jumpi\n    /* \"#utility.yul\":1013:1014   */\n  0x00\n    /* \"#utility.yul\":1010:1011   */\n  dup1\n    /* \"#utility.yul\":1003:1015   */\n  revert\n    /* \"#utility.yul\":965:967   */\ntag_40:\n    /* \"#utility.yul\":1077:1078   */\n  0x00\n    /* \"#utility.yul\":1066:1075   */\n  dup5\n    /* \"#utility.yul\":1062:1079   */\n  add\n    /* \"#utility.yul\":1056:1080   */\n  mload\n    /* \"#utility.yul\":1107:1125   */\n  0xffffffffffffffff\n    /* \"#utility.yul\":1099:1105   */\n  dup2\n    /* \"#utility.yul\":1096:1126   */\n  gt\n    /* \"#utility.yul\":1093:1095   */\n  iszero\n  tag_41\n  jumpi\n    /* \"#utility.yul\":1139:1140   */\n  0x00\n    /* \"#utility.yul\":1136:1137   */\n  dup1\n    /* \"#utility.yul\":1129:1141   */\n  revert\n    /* \"#utility.yul\":1093:1095   */\ntag_41:\n    /* \"#utility.yul\":1167:1241   */\n  tag_42\n    /* \"#utility.yul\":1233:1240   */\n  dup7\n    /* \"#utility.yul\":1224:1230   */\n  dup3\n    /* \"#utility.yul\":1213:1222   */\n  dup8\n    /* \"#utility.yul\":1209:1231   */\n  add\n    /* \"#utility.yul\":1167:1241   */\n  tag_31\n  jump\t// in\ntag_42:\n    /* \"#utility.yul\":1157:1241   */\n  swap4\n  pop\n    /* \"#utility.yul\":1027:1251   */\n  pop\n    /* \"#utility.yul\":1311:1313   */\n  0x20\n    /* \"#utility.yul\":1300:1309   */\n  dup5\n    /* \"#utility.yul\":1296:1314   */\n  add\n    /* \"#utility.yul\":1290:1315   */\n  mload\n    /* \"#utility.yul\":1342:1360   */\n  0xffffffffffffffff\n    /* \"#utility.yul\":1334:1340   */\n  dup2\n    /* \"#utility.yul\":1331:1361   */\n  gt\n    /* \"#utility.yul\":1328:1330   */\n  iszero\n  tag_43\n  jumpi\n    /* \"#utility.yul\":1374:1375   */\n  0x00\n    /* \"#utility.yul\":1371:1372   */\n  dup1\n    /* \"#utility.yul\":1364:1376   */\n  revert\n    /* \"#utility.yul\":1328:1330   */\ntag_43:\n    /* \"#utility.yul\":1402:1476   */\n  tag_44\n    /* \"#utility.yul\":1468:1475   */\n  dup7\n    /* \"#utility.yul\":1459:1465   */\n  dup3\n    /* \"#utility.yul\":1448:1457   */\n  dup8\n    /* \"#utility.yul\":1444:1466   */\n  add\n    /* \"#utility.yul\":1402:1476   */\n  tag_31\n  jump\t// in\ntag_44:\n    /* \"#utility.yul\":1392:1476   */\n  swap3\n  pop\n    /* \"#utility.yul\":1261:1486   */\n  pop\n    /* \"#utility.yul\":1525:1527   */\n  0x40\n    /* \"#utility.yul\":1551:1615   */\n  tag_45\n    /* \"#utility.yul\":1607:1614   */\n  dup7\n    /* \"#utility.yul\":1598:1604   */\n  dup3\n    /* \"#utility.yul\":1587:1596   */\n  dup8\n    /* \"#utility.yul\":1583:1605   */\n  add\n    /* \"#utility.yul\":1551:1615   */\n  tag_35\n  jump\t// in\ntag_45:\n    /* \"#utility.yul\":1541:1615   */\n  swap2\n  pop\n    /* \"#utility.yul\":1496:1625   */\n  pop\n    /* \"#utility.yul\":955:1632   */\n  swap3\n  pop\n  swap3\n  pop\n  swap3\n  jump\t// out\n    /* \"#utility.yul\":1638:1767   */\ntag_27:\n    /* \"#utility.yul\":1672:1678   */\n  0x00\n    /* \"#utility.yul\":1699:1719   */\n  tag_47\n  tag_48\n  jump\t// in\ntag_47:\n    /* \"#utility.yul\":1689:1719   */\n  swap1\n  pop\n    /* \"#utility.yul\":1728:1761   */\n  tag_49\n    /* \"#utility.yul\":1756:1760   */\n  dup3\n    /* \"#utility.yul\":1748:1754   */\n  dup3\n    /* \"#utility.yul\":1728:1761   */\n  tag_50\n  jump\t// in\ntag_49:\n    /* \"#utility.yul\":1679:1767   */\n  swap2\n  swap1\n  pop\n  jump\t// out\n    /* \"#utility.yul\":1773:1848   */\ntag_48:\n    /* \"#utility.yul\":1806:1812   */\n  0x00\n    /* \"#utility.yul\":1839:1841   */\n  0x40\n    /* \"#utility.yul\":1833:1842   */\n  mload\n    /* \"#utility.yul\":1823:1842   */\n  swap1\n  pop\n    /* \"#utility.yul\":1813:1848   */\n  swap1\n  jump\t// out\n    /* \"#utility.yul\":1854:2162   */\ntag_26:\n    /* \"#utility.yul\":1916:1920   */\n  0x00\n    /* \"#utility.yul\":2006:2024   */\n  0xffffffffffffffff\n    /* \"#utility.yul\":1998:2004   */\n  dup3\n    /* \"#utility.yul\":1995:2025   */\n  gt\n    /* \"#utility.yul\":1992:1994   */\n  iszero\n  tag_53\n  jumpi\n    /* \"#utility.yul\":2028:2046   */\n  tag_54\n  tag_55\n  jump\t// in\ntag_54:\n    /* \"#utility.yul\":1992:1994   */\ntag_53:\n    /* \"#utility.yul\":2066:2095   */\n  tag_56\n    /* \"#utility.yul\":2088:2094   */\n  dup3\n    /* \"#utility.yul\":2066:2095   */\n  tag_57\n  jump\t// in\ntag_56:\n    /* \"#utility.yul\":2058:2095   */\n  swap1\n  pop\n    /* \"#utility.yul\":2150:2154   */\n  0x20\n    /* \"#utility.yul\":2144:2148   */\n  dup2\n    /* \"#utility.yul\":2140:2155   */\n  add\n    /* \"#utility.yul\":2132:2155   */\n  swap1\n  pop\n    /* \"#utility.yul\":1921:2162   */\n  swap2\n  swap1\n  pop\n  jump\t// out\n    /* \"#utility.yul\":2168:2245   */\ntag_58:\n    /* \"#utility.yul\":2205:2212   */\n  0x00\n    /* \"#utility.yul\":2234:2239   */\n  dup2\n    /* \"#utility.yul\":2223:2239   */\n  swap1\n  pop\n    /* \"#utility.yul\":2213:2245   */\n  swap2\n  swap1\n  pop\n  jump\t// out\n    /* \"#utility.yul\":2251:2558   */\ntag_30:\n    /* \"#utility.yul\":2319:2320   */\n  0x00\n    /* \"#utility.yul\":2329:2442   */\ntag_61:\n    /* \"#utility.yul\":2343:2349   */\n  dup4\n    /* \"#utility.yul\":2340:2341   */\n  dup2\n    /* \"#utility.yul\":2337:2350   */\n  lt\n    /* \"#utility.yul\":2329:2442   */\n  iszero\n  tag_63\n  jumpi\n    /* \"#utility.yul\":2428:2429   */\n  dup1\n    /* \"#utility.yul\":2423:2426   */\n  dup3\n    /* \"#utility.yul\":2419:2430   */\n  add\n    /* \"#utility.yul\":2413:2431   */\n  mload\n    /* \"#utility.yul\":2409:2410   */\n  dup2\n    /* \"#utility.yul\":2404:2407   */\n  dup5\n    /* \"#utility.yul\":2400:2411   */\n  add\n    /* \"#utility.yul\":2393:2432   */\n  mstore\n    /* \"#utility.yul\":2365:2367   */\n  0x20\n    /* \"#utility.yul\":2362:2363   */\n  dup2\n    /* \"#utility.yul\":2358:2368   */\n  add\n    /* \"#utility.yul\":2353:2368   */\n  swap1\n  pop\n    /* \"#utility.yul\":2329:2442   */\n  jump(tag_61)\ntag_63:\n    /* \"#utility.yul\":2460:2466   */\n  dup4\n    /* \"#utility.yul\":2457:2458   */\n  dup2\n    /* \"#utility.yul\":2454:2467   */\n  gt\n    /* \"#utility.yul\":2451:2453   */\n  iszero\n  tag_64\n  jumpi\n    /* \"#utility.yul\":2540:2541   */\n  0x00\n    /* \"#utility.yul\":2531:2537   */\n  dup5\n    /* \"#utility.yul\":2526:2529   */\n  dup5\n    /* \"#utility.yul\":2522:2538   */\n  add\n    /* \"#utility.yul\":2515:2542   */\n  mstore\n    /* \"#utility.yul\":2451:2453   */\ntag_64:\n    /* \"#utility.yul\":2300:2558   */\n  pop\n  pop\n  pop\n  pop\n  jump\t// out\n    /* \"#utility.yul\":2564:2884   */\ntag_11:\n    /* \"#utility.yul\":2608:2614   */\n  0x00\n    /* \"#utility.yul\":2645:2646   */\n  0x02\n    /* \"#utility.yul\":2639:2643   */\n  dup3\n    /* \"#utility.yul\":2635:2647   */\n  div\n    /* \"#utility.yul\":2625:2647   */\n  swap1\n  pop\n    /* \"#utility.yul\":2692:2693   */\n  0x01\n    /* \"#utility.yul\":2686:2690   */\n  dup3\n    /* \"#utility.yul\":2682:2694   */\n  and\n    /* \"#utility.yul\":2713:2731   */\n  dup1\n    /* \"#utility.yul\":2703:2705   */\n  tag_66\n  jumpi\n    /* \"#utility.yul\":2769:2773   */\n  0x7f\n    /* \"#utility.yul\":2761:2767   */\n  dup3\n    /* \"#utility.yul\":2757:2774   */\n  and\n    /* \"#utility.yul\":2747:2774   */\n  swap2\n  pop\n    /* \"#utility.yul\":2703:2705   */\ntag_66:\n    /* \"#utility.yul\":2831:2833   */\n  0x20\n    /* \"#utility.yul\":2823:2829   */\n  dup3\n    /* \"#utility.yul\":2820:2834   */\n  lt\n    /* \"#utility.yul\":2800:2818   */\n  dup2\n    /* \"#utility.yul\":2797:2835   */\n  eq\n    /* \"#utility.yul\":2794:2796   */\n  iszero\n  tag_67\n  jumpi\n    /* \"#utility.yul\":2850:2868   */\n  tag_68\n  tag_69\n  jump\t// in\ntag_68:\n    /* \"#utility.yul\":2794:2796   */\ntag_67:\n    /* \"#utility.yul\":2615:2884   */\n  pop\n  swap2\n  swap1\n  pop\n  jump\t// out\n    /* \"#utility.yul\":2890:3171   */\ntag_50:\n    /* \"#utility.yul\":2973:3000   */\n  tag_71\n    /* \"#utility.yul\":2995:2999   */\n  dup3\n    /* \"#utility.yul\":2973:3000   */\n  tag_57\n  jump\t// in\ntag_71:\n    /* \"#utility.yul\":2965:2971   */\n  dup2\n    /* \"#utility.yul\":2961:3001   */\n  add\n    /* \"#utility.yul\":3103:3109   */\n  dup2\n    /* \"#utility.yul\":3091:3101   */\n  dup2\n    /* \"#utility.yul\":3088:3110   */\n  lt\n    /* \"#utility.yul\":3067:3085   */\n  0xffffffffffffffff\n    /* \"#utility.yul\":3055:3065   */\n  dup3\n    /* \"#utility.yul\":3052:3086   */\n  gt\n    /* \"#utility.yul\":3049:3111   */\n  or\n    /* \"#utility.yul\":3046:3048   */\n  iszero\n  tag_72\n  jumpi\n    /* \"#utility.yul\":3114:3132   */\n  tag_73\n  tag_55\n  jump\t// in\ntag_73:\n    /* \"#utility.yul\":3046:3048   */\ntag_72:\n    /* \"#utility.yul\":3154:3164   */\n  dup1\n    /* \"#utility.yul\":3150:3152   */\n  0x40\n    /* \"#utility.yul\":3143:3165   */\n  mstore\n    /* \"#utility.yul\":2933:3171   */\n  pop\n  pop\n  pop\n  jump\t// out\n    /* \"#utility.yul\":3177:3357   */\ntag_69:\n    /* \"#utility.yul\":3225:3302   */\n  0x4e487b7100000000000000000000000000000000000000000000000000000000\n    /* \"#utility.yul\":3222:3223   */\n  0x00\n    /* \"#utility.yul\":3215:3303   */\n  mstore\n    /* \"#utility.yul\":3322:3326   */\n  0x22\n    /* \"#utility.yul\":3319:3320   */\n  0x04\n    /* \"#utility.yul\":3312:3327   */\n  mstore\n    /* \"#utility.yul\":3346:3350   */\n  0x24\n    /* \"#utility.yul\":3343:3344   */\n  0x00\n    /* \"#utility.yul\":3336:3351   */\n  revert\n    /* \"#utility.yul\":3363:3543   */\ntag_55:\n    /* \"#utility.yul\":3411:3488   */\n  0x4e487b7100000000000000000000000000000000000000000000000000000000\n    /* \"#utility.yul\":3408:3409   */\n  0x00\n    /* \"#utility.yul\":3401:3489   */\n  mstore\n    /* \"#utility.yul\":3508:3512   */\n  0x41\n    /* \"#utility.yul\":3505:3506   */\n  0x04\n    /* \"#utility.yul\":3498:3513   */\n  mstore\n    /* \"#utility.yul\":3532:3536   */\n  0x24\n    /* \"#utility.yul\":3529:3530   */\n  0x00\n    /* \"#utility.yul\":3522:3537   */\n  revert\n    /* \"#utility.yul\":3549:3651   */\ntag_57:\n    /* \"#utility.yul\":3590:3596   */\n  0x00\n    /* \"#utility.yul\":3641:3643   */\n  0x1f\n    /* \"#utility.yul\":3637:3644   */\n  not\n    /* \"#utility.yul\":3632:3634   */\n  0x1f\n    /* \"#utility.yul\":3625:3630   */\n  dup4\n    /* \"#utility.yul\":3621:3635   */\n  add\n    /* \"#utility.yul\":3617:3645   */\n  and\n    /* \"#utility.yul\":3607:3645   */\n  swap1\n  pop\n    /* \"#utility.yul\":3597:3651   */\n  swap2\n  swap1\n  pop\n  jump\t// out\n    /* \"#utility.yul\":3657:3779   */\ntag_38:\n    /* \"#utility.yul\":3730:3754   */\n  tag_78\n    /* \"#utility.yul\":3748:3753   */\n  dup2\n    /* \"#utility.yul\":3730:3754   */\n  tag_58\n  jump\t// in\ntag_78:\n    /* \"#utility.yul\":3723:3728   */\n  dup2\n    /* \"#utility.yul\":3720:3755   */\n  eq\n    /* \"#utility.yul\":3710:3712   */\n  tag_79\n  jumpi\n    /* \"#utility.yul\":3769:3770   */\n  0x00\n    /* \"#utility.yul\":3766:3767   */\n  dup1\n    /* \"#utility.yul\":3759:3771   */\n  revert\n    /* \"#utility.yul\":3710:3712   */\ntag_79:\n    /* \"#utility.yul\":3700:3779   */\n  pop\n  jump\t// out\n    /* \"Unsigned Integer Types Optimizer/optimized_test24.sol\":56:834  contract Token {... */\ntag_9:\n  dataSize(sub_0)\n  dup1\n  dataOffset(sub_0)\n  0x00\n  codecopy\n  0x00\n  return\nstop\n\nsub_0: assembly {\n        /* \"Unsigned Integer Types Optimizer/optimized_test24.sol\":56:834  contract Token {... */\n      mstore(0x40, 0x80)\n      callvalue\n      dup1\n      iszero\n      tag_1\n      jumpi\n      0x00\n      dup1\n      revert\n    tag_1:\n      pop\n      jumpi(tag_2, lt(calldatasize, 0x04))\n      shr(0xe0, calldataload(0x00))\n      dup1\n      0x8da5cb5b\n      gt\n      tag_10\n      jumpi\n      dup1\n      0x8da5cb5b\n      eq\n      tag_6\n      jumpi\n      dup1\n      0x95d89b41\n      eq\n      tag_7\n      jumpi\n      dup1\n      0xa9059cbb\n      eq\n      tag_8\n      jumpi\n      dup1\n      0xc5cafc2a\n      eq\n      tag_9\n      jumpi\n      jump(tag_2)\n    tag_10:\n      dup1\n      0x06fdde03\n      eq\n      tag_3\n      jumpi\n      dup1\n      0x18160ddd\n      eq\n      tag_4\n      jumpi\n      dup1\n      0x70a08231\n      eq\n      tag_5\n      jumpi\n    tag_2:\n      0x00\n      dup1\n      revert\n        /* \"Unsigned Integer Types Optimizer/optimized_test24.sol\":103:121  string public name */\n    tag_3:\n      tag_11\n      tag_12\n      jump\t// in\n    tag_11:\n      mload(0x40)\n      tag_13\n      swap2\n      swap1\n      tag_14\n      jump\t// in\n    tag_13:\n      mload(0x40)\n      dup1\n      swap2\n      sub\n      swap1\n      return\n        /* \"Unsigned Integer Types Optimizer/optimized_test24.sol\":153:179  uint256 public totalSupply */\n    tag_4:\n      tag_15\n      tag_16\n      jump\t// in\n    tag_15:\n      mload(0x40)\n      tag_17\n      swap2\n      swap1\n      tag_18\n      jump\t// in\n    tag_17:\n      mload(0x40)\n      dup1\n      swap2\n      sub\n      swap1\n      return\n        /* \"Unsigned Integer Types Optimizer/optimized_test24.sol\":186:230  mapping(address => uint256) public balanceOf */\n    tag_5:\n      tag_19\n      0x04\n      dup1\n      calldatasize\n      sub\n      dup2\n      add\n      swap1\n      tag_20\n      swap2\n      swap1\n      tag_21\n      jump\t// in\n    tag_20:\n      tag_22\n      jump\t// in\n    tag_19:\n      mload(0x40)\n      tag_23\n      swap2\n      swap1\n      tag_18\n      jump\t// in\n    tag_23:\n      mload(0x40)\n      dup1\n      swap2\n      sub\n      swap1\n      return\n        /* \"Unsigned Integer Types Optimizer/optimized_test24.sol\":77:97  address public owner */\n    tag_6:\n      tag_24\n      tag_25\n      jump\t// in\n    tag_24:\n      mload(0x40)\n      tag_26\n      swap2\n      swap1\n      tag_27\n      jump\t// in\n    tag_26:\n      mload(0x40)\n      dup1\n      swap2\n      sub\n      swap1\n      return\n        /* \"Unsigned Integer Types Optimizer/optimized_test24.sol\":127:147  string public symbol */\n    tag_7:\n      tag_28\n      tag_29\n      jump\t// in\n    tag_28:\n      mload(0x40)\n      tag_30\n      swap2\n      swap1\n      tag_14\n      jump\t// in\n    tag_30:\n      mload(0x40)\n      dup1\n      swap2\n      sub\n      swap1\n      return\n        /* \"Unsigned Integer Types Optimizer/optimized_test24.sol\":486:750  function transfer(address to, uint256 amount) public {... */\n    tag_8:\n      tag_31\n      0x04\n      dup1\n      calldatasize\n      sub\n      dup2\n      add\n      swap1\n      tag_32\n      swap2\n      swap1\n      tag_33\n      jump\t// in\n    tag_32:\n      tag_34\n      jump\t// in\n    tag_31:\n      stop\n        /* \"Unsigned Integer Types Optimizer/optimized_test24.sol\":756:832  function checkNonZero(uint256 x) public pure {... */\n    tag_9:\n      tag_35\n      0x04\n      dup1\n      calldatasize\n      sub\n      dup2\n      add\n      swap1\n      tag_36\n      swap2\n      swap1\n      tag_37\n      jump\t// in\n    tag_36:\n      tag_38\n      jump\t// in\n    tag_35:\n      stop\n        /* \"Unsigned Integer Types Optimizer/optimized_test24.sol\":103:121  string public name */\n    tag_12:\n      0x01\n      dup1\n      sload\n      tag_39\n      swap1\n      tag_40\n      jump\t// in\n    tag_39:\n      dup1\n      0x1f\n      add\n      0x20\n      dup1\n      swap2\n      div\n      mul\n      0x20\n      add\n      mload(0x40)\n      swap1\n      dup2\n      add\n      0x40\n      mstore\n      dup1\n      swap3\n      swap2\n      swap1\n      dup2\n      dup2\n      mstore\n      0x20\n      add\n      dup3\n      dup1\n      sload\n      tag_41\n      swap1\n      tag_40\n      jump\t// in\n    tag_41:\n      dup1\n      iszero\n      tag_42\n      jumpi\n      dup1\n      0x1f\n      lt\n      tag_43\n      jumpi\n      0x0100\n      dup1\n      dup4\n      sload\n      div\n      mul\n      dup4\n      mstore\n      swap2\n      0x20\n      add\n      swap2\n      jump(tag_42)\n    tag_43:\n      dup3\n      add\n      swap2\n      swap1\n      0x00\n      mstore\n      keccak256(0x00, 0x20)\n      swap1\n    tag_44:\n      dup2\n      sload\n      dup2\n      mstore\n      swap1\n      0x01\n      add\n      swap1\n      0x20\n      add\n      dup1\n      dup4\n      gt\n      tag_44\n      jumpi\n      dup3\n      swap1\n      sub\n      0x1f\n      and\n      dup3\n      add\n      swap2\n    tag_42:\n      pop\n      pop\n      pop\n      pop\n      pop\n      dup2\n      jump\t// out\n        /* \"Unsigned Integer Types Optimizer/optimized_test24.sol\":153:179  uint256 public totalSupply */\n    tag_16:\n      sload(0x03)\n      dup2\n      jump\t// out\n        /* \"Unsigned Integer Types Optimizer/optimized_test24.sol\":186:230  mapping(address => uint256) public balanceOf */\n    tag_22:\n      mstore(0x20, 0x04)\n      dup1\n      0x00\n      mstore\n      keccak256(0x00, 0x40)\n      0x00\n      swap2\n      pop\n      swap1\n      pop\n      sload\n      dup2\n      jump\t// out\n        /* \"Unsigned Integer Types Optimizer/optimized_test24.sol\":77:97  address public owner */\n    tag_25:\n      0x00\n      dup1\n      sload\n      swap1\n      0x0100\n      exp\n      swap1\n      div\n      0xffffffffffffffffffffffffffffffffffffffff\n      and\n      dup2\n      jump\t// out\n        /* \"Unsigned Integer Types Optimizer/optimized_test24.sol\":127:147  string public symbol */\n    tag_29:\n      0x02\n      dup1\n      sload\n      tag_45\n      swap1\n      tag_40\n      jump\t// in\n    tag_45:\n      dup1\n      0x1f\n      add\n      0x20\n      dup1\n      swap2\n      div\n      mul\n      0x20\n      add\n      mload(0x40)\n      swap1\n      dup2\n      add\n      0x40\n      mstore\n      dup1\n      swap3\n      swap2\n      swap1\n      dup2\n      dup2\n      mstore\n      0x20\n      add\n      dup3\n      dup1\n      sload\n      tag_46\n      swap1\n      tag_40\n      jump\t// in\n    tag_46:\n      dup1\n      iszero\n      tag_47\n      jumpi\n      dup1\n      0x1f\n      lt\n      tag_48\n      jumpi\n      0x0100\n      dup1\n      dup4\n      sload\n      div\n      mul\n      dup4\n      mstore\n      swap2\n      0x20\n      add\n      swap2\n      jump(tag_47)\n    tag_48:\n      dup3\n      add\n      swap2\n      swap1\n      0x00\n      mstore\n      keccak256(0x00, 0x20)\n      swap1\n    tag_49:\n      dup2\n      sload\n      dup2\n      mstore\n      swap1\n      0x01\n      add\n      swap1\n      0x20\n      add\n      dup1\n      dup4\n      gt\n      tag_49\n      jumpi\n      dup3\n      swap1\n      sub\n      0x1f\n      and\n      dup3\n      add\n      swap2\n    tag_47:\n      pop\n      pop\n      pop\n      pop\n      pop\n      dup2\n      jump\t// out\n        /* \"Unsigned Integer Types Optimizer/optimized_test24.sol\":486:750  function transfer(address to, uint256 amount) public {... */\n    tag_34:\n        /* \"Unsigned Integer Types Optimizer/optimized_test24.sol\":582:588  amount */\n      dup1\n        /* \"Unsigned Integer Types Optimizer/optimized_test24.sol\":557:566  balanceOf */\n      0x04\n        /* \"Unsigned Integer Types Optimizer/optimized_test24.sol\":557:578  balanceOf[msg.sender] */\n      0x00\n        /* \"Unsigned Integer Types Optimizer/optimized_test24.sol\":567:577  msg.sender */\n      caller\n        /* \"Unsigned Integer Types Optimizer/optimized_test24.sol\":557:578  balanceOf[msg.sender] */\n      0xffffffffffffffffffffffffffffffffffffffff\n      and\n      0xffffffffffffffffffffffffffffffffffffffff\n      and\n      dup2\n      mstore\n      0x20\n      add\n      swap1\n      dup2\n      mstore\n      0x20\n      add\n      0x00\n      keccak256\n      sload\n        /* \"Unsigned Integer Types Optimizer/optimized_test24.sol\":557:588  balanceOf[msg.sender] >= amount */\n      lt\n      iszero\n        /* \"Unsigned Integer Types Optimizer/optimized_test24.sol\":549:614  require(balanceOf[msg.sender] >= amount, \"Insufficient balance.\") */\n      tag_51\n      jumpi\n      mload(0x40)\n      0x08c379a000000000000000000000000000000000000000000000000000000000\n      dup2\n      mstore\n      0x04\n      add\n      tag_52\n      swap1\n      tag_53\n      jump\t// in\n    tag_52:\n      mload(0x40)\n      dup1\n      swap2\n      sub\n      swap1\n      revert\n    tag_51:\n        /* \"Unsigned Integer Types Optimizer/optimized_test24.sol\":646:647  0 */\n      0x00\n        /* \"Unsigned Integer Types Optimizer/optimized_test24.sol\":632:648  to != address(0) */\n      0xffffffffffffffffffffffffffffffffffffffff\n      and\n        /* \"Unsigned Integer Types Optimizer/optimized_test24.sol\":632:634  to */\n      dup3\n        /* \"Unsigned Integer Types Optimizer/optimized_test24.sol\":632:648  to != address(0) */\n      0xffffffffffffffffffffffffffffffffffffffff\n      and\n      eq\n      iszero\n        /* \"Unsigned Integer Types Optimizer/optimized_test24.sol\":624:669  require(to != address(0), \"Invalid address.\") */\n      tag_54\n      jumpi\n      mload(0x40)\n      0x08c379a000000000000000000000000000000000000000000000000000000000\n      dup2\n      mstore\n      0x04\n      add\n      tag_55\n      swap1\n      tag_56\n      jump\t// in\n    tag_55:\n      mload(0x40)\n      dup1\n      swap2\n      sub\n      swap1\n      revert\n    tag_54:\n        /* \"Unsigned Integer Types Optimizer/optimized_test24.sol\":704:710  amount */\n      dup1\n        /* \"Unsigned Integer Types Optimizer/optimized_test24.sol\":679:688  balanceOf */\n      0x04\n        /* \"Unsigned Integer Types Optimizer/optimized_test24.sol\":679:700  balanceOf[msg.sender] */\n      0x00\n        /* \"Unsigned Integer Types Optimizer/optimized_test24.sol\":689:699  msg.sender */\n      caller\n        /* \"Unsigned Integer Types Optimizer/optimized_test24.sol\":679:700  balanceOf[msg.sender] */\n      0xffffffffffffffffffffffffffffffffffffffff\n      and\n      0xffffffffffffffffffffffffffffffffffffffff\n      and\n      dup2\n      mstore\n      0x20\n      add\n      swap1\n      dup2\n      mstore\n      0x20\n      add\n      0x00\n      keccak256\n      0x00\n        /* \"Unsigned Integer Types Optimizer/optimized_test24.sol\":679:710  balanceOf[msg.sender] -= amount */\n      dup3\n      dup3\n      sload\n      tag_57\n      swap2\n      swap1\n      tag_58\n      jump\t// in\n    tag_57:\n      swap3\n      pop\n      pop\n      dup2\n      swap1\n      sstore\n      pop\n        /* \"Unsigned Integer Types Optimizer/optimized_test24.sol\":737:743  amount */\n      dup1\n        /* \"Unsigned Integer Types Optimizer/optimized_test24.sol\":720:729  balanceOf */\n      0x04\n        /* \"Unsigned Integer Types Optimizer/optimized_test24.sol\":720:733  balanceOf[to] */\n      0x00\n        /* \"Unsigned Integer Types Optimizer/optimized_test24.sol\":730:732  to */\n      dup5\n        /* \"Unsigned Integer Types Optimizer/optimized_test24.sol\":720:733  balanceOf[to] */\n      0xffffffffffffffffffffffffffffffffffffffff\n      and\n      0xffffffffffffffffffffffffffffffffffffffff\n      and\n      dup2\n      mstore\n      0x20\n      add\n      swap1\n      dup2\n      mstore\n      0x20\n      add\n      0x00\n      keccak256\n      0x00\n        /* \"Unsigned Integer Types Optimizer/optimized_test24.sol\":720:743  balanceOf[to] += amount */\n      dup3\n      dup3\n      sload\n      tag_59\n      swap2\n      swap1\n      tag_60\n      jump\t// in\n    tag_59:\n      swap3\n      pop\n      pop\n      dup2\n      swap1\n      sstore\n      pop\n        /* \"Unsigned Integer Types Optimizer/optimized_test24.sol\":486:750  function transfer(address to, uint256 amount) public {... */\n      pop\n      pop\n      jump\t// out\n        /* \"Unsigned Integer Types Optimizer/optimized_test24.sol\":756:832  function checkNonZero(uint256 x) public pure {... */\n    tag_38:\n        /* \"Unsigned Integer Types Optimizer/optimized_test24.sol\":823:824  0 */\n      0x00\n        /* \"Unsigned Integer Types Optimizer/optimized_test24.sol\":819:820  x */\n      dup2\n        /* \"Unsigned Integer Types Optimizer/optimized_test24.sol\":819:824  x > 0 */\n      gt\n        /* \"Unsigned Integer Types Optimizer/optimized_test24.sol\":811:825  require(x > 0) */\n      tag_62\n      jumpi\n      0x00\n      dup1\n      revert\n    tag_62:\n        /* \"Unsigned Integer Types Optimizer/optimized_test24.sol\":756:832  function checkNonZero(uint256 x) public pure {... */\n      pop\n      jump\t// out\n        /* \"#utility.yul\":7:146   */\n    tag_64:\n        /* \"#utility.yul\":53:58   */\n      0x00\n        /* \"#utility.yul\":91:97   */\n      dup2\n        /* \"#utility.yul\":78:98   */\n      calldataload\n        /* \"#utility.yul\":69:98   */\n      swap1\n      pop\n        /* \"#utility.yul\":107:140   */\n      tag_66\n        /* \"#utility.yul\":134:139   */\n      dup2\n        /* \"#utility.yul\":107:140   */\n      tag_67\n      jump\t// in\n    tag_66:\n        /* \"#utility.yul\":59:146   */\n      swap3\n      swap2\n      pop\n      pop\n      jump\t// out\n        /* \"#utility.yul\":152:291   */\n    tag_68:\n        /* \"#utility.yul\":198:203   */\n      0x00\n        /* \"#utility.yul\":236:242   */\n      dup2\n        /* \"#utility.yul\":223:243   */\n      calldataload\n        /* \"#utility.yul\":214:243   */\n      swap1\n      pop\n        /* \"#utility.yul\":252:285   */\n      tag_70\n        /* \"#utility.yul\":279:284   */\n      dup2\n        /* \"#utility.yul\":252:285   */\n      tag_71\n      jump\t// in\n    tag_70:\n        /* \"#utility.yul\":204:291   */\n      swap3\n      swap2\n      pop\n      pop\n      jump\t// out\n        /* \"#utility.yul\":297:559   */\n    tag_21:\n        /* \"#utility.yul\":356:362   */\n      0x00\n        /* \"#utility.yul\":405:407   */\n      0x20\n        /* \"#utility.yul\":393:402   */\n      dup3\n        /* \"#utility.yul\":384:391   */\n      dup5\n        /* \"#utility.yul\":380:403   */\n      sub\n        /* \"#utility.yul\":376:408   */\n      slt\n        /* \"#utility.yul\":373:375   */\n      iszero\n      tag_73\n      jumpi\n        /* \"#utility.yul\":421:422   */\n      0x00\n        /* \"#utility.yul\":418:419   */\n      dup1\n        /* \"#utility.yul\":411:423   */\n      revert\n        /* \"#utility.yul\":373:375   */\n    tag_73:\n        /* \"#utility.yul\":464:465   */\n      0x00\n        /* \"#utility.yul\":489:542   */\n      tag_74\n        /* \"#utility.yul\":534:541   */\n      dup5\n        /* \"#utility.yul\":525:531   */\n      dup3\n        /* \"#utility.yul\":514:523   */\n      dup6\n        /* \"#utility.yul\":510:532   */\n      add\n        /* \"#utility.yul\":489:542   */\n      tag_64\n      jump\t// in\n    tag_74:\n        /* \"#utility.yul\":479:542   */\n      swap2\n      pop\n        /* \"#utility.yul\":435:552   */\n      pop\n        /* \"#utility.yul\":363:559   */\n      swap3\n      swap2\n      pop\n      pop\n      jump\t// out\n        /* \"#utility.yul\":565:972   */\n    tag_33:\n        /* \"#utility.yul\":633:639   */\n      0x00\n        /* \"#utility.yul\":641:647   */\n      dup1\n        /* \"#utility.yul\":690:692   */\n      0x40\n        /* \"#utility.yul\":678:687   */\n      dup4\n        /* \"#utility.yul\":669:676   */\n      dup6\n        /* \"#utility.yul\":665:688   */\n      sub\n        /* \"#utility.yul\":661:693   */\n      slt\n        /* \"#utility.yul\":658:660   */\n      iszero\n      tag_76\n      jumpi\n        /* \"#utility.yul\":706:707   */\n      0x00\n        /* \"#utility.yul\":703:704   */\n      dup1\n        /* \"#utility.yul\":696:708   */\n      revert\n        /* \"#utility.yul\":658:660   */\n    tag_76:\n        /* \"#utility.yul\":749:750   */\n      0x00\n        /* \"#utility.yul\":774:827   */\n      tag_77\n        /* \"#utility.yul\":819:826   */\n      dup6\n        /* \"#utility.yul\":810:816   */\n      dup3\n        /* \"#utility.yul\":799:808   */\n      dup7\n        /* \"#utility.yul\":795:817   */\n      add\n        /* \"#utility.yul\":774:827   */\n      tag_64\n      jump\t// in\n    tag_77:\n        /* \"#utility.yul\":764:827   */\n      swap3\n      pop\n        /* \"#utility.yul\":720:837   */\n      pop\n        /* \"#utility.yul\":876:878   */\n      0x20\n        /* \"#utility.yul\":902:955   */\n      tag_78\n        /* \"#utility.yul\":947:954   */\n      dup6\n        /* \"#utility.yul\":938:944   */\n      dup3\n        /* \"#utility.yul\":927:936   */\n      dup7\n        /* \"#utility.yul\":923:945   */\n      add\n        /* \"#utility.yul\":902:955   */\n      tag_68\n      jump\t// in\n    tag_78:\n        /* \"#utility.yul\":892:955   */\n      swap2\n      pop\n        /* \"#utility.yul\":847:965   */\n      pop\n        /* \"#utility.yul\":648:972   */\n      swap3\n      pop\n      swap3\n      swap1\n      pop\n      jump\t// out\n        /* \"#utility.yul\":978:1240   */\n    tag_37:\n        /* \"#utility.yul\":1037:1043   */\n      0x00\n        /* \"#utility.yul\":1086:1088   */\n      0x20\n        /* \"#utility.yul\":1074:1083   */\n      dup3\n        /* \"#utility.yul\":1065:1072   */\n      dup5\n        /* \"#utility.yul\":1061:1084   */\n      sub\n        /* \"#utility.yul\":1057:1089   */\n      slt\n        /* \"#utility.yul\":1054:1056   */\n      iszero\n      tag_80\n      jumpi\n        /* \"#utility.yul\":1102:1103   */\n      0x00\n        /* \"#utility.yul\":1099:1100   */\n      dup1\n        /* \"#utility.yul\":1092:1104   */\n      revert\n        /* \"#utility.yul\":1054:1056   */\n    tag_80:\n        /* \"#utility.yul\":1145:1146   */\n      0x00\n        /* \"#utility.yul\":1170:1223   */\n      tag_81\n        /* \"#utility.yul\":1215:1222   */\n      dup5\n        /* \"#utility.yul\":1206:1212   */\n      dup3\n        /* \"#utility.yul\":1195:1204   */\n      dup6\n        /* \"#utility.yul\":1191:1213   */\n      add\n        /* \"#utility.yul\":1170:1223   */\n      tag_68\n      jump\t// in\n    tag_81:\n        /* \"#utility.yul\":1160:1223   */\n      swap2\n      pop\n        /* \"#utility.yul\":1116:1233   */\n      pop\n        /* \"#utility.yul\":1044:1240   */\n      swap3\n      swap2\n      pop\n      pop\n      jump\t// out\n        /* \"#utility.yul\":1246:1364   */\n    tag_82:\n        /* \"#utility.yul\":1333:1357   */\n      tag_84\n        /* \"#utility.yul\":1351:1356   */\n      dup2\n        /* \"#utility.yul\":1333:1357   */\n      tag_85\n      jump\t// in\n    tag_84:\n        /* \"#utility.yul\":1328:1331   */\n      dup3\n        /* \"#utility.yul\":1321:1358   */\n      mstore\n        /* \"#utility.yul\":1311:1364   */\n      pop\n      pop\n      jump\t// out\n        /* \"#utility.yul\":1370:1734   */\n    tag_86:\n        /* \"#utility.yul\":1458:1461   */\n      0x00\n        /* \"#utility.yul\":1486:1525   */\n      tag_88\n        /* \"#utility.yul\":1519:1524   */\n      dup3\n        /* \"#utility.yul\":1486:1525   */\n      tag_89\n      jump\t// in\n    tag_88:\n        /* \"#utility.yul\":1541:1612   */\n      tag_90\n        /* \"#utility.yul\":1605:1611   */\n      dup2\n        /* \"#utility.yul\":1600:1603   */\n      dup6\n        /* \"#utility.yul\":1541:1612   */\n      tag_91\n      jump\t// in\n    tag_90:\n        /* \"#utility.yul\":1534:1612   */\n      swap4\n      pop\n        /* \"#utility.yul\":1621:1673   */\n      tag_92\n        /* \"#utility.yul\":1666:1672   */\n      dup2\n        /* \"#utility.yul\":1661:1664   */\n      dup6\n        /* \"#utility.yul\":1654:1658   */\n      0x20\n        /* \"#utility.yul\":1647:1652   */\n      dup7\n        /* \"#utility.yul\":1643:1659   */\n      add\n        /* \"#utility.yul\":1621:1673   */\n      tag_93\n      jump\t// in\n    tag_92:\n        /* \"#utility.yul\":1698:1727   */\n      tag_94\n        /* \"#utility.yul\":1720:1726   */\n      dup2\n        /* \"#utility.yul\":1698:1727   */\n      tag_95\n      jump\t// in\n    tag_94:\n        /* \"#utility.yul\":1693:1696   */\n      dup5\n        /* \"#utility.yul\":1689:1728   */\n      add\n        /* \"#utility.yul\":1682:1728   */\n      swap2\n      pop\n        /* \"#utility.yul\":1462:1734   */\n      pop\n      swap3\n      swap2\n      pop\n      pop\n      jump\t// out\n        /* \"#utility.yul\":1740:2106   */\n    tag_96:\n        /* \"#utility.yul\":1882:1885   */\n      0x00\n        /* \"#utility.yul\":1903:1970   */\n      tag_98\n        /* \"#utility.yul\":1967:1969   */\n      0x10\n        /* \"#utility.yul\":1962:1965   */\n      dup4\n        /* \"#utility.yul\":1903:1970   */\n      tag_91\n      jump\t// in\n    tag_98:\n        /* \"#utility.yul\":1896:1970   */\n      swap2\n      pop\n        /* \"#utility.yul\":1979:2072   */\n      tag_99\n        /* \"#utility.yul\":2068:2071   */\n      dup3\n        /* \"#utility.yul\":1979:2072   */\n      tag_100\n      jump\t// in\n    tag_99:\n        /* \"#utility.yul\":2097:2099   */\n      0x20\n        /* \"#utility.yul\":2092:2095   */\n      dup3\n        /* \"#utility.yul\":2088:2100   */\n      add\n        /* \"#utility.yul\":2081:2100   */\n      swap1\n      pop\n        /* \"#utility.yul\":1886:2106   */\n      swap2\n      swap1\n      pop\n      jump\t// out\n        /* \"#utility.yul\":2112:2478   */\n    tag_101:\n        /* \"#utility.yul\":2254:2257   */\n      0x00\n        /* \"#utility.yul\":2275:2342   */\n      tag_103\n        /* \"#utility.yul\":2339:2341   */\n      0x15\n        /* \"#utility.yul\":2334:2337   */\n      dup4\n        /* \"#utility.yul\":2275:2342   */\n      tag_91\n      jump\t// in\n    tag_103:\n        /* \"#utility.yul\":2268:2342   */\n      swap2\n      pop\n        /* \"#utility.yul\":2351:2444   */\n      tag_104\n        /* \"#utility.yul\":2440:2443   */\n      dup3\n        /* \"#utility.yul\":2351:2444   */\n      tag_105\n      jump\t// in\n    tag_104:\n        /* \"#utility.yul\":2469:2471   */\n      0x20\n        /* \"#utility.yul\":2464:2467   */\n      dup3\n        /* \"#utility.yul\":2460:2472   */\n      add\n        /* \"#utility.yul\":2453:2472   */\n      swap1\n      pop\n        /* \"#utility.yul\":2258:2478   */\n      swap2\n      swap1\n      pop\n      jump\t// out\n        /* \"#utility.yul\":2484:2602   */\n    tag_106:\n        /* \"#utility.yul\":2571:2595   */\n      tag_108\n        /* \"#utility.yul\":2589:2594   */\n      dup2\n        /* \"#utility.yul\":2571:2595   */\n      tag_109\n      jump\t// in\n    tag_108:\n        /* \"#utility.yul\":2566:2569   */\n      dup3\n        /* \"#utility.yul\":2559:2596   */\n      mstore\n        /* \"#utility.yul\":2549:2602   */\n      pop\n      pop\n      jump\t// out\n        /* \"#utility.yul\":2608:2830   */\n    tag_27:\n        /* \"#utility.yul\":2701:2705   */\n      0x00\n        /* \"#utility.yul\":2739:2741   */\n      0x20\n        /* \"#utility.yul\":2728:2737   */\n      dup3\n        /* \"#utility.yul\":2724:2742   */\n      add\n        /* \"#utility.yul\":2716:2742   */\n      swap1\n      pop\n        /* \"#utility.yul\":2752:2823   */\n      tag_111\n        /* \"#utility.yul\":2820:2821   */\n      0x00\n        /* \"#utility.yul\":2809:2818   */\n      dup4\n        /* \"#utility.yul\":2805:2822   */\n      add\n        /* \"#utility.yul\":2796:2802   */\n      dup5\n        /* \"#utility.yul\":2752:2823   */\n      tag_82\n      jump\t// in\n    tag_111:\n        /* \"#utility.yul\":2706:2830   */\n      swap3\n      swap2\n      pop\n      pop\n      jump\t// out\n        /* \"#utility.yul\":2836:3149   */\n    tag_14:\n        /* \"#utility.yul\":2949:2953   */\n      0x00\n        /* \"#utility.yul\":2987:2989   */\n      0x20\n        /* \"#utility.yul\":2976:2985   */\n      dup3\n        /* \"#utility.yul\":2972:2990   */\n      add\n        /* \"#utility.yul\":2964:2990   */\n      swap1\n      pop\n        /* \"#utility.yul\":3036:3045   */\n      dup2\n        /* \"#utility.yul\":3030:3034   */\n      dup2\n        /* \"#utility.yul\":3026:3046   */\n      sub\n        /* \"#utility.yul\":3022:3023   */\n      0x00\n        /* \"#utility.yul\":3011:3020   */\n      dup4\n        /* \"#utility.yul\":3007:3024   */\n      add\n        /* \"#utility.yul\":3000:3047   */\n      mstore\n        /* \"#utility.yul\":3064:3142   */\n      tag_113\n        /* \"#utility.yul\":3137:3141   */\n      dup2\n        /* \"#utility.yul\":3128:3134   */\n      dup5\n        /* \"#utility.yul\":3064:3142   */\n      tag_86\n      jump\t// in\n    tag_113:\n        /* \"#utility.yul\":3056:3142   */\n      swap1\n      pop\n        /* \"#utility.yul\":2954:3149   */\n      swap3\n      swap2\n      pop\n      pop\n      jump\t// out\n        /* \"#utility.yul\":3155:3574   */\n    tag_56:\n        /* \"#utility.yul\":3321:3325   */\n      0x00\n        /* \"#utility.yul\":3359:3361   */\n      0x20\n        /* \"#utility.yul\":3348:3357   */\n      dup3\n        /* \"#utility.yul\":3344:3362   */\n      add\n        /* \"#utility.yul\":3336:3362   */\n      swap1\n      pop\n        /* \"#utility.yul\":3408:3417   */\n      dup2\n        /* \"#utility.yul\":3402:3406   */\n      dup2\n        /* \"#utility.yul\":3398:3418   */\n      sub\n        /* \"#utility.yul\":3394:3395   */\n      0x00\n        /* \"#utility.yul\":3383:3392   */\n      dup4\n        /* \"#utility.yul\":3379:3396   */\n      add\n        /* \"#utility.yul\":3372:3419   */\n      mstore\n        /* \"#utility.yul\":3436:3567   */\n      tag_115\n        /* \"#utility.yul\":3562:3566   */\n      dup2\n        /* \"#utility.yul\":3436:3567   */\n      tag_96\n      jump\t// in\n    tag_115:\n        /* \"#utility.yul\":3428:3567   */\n      swap1\n      pop\n        /* \"#utility.yul\":3326:3574   */\n      swap2\n      swap1\n      pop\n      jump\t// out\n        /* \"#utility.yul\":3580:3999   */\n    tag_53:\n        /* \"#utility.yul\":3746:3750   */\n      0x00\n        /* \"#utility.yul\":3784:3786   */\n      0x20\n        /* \"#utility.yul\":3773:3782   */\n      dup3\n        /* \"#utility.yul\":3769:3787   */\n      add\n        /* \"#utility.yul\":3761:3787   */\n      swap1\n      pop\n        /* \"#utility.yul\":3833:3842   */\n      dup2\n        /* \"#utility.yul\":3827:3831   */\n      dup2\n        /* \"#utility.yul\":3823:3843   */\n      sub\n        /* \"#utility.yul\":3819:3820   */\n      0x00\n        /* \"#utility.yul\":3808:3817   */\n      dup4\n        /* \"#utility.yul\":3804:3821   */\n      add\n        /* \"#utility.yul\":3797:3844   */\n      mstore\n        /* \"#utility.yul\":3861:3992   */\n      tag_117\n        /* \"#utility.yul\":3987:3991   */\n      dup2\n        /* \"#utility.yul\":3861:3992   */\n      tag_101\n      jump\t// in\n    tag_117:\n        /* \"#utility.yul\":3853:3992   */\n      swap1\n      pop\n        /* \"#utility.yul\":3751:3999   */\n      swap2\n      swap1\n      pop\n      jump\t// out\n        /* \"#utility.yul\":4005:4227   */\n    tag_18:\n        /* \"#utility.yul\":4098:4102   */\n      0x00\n        /* \"#utility.yul\":4136:4138   */\n      0x20\n        /* \"#utility.yul\":4125:4134   */\n      dup3\n        /* \"#utility.yul\":4121:4139   */\n      add\n        /* \"#utility.yul\":4113:4139   */\n      swap1\n      pop\n        /* \"#utility.yul\":4149:4220   */\n      tag_119\n        /* \"#utility.yul\":4217:4218   */\n      0x00\n        /* \"#utility.yul\":4206:4215   */\n      dup4\n        /* \"#utility.yul\":4202:4219   */\n      add\n        /* \"#utility.yul\":4193:4199   */\n      dup5\n        /* \"#utility.yul\":4149:4220   */\n      tag_106\n      jump\t// in\n    tag_119:\n        /* \"#utility.yul\":4103:4227   */\n      swap3\n      swap2\n      pop\n      pop\n      jump\t// out\n        /* \"#utility.yul\":4233:4332   */\n    tag_89:\n        /* \"#utility.yul\":4285:4291   */\n      0x00\n        /* \"#utility.yul\":4319:4324   */\n      dup2\n        /* \"#utility.yul\":4313:4325   */\n      mload\n        /* \"#utility.yul\":4303:4325   */\n      swap1\n      pop\n        /* \"#utility.yul\":4292:4332   */\n      swap2\n      swap1\n      pop\n      jump\t// out\n        /* \"#utility.yul\":4338:4507   */\n    tag_91:\n        /* \"#utility.yul\":4422:4433   */\n      0x00\n        /* \"#utility.yul\":4456:4462   */\n      dup3\n        /* \"#utility.yul\":4451:4454   */\n      dup3\n        /* \"#utility.yul\":4444:4463   */\n      mstore\n        /* \"#utility.yul\":4496:4500   */\n      0x20\n        /* \"#utility.yul\":4491:4494   */\n      dup3\n        /* \"#utility.yul\":4487:4501   */\n      add\n        /* \"#utility.yul\":4472:4501   */\n      swap1\n      pop\n        /* \"#utility.yul\":4434:4507   */\n      swap3\n      swap2\n      pop\n      pop\n      jump\t// out\n        /* \"#utility.yul\":4513:4818   */\n    tag_60:\n        /* \"#utility.yul\":4553:4556   */\n      0x00\n        /* \"#utility.yul\":4572:4592   */\n      tag_123\n        /* \"#utility.yul\":4590:4591   */\n      dup3\n        /* \"#utility.yul\":4572:4592   */\n      tag_109\n      jump\t// in\n    tag_123:\n        /* \"#utility.yul\":4567:4592   */\n      swap2\n      pop\n        /* \"#utility.yul\":4606:4626   */\n      tag_124\n        /* \"#utility.yul\":4624:4625   */\n      dup4\n        /* \"#utility.yul\":4606:4626   */\n      tag_109\n      jump\t// in\n    tag_124:\n        /* \"#utility.yul\":4601:4626   */\n      swap3\n      pop\n        /* \"#utility.yul\":4760:4761   */\n      dup3\n        /* \"#utility.yul\":4692:4758   */\n      0xffffffffffffffffffffffffffffffffffffffffffffffffffffffffffffffff\n        /* \"#utility.yul\":4688:4762   */\n      sub\n        /* \"#utility.yul\":4685:4686   */\n      dup3\n        /* \"#utility.yul\":4682:4763   */\n      gt\n        /* \"#utility.yul\":4679:4681   */\n      iszero\n      tag_125\n      jumpi\n        /* \"#utility.yul\":4766:4784   */\n      tag_126\n      tag_127\n      jump\t// in\n    tag_126:\n        /* \"#utility.yul\":4679:4681   */\n    tag_125:\n        /* \"#utility.yul\":4810:4811   */\n      dup3\n        /* \"#utility.yul\":4807:4808   */\n      dup3\n        /* \"#utility.yul\":4803:4812   */\n      add\n        /* \"#utility.yul\":4796:4812   */\n      swap1\n      pop\n        /* \"#utility.yul\":4557:4818   */\n      swap3\n      swap2\n      pop\n      pop\n      jump\t// out\n        /* \"#utility.yul\":4824:5015   */\n    tag_58:\n        /* \"#utility.yul\":4864:4868   */\n      0x00\n        /* \"#utility.yul\":4884:4904   */\n      tag_129\n        /* \"#utility.yul\":4902:4903   */\n      dup3\n        /* \"#utility.yul\":4884:4904   */\n      tag_109\n      jump\t// in\n    tag_129:\n        /* \"#utility.yul\":4879:4904   */\n      swap2\n      pop\n        /* \"#utility.yul\":4918:4938   */\n      tag_130\n        /* \"#utility.yul\":4936:4937   */\n      dup4\n        /* \"#utility.yul\":4918:4938   */\n      tag_109\n      jump\t// in\n    tag_130:\n        /* \"#utility.yul\":4913:4938   */\n      swap3\n      pop\n        /* \"#utility.yul\":4957:4958   */\n      dup3\n        /* \"#utility.yul\":4954:4955   */\n      dup3\n        /* \"#utility.yul\":4951:4959   */\n      lt\n        /* \"#utility.yul\":4948:4950   */\n      iszero\n      tag_131\n      jumpi\n        /* \"#utility.yul\":4962:4980   */\n      tag_132\n      tag_127\n      jump\t// in\n    tag_132:\n        /* \"#utility.yul\":4948:4950   */\n    tag_131:\n        /* \"#utility.yul\":5007:5008   */\n      dup3\n        /* \"#utility.yul\":5004:5005   */\n      dup3\n        /* \"#utility.yul\":5000:5009   */\n      sub\n        /* \"#utility.yul\":4992:5009   */\n      swap1\n      pop\n        /* \"#utility.yul\":4869:5015   */\n      swap3\n      swap2\n      pop\n      pop\n      jump\t// out\n        /* \"#utility.yul\":5021:5117   */\n    tag_85:\n        /* \"#utility.yul\":5058:5065   */\n      0x00\n        /* \"#utility.yul\":5087:5111   */\n      tag_134\n        /* \"#utility.yul\":5105:5110   */\n      dup3\n        /* \"#utility.yul\":5087:5111   */\n      tag_135\n      jump\t// in\n    tag_134:\n        /* \"#utility.yul\":5076:5111   */\n      swap1\n      pop\n        /* \"#utility.yul\":5066:5117   */\n      swap2\n      swap1\n      pop\n      jump\t// out\n        /* \"#utility.yul\":5123:5249   */\n    tag_135:\n        /* \"#utility.yul\":5160:5167   */\n      0x00\n        /* \"#utility.yul\":5200:5242   */\n      0xffffffffffffffffffffffffffffffffffffffff\n        /* \"#utility.yul\":5193:5198   */\n      dup3\n        /* \"#utility.yul\":5189:5243   */\n      and\n        /* \"#utility.yul\":5178:5243   */\n      swap1\n      pop\n        /* \"#utility.yul\":5168:5249   */\n      swap2\n      swap1\n      pop\n      jump\t// out\n        /* \"#utility.yul\":5255:5332   */\n    tag_109:\n        /* \"#utility.yul\":5292:5299   */\n      0x00\n        /* \"#utility.yul\":5321:5326   */\n      dup2\n        /* \"#utility.yul\":5310:5326   */\n      swap1\n      pop\n        /* \"#utility.yul\":5300:5332   */\n      swap2\n      swap1\n      pop\n      jump\t// out\n        /* \"#utility.yul\":5338:5645   */\n    tag_93:\n        /* \"#utility.yul\":5406:5407   */\n      0x00\n        /* \"#utility.yul\":5416:5529   */\n    tag_139:\n        /* \"#utility.yul\":5430:5436   */\n      dup4\n        /* \"#utility.yul\":5427:5428   */\n      dup2\n        /* \"#utility.yul\":5424:5437   */\n      lt\n        /* \"#utility.yul\":5416:5529   */\n      iszero\n      tag_141\n      jumpi\n        /* \"#utility.yul\":5515:5516   */\n      dup1\n        /* \"#utility.yul\":5510:5513   */\n      dup3\n        /* \"#utility.yul\":5506:5517   */\n      add\n        /* \"#utility.yul\":5500:5518   */\n      mload\n        /* \"#utility.yul\":5496:5497   */\n      dup2\n        /* \"#utility.yul\":5491:5494   */\n      dup5\n        /* \"#utility.yul\":5487:5498   */\n      add\n        /* \"#utility.yul\":5480:5519   */\n      mstore\n        /* \"#utility.yul\":5452:5454   */\n      0x20\n        /* \"#utility.yul\":5449:5450   */\n      dup2\n        /* \"#utility.yul\":5445:5455   */\n      add\n        /* \"#utility.yul\":5440:5455   */\n      swap1\n      pop\n        /* \"#utility.yul\":5416:5529   */\n      jump(tag_139)\n    tag_141:\n        /* \"#utility.yul\":5547:5553   */\n      dup4\n        /* \"#utility.yul\":5544:5545   */\n      dup2\n        /* \"#utility.yul\":5541:5554   */\n      gt\n        /* \"#utility.yul\":5538:5540   */\n      iszero\n      tag_142\n      jumpi\n        /* \"#utility.yul\":5627:5628   */\n      0x00\n        /* \"#utility.yul\":5618:5624   */\n      dup5\n        /* \"#utility.yul\":5613:5616   */\n      dup5\n        /* \"#utility.yul\":5609:5625   */\n      add\n        /* \"#utility.yul\":5602:5629   */\n      mstore\n        /* \"#utility.yul\":5538:5540   */\n    tag_142:\n        /* \"#utility.yul\":5387:5645   */\n      pop\n      pop\n      pop\n      pop\n      jump\t// out\n        /* \"#utility.yul\":5651:5971   */\n    tag_40:\n        /* \"#utility.yul\":5695:5701   */\n      0x00\n        /* \"#utility.yul\":5732:5733   */\n      0x02\n        /* \"#utility.yul\":5726:5730   */\n      dup3\n        /* \"#utility.yul\":5722:5734   */\n      div\n        /* \"#utility.yul\":5712:5734   */\n      swap1\n      pop\n        /* \"#utility.yul\":5779:5780   */\n      0x01\n        /* \"#utility.yul\":5773:5777   */\n      dup3\n        /* \"#utility.yul\":5769:5781   */\n      and\n        /* \"#utility.yul\":5800:5818   */\n      dup1\n        /* \"#utility.yul\":5790:5792   */\n      tag_144\n      jumpi\n        /* \"#utility.yul\":5856:5860   */\n      0x7f\n        /* \"#utility.yul\":5848:5854   */\n      dup3\n        /* \"#utility.yul\":5844:5861   */\n      and\n        /* \"#utility.yul\":5834:5861   */\n      swap2\n      pop\n        /* \"#utility.yul\":5790:5792   */\n    tag_144:\n        /* \"#utility.yul\":5918:5920   */\n      0x20\n        /* \"#utility.yul\":5910:5916   */\n      dup3\n        /* \"#utility.yul\":5907:5921   */\n      lt\n        /* \"#utility.yul\":5887:5905   */\n      dup2\n        /* \"#utility.yul\":5884:5922   */\n      eq\n        /* \"#utility.yul\":5881:5883   */\n      iszero\n      tag_145\n      jumpi\n        /* \"#utility.yul\":5937:5955   */\n      tag_146\n      tag_147\n      jump\t// in\n    tag_146:\n        /* \"#utility.yul\":5881:5883   */\n    tag_145:\n        /* \"#utility.yul\":5702:5971   */\n      pop\n      swap2\n      swap1\n      pop\n      jump\t// out\n        /* \"#utility.yul\":5977:6157   */\n    tag_127:\n        /* \"#utility.yul\":6025:6102   */\n      0x4e487b7100000000000000000000000000000000000000000000000000000000\n        /* \"#utility.yul\":6022:6023   */\n      0x00\n        /* \"#utility.yul\":6015:6103   */\n      mstore\n        /* \"#utility.yul\":6122:6126   */\n      0x11\n        /* \"#utility.yul\":6119:6120   */\n      0x04\n        /* \"#utility.yul\":6112:6127   */\n      mstore\n        /* \"#utility.yul\":6146:6150   */\n      0x24\n        /* \"#utility.yul\":6143:6144   */\n      0x00\n        /* \"#utility.yul\":6136:6151   */\n      revert\n        /* \"#utility.yul\":6163:6343   */\n    tag_147:\n        /* \"#utility.yul\":6211:6288   */\n      0x4e487b7100000000000000000000000000000000000000000000000000000000\n        /* \"#utility.yul\":6208:6209   */\n      0x00\n        /* \"#utility.yul\":6201:6289   */\n      mstore\n        /* \"#utility.yul\":6308:6312   */\n      0x22\n        /* \"#utility.yul\":6305:6306   */\n      0x04\n        /* \"#utility.yul\":6298:6313   */\n      mstore\n        /* \"#utility.yul\":6332:6336   */\n      0x24\n        /* \"#utility.yul\":6329:6330   */\n      0x00\n        /* \"#utility.yul\":6322:6337   */\n      revert\n        /* \"#utility.yul\":6349:6451   */\n    tag_95:\n        /* \"#utility.yul\":6390:6396   */\n      0x00\n        /* \"#utility.yul\":6441:6443   */\n      0x1f\n        /* \"#utility.yul\":6437:6444   */\n      not\n        /* \"#utility.yul\":6432:6434   */\n      0x1f\n        /* \"#utility.yul\":6425:6430   */\n      dup4\n        /* \"#utility.yul\":6421:6435   */\n      add\n        /* \"#utility.yul\":6417:6445   */\n      and\n        /* \"#utility.yul\":6407:6445   */\n      swap1\n      pop\n        /* \"#utility.yul\":6397:6451   */\n      swap2\n      swap1\n      pop\n      jump\t// out\n        /* \"#utility.yul\":6457:6623   */\n    tag_100:\n        /* \"#utility.yul\":6597:6615   */\n      0x496e76616c696420616464726573732e00000000000000000000000000000000\n        /* \"#utility.yul\":6593:6594   */\n      0x00\n        /* \"#utility.yul\":6585:6591   */\n      dup3\n        /* \"#utility.yul\":6581:6595   */\n      add\n        /* \"#utility.yul\":6574:6616   */\n      mstore\n        /* \"#utility.yul\":6563:6623   */\n      pop\n      jump\t// out\n        /* \"#utility.yul\":6629:6800   */\n    tag_105:\n        /* \"#utility.yul\":6769:6792   */\n      0x496e73756666696369656e742062616c616e63652e0000000000000000000000\n        /* \"#utility.yul\":6765:6766   */\n      0x00\n        /* \"#utility.yul\":6757:6763   */\n      dup3\n        /* \"#utility.yul\":6753:6767   */\n      add\n        /* \"#utility.yul\":6746:6793   */\n      mstore\n        /* \"#utility.yul\":6735:6800   */\n      pop\n      jump\t// out\n        /* \"#utility.yul\":6806:6928   */\n    tag_67:\n        /* \"#utility.yul\":6879:6903   */\n      tag_154\n        /* \"#utility.yul\":6897:6902   */\n      dup2\n        /* \"#utility.yul\":6879:6903   */\n      tag_85\n      jump\t// in\n    tag_154:\n        /* \"#utility.yul\":6872:6877   */\n      dup2\n        /* \"#utility.yul\":6869:6904   */\n      eq\n        /* \"#utility.yul\":6859:6861   */\n      tag_155\n      jumpi\n        /* \"#utility.yul\":6918:6919   */\n      0x00\n        /* \"#utility.yul\":6915:6916   */\n      dup1\n        /* \"#utility.yul\":6908:6920   */\n      revert\n        /* \"#utility.yul\":6859:6861   */\n    tag_155:\n        /* \"#utility.yul\":6849:6928   */\n      pop\n      jump\t// out\n        /* \"#utility.yul\":6934:7056   */\n    tag_71:\n        /* \"#utility.yul\":7007:7031   */\n      tag_157\n        /* \"#utility.yul\":7025:7030   */\n      dup2\n        /* \"#utility.yul\":7007:7031   */\n      tag_109\n      jump\t// in\n    tag_157:\n        /* \"#utility.yul\":7000:7005   */\n      dup2\n        /* \"#utility.yul\":6997:7032   */\n      eq\n        /* \"#utility.yul\":6987:6989   */\n      tag_158\n      jumpi\n        /* \"#utility.yul\":7046:7047   */\n      0x00\n        /* \"#utility.yul\":7043:7044   */\n      dup1\n        /* \"#utility.yul\":7036:7048   */\n      revert\n        /* \"#utility.yul\":6987:6989   */\n    tag_158:\n        /* \"#utility.yul\":6977:7056   */\n      pop\n      jump\t// out\n\n    auxdata: 0xa2646970667358221220452f86dea5b61a3501e91bee0904da3803eaffe1cd18418b6eb4167d5f080b3d64736f6c63430008040033\n}\n",
				"bytecode": {
					"linkReferences": {},
					"object": "60806040523480156200001157600080fd5b5060405162000d2d38038062000d2d833981810160405281019062000037919062000236565b336000806101000a81548173ffffffffffffffffffffffffffffffffffffffff021916908373ffffffffffffffffffffffffffffffffffffffff16021790555082600190805190602001906200008f929190620000fd565b508160029080519060200190620000a8929190620000fd565b508060038190555080600460003373ffffffffffffffffffffffffffffffffffffffff1673ffffffffffffffffffffffffffffffffffffffff1681526020019081526020016000208190555050505062000452565b8280546200010b906200035d565b90600052602060002090601f0160209004810192826200012f57600085556200017b565b82601f106200014a57805160ff19168380011785556200017b565b828001600101855582156200017b579182015b828111156200017a5782518255916020019190600101906200015d565b5b5090506200018a91906200018e565b5090565b5b80821115620001a95760008160009055506001016200018f565b5090565b6000620001c4620001be84620002e7565b620002be565b905082815260208101848484011115620001dd57600080fd5b620001ea84828562000327565b509392505050565b600082601f8301126200020457600080fd5b815162000216848260208601620001ad565b91505092915050565b600081519050620002308162000438565b92915050565b6000806000606084860312156200024c57600080fd5b600084015167ffffffffffffffff8111156200026757600080fd5b6200027586828701620001f2565b935050602084015167ffffffffffffffff8111156200029357600080fd5b620002a186828701620001f2565b9250506040620002b4868287016200021f565b9150509250925092565b6000620002ca620002dd565b9050620002d8828262000393565b919050565b6000604051905090565b600067ffffffffffffffff821115620003055762000304620003f8565b5b620003108262000427565b9050602081019050919050565b6000819050919050565b60005b83811015620003475780820151818401526020810190506200032a565b8381111562000357576000848401525b50505050565b600060028204905060018216806200037657607f821691505b602082108114156200038d576200038c620003c9565b5b50919050565b6200039e8262000427565b810181811067ffffffffffffffff82111715620003c057620003bf620003f8565b5b80604052505050565b7f4e487b7100000000000000000000000000000000000000000000000000000000600052602260045260246000fd5b7f4e487b7100000000000000000000000000000000000000000000000000000000600052604160045260246000fd5b6000601f19601f8301169050919050565b62000443816200031d565b81146200044f57600080fd5b50565b6108cb80620004626000396000f3fe608060405234801561001057600080fd5b506004361061007d5760003560e01c80638da5cb5b1161005b5780638da5cb5b146100ee57806395d89b411461010c578063a9059cbb1461012a578063c5cafc2a146101465761007d565b806306fdde031461008257806318160ddd146100a057806370a08231146100be575b600080fd5b61008a610162565b60405161009791906105e2565b60405180910390f35b6100a86101f0565b6040516100b59190610644565b60405180910390f35b6100d860048036038101906100d3919061049c565b6101f6565b6040516100e59190610644565b60405180910390f35b6100f661020e565b60405161010391906105c7565b60405180910390f35b610114610232565b60405161012191906105e2565b60405180910390f35b610144600480360381019061013f91906104c5565b6102c0565b005b610160600480360381019061015b9190610501565b610462565b005b6001805461016f90610774565b80601f016020809104026020016040519081016040528092919081815260200182805461019b90610774565b80156101e85780601f106101bd576101008083540402835291602001916101e8565b820191906000526020600020905b8154815290600101906020018083116101cb57829003601f168201915b505050505081565b60035481565b60046020528060005260406000206000915090505481565b60008054906101000a900473ffffffffffffffffffffffffffffffffffffffff1681565b6002805461023f90610774565b80601f016020809104026020016040519081016040528092919081815260200182805461026b90610774565b80156102b85780601f1061028d576101008083540402835291602001916102b8565b820191906000526020600020905b81548152906001019060200180831161029b57829003601f168201915b505050505081565b80600460003373ffffffffffffffffffffffffffffffffffffffff1673ffffffffffffffffffffffffffffffffffffffff168152602001908152602001600020541015610342576040517f08c379a000000000000000000000000000000000000000000000000000000000815260040161033990610624565b60405180910390fd5b600073ffffffffffffffffffffffffffffffffffffffff168273ffffffffffffffffffffffffffffffffffffffff1614156103b2576040517f08c379a00000000000000000000000000000000000000000000000000000000081526004016103a990610604565b60405180910390fd5b80600460003373ffffffffffffffffffffffffffffffffffffffff1673ffffffffffffffffffffffffffffffffffffffff168152602001908152602001600020600082825461040191906106d1565b9250508190555080600460008473ffffffffffffffffffffffffffffffffffffffff1673ffffffffffffffffffffffffffffffffffffffff1681526020019081526020016000206000828254610457919061067b565b925050819055505050565b6000811161046f57600080fd5b50565b60008135905061048181610867565b92915050565b6000813590506104968161087e565b92915050565b6000602082840312156104ae57600080fd5b60006104bc84828501610472565b91505092915050565b600080604083850312156104d857600080fd5b60006104e685828601610472565b92505060206104f785828601610487565b9150509250929050565b60006020828403121561051357600080fd5b600061052184828501610487565b91505092915050565b61053381610705565b82525050565b60006105448261065f565b61054e818561066a565b935061055e818560208601610741565b61056781610804565b840191505092915050565b600061057f60108361066a565b915061058a82610815565b602082019050919050565b60006105a260158361066a565b91506105ad8261083e565b602082019050919050565b6105c181610737565b82525050565b60006020820190506105dc600083018461052a565b92915050565b600060208201905081810360008301526105fc8184610539565b905092915050565b6000602082019050818103600083015261061d81610572565b9050919050565b6000602082019050818103600083015261063d81610595565b9050919050565b600060208201905061065960008301846105b8565b92915050565b600081519050919050565b600082825260208201905092915050565b600061068682610737565b915061069183610737565b9250827fffffffffffffffffffffffffffffffffffffffffffffffffffffffffffffffff038211156106c6576106c56107a6565b5b828201905092915050565b60006106dc82610737565b91506106e783610737565b9250828210156106fa576106f96107a6565b5b828203905092915050565b600061071082610717565b9050919050565b600073ffffffffffffffffffffffffffffffffffffffff82169050919050565b6000819050919050565b60005b8381101561075f578082015181840152602081019050610744565b8381111561076e576000848401525b50505050565b6000600282049050600182168061078c57607f821691505b602082108114156107a05761079f6107d5565b5b50919050565b7f4e487b7100000000000000000000000000000000000000000000000000000000600052601160045260246000fd5b7f4e487b7100000000000000000000000000000000000000000000000000000000600052602260045260246000fd5b6000601f19601f8301169050919050565b7f496e76616c696420616464726573732e00000000000000000000000000000000600082015250565b7f496e73756666696369656e742062616c616e63652e0000000000000000000000600082015250565b61087081610705565b811461087b57600080fd5b50565b61088781610737565b811461089257600080fd5b5056fea2646970667358221220452f86dea5b61a3501e91bee0904da3803eaffe1cd18418b6eb4167d5f080b3d64736f6c63430008040033",
					"opcodes": "PUSH1 0x80 PUSH1 0x40 MSTORE CALLVALUE DUP1 ISZERO PUSH3 0x11 JUMPI PUSH1 0x0 DUP1 REVERT JUMPDEST POP PUSH1 0x40 MLOAD PUSH3 0xD2D CODESIZE SUB DUP1 PUSH3 0xD2D DUP4 CODECOPY DUP2 DUP2 ADD PUSH1 0x40 MSTORE DUP2 ADD SWAP1 PUSH3 0x37 SWAP2 SWAP1 PUSH3 0x236 JUMP JUMPDEST CALLER PUSH1 0x0 DUP1 PUSH2 0x100 EXP DUP2 SLOAD DUP2 PUSH20 0xFFFFFFFFFFFFFFFFFFFFFFFFFFFFFFFFFFFFFFFF MUL NOT AND SWAP1 DUP4 PUSH20 0xFFFFFFFFFFFFFFFFFFFFFFFFFFFFFFFFFFFFFFFF AND MUL OR SWAP1 SSTORE POP DUP3 PUSH1 0x1 SWAP1 DUP1 MLOAD SWAP1 PUSH1 0x20 ADD SWAP1 PUSH3 0x8F SWAP3 SWAP2 SWAP1 PUSH3 0xFD JUMP JUMPDEST POP DUP2 PUSH1 0x2 SWAP1 DUP1 MLOAD SWAP1 PUSH1 0x20 ADD SWAP1 PUSH3 0xA8 SWAP3 SWAP2 SWAP1 PUSH3 0xFD JUMP JUMPDEST POP DUP1 PUSH1 0x3 DUP2 SWAP1 SSTORE POP DUP1 PUSH1 0x4 PUSH1 0x0 CALLER PUSH20 0xFFFFFFFFFFFFFFFFFFFFFFFFFFFFFFFFFFFFFFFF AND PUSH20 0xFFFFFFFFFFFFFFFFFFFFFFFFFFFFFFFFFFFFFFFF AND DUP2 MSTORE PUSH1 0x20 ADD SWAP1 DUP2 MSTORE PUSH1 0x20 ADD PUSH1 0x0 KECCAK256 DUP2 SWAP1 SSTORE POP POP POP POP PUSH3 0x452 JUMP JUMPDEST DUP3 DUP1 SLOAD PUSH3 0x10B SWAP1 PUSH3 0x35D JUMP JUMPDEST SWAP1 PUSH1 0x0 MSTORE PUSH1 0x20 PUSH1 0x0 KECCAK256 SWAP1 PUSH1 0x1F ADD PUSH1 0x20 SWAP1 DIV DUP2 ADD SWAP3 DUP3 PUSH3 0x12F JUMPI PUSH1 0x0 DUP6 SSTORE PUSH3 0x17B JUMP JUMPDEST DUP3 PUSH1 0x1F LT PUSH3 0x14A JUMPI DUP1 MLOAD PUSH1 0xFF NOT AND DUP4 DUP1 ADD OR DUP6 SSTORE PUSH3 0x17B JUMP JUMPDEST DUP3 DUP1 ADD PUSH1 0x1 ADD DUP6 SSTORE DUP3 ISZERO PUSH3 0x17B JUMPI SWAP2 DUP3 ADD JUMPDEST DUP3 DUP2 GT ISZERO PUSH3 0x17A JUMPI DUP3 MLOAD DUP3 SSTORE SWAP2 PUSH1 0x20 ADD SWAP2 SWAP1 PUSH1 0x1 ADD SWAP1 PUSH3 0x15D JUMP JUMPDEST JUMPDEST POP SWAP1 POP PUSH3 0x18A SWAP2 SWAP1 PUSH3 0x18E JUMP JUMPDEST POP SWAP1 JUMP JUMPDEST JUMPDEST DUP1 DUP3 GT ISZERO PUSH3 0x1A9 JUMPI PUSH1 0x0 DUP2 PUSH1 0x0 SWAP1 SSTORE POP PUSH1 0x1 ADD PUSH3 0x18F JUMP JUMPDEST POP SWAP1 JUMP JUMPDEST PUSH1 0x0 PUSH3 0x1C4 PUSH3 0x1BE DUP5 PUSH3 0x2E7 JUMP JUMPDEST PUSH3 0x2BE JUMP JUMPDEST SWAP1 POP DUP3 DUP2 MSTORE PUSH1 0x20 DUP2 ADD DUP5 DUP5 DUP5 ADD GT ISZERO PUSH3 0x1DD JUMPI PUSH1 0x0 DUP1 REVERT JUMPDEST PUSH3 0x1EA DUP5 DUP3 DUP6 PUSH3 0x327 JUMP JUMPDEST POP SWAP4 SWAP3 POP POP POP JUMP JUMPDEST PUSH1 0x0 DUP3 PUSH1 0x1F DUP4 ADD SLT PUSH3 0x204 JUMPI PUSH1 0x0 DUP1 REVERT JUMPDEST DUP2 MLOAD PUSH3 0x216 DUP5 DUP3 PUSH1 0x20 DUP7 ADD PUSH3 0x1AD JUMP JUMPDEST SWAP2 POP POP SWAP3 SWAP2 POP POP JUMP JUMPDEST PUSH1 0x0 DUP2 MLOAD SWAP1 POP PUSH3 0x230 DUP2 PUSH3 0x438 JUMP JUMPDEST SWAP3 SWAP2 POP POP JUMP JUMPDEST PUSH1 0x0 DUP1 PUSH1 0x0 PUSH1 0x60 DUP5 DUP7 SUB SLT ISZERO PUSH3 0x24C JUMPI PUSH1 0x0 DUP1 REVERT JUMPDEST PUSH1 0x0 DUP5 ADD MLOAD PUSH8 0xFFFFFFFFFFFFFFFF DUP2 GT ISZERO PUSH3 0x267 JUMPI PUSH1 0x0 DUP1 REVERT JUMPDEST PUSH3 0x275 DUP7 DUP3 DUP8 ADD PUSH3 0x1F2 JUMP JUMPDEST SWAP4 POP POP PUSH1 0x20 DUP5 ADD MLOAD PUSH8 0xFFFFFFFFFFFFFFFF DUP2 GT ISZERO PUSH3 0x293 JUMPI PUSH1 0x0 DUP1 REVERT JUMPDEST PUSH3 0x2A1 DUP7 DUP3 DUP8 ADD PUSH3 0x1F2 JUMP JUMPDEST SWAP3 POP POP PUSH1 0x40 PUSH3 0x2B4 DUP7 DUP3 DUP8 ADD PUSH3 0x21F JUMP JUMPDEST SWAP2 POP POP SWAP3 POP SWAP3 POP SWAP3 JUMP JUMPDEST PUSH1 0x0 PUSH3 0x2CA PUSH3 0x2DD JUMP JUMPDEST SWAP1 POP PUSH3 0x2D8 DUP3 DUP3 PUSH3 0x393 JUMP JUMPDEST SWAP2 SWAP1 POP JUMP JUMPDEST PUSH1 0x0 PUSH1 0x40 MLOAD SWAP1 POP SWAP1 JUMP JUMPDEST PUSH1 0x0 PUSH8 0xFFFFFFFFFFFFFFFF DUP3 GT ISZERO PUSH3 0x305 JUMPI PUSH3 0x304 PUSH3 0x3F8 JUMP JUMPDEST JUMPDEST PUSH3 0x310 DUP3 PUSH3 0x427 JUMP JUMPDEST SWAP1 POP PUSH1 0x20 DUP2 ADD SWAP1 POP SWAP2 SWAP1 POP JUMP JUMPDEST PUSH1 0x0 DUP2 SWAP1 POP SWAP2 SWAP1 POP JUMP JUMPDEST PUSH1 0x0 JUMPDEST DUP4 DUP2 LT ISZERO PUSH3 0x347 JUMPI DUP1 DUP3 ADD MLOAD DUP2 DUP5 ADD MSTORE PUSH1 0x20 DUP2 ADD SWAP1 POP PUSH3 0x32A JUMP JUMPDEST DUP4 DUP2 GT ISZERO PUSH3 0x357 JUMPI PUSH1 0x0 DUP5 DUP5 ADD MSTORE JUMPDEST POP POP POP POP JUMP JUMPDEST PUSH1 0x0 PUSH1 0x2 DUP3 DIV SWAP1 POP PUSH1 0x1 DUP3 AND DUP1 PUSH3 0x376 JUMPI PUSH1 0x7F DUP3 AND SWAP2 POP JUMPDEST PUSH1 0x20 DUP3 LT DUP2 EQ ISZERO PUSH3 0x38D JUMPI PUSH3 0x38C PUSH3 0x3C9 JUMP JUMPDEST JUMPDEST POP SWAP2 SWAP1 POP JUMP JUMPDEST PUSH3 0x39E DUP3 PUSH3 0x427 JUMP JUMPDEST DUP2 ADD DUP2 DUP2 LT PUSH8 0xFFFFFFFFFFFFFFFF DUP3 GT OR ISZERO PUSH3 0x3C0 JUMPI PUSH3 0x3BF PUSH3 0x3F8 JUMP JUMPDEST JUMPDEST DUP1 PUSH1 0x40 MSTORE POP POP POP JUMP JUMPDEST PUSH32 0x4E487B7100000000000000000000000000000000000000000000000000000000 PUSH1 0x0 MSTORE PUSH1 0x22 PUSH1 0x4 MSTORE PUSH1 0x24 PUSH1 0x0 REVERT JUMPDEST PUSH32 0x4E487B7100000000000000000000000000000000000000000000000000000000 PUSH1 0x0 MSTORE PUSH1 0x41 PUSH1 0x4 MSTORE PUSH1 0x24 PUSH1 0x0 REVERT JUMPDEST PUSH1 0x0 PUSH1 0x1F NOT PUSH1 0x1F DUP4 ADD AND SWAP1 POP SWAP2 SWAP1 POP JUMP JUMPDEST PUSH3 0x443 DUP2 PUSH3 0x31D JUMP JUMPDEST DUP2 EQ PUSH3 0x44F JUMPI PUSH1 0x0 DUP1 REVERT JUMPDEST POP JUMP JUMPDEST PUSH2 0x8CB DUP1 PUSH3 0x462 PUSH1 0x0 CODECOPY PUSH1 0x0 RETURN INVALID PUSH1 0x80 PUSH1 0x40 MSTORE CALLVALUE DUP1 ISZERO PUSH2 0x10 JUMPI PUSH1 0x0 DUP1 REVERT JUMPDEST POP PUSH1 0x4 CALLDATASIZE LT PUSH2 0x7D JUMPI PUSH1 0x0 CALLDATALOAD PUSH1 0xE0 SHR DUP1 PUSH4 0x8DA5CB5B GT PUSH2 0x5B JUMPI DUP1 PUSH4 0x8DA5CB5B EQ PUSH2 0xEE JUMPI DUP1 PUSH4 0x95D89B41 EQ PUSH2 0x10C JUMPI DUP1 PUSH4 0xA9059CBB EQ PUSH2 0x12A JUMPI DUP1 PUSH4 0xC5CAFC2A EQ PUSH2 0x146 JUMPI PUSH2 0x7D JUMP JUMPDEST DUP1 PUSH4 0x6FDDE03 EQ PUSH2 0x82 JUMPI DUP1 PUSH4 0x18160DDD EQ PUSH2 0xA0 JUMPI DUP1 PUSH4 0x70A08231 EQ PUSH2 0xBE JUMPI JUMPDEST PUSH1 0x0 DUP1 REVERT JUMPDEST PUSH2 0x8A PUSH2 0x162 JUMP JUMPDEST PUSH1 0x40 MLOAD PUSH2 0x97 SWAP2 SWAP1 PUSH2 0x5E2 JUMP JUMPDEST PUSH1 0x40 MLOAD DUP1 SWAP2 SUB SWAP1 RETURN JUMPDEST PUSH2 0xA8 PUSH2 0x1F0 JUMP JUMPDEST PUSH1 0x40 MLOAD PUSH2 0xB5 SWAP2 SWAP1 PUSH2 0x644 JUMP JUMPDEST PUSH1 0x40 MLOAD DUP1 SWAP2 SUB SWAP1 RETURN JUMPDEST PUSH2 0xD8 PUSH1 0x4 DUP1 CALLDATASIZE SUB DUP2 ADD SWAP1 PUSH2 0xD3 SWAP2 SWAP1 PUSH2 0x49C JUMP JUMPDEST PUSH2 0x1F6 JUMP JUMPDEST PUSH1 0x40 MLOAD PUSH2 0xE5 SWAP2 SWAP1 PUSH2 0x644 JUMP JUMPDEST PUSH1 0x40 MLOAD DUP1 SWAP2 SUB SWAP1 RETURN JUMPDEST PUSH2 0xF6 PUSH2 0x20E JUMP JUMPDEST PUSH1 0x40 MLOAD PUSH2 0x103 SWAP2 SWAP1 PUSH2 0x5C7 JUMP JUMPDEST PUSH1 0x40 MLOAD DUP1 SWAP2 SUB SWAP1 RETURN JUMPDEST PUSH2 0x114 PUSH2 0x232 JUMP JUMPDEST PUSH1 0x40 MLOAD PUSH2 0x121 SWAP2 SWAP1 PUSH2 0x5E2 JUMP JUMPDEST PUSH1 0x40 MLOAD DUP1 SWAP2 SUB SWAP1 RETURN JUMPDEST PUSH2 0x144 PUSH1 0x4 DUP1 CALLDATASIZE SUB DUP2 ADD SWAP1 PUSH2 0x13F SWAP2 SWAP1 PUSH2 0x4C5 JUMP JUMPDEST PUSH2 0x2C0 JUMP JUMPDEST STOP JUMPDEST PUSH2 0x160 PUSH1 0x4 DUP1 CALLDATASIZE SUB DUP2 ADD SWAP1 PUSH2 0x15B SWAP2 SWAP1 PUSH2 0x501 JUMP JUMPDEST PUSH2 0x462 JUMP JUMPDEST STOP JUMPDEST PUSH1 0x1 DUP1 SLOAD PUSH2 0x16F SWAP1 PUSH2 0x774 JUMP JUMPDEST DUP1 PUSH1 0x1F ADD PUSH1 0x20 DUP1 SWAP2 DIV MUL PUSH1 0x20 ADD PUSH1 0x40 MLOAD SWAP1 DUP2 ADD PUSH1 0x40 MSTORE DUP1 SWAP3 SWAP2 SWAP1 DUP2 DUP2 MSTORE PUSH1 0x20 ADD DUP3 DUP1 SLOAD PUSH2 0x19B SWAP1 PUSH2 0x774 JUMP JUMPDEST DUP1 ISZERO PUSH2 0x1E8 JUMPI DUP1 PUSH1 0x1F LT PUSH2 0x1BD JUMPI PUSH2 0x100 DUP1 DUP4 SLOAD DIV MUL DUP4 MSTORE SWAP2 PUSH1 0x20 ADD SWAP2 PUSH2 0x1E8 JUMP JUMPDEST DUP3 ADD SWAP2 SWAP1 PUSH1 0x0 MSTORE PUSH1 0x20 PUSH1 0x0 KECCAK256 SWAP1 JUMPDEST DUP2 SLOAD DUP2 MSTORE SWAP1 PUSH1 0x1 ADD SWAP1 PUSH1 0x20 ADD DUP1 DUP4 GT PUSH2 0x1CB JUMPI DUP3 SWAP1 SUB PUSH1 0x1F AND DUP3 ADD SWAP2 JUMPDEST POP POP POP POP POP DUP2 JUMP JUMPDEST PUSH1 0x3 SLOAD DUP2 JUMP JUMPDEST PUSH1 0x4 PUSH1 0x20 MSTORE DUP1 PUSH1 0x0 MSTORE PUSH1 0x40 PUSH1 0x0 KECCAK256 PUSH1 0x0 SWAP2 POP SWAP1 POP SLOAD DUP2 JUMP JUMPDEST PUSH1 0x0 DUP1 SLOAD SWAP1 PUSH2 0x100 EXP SWAP1 DIV PUSH20 0xFFFFFFFFFFFFFFFFFFFFFFFFFFFFFFFFFFFFFFFF AND DUP2 JUMP JUMPDEST PUSH1 0x2 DUP1 SLOAD PUSH2 0x23F SWAP1 PUSH2 0x774 JUMP JUMPDEST DUP1 PUSH1 0x1F ADD PUSH1 0x20 DUP1 SWAP2 DIV MUL PUSH1 0x20 ADD PUSH1 0x40 MLOAD SWAP1 DUP2 ADD PUSH1 0x40 MSTORE DUP1 SWAP3 SWAP2 SWAP1 DUP2 DUP2 MSTORE PUSH1 0x20 ADD DUP3 DUP1 SLOAD PUSH2 0x26B SWAP1 PUSH2 0x774 JUMP JUMPDEST DUP1 ISZERO PUSH2 0x2B8 JUMPI DUP1 PUSH1 0x1F LT PUSH2 0x28D JUMPI PUSH2 0x100 DUP1 DUP4 SLOAD DIV MUL DUP4 MSTORE SWAP2 PUSH1 0x20 ADD SWAP2 PUSH2 0x2B8 JUMP JUMPDEST DUP3 ADD SWAP2 SWAP1 PUSH1 0x0 MSTORE PUSH1 0x20 PUSH1 0x0 KECCAK256 SWAP1 JUMPDEST DUP2 SLOAD DUP2 MSTORE SWAP1 PUSH1 0x1 ADD SWAP1 PUSH1 0x20 ADD DUP1 DUP4 GT PUSH2 0x29B JUMPI DUP3 SWAP1 SUB PUSH1 0x1F AND DUP3 ADD SWAP2 JUMPDEST POP POP POP POP POP DUP2 JUMP JUMPDEST DUP1 PUSH1 0x4 PUSH1 0x0 CALLER PUSH20 0xFFFFFFFFFFFFFFFFFFFFFFFFFFFFFFFFFFFFFFFF AND PUSH20 0xFFFFFFFFFFFFFFFFFFFFFFFFFFFFFFFFFFFFFFFF AND DUP2 MSTORE PUSH1 0x20 ADD SWAP1 DUP2 MSTORE PUSH1 0x20 ADD PUSH1 0x0 KECCAK256 SLOAD LT ISZERO PUSH2 0x342 JUMPI PUSH1 0x40 MLOAD PUSH32 0x8C379A000000000000000000000000000000000000000000000000000000000 DUP2 MSTORE PUSH1 0x4 ADD PUSH2 0x339 SWAP1 PUSH2 0x624 JUMP JUMPDEST PUSH1 0x40 MLOAD DUP1 SWAP2 SUB SWAP1 REVERT JUMPDEST PUSH1 0x0 PUSH20 0xFFFFFFFFFFFFFFFFFFFFFFFFFFFFFFFFFFFFFFFF AND DUP3 PUSH20 0xFFFFFFFFFFFFFFFFFFFFFFFFFFFFFFFFFFFFFFFF AND EQ ISZERO PUSH2 0x3B2 JUMPI PUSH1 0x40 MLOAD PUSH32 0x8C379A000000000000000000000000000000000000000000000000000000000 DUP2 MSTORE PUSH1 0x4 ADD PUSH2 0x3A9 SWAP1 PUSH2 0x604 JUMP JUMPDEST PUSH1 0x40 MLOAD DUP1 SWAP2 SUB SWAP1 REVERT JUMPDEST DUP1 PUSH1 0x4 PUSH1 0x0 CALLER PUSH20 0xFFFFFFFFFFFFFFFFFFFFFFFFFFFFFFFFFFFFFFFF AND PUSH20 0xFFFFFFFFFFFFFFFFFFFFFFFFFFFFFFFFFFFFFFFF AND DUP2 MSTORE PUSH1 0x20 ADD SWAP1 DUP2 MSTORE PUSH1 0x20 ADD PUSH1 0x0 KECCAK256 PUSH1 0x0 DUP3 DUP3 SLOAD PUSH2 0x401 SWAP2 SWAP1 PUSH2 0x6D1 JUMP JUMPDEST SWAP3 POP POP DUP2 SWAP1 SSTORE POP DUP1 PUSH1 0x4 PUSH1 0x0 DUP5 PUSH20 0xFFFFFFFFFFFFFFFFFFFFFFFFFFFFFFFFFFFFFFFF AND PUSH20 0xFFFFFFFFFFFFFFFFFFFFFFFFFFFFFFFFFFFFFFFF AND DUP2 MSTORE PUSH1 0x20 ADD SWAP1 DUP2 MSTORE PUSH1 0x20 ADD PUSH1 0x0 KECCAK256 PUSH1 0x0 DUP3 DUP3 SLOAD PUSH2 0x457 SWAP2 SWAP1 PUSH2 0x67B JUMP JUMPDEST SWAP3 POP POP DUP2 SWAP1 SSTORE POP POP POP JUMP JUMPDEST PUSH1 0x0 DUP2 GT PUSH2 0x46F JUMPI PUSH1 0x0 DUP1 REVERT JUMPDEST POP JUMP JUMPDEST PUSH1 0x0 DUP2 CALLDATALOAD SWAP1 POP PUSH2 0x481 DUP2 PUSH2 0x867 JUMP JUMPDEST SWAP3 SWAP2 POP POP JUMP JUMPDEST PUSH1 0x0 DUP2 CALLDATALOAD SWAP1 POP PUSH2 0x496 DUP2 PUSH2 0x87E JUMP JUMPDEST SWAP3 SWAP2 POP POP JUMP JUMPDEST PUSH1 0x0 PUSH1 0x20 DUP3 DUP5 SUB SLT ISZERO PUSH2 0x4AE JUMPI PUSH1 0x0 DUP1 REVERT JUMPDEST PUSH1 0x0 PUSH2 0x4BC DUP5 DUP3 DUP6 ADD PUSH2 0x472 JUMP JUMPDEST SWAP2 POP POP SWAP3 SWAP2 POP POP JUMP JUMPDEST PUSH1 0x0 DUP1 PUSH1 0x40 DUP4 DUP6 SUB SLT ISZERO PUSH2 0x4D8 JUMPI PUSH1 0x0 DUP1 REVERT JUMPDEST PUSH1 0x0 PUSH2 0x4E6 DUP6 DUP3 DUP7 ADD PUSH2 0x472 JUMP JUMPDEST SWAP3 POP POP PUSH1 0x20 PUSH2 0x4F7 DUP6 DUP3 DUP7 ADD PUSH2 0x487 JUMP JUMPDEST SWAP2 POP POP SWAP3 POP SWAP3 SWAP1 POP JUMP JUMPDEST PUSH1 0x0 PUSH1 0x20 DUP3 DUP5 SUB SLT ISZERO PUSH2 0x513 JUMPI PUSH1 0x0 DUP1 REVERT JUMPDEST PUSH1 0x0 PUSH2 0x521 DUP5 DUP3 DUP6 ADD PUSH2 0x487 JUMP JUMPDEST SWAP2 POP POP SWAP3 SWAP2 POP POP JUMP JUMPDEST PUSH2 0x533 DUP2 PUSH2 0x705 JUMP JUMPDEST DUP3 MSTORE POP POP JUMP JUMPDEST PUSH1 0x0 PUSH2 0x544 DUP3 PUSH2 0x65F JUMP JUMPDEST PUSH2 0x54E DUP2 DUP6 PUSH2 0x66A JUMP JUMPDEST SWAP4 POP PUSH2 0x55E DUP2 DUP6 PUSH1 0x20 DUP7 ADD PUSH2 0x741 JUMP JUMPDEST PUSH2 0x567 DUP2 PUSH2 0x804 JUMP JUMPDEST DUP5 ADD SWAP2 POP POP SWAP3 SWAP2 POP POP JUMP JUMPDEST PUSH1 0x0 PUSH2 0x57F PUSH1 0x10 DUP4 PUSH2 0x66A JUMP JUMPDEST SWAP2 POP PUSH2 0x58A DUP3 PUSH2 0x815 JUMP JUMPDEST PUSH1 0x20 DUP3 ADD SWAP1 POP SWAP2 SWAP1 POP JUMP JUMPDEST PUSH1 0x0 PUSH2 0x5A2 PUSH1 0x15 DUP4 PUSH2 0x66A JUMP JUMPDEST SWAP2 POP PUSH2 0x5AD DUP3 PUSH2 0x83E JUMP JUMPDEST PUSH1 0x20 DUP3 ADD SWAP1 POP SWAP2 SWAP1 POP JUMP JUMPDEST PUSH2 0x5C1 DUP2 PUSH2 0x737 JUMP JUMPDEST DUP3 MSTORE POP POP JUMP JUMPDEST PUSH1 0x0 PUSH1 0x20 DUP3 ADD SWAP1 POP PUSH2 0x5DC PUSH1 0x0 DUP4 ADD DUP5 PUSH2 0x52A JUMP JUMPDEST SWAP3 SWAP2 POP POP JUMP JUMPDEST PUSH1 0x0 PUSH1 0x20 DUP3 ADD SWAP1 POP DUP2 DUP2 SUB PUSH1 0x0 DUP4 ADD MSTORE PUSH2 0x5FC DUP2 DUP5 PUSH2 0x539 JUMP JUMPDEST SWAP1 POP SWAP3 SWAP2 POP POP JUMP JUMPDEST PUSH1 0x0 PUSH1 0x20 DUP3 ADD SWAP1 POP DUP2 DUP2 SUB PUSH1 0x0 DUP4 ADD MSTORE PUSH2 0x61D DUP2 PUSH2 0x572 JUMP JUMPDEST SWAP1 POP SWAP2 SWAP1 POP JUMP JUMPDEST PUSH1 0x0 PUSH1 0x20 DUP3 ADD SWAP1 POP DUP2 DUP2 SUB PUSH1 0x0 DUP4 ADD MSTORE PUSH2 0x63D DUP2 PUSH2 0x595 JUMP JUMPDEST SWAP1 POP SWAP2 SWAP1 POP JUMP JUMPDEST PUSH1 0x0 PUSH1 0x20 DUP3 ADD SWAP1 POP PUSH2 0x659 PUSH1 0x0 DUP4 ADD DUP5 PUSH2 0x5B8 JUMP JUMPDEST SWAP3 SWAP2 POP POP JUMP JUMPDEST PUSH1 0x0 DUP2 MLOAD SWAP1 POP SWAP2 SWAP1 POP JUMP JUMPDEST PUSH1 0x0 DUP3 DUP3 MSTORE PUSH1 0x20 DUP3 ADD SWAP1 POP SWAP3 SWAP2 POP POP JUMP JUMPDEST PUSH1 0x0 PUSH2 0x686 DUP3 PUSH2 0x737 JUMP JUMPDEST SWAP2 POP PUSH2 0x691 DUP4 PUSH2 0x737 JUMP JUMPDEST SWAP3 POP DUP3 PUSH32 0xFFFFFFFFFFFFFFFFFFFFFFFFFFFFFFFFFFFFFFFFFFFFFFFFFFFFFFFFFFFFFFFF SUB DUP3 GT ISZERO PUSH2 0x6C6 JUMPI PUSH2 0x6C5 PUSH2 0x7A6 JUMP JUMPDEST JUMPDEST DUP3 DUP3 ADD SWAP1 POP SWAP3 SWAP2 POP POP JUMP JUMPDEST PUSH1 0x0 PUSH2 0x6DC DUP3 PUSH2 0x737 JUMP JUMPDEST SWAP2 POP PUSH2 0x6E7 DUP4 PUSH2 0x737 JUMP JUMPDEST SWAP3 POP DUP3 DUP3 LT ISZERO PUSH2 0x6FA JUMPI PUSH2 0x6F9 PUSH2 0x7A6 JUMP JUMPDEST JUMPDEST DUP3 DUP3 SUB SWAP1 POP SWAP3 SWAP2 POP POP JUMP JUMPDEST PUSH1 0x0 PUSH2 0x710 DUP3 PUSH2 0x717 JUMP JUMPDEST SWAP1 POP SWAP2 SWAP1 POP JUMP JUMPDEST PUSH1 0x0 PUSH20 0xFFFFFFFFFFFFFFFFFFFFFFFFFFFFFFFFFFFFFFFF DUP3 AND SWAP1 POP SWAP2 SWAP1 POP JUMP JUMPDEST PUSH1 0x0 DUP2 SWAP1 POP SWAP2 SWAP1 POP JUMP JUMPDEST PUSH1 0x0 JUMPDEST DUP4 DUP2 LT ISZERO PUSH2 0x75F JUMPI DUP1 DUP3 ADD MLOAD DUP2 DUP5 ADD MSTORE PUSH1 0x20 DUP2 ADD SWAP1 POP PUSH2 0x744 JUMP JUMPDEST DUP4 DUP2 GT ISZERO PUSH2 0x76E JUMPI PUSH1 0x0 DUP5 DUP5 ADD MSTORE JUMPDEST POP POP POP POP JUMP JUMPDEST PUSH1 0x0 PUSH1 0x2 DUP3 DIV SWAP1 POP PUSH1 0x1 DUP3 AND DUP1 PUSH2 0x78C JUMPI PUSH1 0x7F DUP3 AND SWAP2 POP JUMPDEST PUSH1 0x20 DUP3 LT DUP2 EQ ISZERO PUSH2 0x7A0 JUMPI PUSH2 0x79F PUSH2 0x7D5 JUMP JUMPDEST JUMPDEST POP SWAP2 SWAP1 POP JUMP JUMPDEST PUSH32 0x4E487B7100000000000000000000000000000000000000000000000000000000 PUSH1 0x0 MSTORE PUSH1 0x11 PUSH1 0x4 MSTORE PUSH1 0x24 PUSH1 0x0 REVERT JUMPDEST PUSH32 0x4E487B7100000000000000000000000000000000000000000000000000000000 PUSH1 0x0 MSTORE PUSH1 0x22 PUSH1 0x4 MSTORE PUSH1 0x24 PUSH1 0x0 REVERT JUMPDEST PUSH1 0x0 PUSH1 0x1F NOT PUSH1 0x1F DUP4 ADD AND SWAP1 POP SWAP2 SWAP1 POP JUMP JUMPDEST PUSH32 0x496E76616C696420616464726573732E00000000000000000000000000000000 PUSH1 0x0 DUP3 ADD MSTORE POP JUMP JUMPDEST PUSH32 0x496E73756666696369656E742062616C616E63652E0000000000000000000000 PUSH1 0x0 DUP3 ADD MSTORE POP JUMP JUMPDEST PUSH2 0x870 DUP2 PUSH2 0x705 JUMP JUMPDEST DUP2 EQ PUSH2 0x87B JUMPI PUSH1 0x0 DUP1 REVERT JUMPDEST POP JUMP JUMPDEST PUSH2 0x887 DUP2 PUSH2 0x737 JUMP JUMPDEST DUP2 EQ PUSH2 0x892 JUMPI PUSH1 0x0 DUP1 REVERT JUMPDEST POP JUMP INVALID LOG2 PUSH5 0x6970667358 0x22 SLT KECCAK256 GASLIMIT 0x2F DUP7 0xDE 0xA5 0xB6 BYTE CALLDATALOAD ADD 0xE9 SHL 0xEE MULMOD DIV 0xDA CODESIZE SUB 0xEA SELFDESTRUCT 0xE1 0xCD XOR COINBASE DUP12 PUSH15 0xB4167D5F080B3D64736F6C63430008 DIV STOP CALLER "
				},
				"gasEstimates": {
					"creation": {
						"codeDepositCost": "450200",
						"executionCost": "infinite",
						"totalCost": "infinite"
					},
					"external": {
						"balanceOf(address)": "1559",
						"checkNonZero(uint256)": "495",
						"name()": "infinite",
						"owner()": "1211",
						"symbol()": "infinite",
						"totalSupply()": "1152",
						"transfer(address,uint256)": "infinite"
					}
				},
				"methodIdentifiers": {
					"balanceOf(address)": "70a08231",
					"checkNonZero(uint256)": "c5cafc2a",
					"name()": "06fdde03",
					"owner()": "8da5cb5b",
					"symbol()": "95d89b41",
					"totalSupply()": "18160ddd",
					"transfer(address,uint256)": "a9059cbb"
				}
			},
			"storageLayout": {
				"storage": [
					{
						"astId": 3,
						"contract": "Unsigned Integer Types Optimizer/optimized_test24.sol:Token",
						"label": "owner",
						"offset": 0,
						"slot": "0",
						"type": "t_address"
					},
					{
						"astId": 5,
						"contract": "Unsigned Integer Types Optimizer/optimized_test24.sol:Token",
						"label": "name",
						"offset": 0,
						"slot": "1",
						"type": "t_string_storage"
					},
					{
						"astId": 7,
						"contract": "Unsigned Integer Types Optimizer/optimized_test24.sol:Token",
						"label": "symbol",
						"offset": 0,
						"slot": "2",
						"type": "t_string_storage"
					},
					{
						"astId": 9,
						"contract": "Unsigned Integer Types Optimizer/optimized_test24.sol:Token",
						"label": "totalSupply",
						"offset": 0,
						"slot": "3",
						"type": "t_uint256"
					},
					{
						"astId": 13,
						"contract": "Unsigned Integer Types Optimizer/optimized_test24.sol:Token",
						"label": "balanceOf",
						"offset": 0,
						"slot": "4",
						"type": "t_mapping(t_address,t_uint256)"
					}
				],
				"types": {
					"t_address": {
						"encoding": "inplace",
						"label": "address",
						"numberOfBytes": "20"
					},
					"t_mapping(t_address,t_uint256)": {
						"encoding": "mapping",
						"key": "t_address",
						"label": "mapping(address => uint256)",
						"numberOfBytes": "32",
						"value": "t_uint256"
					},
					"t_string_storage": {
						"encoding": "bytes",
						"label": "string",
						"numberOfBytes": "32"
					},
					"t_uint256": {
						"encoding": "inplace",
						"label": "uint256",
						"numberOfBytes": "32"
					}
				}
			},
			"userdoc": {
				"kind": "user",
				"methods": {},
				"version": 1
			}
		}
	}
}