{
	"Unsigned Integer Types Optimizer/test25.sol": {
		"Crowdfunding": {
			"abi": [
				{
					"inputs": [
						{
							"internalType": "uint256",
							"name": "_goalAmount",
							"type": "uint256"
						}
					],
					"stateMutability": "nonpayable",
					"type": "constructor"
				},
				{
					"inputs": [
						{
							"internalType": "uint256",
							"name": "x",
							"type": "uint256"
						}
					],
					"name": "checkNonZero",
					"outputs": [],
					"stateMutability": "pure",
					"type": "function"
				},
				{
					"inputs": [],
					"name": "contribute",
					"outputs": [],
					"stateMutability": "payable",
					"type": "function"
				},
				{
					"inputs": [
						{
							"internalType": "address",
							"name": "",
							"type": "address"
						}
					],
					"name": "contributions",
					"outputs": [
						{
							"internalType": "uint256",
							"name": "",
							"type": "uint256"
						}
					],
					"stateMutability": "view",
					"type": "function"
				},
				{
					"inputs": [],
					"name": "goalAmount",
					"outputs": [
						{
							"internalType": "uint256",
							"name": "",
							"type": "uint256"
						}
					],
					"stateMutability": "view",
					"type": "function"
				},
				{
					"inputs": [],
					"name": "owner",
					"outputs": [
						{
							"internalType": "address",
							"name": "",
							"type": "address"
						}
					],
					"stateMutability": "view",
					"type": "function"
				},
				{
					"inputs": [],
					"name": "totalRaised",
					"outputs": [
						{
							"internalType": "uint256",
							"name": "",
							"type": "uint256"
						}
					],
					"stateMutability": "view",
					"type": "function"
				}
			],
			"devdoc": {
				"kind": "dev",
				"methods": {},
				"version": 1
			},
			"evm": {
				"assembly": "    /* \"Unsigned Integer Types Optimizer/test25.sol\":56:691  contract Crowdfunding {... */\n  mstore(0x40, 0x80)\n    /* \"Unsigned Integer Types Optimizer/test25.sol\":228:330  constructor(uint256 _goalAmount) {... */\n  callvalue\n  dup1\n  iszero\n  tag_1\n  jumpi\n  0x00\n  dup1\n  revert\ntag_1:\n  pop\n  mload(0x40)\n  sub(codesize, bytecodeSize)\n  dup1\n  bytecodeSize\n  dup4\n  codecopy\n  dup2\n  add\n  0x40\n  dup2\n  swap1\n  mstore\n  tag_2\n  swap2\n  tag_3\n  jump\t// in\ntag_2:\n    /* \"Unsigned Integer Types Optimizer/test25.sol\":271:276  owner */\n  0x00\n    /* \"Unsigned Integer Types Optimizer/test25.sol\":271:289  owner = msg.sender */\n  dup1\n  sload\n  not(sub(shl(0xa0, 0x01), 0x01))\n  and\n    /* \"Unsigned Integer Types Optimizer/test25.sol\":279:289  msg.sender */\n  caller\n    /* \"Unsigned Integer Types Optimizer/test25.sol\":271:289  owner = msg.sender */\n  or\n  swap1\n  sstore\n  0x01\n    /* \"Unsigned Integer Types Optimizer/test25.sol\":299:323  goalAmount = _goalAmount */\n  sstore\n    /* \"Unsigned Integer Types Optimizer/test25.sol\":56:691  contract Crowdfunding {... */\n  jump(tag_7)\n    /* \"#utility.yul\":14:208   */\ntag_3:\n    /* \"#utility.yul\":84:90   */\n  0x00\n    /* \"#utility.yul\":137:139   */\n  0x20\n    /* \"#utility.yul\":125:134   */\n  dup3\n    /* \"#utility.yul\":116:123   */\n  dup5\n    /* \"#utility.yul\":112:135   */\n  sub\n    /* \"#utility.yul\":108:140   */\n  slt\n    /* \"#utility.yul\":105:107   */\n  iszero\n  tag_9\n  jumpi\n    /* \"#utility.yul\":158:164   */\n  dup1\n    /* \"#utility.yul\":150:156   */\n  dup2\n    /* \"#utility.yul\":143:165   */\n  revert\n    /* \"#utility.yul\":105:107   */\ntag_9:\n  pop\n    /* \"#utility.yul\":186:202   */\n  mload\n  swap2\n    /* \"#utility.yul\":95:208   */\n  swap1\n  pop\n  jump\t// out\ntag_7:\n    /* \"Unsigned Integer Types Optimizer/test25.sol\":56:691  contract Crowdfunding {... */\n  dataSize(sub_0)\n  dup1\n  dataOffset(sub_0)\n  0x00\n  codecopy\n  0x00\n  return\nstop\n\nsub_0: assembly {\n        /* \"Unsigned Integer Types Optimizer/test25.sol\":56:691  contract Crowdfunding {... */\n      mstore(0x40, 0x80)\n      jumpi(tag_1, lt(calldatasize, 0x04))\n      shr(0xe0, calldataload(0x00))\n      dup1\n      0x2636b945\n      eq\n      tag_2\n      jumpi\n      dup1\n      0x42e94c90\n      eq\n      tag_3\n      jumpi\n      dup1\n      0x8da5cb5b\n      eq\n      tag_4\n      jumpi\n      dup1\n      0xc5c4744c\n      eq\n      tag_5\n      jumpi\n      dup1\n      0xc5cafc2a\n      eq\n      tag_6\n      jumpi\n      dup1\n      0xd7bb99ba\n      eq\n      tag_7\n      jumpi\n    tag_1:\n      0x00\n      dup1\n      revert\n        /* \"Unsigned Integer Types Optimizer/test25.sol\":110:135  uint256 public goalAmount */\n    tag_2:\n      callvalue\n      dup1\n      iszero\n      tag_8\n      jumpi\n      0x00\n      dup1\n      revert\n    tag_8:\n      pop\n      tag_9\n      sload(0x01)\n      dup2\n      jump\n    tag_9:\n      mload(0x40)\n        /* \"#utility.yul\":1580:1605   */\n      swap1\n      dup2\n      mstore\n        /* \"#utility.yul\":1568:1570   */\n      0x20\n        /* \"#utility.yul\":1553:1571   */\n      add\n        /* \"Unsigned Integer Types Optimizer/test25.sol\":110:135  uint256 public goalAmount */\n    tag_11:\n      mload(0x40)\n      dup1\n      swap2\n      sub\n      swap1\n      return\n        /* \"Unsigned Integer Types Optimizer/test25.sol\":173:221  mapping(address => uint256) public contributions */\n    tag_3:\n      callvalue\n      dup1\n      iszero\n      tag_13\n      jumpi\n      0x00\n      dup1\n      revert\n    tag_13:\n      pop\n      tag_9\n      tag_15\n      calldatasize\n      0x04\n      tag_16\n      jump\t// in\n    tag_15:\n      mstore(0x20, 0x03)\n      0x00\n      swap1\n      dup2\n      mstore\n      0x40\n      swap1\n      keccak256\n      sload\n      dup2\n      jump\n        /* \"Unsigned Integer Types Optimizer/test25.sol\":84:104  address public owner */\n    tag_4:\n      callvalue\n      dup1\n      iszero\n      tag_19\n      jumpi\n      0x00\n      dup1\n      revert\n    tag_19:\n      pop\n      sload(0x00)\n      tag_20\n      swap1\n      sub(shl(0xa0, 0x01), 0x01)\n      and\n      dup2\n      jump\n    tag_20:\n      mload(0x40)\n      sub(shl(0xa0, 0x01), 0x01)\n        /* \"#utility.yul\":684:716   */\n      swap1\n      swap2\n      and\n        /* \"#utility.yul\":666:717   */\n      dup2\n      mstore\n        /* \"#utility.yul\":654:656   */\n      0x20\n        /* \"#utility.yul\":639:657   */\n      add\n        /* \"Unsigned Integer Types Optimizer/test25.sol\":84:104  address public owner */\n      tag_11\n        /* \"#utility.yul\":621:723   */\n      jump\n        /* \"Unsigned Integer Types Optimizer/test25.sol\":141:167  uint256 public totalRaised */\n    tag_5:\n      callvalue\n      dup1\n      iszero\n      tag_24\n      jumpi\n      0x00\n      dup1\n      revert\n    tag_24:\n      pop\n      tag_9\n      sload(0x02)\n      dup2\n      jump\n        /* \"Unsigned Integer Types Optimizer/test25.sol\":612:689  function checkNonZero(uint256 x) public pure {... */\n    tag_6:\n      callvalue\n      dup1\n      iszero\n      tag_28\n      jumpi\n      0x00\n      dup1\n      revert\n    tag_28:\n      pop\n      tag_29\n      tag_30\n      calldatasize\n      0x04\n      tag_31\n      jump\t// in\n    tag_30:\n      tag_32\n      jump\t// in\n    tag_29:\n      stop\n        /* \"Unsigned Integer Types Optimizer/test25.sol\":336:606  function contribute() public payable {... */\n    tag_7:\n      tag_29\n      tag_34\n      jump\t// in\n        /* \"Unsigned Integer Types Optimizer/test25.sol\":612:689  function checkNonZero(uint256 x) public pure {... */\n    tag_32:\n        /* \"Unsigned Integer Types Optimizer/test25.sol\":675:681  x != 0 */\n      dup1\n        /* \"Unsigned Integer Types Optimizer/test25.sol\":667:682  require(x != 0) */\n      tag_36\n      jumpi\n      0x00\n      dup1\n      revert\n    tag_36:\n        /* \"Unsigned Integer Types Optimizer/test25.sol\":612:689  function checkNonZero(uint256 x) public pure {... */\n      pop\n      jump\t// out\n        /* \"Unsigned Integer Types Optimizer/test25.sol\":336:606  function contribute() public payable {... */\n    tag_34:\n        /* \"Unsigned Integer Types Optimizer/test25.sol\":403:404  0 */\n      0x00\n        /* \"Unsigned Integer Types Optimizer/test25.sol\":391:400  msg.value */\n      callvalue\n        /* \"Unsigned Integer Types Optimizer/test25.sol\":391:404  msg.value > 0 */\n      gt\n        /* \"Unsigned Integer Types Optimizer/test25.sol\":383:437  require(msg.value > 0, \"Invalid contribution amount.\") */\n      tag_38\n      jumpi\n      mload(0x40)\n      shl(0xe5, 0x461bcd)\n      dup2\n      mstore\n        /* \"#utility.yul\":930:932   */\n      0x20\n        /* \"Unsigned Integer Types Optimizer/test25.sol\":383:437  require(msg.value > 0, \"Invalid contribution amount.\") */\n      0x04\n      dup3\n      add\n        /* \"#utility.yul\":912:933   */\n      mstore\n        /* \"#utility.yul\":969:971   */\n      0x1c\n        /* \"#utility.yul\":949:967   */\n      0x24\n      dup3\n      add\n        /* \"#utility.yul\":942:972   */\n      mstore\n        /* \"#utility.yul\":1008:1038   */\n      0x496e76616c696420636f6e747269627574696f6e20616d6f756e742e00000000\n        /* \"#utility.yul\":988:1006   */\n      0x44\n      dup3\n      add\n        /* \"#utility.yul\":981:1039   */\n      mstore\n        /* \"#utility.yul\":1056:1074   */\n      0x64\n      add\n        /* \"Unsigned Integer Types Optimizer/test25.sol\":383:437  require(msg.value > 0, \"Invalid contribution amount.\") */\n    tag_39:\n      mload(0x40)\n      dup1\n      swap2\n      sub\n      swap1\n      revert\n    tag_38:\n        /* \"Unsigned Integer Types Optimizer/test25.sol\":482:492  goalAmount */\n      sload(0x01)\n        /* \"Unsigned Integer Types Optimizer/test25.sol\":469:478  msg.value */\n      callvalue\n        /* \"Unsigned Integer Types Optimizer/test25.sol\":455:466  totalRaised */\n      sload(0x02)\n        /* \"Unsigned Integer Types Optimizer/test25.sol\":455:478  totalRaised + msg.value */\n      tag_41\n      swap2\n      swap1\n      tag_42\n      jump\t// in\n    tag_41:\n        /* \"Unsigned Integer Types Optimizer/test25.sol\":455:492  totalRaised + msg.value <= goalAmount */\n      gt\n      iszero\n        /* \"Unsigned Integer Types Optimizer/test25.sol\":447:517  require(totalRaised + msg.value <= goalAmount, \"Goal amount reached.\") */\n      tag_43\n      jumpi\n      mload(0x40)\n      shl(0xe5, 0x461bcd)\n      dup2\n      mstore\n        /* \"#utility.yul\":1287:1289   */\n      0x20\n        /* \"Unsigned Integer Types Optimizer/test25.sol\":447:517  require(totalRaised + msg.value <= goalAmount, \"Goal amount reached.\") */\n      0x04\n      dup3\n      add\n        /* \"#utility.yul\":1269:1290   */\n      mstore\n        /* \"#utility.yul\":1326:1328   */\n      0x14\n        /* \"#utility.yul\":1306:1324   */\n      0x24\n      dup3\n      add\n        /* \"#utility.yul\":1299:1329   */\n      mstore\n      shl(0x61, 0x23b7b0b61030b6b7bab73a103932b0b1b432b217)\n        /* \"#utility.yul\":1345:1363   */\n      0x44\n      dup3\n      add\n        /* \"#utility.yul\":1338:1388   */\n      mstore\n        /* \"#utility.yul\":1405:1423   */\n      0x64\n      add\n        /* \"Unsigned Integer Types Optimizer/test25.sol\":447:517  require(totalRaised + msg.value <= goalAmount, \"Goal amount reached.\") */\n      tag_39\n        /* \"#utility.yul\":1259:1429   */\n      jump\n        /* \"Unsigned Integer Types Optimizer/test25.sol\":447:517  require(totalRaised + msg.value <= goalAmount, \"Goal amount reached.\") */\n    tag_43:\n        /* \"Unsigned Integer Types Optimizer/test25.sol\":541:551  msg.sender */\n      caller\n        /* \"Unsigned Integer Types Optimizer/test25.sol\":527:552  contributions[msg.sender] */\n      0x00\n      swap1\n      dup2\n      mstore\n        /* \"Unsigned Integer Types Optimizer/test25.sol\":527:540  contributions */\n      0x03\n        /* \"Unsigned Integer Types Optimizer/test25.sol\":527:552  contributions[msg.sender] */\n      0x20\n      mstore\n      0x40\n      dup2\n      keccak256\n        /* \"Unsigned Integer Types Optimizer/test25.sol\":527:565  contributions[msg.sender] += msg.value */\n      dup1\n      sload\n        /* \"Unsigned Integer Types Optimizer/test25.sol\":556:565  msg.value */\n      callvalue\n      swap3\n        /* \"Unsigned Integer Types Optimizer/test25.sol\":527:552  contributions[msg.sender] */\n      swap1\n        /* \"Unsigned Integer Types Optimizer/test25.sol\":527:565  contributions[msg.sender] += msg.value */\n      tag_46\n      swap1\n        /* \"Unsigned Integer Types Optimizer/test25.sol\":556:565  msg.value */\n      dup5\n      swap1\n        /* \"Unsigned Integer Types Optimizer/test25.sol\":527:565  contributions[msg.sender] += msg.value */\n      tag_42\n      jump\t// in\n    tag_46:\n      swap3\n      pop\n      pop\n      dup2\n      swap1\n      sstore\n      pop\n        /* \"Unsigned Integer Types Optimizer/test25.sol\":590:599  msg.value */\n      callvalue\n        /* \"Unsigned Integer Types Optimizer/test25.sol\":575:586  totalRaised */\n      0x02\n      0x00\n        /* \"Unsigned Integer Types Optimizer/test25.sol\":575:599  totalRaised += msg.value */\n      dup3\n      dup3\n      sload\n      tag_47\n      swap2\n      swap1\n      tag_42\n      jump\t// in\n    tag_47:\n      swap1\n      swap2\n      sstore\n      pop\n      pop\n        /* \"Unsigned Integer Types Optimizer/test25.sol\":336:606  function contribute() public payable {... */\n      jump\t// out\n        /* \"#utility.yul\":14:320   */\n    tag_16:\n        /* \"#utility.yul\":73:79   */\n      0x00\n        /* \"#utility.yul\":126:128   */\n      0x20\n        /* \"#utility.yul\":114:123   */\n      dup3\n        /* \"#utility.yul\":105:112   */\n      dup5\n        /* \"#utility.yul\":101:124   */\n      sub\n        /* \"#utility.yul\":97:129   */\n      slt\n        /* \"#utility.yul\":94:96   */\n      iszero\n      tag_50\n      jumpi\n        /* \"#utility.yul\":147:153   */\n      dup1\n        /* \"#utility.yul\":139:145   */\n      dup2\n        /* \"#utility.yul\":132:154   */\n      revert\n        /* \"#utility.yul\":94:96   */\n    tag_50:\n        /* \"#utility.yul\":178:201   */\n      dup2\n      calldataload\n      sub(shl(0xa0, 0x01), 0x01)\n        /* \"#utility.yul\":230:261   */\n      dup2\n      and\n        /* \"#utility.yul\":220:262   */\n      dup2\n      eq\n        /* \"#utility.yul\":210:212   */\n      tag_51\n      jumpi\n        /* \"#utility.yul\":281:287   */\n      dup2\n        /* \"#utility.yul\":273:279   */\n      dup3\n        /* \"#utility.yul\":266:288   */\n      revert\n        /* \"#utility.yul\":210:212   */\n    tag_51:\n        /* \"#utility.yul\":309:314   */\n      swap4\n        /* \"#utility.yul\":84:320   */\n      swap3\n      pop\n      pop\n      pop\n      jump\t// out\n        /* \"#utility.yul\":325:515   */\n    tag_31:\n        /* \"#utility.yul\":384:390   */\n      0x00\n        /* \"#utility.yul\":437:439   */\n      0x20\n        /* \"#utility.yul\":425:434   */\n      dup3\n        /* \"#utility.yul\":416:423   */\n      dup5\n        /* \"#utility.yul\":412:435   */\n      sub\n        /* \"#utility.yul\":408:440   */\n      slt\n        /* \"#utility.yul\":405:407   */\n      iszero\n      tag_53\n      jumpi\n        /* \"#utility.yul\":458:464   */\n      dup1\n        /* \"#utility.yul\":450:456   */\n      dup2\n        /* \"#utility.yul\":443:465   */\n      revert\n        /* \"#utility.yul\":405:407   */\n    tag_53:\n      pop\n        /* \"#utility.yul\":486:509   */\n      calldataload\n      swap2\n        /* \"#utility.yul\":395:515   */\n      swap1\n      pop\n      jump\t// out\n        /* \"#utility.yul\":1616:1845   */\n    tag_42:\n        /* \"#utility.yul\":1656:1659   */\n      0x00\n        /* \"#utility.yul\":1687:1688   */\n      dup3\n        /* \"#utility.yul\":1683:1689   */\n      not\n        /* \"#utility.yul\":1680:1681   */\n      dup3\n        /* \"#utility.yul\":1677:1690   */\n      gt\n        /* \"#utility.yul\":1674:1676   */\n      iszero\n      tag_59\n      jumpi\n      shl(0xe0, 0x4e487b71)\n        /* \"#utility.yul\":1713:1746   */\n      dup2\n      mstore\n        /* \"#utility.yul\":1769:1773   */\n      0x11\n        /* \"#utility.yul\":1766:1767   */\n      0x04\n        /* \"#utility.yul\":1759:1774   */\n      mstore\n        /* \"#utility.yul\":1799:1803   */\n      0x24\n        /* \"#utility.yul\":1720:1723   */\n      dup2\n        /* \"#utility.yul\":1787:1804   */\n      revert\n        /* \"#utility.yul\":1674:1676   */\n    tag_59:\n      pop\n        /* \"#utility.yul\":1830:1839   */\n      add\n      swap1\n        /* \"#utility.yul\":1664:1845   */\n      jump\t// out\n\n    auxdata: 0xa2646970667358221220aad9cebee4b73cfa98a49488459b57797f640ebbaf7dc8ee0562f3730e6ed65664736f6c63430008040033\n}\n",
				"bytecode": {
					"linkReferences": {},
					"object": "608060405234801561001057600080fd5b5060405161032f38038061032f83398101604081905261002f91610049565b600080546001600160a01b03191633179055600155610061565b60006020828403121561005a578081fd5b5051919050565b6102bf806100706000396000f3fe6080604052600436106100555760003560e01c80632636b9451461005a57806342e94c90146100835780638da5cb5b146100b0578063c5c4744c146100e8578063c5cafc2a146100fe578063d7bb99ba14610120575b600080fd5b34801561006657600080fd5b5061007060015481565b6040519081526020015b60405180910390f35b34801561008f57600080fd5b5061007061009e36600461021f565b60036020526000908152604090205481565b3480156100bc57600080fd5b506000546100d0906001600160a01b031681565b6040516001600160a01b03909116815260200161007a565b3480156100f457600080fd5b5061007060025481565b34801561010a57600080fd5b5061011e61011936600461024d565b610128565b005b61011e610135565b8061013257600080fd5b50565b6000341161018a5760405162461bcd60e51b815260206004820152601c60248201527f496e76616c696420636f6e747269627574696f6e20616d6f756e742e0000000060448201526064015b60405180910390fd5b6001543460025461019b9190610265565b11156101e05760405162461bcd60e51b815260206004820152601460248201527323b7b0b61030b6b7bab73a103932b0b1b432b21760611b6044820152606401610181565b33600090815260036020526040812080543492906101ff908490610265565b9250508190555034600260008282546102189190610265565b9091555050565b600060208284031215610230578081fd5b81356001600160a01b0381168114610246578182fd5b9392505050565b60006020828403121561025e578081fd5b5035919050565b6000821982111561028457634e487b7160e01b81526011600452602481fd5b50019056fea2646970667358221220aad9cebee4b73cfa98a49488459b57797f640ebbaf7dc8ee0562f3730e6ed65664736f6c63430008040033",
					"opcodes": "PUSH1 0x80 PUSH1 0x40 MSTORE CALLVALUE DUP1 ISZERO PUSH2 0x10 JUMPI PUSH1 0x0 DUP1 REVERT JUMPDEST POP PUSH1 0x40 MLOAD PUSH2 0x32F CODESIZE SUB DUP1 PUSH2 0x32F DUP4 CODECOPY DUP2 ADD PUSH1 0x40 DUP2 SWAP1 MSTORE PUSH2 0x2F SWAP2 PUSH2 0x49 JUMP JUMPDEST PUSH1 0x0 DUP1 SLOAD PUSH1 0x1 PUSH1 0x1 PUSH1 0xA0 SHL SUB NOT AND CALLER OR SWAP1 SSTORE PUSH1 0x1 SSTORE PUSH2 0x61 JUMP JUMPDEST PUSH1 0x0 PUSH1 0x20 DUP3 DUP5 SUB SLT ISZERO PUSH2 0x5A JUMPI DUP1 DUP2 REVERT JUMPDEST POP MLOAD SWAP2 SWAP1 POP JUMP JUMPDEST PUSH2 0x2BF DUP1 PUSH2 0x70 PUSH1 0x0 CODECOPY PUSH1 0x0 RETURN INVALID PUSH1 0x80 PUSH1 0x40 MSTORE PUSH1 0x4 CALLDATASIZE LT PUSH2 0x55 JUMPI PUSH1 0x0 CALLDATALOAD PUSH1 0xE0 SHR DUP1 PUSH4 0x2636B945 EQ PUSH2 0x5A JUMPI DUP1 PUSH4 0x42E94C90 EQ PUSH2 0x83 JUMPI DUP1 PUSH4 0x8DA5CB5B EQ PUSH2 0xB0 JUMPI DUP1 PUSH4 0xC5C4744C EQ PUSH2 0xE8 JUMPI DUP1 PUSH4 0xC5CAFC2A EQ PUSH2 0xFE JUMPI DUP1 PUSH4 0xD7BB99BA EQ PUSH2 0x120 JUMPI JUMPDEST PUSH1 0x0 DUP1 REVERT JUMPDEST CALLVALUE DUP1 ISZERO PUSH2 0x66 JUMPI PUSH1 0x0 DUP1 REVERT JUMPDEST POP PUSH2 0x70 PUSH1 0x1 SLOAD DUP2 JUMP JUMPDEST PUSH1 0x40 MLOAD SWAP1 DUP2 MSTORE PUSH1 0x20 ADD JUMPDEST PUSH1 0x40 MLOAD DUP1 SWAP2 SUB SWAP1 RETURN JUMPDEST CALLVALUE DUP1 ISZERO PUSH2 0x8F JUMPI PUSH1 0x0 DUP1 REVERT JUMPDEST POP PUSH2 0x70 PUSH2 0x9E CALLDATASIZE PUSH1 0x4 PUSH2 0x21F JUMP JUMPDEST PUSH1 0x3 PUSH1 0x20 MSTORE PUSH1 0x0 SWAP1 DUP2 MSTORE PUSH1 0x40 SWAP1 KECCAK256 SLOAD DUP2 JUMP JUMPDEST CALLVALUE DUP1 ISZERO PUSH2 0xBC JUMPI PUSH1 0x0 DUP1 REVERT JUMPDEST POP PUSH1 0x0 SLOAD PUSH2 0xD0 SWAP1 PUSH1 0x1 PUSH1 0x1 PUSH1 0xA0 SHL SUB AND DUP2 JUMP JUMPDEST PUSH1 0x40 MLOAD PUSH1 0x1 PUSH1 0x1 PUSH1 0xA0 SHL SUB SWAP1 SWAP2 AND DUP2 MSTORE PUSH1 0x20 ADD PUSH2 0x7A JUMP JUMPDEST CALLVALUE DUP1 ISZERO PUSH2 0xF4 JUMPI PUSH1 0x0 DUP1 REVERT JUMPDEST POP PUSH2 0x70 PUSH1 0x2 SLOAD DUP2 JUMP JUMPDEST CALLVALUE DUP1 ISZERO PUSH2 0x10A JUMPI PUSH1 0x0 DUP1 REVERT JUMPDEST POP PUSH2 0x11E PUSH2 0x119 CALLDATASIZE PUSH1 0x4 PUSH2 0x24D JUMP JUMPDEST PUSH2 0x128 JUMP JUMPDEST STOP JUMPDEST PUSH2 0x11E PUSH2 0x135 JUMP JUMPDEST DUP1 PUSH2 0x132 JUMPI PUSH1 0x0 DUP1 REVERT JUMPDEST POP JUMP JUMPDEST PUSH1 0x0 CALLVALUE GT PUSH2 0x18A JUMPI PUSH1 0x40 MLOAD PUSH3 0x461BCD PUSH1 0xE5 SHL DUP2 MSTORE PUSH1 0x20 PUSH1 0x4 DUP3 ADD MSTORE PUSH1 0x1C PUSH1 0x24 DUP3 ADD MSTORE PUSH32 0x496E76616C696420636F6E747269627574696F6E20616D6F756E742E00000000 PUSH1 0x44 DUP3 ADD MSTORE PUSH1 0x64 ADD JUMPDEST PUSH1 0x40 MLOAD DUP1 SWAP2 SUB SWAP1 REVERT JUMPDEST PUSH1 0x1 SLOAD CALLVALUE PUSH1 0x2 SLOAD PUSH2 0x19B SWAP2 SWAP1 PUSH2 0x265 JUMP JUMPDEST GT ISZERO PUSH2 0x1E0 JUMPI PUSH1 0x40 MLOAD PUSH3 0x461BCD PUSH1 0xE5 SHL DUP2 MSTORE PUSH1 0x20 PUSH1 0x4 DUP3 ADD MSTORE PUSH1 0x14 PUSH1 0x24 DUP3 ADD MSTORE PUSH20 0x23B7B0B61030B6B7BAB73A103932B0B1B432B217 PUSH1 0x61 SHL PUSH1 0x44 DUP3 ADD MSTORE PUSH1 0x64 ADD PUSH2 0x181 JUMP JUMPDEST CALLER PUSH1 0x0 SWAP1 DUP2 MSTORE PUSH1 0x3 PUSH1 0x20 MSTORE PUSH1 0x40 DUP2 KECCAK256 DUP1 SLOAD CALLVALUE SWAP3 SWAP1 PUSH2 0x1FF SWAP1 DUP5 SWAP1 PUSH2 0x265 JUMP JUMPDEST SWAP3 POP POP DUP2 SWAP1 SSTORE POP CALLVALUE PUSH1 0x2 PUSH1 0x0 DUP3 DUP3 SLOAD PUSH2 0x218 SWAP2 SWAP1 PUSH2 0x265 JUMP JUMPDEST SWAP1 SWAP2 SSTORE POP POP JUMP JUMPDEST PUSH1 0x0 PUSH1 0x20 DUP3 DUP5 SUB SLT ISZERO PUSH2 0x230 JUMPI DUP1 DUP2 REVERT JUMPDEST DUP2 CALLDATALOAD PUSH1 0x1 PUSH1 0x1 PUSH1 0xA0 SHL SUB DUP2 AND DUP2 EQ PUSH2 0x246 JUMPI DUP2 DUP3 REVERT JUMPDEST SWAP4 SWAP3 POP POP POP JUMP JUMPDEST PUSH1 0x0 PUSH1 0x20 DUP3 DUP5 SUB SLT ISZERO PUSH2 0x25E JUMPI DUP1 DUP2 REVERT JUMPDEST POP CALLDATALOAD SWAP2 SWAP1 POP JUMP JUMPDEST PUSH1 0x0 DUP3 NOT DUP3 GT ISZERO PUSH2 0x284 JUMPI PUSH4 0x4E487B71 PUSH1 0xE0 SHL DUP2 MSTORE PUSH1 0x11 PUSH1 0x4 MSTORE PUSH1 0x24 DUP2 REVERT JUMPDEST POP ADD SWAP1 JUMP INVALID LOG2 PUSH5 0x6970667358 0x22 SLT KECCAK256 0xAA 0xD9 0xCE 0xBE 0xE4 0xB7 EXTCODECOPY STATICCALL SWAP9 LOG4 SWAP5 DUP9 GASLIMIT SWAP12 JUMPI PUSH26 0x7F640EBBAF7DC8EE0562F3730E6ED65664736F6C634300080400 CALLER "
				},
				"gasEstimates": {
					"creation": {
						"codeDepositCost": "140600",
						"executionCost": "infinite",
						"totalCost": "infinite"
					},
					"external": {
						"checkNonZero(uint256)": "306",
						"contribute()": "infinite",
						"contributions(address)": "1173",
						"goalAmount()": "962",
						"owner()": "1059",
						"totalRaised()": "1028"
					}
				},
				"methodIdentifiers": {
					"checkNonZero(uint256)": "c5cafc2a",
					"contribute()": "d7bb99ba",
					"contributions(address)": "42e94c90",
					"goalAmount()": "2636b945",
					"owner()": "8da5cb5b",
					"totalRaised()": "c5c4744c"
				}
			},
			"storageLayout": {
				"storage": [
					{
						"astId": 3,
						"contract": "Unsigned Integer Types Optimizer/test25.sol:Crowdfunding",
						"label": "owner",
						"offset": 0,
						"slot": "0",
						"type": "t_address"
					},
					{
						"astId": 5,
						"contract": "Unsigned Integer Types Optimizer/test25.sol:Crowdfunding",
						"label": "goalAmount",
						"offset": 0,
						"slot": "1",
						"type": "t_uint256"
					},
					{
						"astId": 7,
						"contract": "Unsigned Integer Types Optimizer/test25.sol:Crowdfunding",
						"label": "totalRaised",
						"offset": 0,
						"slot": "2",
						"type": "t_uint256"
					},
					{
						"astId": 11,
						"contract": "Unsigned Integer Types Optimizer/test25.sol:Crowdfunding",
						"label": "contributions",
						"offset": 0,
						"slot": "3",
						"type": "t_mapping(t_address,t_uint256)"
					}
				],
				"types": {
					"t_address": {
						"encoding": "inplace",
						"label": "address",
						"numberOfBytes": "20"
					},
					"t_mapping(t_address,t_uint256)": {
						"encoding": "mapping",
						"key": "t_address",
						"label": "mapping(address => uint256)",
						"numberOfBytes": "32",
						"value": "t_uint256"
					},
					"t_uint256": {
						"encoding": "inplace",
						"label": "uint256",
						"numberOfBytes": "32"
					}
				}
			},
			"userdoc": {
				"kind": "user",
				"methods": {},
				"version": 1
			}
		}
	}
}