{
	"Unsigned Integer Types Optimizer/optimized_test21.sol": {
		"NonZeroCheck": {
			"abi": [
				{
					"inputs": [
						{
							"internalType": "uint256",
							"name": "x",
							"type": "uint256"
						}
					],
					"name": "checkNonZero",
					"outputs": [],
					"stateMutability": "pure",
					"type": "function"
				}
			],
			"devdoc": {
				"kind": "dev",
				"methods": {},
				"version": 1
			},
			"evm": {
				"assembly": "    /* \"Unsigned Integer Types Optimizer/optimized_test21.sol\":56:162  contract NonZeroCheck {... */\n  mstore(0x40, 0x80)\n  callvalue\n  dup1\n  iszero\n  tag_1\n  jumpi\n  0x00\n  dup1\n  revert\ntag_1:\n  pop\n  dataSize(sub_0)\n  dup1\n  dataOffset(sub_0)\n  0x00\n  codecopy\n  0x00\n  return\nstop\n\nsub_0: assembly {\n        /* \"Unsigned Integer Types Optimizer/optimized_test21.sol\":56:162  contract NonZeroCheck {... */\n      mstore(0x40, 0x80)\n      callvalue\n      dup1\n      iszero\n      tag_1\n      jumpi\n      0x00\n      dup1\n      revert\n    tag_1:\n      pop\n      jumpi(tag_2, lt(calldatasize, 0x04))\n      shr(0xe0, calldataload(0x00))\n      dup1\n      0xc5cafc2a\n      eq\n      tag_3\n      jumpi\n    tag_2:\n      0x00\n      dup1\n      revert\n        /* \"Unsigned Integer Types Optimizer/optimized_test21.sol\":84:160  function checkNonZero(uint256 x) public pure {... */\n    tag_3:\n      tag_4\n      0x04\n      dup1\n      calldatasize\n      sub\n      dup2\n      add\n      swap1\n      tag_5\n      swap2\n      swap1\n      tag_6\n      jump\t// in\n    tag_5:\n      tag_7\n      jump\t// in\n    tag_4:\n      stop\n    tag_7:\n        /* \"Unsigned Integer Types Optimizer/optimized_test21.sol\":151:152  0 */\n      0x00\n        /* \"Unsigned Integer Types Optimizer/optimized_test21.sol\":147:148  x */\n      dup2\n        /* \"Unsigned Integer Types Optimizer/optimized_test21.sol\":147:152  x > 0 */\n      gt\n        /* \"Unsigned Integer Types Optimizer/optimized_test21.sol\":139:153  require(x > 0) */\n      tag_9\n      jumpi\n      0x00\n      dup1\n      revert\n    tag_9:\n        /* \"Unsigned Integer Types Optimizer/optimized_test21.sol\":84:160  function checkNonZero(uint256 x) public pure {... */\n      pop\n      jump\t// out\n        /* \"#utility.yul\":7:146   */\n    tag_11:\n        /* \"#utility.yul\":53:58   */\n      0x00\n        /* \"#utility.yul\":91:97   */\n      dup2\n        /* \"#utility.yul\":78:98   */\n      calldataload\n        /* \"#utility.yul\":69:98   */\n      swap1\n      pop\n        /* \"#utility.yul\":107:140   */\n      tag_13\n        /* \"#utility.yul\":134:139   */\n      dup2\n        /* \"#utility.yul\":107:140   */\n      tag_14\n      jump\t// in\n    tag_13:\n        /* \"#utility.yul\":59:146   */\n      swap3\n      swap2\n      pop\n      pop\n      jump\t// out\n        /* \"#utility.yul\":152:414   */\n    tag_6:\n        /* \"#utility.yul\":211:217   */\n      0x00\n        /* \"#utility.yul\":260:262   */\n      0x20\n        /* \"#utility.yul\":248:257   */\n      dup3\n        /* \"#utility.yul\":239:246   */\n      dup5\n        /* \"#utility.yul\":235:258   */\n      sub\n        /* \"#utility.yul\":231:263   */\n      slt\n        /* \"#utility.yul\":228:230   */\n      iszero\n      tag_16\n      jumpi\n        /* \"#utility.yul\":276:277   */\n      0x00\n        /* \"#utility.yul\":273:274   */\n      dup1\n        /* \"#utility.yul\":266:278   */\n      revert\n        /* \"#utility.yul\":228:230   */\n    tag_16:\n        /* \"#utility.yul\":319:320   */\n      0x00\n        /* \"#utility.yul\":344:397   */\n      tag_17\n        /* \"#utility.yul\":389:396   */\n      dup5\n        /* \"#utility.yul\":380:386   */\n      dup3\n        /* \"#utility.yul\":369:378   */\n      dup6\n        /* \"#utility.yul\":365:387   */\n      add\n        /* \"#utility.yul\":344:397   */\n      tag_11\n      jump\t// in\n    tag_17:\n        /* \"#utility.yul\":334:397   */\n      swap2\n      pop\n        /* \"#utility.yul\":290:407   */\n      pop\n        /* \"#utility.yul\":218:414   */\n      swap3\n      swap2\n      pop\n      pop\n      jump\t// out\n        /* \"#utility.yul\":420:497   */\n    tag_18:\n        /* \"#utility.yul\":457:464   */\n      0x00\n        /* \"#utility.yul\":486:491   */\n      dup2\n        /* \"#utility.yul\":475:491   */\n      swap1\n      pop\n        /* \"#utility.yul\":465:497   */\n      swap2\n      swap1\n      pop\n      jump\t// out\n        /* \"#utility.yul\":503:625   */\n    tag_14:\n        /* \"#utility.yul\":576:600   */\n      tag_21\n        /* \"#utility.yul\":594:599   */\n      dup2\n        /* \"#utility.yul\":576:600   */\n      tag_18\n      jump\t// in\n    tag_21:\n        /* \"#utility.yul\":569:574   */\n      dup2\n        /* \"#utility.yul\":566:601   */\n      eq\n        /* \"#utility.yul\":556:558   */\n      tag_22\n      jumpi\n        /* \"#utility.yul\":615:616   */\n      0x00\n        /* \"#utility.yul\":612:613   */\n      dup1\n        /* \"#utility.yul\":605:617   */\n      revert\n        /* \"#utility.yul\":556:558   */\n    tag_22:\n        /* \"#utility.yul\":546:625   */\n      pop\n      jump\t// out\n\n    auxdata: 0xa2646970667358221220c965b0bb3c722271a089ad8940828e1317ab72c12638f15547f83e51c6f91e0464736f6c63430008040033\n}\n",
				"bytecode": {
					"linkReferences": {},
					"object": "608060405234801561001057600080fd5b5060e18061001f6000396000f3fe6080604052348015600f57600080fd5b506004361060285760003560e01c8063c5cafc2a14602d575b600080fd5b60436004803603810190603f91906067565b6045565b005b60008111605157600080fd5b50565b6000813590506061816097565b92915050565b600060208284031215607857600080fd5b60006084848285016054565b91505092915050565b6000819050919050565b609e81608d565b811460a857600080fd5b5056fea2646970667358221220c965b0bb3c722271a089ad8940828e1317ab72c12638f15547f83e51c6f91e0464736f6c63430008040033",
					"opcodes": "PUSH1 0x80 PUSH1 0x40 MSTORE CALLVALUE DUP1 ISZERO PUSH2 0x10 JUMPI PUSH1 0x0 DUP1 REVERT JUMPDEST POP PUSH1 0xE1 DUP1 PUSH2 0x1F PUSH1 0x0 CODECOPY PUSH1 0x0 RETURN INVALID PUSH1 0x80 PUSH1 0x40 MSTORE CALLVALUE DUP1 ISZERO PUSH1 0xF JUMPI PUSH1 0x0 DUP1 REVERT JUMPDEST POP PUSH1 0x4 CALLDATASIZE LT PUSH1 0x28 JUMPI PUSH1 0x0 CALLDATALOAD PUSH1 0xE0 SHR DUP1 PUSH4 0xC5CAFC2A EQ PUSH1 0x2D JUMPI JUMPDEST PUSH1 0x0 DUP1 REVERT JUMPDEST PUSH1 0x43 PUSH1 0x4 DUP1 CALLDATASIZE SUB DUP2 ADD SWAP1 PUSH1 0x3F SWAP2 SWAP1 PUSH1 0x67 JUMP JUMPDEST PUSH1 0x45 JUMP JUMPDEST STOP JUMPDEST PUSH1 0x0 DUP2 GT PUSH1 0x51 JUMPI PUSH1 0x0 DUP1 REVERT JUMPDEST POP JUMP JUMPDEST PUSH1 0x0 DUP2 CALLDATALOAD SWAP1 POP PUSH1 0x61 DUP2 PUSH1 0x97 JUMP JUMPDEST SWAP3 SWAP2 POP POP JUMP JUMPDEST PUSH1 0x0 PUSH1 0x20 DUP3 DUP5 SUB SLT ISZERO PUSH1 0x78 JUMPI PUSH1 0x0 DUP1 REVERT JUMPDEST PUSH1 0x0 PUSH1 0x84 DUP5 DUP3 DUP6 ADD PUSH1 0x54 JUMP JUMPDEST SWAP2 POP POP SWAP3 SWAP2 POP POP JUMP JUMPDEST PUSH1 0x0 DUP2 SWAP1 POP SWAP2 SWAP1 POP JUMP JUMPDEST PUSH1 0x9E DUP2 PUSH1 0x8D JUMP JUMPDEST DUP2 EQ PUSH1 0xA8 JUMPI PUSH1 0x0 DUP1 REVERT JUMPDEST POP JUMP INVALID LOG2 PUSH5 0x6970667358 0x22 SLT KECCAK256 0xC9 PUSH6 0xB0BB3C722271 LOG0 DUP10 0xAD DUP10 BLOCKHASH DUP3 DUP15 SGT OR 0xAB PUSH19 0xC12638F15547F83E51C6F91E0464736F6C6343 STOP ADDMOD DIV STOP CALLER "
				},
				"gasEstimates": {
					"creation": {
						"codeDepositCost": "45000",
						"executionCost": "99",
						"totalCost": "45099"
					},
					"external": {
						"checkNonZero(uint256)": "407"
					}
				},
				"methodIdentifiers": {
					"checkNonZero(uint256)": "c5cafc2a"
				}
			},
			"storageLayout": {
				"storage": [],
				"types": null
			},
			"userdoc": {
				"kind": "user",
				"methods": {},
				"version": 1
			}
		}
	}
}