{
	"Unsigned Integer Types Optimizer/optimized_test23.sol": {
		"Auction": {
			"abi": [
				{
					"inputs": [],
					"stateMutability": "nonpayable",
					"type": "constructor"
				},
				{
					"inputs": [],
					"name": "bid",
					"outputs": [],
					"stateMutability": "payable",
					"type": "function"
				},
				{
					"inputs": [
						{
							"internalType": "uint256",
							"name": "x",
							"type": "uint256"
						}
					],
					"name": "checkNonZero",
					"outputs": [],
					"stateMutability": "pure",
					"type": "function"
				},
				{
					"inputs": [],
					"name": "highestBid",
					"outputs": [
						{
							"internalType": "uint256",
							"name": "",
							"type": "uint256"
						}
					],
					"stateMutability": "view",
					"type": "function"
				},
				{
					"inputs": [],
					"name": "highestBidder",
					"outputs": [
						{
							"internalType": "address",
							"name": "",
							"type": "address"
						}
					],
					"stateMutability": "view",
					"type": "function"
				},
				{
					"inputs": [],
					"name": "owner",
					"outputs": [
						{
							"internalType": "address",
							"name": "",
							"type": "address"
						}
					],
					"stateMutability": "view",
					"type": "function"
				}
			],
			"devdoc": {
				"kind": "dev",
				"methods": {},
				"version": 1
			},
			"evm": {
				"assembly": "    /* \"Unsigned Integer Types Optimizer/optimized_test23.sol\":56:633  contract Auction {... */\n  mstore(0x40, 0x80)\n    /* \"Unsigned Integer Types Optimizer/optimized_test23.sol\":171:280  constructor() {... */\n  callvalue\n  dup1\n  iszero\n  tag_1\n  jumpi\n  0x00\n  dup1\n  revert\ntag_1:\n  pop\n    /* \"Unsigned Integer Types Optimizer/optimized_test23.sol\":203:213  msg.sender */\n  caller\n    /* \"Unsigned Integer Types Optimizer/optimized_test23.sol\":195:200  owner */\n  0x00\n  dup1\n    /* \"Unsigned Integer Types Optimizer/optimized_test23.sol\":195:213  owner = msg.sender */\n  0x0100\n  exp\n  dup2\n  sload\n  dup2\n  0xffffffffffffffffffffffffffffffffffffffff\n  mul\n  not\n  and\n  swap1\n  dup4\n  0xffffffffffffffffffffffffffffffffffffffff\n  and\n  mul\n  or\n  swap1\n  sstore\n  pop\n    /* \"Unsigned Integer Types Optimizer/optimized_test23.sol\":236:237  0 */\n  0x00\n    /* \"Unsigned Integer Types Optimizer/optimized_test23.sol\":223:233  highestBid */\n  0x01\n    /* \"Unsigned Integer Types Optimizer/optimized_test23.sol\":223:237  highestBid = 0 */\n  dup2\n  swap1\n  sstore\n  pop\n    /* \"Unsigned Integer Types Optimizer/optimized_test23.sol\":271:272  0 */\n  0x00\n    /* \"Unsigned Integer Types Optimizer/optimized_test23.sol\":247:260  highestBidder */\n  0x02\n  0x00\n    /* \"Unsigned Integer Types Optimizer/optimized_test23.sol\":247:273  highestBidder = address(0) */\n  0x0100\n  exp\n  dup2\n  sload\n  dup2\n  0xffffffffffffffffffffffffffffffffffffffff\n  mul\n  not\n  and\n  swap1\n  dup4\n  0xffffffffffffffffffffffffffffffffffffffff\n  and\n  mul\n  or\n  swap1\n  sstore\n  pop\n    /* \"Unsigned Integer Types Optimizer/optimized_test23.sol\":56:633  contract Auction {... */\n  dataSize(sub_0)\n  dup1\n  dataOffset(sub_0)\n  0x00\n  codecopy\n  0x00\n  return\nstop\n\nsub_0: assembly {\n        /* \"Unsigned Integer Types Optimizer/optimized_test23.sol\":56:633  contract Auction {... */\n      mstore(0x40, 0x80)\n      jumpi(tag_1, lt(calldatasize, 0x04))\n      shr(0xe0, calldataload(0x00))\n      dup1\n      0x1998aeef\n      eq\n      tag_2\n      jumpi\n      dup1\n      0x8da5cb5b\n      eq\n      tag_3\n      jumpi\n      dup1\n      0x91f90157\n      eq\n      tag_4\n      jumpi\n      dup1\n      0xc5cafc2a\n      eq\n      tag_5\n      jumpi\n      dup1\n      0xd57bde79\n      eq\n      tag_6\n      jumpi\n    tag_1:\n      0x00\n      dup1\n      revert\n        /* \"Unsigned Integer Types Optimizer/optimized_test23.sol\":286:549  function bid() public payable {... */\n    tag_2:\n      tag_7\n      tag_8\n      jump\t// in\n    tag_7:\n      stop\n        /* \"Unsigned Integer Types Optimizer/optimized_test23.sol\":79:99  address public owner */\n    tag_3:\n      callvalue\n      dup1\n      iszero\n      tag_9\n      jumpi\n      0x00\n      dup1\n      revert\n    tag_9:\n      pop\n      tag_10\n      tag_11\n      jump\t// in\n    tag_10:\n      mload(0x40)\n      tag_12\n      swap2\n      swap1\n      tag_13\n      jump\t// in\n    tag_12:\n      mload(0x40)\n      dup1\n      swap2\n      sub\n      swap1\n      return\n        /* \"Unsigned Integer Types Optimizer/optimized_test23.sol\":136:164  address public highestBidder */\n    tag_4:\n      callvalue\n      dup1\n      iszero\n      tag_14\n      jumpi\n      0x00\n      dup1\n      revert\n    tag_14:\n      pop\n      tag_15\n      tag_16\n      jump\t// in\n    tag_15:\n      mload(0x40)\n      tag_17\n      swap2\n      swap1\n      tag_13\n      jump\t// in\n    tag_17:\n      mload(0x40)\n      dup1\n      swap2\n      sub\n      swap1\n      return\n        /* \"Unsigned Integer Types Optimizer/optimized_test23.sol\":555:631  function checkNonZero(uint256 x) public pure {... */\n    tag_5:\n      callvalue\n      dup1\n      iszero\n      tag_18\n      jumpi\n      0x00\n      dup1\n      revert\n    tag_18:\n      pop\n      tag_19\n      0x04\n      dup1\n      calldatasize\n      sub\n      dup2\n      add\n      swap1\n      tag_20\n      swap2\n      swap1\n      tag_21\n      jump\t// in\n    tag_20:\n      tag_22\n      jump\t// in\n    tag_19:\n      stop\n        /* \"Unsigned Integer Types Optimizer/optimized_test23.sol\":105:130  uint256 public highestBid */\n    tag_6:\n      callvalue\n      dup1\n      iszero\n      tag_23\n      jumpi\n      0x00\n      dup1\n      revert\n    tag_23:\n      pop\n      tag_24\n      tag_25\n      jump\t// in\n    tag_24:\n      mload(0x40)\n      tag_26\n      swap2\n      swap1\n      tag_27\n      jump\t// in\n    tag_26:\n      mload(0x40)\n      dup1\n      swap2\n      sub\n      swap1\n      return\n        /* \"Unsigned Integer Types Optimizer/optimized_test23.sol\":286:549  function bid() public payable {... */\n    tag_8:\n        /* \"Unsigned Integer Types Optimizer/optimized_test23.sol\":346:356  highestBid */\n      sload(0x01)\n        /* \"Unsigned Integer Types Optimizer/optimized_test23.sol\":334:343  msg.value */\n      callvalue\n        /* \"Unsigned Integer Types Optimizer/optimized_test23.sol\":334:356  msg.value > highestBid */\n      gt\n        /* \"Unsigned Integer Types Optimizer/optimized_test23.sol\":326:407  require(msg.value > highestBid, \"Bid amount should be greater than highest bid.\") */\n      tag_29\n      jumpi\n      mload(0x40)\n      0x08c379a000000000000000000000000000000000000000000000000000000000\n      dup2\n      mstore\n      0x04\n      add\n      tag_30\n      swap1\n      tag_31\n      jump\t// in\n    tag_30:\n      mload(0x40)\n      dup1\n      swap2\n      sub\n      swap1\n      revert\n    tag_29:\n        /* \"Unsigned Integer Types Optimizer/optimized_test23.sol\":439:444  owner */\n      0x00\n      dup1\n      sload\n      swap1\n      0x0100\n      exp\n      swap1\n      div\n      0xffffffffffffffffffffffffffffffffffffffff\n      and\n        /* \"Unsigned Integer Types Optimizer/optimized_test23.sol\":425:444  msg.sender != owner */\n      0xffffffffffffffffffffffffffffffffffffffff\n      and\n        /* \"Unsigned Integer Types Optimizer/optimized_test23.sol\":425:435  msg.sender */\n      caller\n        /* \"Unsigned Integer Types Optimizer/optimized_test23.sol\":425:444  msg.sender != owner */\n      0xffffffffffffffffffffffffffffffffffffffff\n      and\n      eq\n      iszero\n        /* \"Unsigned Integer Types Optimizer/optimized_test23.sol\":417:474  require(msg.sender != owner, \"Owner cannot place a bid.\") */\n      tag_32\n      jumpi\n      mload(0x40)\n      0x08c379a000000000000000000000000000000000000000000000000000000000\n      dup2\n      mstore\n      0x04\n      add\n      tag_33\n      swap1\n      tag_34\n      jump\t// in\n    tag_33:\n      mload(0x40)\n      dup1\n      swap2\n      sub\n      swap1\n      revert\n    tag_32:\n        /* \"Unsigned Integer Types Optimizer/optimized_test23.sol\":497:506  msg.value */\n      callvalue\n        /* \"Unsigned Integer Types Optimizer/optimized_test23.sol\":484:494  highestBid */\n      0x01\n        /* \"Unsigned Integer Types Optimizer/optimized_test23.sol\":484:506  highestBid = msg.value */\n      dup2\n      swap1\n      sstore\n      pop\n        /* \"Unsigned Integer Types Optimizer/optimized_test23.sol\":532:542  msg.sender */\n      caller\n        /* \"Unsigned Integer Types Optimizer/optimized_test23.sol\":516:529  highestBidder */\n      0x02\n      0x00\n        /* \"Unsigned Integer Types Optimizer/optimized_test23.sol\":516:542  highestBidder = msg.sender */\n      0x0100\n      exp\n      dup2\n      sload\n      dup2\n      0xffffffffffffffffffffffffffffffffffffffff\n      mul\n      not\n      and\n      swap1\n      dup4\n      0xffffffffffffffffffffffffffffffffffffffff\n      and\n      mul\n      or\n      swap1\n      sstore\n      pop\n        /* \"Unsigned Integer Types Optimizer/optimized_test23.sol\":286:549  function bid() public payable {... */\n      jump\t// out\n        /* \"Unsigned Integer Types Optimizer/optimized_test23.sol\":79:99  address public owner */\n    tag_11:\n      0x00\n      dup1\n      sload\n      swap1\n      0x0100\n      exp\n      swap1\n      div\n      0xffffffffffffffffffffffffffffffffffffffff\n      and\n      dup2\n      jump\t// out\n        /* \"Unsigned Integer Types Optimizer/optimized_test23.sol\":136:164  address public highestBidder */\n    tag_16:\n      0x02\n      0x00\n      swap1\n      sload\n      swap1\n      0x0100\n      exp\n      swap1\n      div\n      0xffffffffffffffffffffffffffffffffffffffff\n      and\n      dup2\n      jump\t// out\n        /* \"Unsigned Integer Types Optimizer/optimized_test23.sol\":555:631  function checkNonZero(uint256 x) public pure {... */\n    tag_22:\n        /* \"Unsigned Integer Types Optimizer/optimized_test23.sol\":622:623  0 */\n      0x00\n        /* \"Unsigned Integer Types Optimizer/optimized_test23.sol\":618:619  x */\n      dup2\n        /* \"Unsigned Integer Types Optimizer/optimized_test23.sol\":618:623  x > 0 */\n      gt\n        /* \"Unsigned Integer Types Optimizer/optimized_test23.sol\":610:624  require(x > 0) */\n      tag_36\n      jumpi\n      0x00\n      dup1\n      revert\n    tag_36:\n        /* \"Unsigned Integer Types Optimizer/optimized_test23.sol\":555:631  function checkNonZero(uint256 x) public pure {... */\n      pop\n      jump\t// out\n        /* \"Unsigned Integer Types Optimizer/optimized_test23.sol\":105:130  uint256 public highestBid */\n    tag_25:\n      sload(0x01)\n      dup2\n      jump\t// out\n        /* \"#utility.yul\":7:146   */\n    tag_38:\n        /* \"#utility.yul\":53:58   */\n      0x00\n        /* \"#utility.yul\":91:97   */\n      dup2\n        /* \"#utility.yul\":78:98   */\n      calldataload\n        /* \"#utility.yul\":69:98   */\n      swap1\n      pop\n        /* \"#utility.yul\":107:140   */\n      tag_40\n        /* \"#utility.yul\":134:139   */\n      dup2\n        /* \"#utility.yul\":107:140   */\n      tag_41\n      jump\t// in\n    tag_40:\n        /* \"#utility.yul\":59:146   */\n      swap3\n      swap2\n      pop\n      pop\n      jump\t// out\n        /* \"#utility.yul\":152:414   */\n    tag_21:\n        /* \"#utility.yul\":211:217   */\n      0x00\n        /* \"#utility.yul\":260:262   */\n      0x20\n        /* \"#utility.yul\":248:257   */\n      dup3\n        /* \"#utility.yul\":239:246   */\n      dup5\n        /* \"#utility.yul\":235:258   */\n      sub\n        /* \"#utility.yul\":231:263   */\n      slt\n        /* \"#utility.yul\":228:230   */\n      iszero\n      tag_43\n      jumpi\n        /* \"#utility.yul\":276:277   */\n      0x00\n        /* \"#utility.yul\":273:274   */\n      dup1\n        /* \"#utility.yul\":266:278   */\n      revert\n        /* \"#utility.yul\":228:230   */\n    tag_43:\n        /* \"#utility.yul\":319:320   */\n      0x00\n        /* \"#utility.yul\":344:397   */\n      tag_44\n        /* \"#utility.yul\":389:396   */\n      dup5\n        /* \"#utility.yul\":380:386   */\n      dup3\n        /* \"#utility.yul\":369:378   */\n      dup6\n        /* \"#utility.yul\":365:387   */\n      add\n        /* \"#utility.yul\":344:397   */\n      tag_38\n      jump\t// in\n    tag_44:\n        /* \"#utility.yul\":334:397   */\n      swap2\n      pop\n        /* \"#utility.yul\":290:407   */\n      pop\n        /* \"#utility.yul\":218:414   */\n      swap3\n      swap2\n      pop\n      pop\n      jump\t// out\n        /* \"#utility.yul\":420:538   */\n    tag_45:\n        /* \"#utility.yul\":507:531   */\n      tag_47\n        /* \"#utility.yul\":525:530   */\n      dup2\n        /* \"#utility.yul\":507:531   */\n      tag_48\n      jump\t// in\n    tag_47:\n        /* \"#utility.yul\":502:505   */\n      dup3\n        /* \"#utility.yul\":495:532   */\n      mstore\n        /* \"#utility.yul\":485:538   */\n      pop\n      pop\n      jump\t// out\n        /* \"#utility.yul\":544:910   */\n    tag_49:\n        /* \"#utility.yul\":686:689   */\n      0x00\n        /* \"#utility.yul\":707:774   */\n      tag_51\n        /* \"#utility.yul\":771:773   */\n      0x19\n        /* \"#utility.yul\":766:769   */\n      dup4\n        /* \"#utility.yul\":707:774   */\n      tag_52\n      jump\t// in\n    tag_51:\n        /* \"#utility.yul\":700:774   */\n      swap2\n      pop\n        /* \"#utility.yul\":783:876   */\n      tag_53\n        /* \"#utility.yul\":872:875   */\n      dup3\n        /* \"#utility.yul\":783:876   */\n      tag_54\n      jump\t// in\n    tag_53:\n        /* \"#utility.yul\":901:903   */\n      0x20\n        /* \"#utility.yul\":896:899   */\n      dup3\n        /* \"#utility.yul\":892:904   */\n      add\n        /* \"#utility.yul\":885:904   */\n      swap1\n      pop\n        /* \"#utility.yul\":690:910   */\n      swap2\n      swap1\n      pop\n      jump\t// out\n        /* \"#utility.yul\":916:1282   */\n    tag_55:\n        /* \"#utility.yul\":1058:1061   */\n      0x00\n        /* \"#utility.yul\":1079:1146   */\n      tag_57\n        /* \"#utility.yul\":1143:1145   */\n      0x2e\n        /* \"#utility.yul\":1138:1141   */\n      dup4\n        /* \"#utility.yul\":1079:1146   */\n      tag_52\n      jump\t// in\n    tag_57:\n        /* \"#utility.yul\":1072:1146   */\n      swap2\n      pop\n        /* \"#utility.yul\":1155:1248   */\n      tag_58\n        /* \"#utility.yul\":1244:1247   */\n      dup3\n        /* \"#utility.yul\":1155:1248   */\n      tag_59\n      jump\t// in\n    tag_58:\n        /* \"#utility.yul\":1273:1275   */\n      0x40\n        /* \"#utility.yul\":1268:1271   */\n      dup3\n        /* \"#utility.yul\":1264:1276   */\n      add\n        /* \"#utility.yul\":1257:1276   */\n      swap1\n      pop\n        /* \"#utility.yul\":1062:1282   */\n      swap2\n      swap1\n      pop\n      jump\t// out\n        /* \"#utility.yul\":1288:1406   */\n    tag_60:\n        /* \"#utility.yul\":1375:1399   */\n      tag_62\n        /* \"#utility.yul\":1393:1398   */\n      dup2\n        /* \"#utility.yul\":1375:1399   */\n      tag_63\n      jump\t// in\n    tag_62:\n        /* \"#utility.yul\":1370:1373   */\n      dup3\n        /* \"#utility.yul\":1363:1400   */\n      mstore\n        /* \"#utility.yul\":1353:1406   */\n      pop\n      pop\n      jump\t// out\n        /* \"#utility.yul\":1412:1634   */\n    tag_13:\n        /* \"#utility.yul\":1505:1509   */\n      0x00\n        /* \"#utility.yul\":1543:1545   */\n      0x20\n        /* \"#utility.yul\":1532:1541   */\n      dup3\n        /* \"#utility.yul\":1528:1546   */\n      add\n        /* \"#utility.yul\":1520:1546   */\n      swap1\n      pop\n        /* \"#utility.yul\":1556:1627   */\n      tag_65\n        /* \"#utility.yul\":1624:1625   */\n      0x00\n        /* \"#utility.yul\":1613:1622   */\n      dup4\n        /* \"#utility.yul\":1609:1626   */\n      add\n        /* \"#utility.yul\":1600:1606   */\n      dup5\n        /* \"#utility.yul\":1556:1627   */\n      tag_45\n      jump\t// in\n    tag_65:\n        /* \"#utility.yul\":1510:1634   */\n      swap3\n      swap2\n      pop\n      pop\n      jump\t// out\n        /* \"#utility.yul\":1640:2059   */\n    tag_34:\n        /* \"#utility.yul\":1806:1810   */\n      0x00\n        /* \"#utility.yul\":1844:1846   */\n      0x20\n        /* \"#utility.yul\":1833:1842   */\n      dup3\n        /* \"#utility.yul\":1829:1847   */\n      add\n        /* \"#utility.yul\":1821:1847   */\n      swap1\n      pop\n        /* \"#utility.yul\":1893:1902   */\n      dup2\n        /* \"#utility.yul\":1887:1891   */\n      dup2\n        /* \"#utility.yul\":1883:1903   */\n      sub\n        /* \"#utility.yul\":1879:1880   */\n      0x00\n        /* \"#utility.yul\":1868:1877   */\n      dup4\n        /* \"#utility.yul\":1864:1881   */\n      add\n        /* \"#utility.yul\":1857:1904   */\n      mstore\n        /* \"#utility.yul\":1921:2052   */\n      tag_67\n        /* \"#utility.yul\":2047:2051   */\n      dup2\n        /* \"#utility.yul\":1921:2052   */\n      tag_49\n      jump\t// in\n    tag_67:\n        /* \"#utility.yul\":1913:2052   */\n      swap1\n      pop\n        /* \"#utility.yul\":1811:2059   */\n      swap2\n      swap1\n      pop\n      jump\t// out\n        /* \"#utility.yul\":2065:2484   */\n    tag_31:\n        /* \"#utility.yul\":2231:2235   */\n      0x00\n        /* \"#utility.yul\":2269:2271   */\n      0x20\n        /* \"#utility.yul\":2258:2267   */\n      dup3\n        /* \"#utility.yul\":2254:2272   */\n      add\n        /* \"#utility.yul\":2246:2272   */\n      swap1\n      pop\n        /* \"#utility.yul\":2318:2327   */\n      dup2\n        /* \"#utility.yul\":2312:2316   */\n      dup2\n        /* \"#utility.yul\":2308:2328   */\n      sub\n        /* \"#utility.yul\":2304:2305   */\n      0x00\n        /* \"#utility.yul\":2293:2302   */\n      dup4\n        /* \"#utility.yul\":2289:2306   */\n      add\n        /* \"#utility.yul\":2282:2329   */\n      mstore\n        /* \"#utility.yul\":2346:2477   */\n      tag_69\n        /* \"#utility.yul\":2472:2476   */\n      dup2\n        /* \"#utility.yul\":2346:2477   */\n      tag_55\n      jump\t// in\n    tag_69:\n        /* \"#utility.yul\":2338:2477   */\n      swap1\n      pop\n        /* \"#utility.yul\":2236:2484   */\n      swap2\n      swap1\n      pop\n      jump\t// out\n        /* \"#utility.yul\":2490:2712   */\n    tag_27:\n        /* \"#utility.yul\":2583:2587   */\n      0x00\n        /* \"#utility.yul\":2621:2623   */\n      0x20\n        /* \"#utility.yul\":2610:2619   */\n      dup3\n        /* \"#utility.yul\":2606:2624   */\n      add\n        /* \"#utility.yul\":2598:2624   */\n      swap1\n      pop\n        /* \"#utility.yul\":2634:2705   */\n      tag_71\n        /* \"#utility.yul\":2702:2703   */\n      0x00\n        /* \"#utility.yul\":2691:2700   */\n      dup4\n        /* \"#utility.yul\":2687:2704   */\n      add\n        /* \"#utility.yul\":2678:2684   */\n      dup5\n        /* \"#utility.yul\":2634:2705   */\n      tag_60\n      jump\t// in\n    tag_71:\n        /* \"#utility.yul\":2588:2712   */\n      swap3\n      swap2\n      pop\n      pop\n      jump\t// out\n        /* \"#utility.yul\":2718:2887   */\n    tag_52:\n        /* \"#utility.yul\":2802:2813   */\n      0x00\n        /* \"#utility.yul\":2836:2842   */\n      dup3\n        /* \"#utility.yul\":2831:2834   */\n      dup3\n        /* \"#utility.yul\":2824:2843   */\n      mstore\n        /* \"#utility.yul\":2876:2880   */\n      0x20\n        /* \"#utility.yul\":2871:2874   */\n      dup3\n        /* \"#utility.yul\":2867:2881   */\n      add\n        /* \"#utility.yul\":2852:2881   */\n      swap1\n      pop\n        /* \"#utility.yul\":2814:2887   */\n      swap3\n      swap2\n      pop\n      pop\n      jump\t// out\n        /* \"#utility.yul\":2893:2989   */\n    tag_48:\n        /* \"#utility.yul\":2930:2937   */\n      0x00\n        /* \"#utility.yul\":2959:2983   */\n      tag_74\n        /* \"#utility.yul\":2977:2982   */\n      dup3\n        /* \"#utility.yul\":2959:2983   */\n      tag_75\n      jump\t// in\n    tag_74:\n        /* \"#utility.yul\":2948:2983   */\n      swap1\n      pop\n        /* \"#utility.yul\":2938:2989   */\n      swap2\n      swap1\n      pop\n      jump\t// out\n        /* \"#utility.yul\":2995:3121   */\n    tag_75:\n        /* \"#utility.yul\":3032:3039   */\n      0x00\n        /* \"#utility.yul\":3072:3114   */\n      0xffffffffffffffffffffffffffffffffffffffff\n        /* \"#utility.yul\":3065:3070   */\n      dup3\n        /* \"#utility.yul\":3061:3115   */\n      and\n        /* \"#utility.yul\":3050:3115   */\n      swap1\n      pop\n        /* \"#utility.yul\":3040:3121   */\n      swap2\n      swap1\n      pop\n      jump\t// out\n        /* \"#utility.yul\":3127:3204   */\n    tag_63:\n        /* \"#utility.yul\":3164:3171   */\n      0x00\n        /* \"#utility.yul\":3193:3198   */\n      dup2\n        /* \"#utility.yul\":3182:3198   */\n      swap1\n      pop\n        /* \"#utility.yul\":3172:3204   */\n      swap2\n      swap1\n      pop\n      jump\t// out\n        /* \"#utility.yul\":3210:3385   */\n    tag_54:\n        /* \"#utility.yul\":3350:3377   */\n      0x4f776e65722063616e6e6f7420706c6163652061206269642e00000000000000\n        /* \"#utility.yul\":3346:3347   */\n      0x00\n        /* \"#utility.yul\":3338:3344   */\n      dup3\n        /* \"#utility.yul\":3334:3348   */\n      add\n        /* \"#utility.yul\":3327:3378   */\n      mstore\n        /* \"#utility.yul\":3316:3385   */\n      pop\n      jump\t// out\n        /* \"#utility.yul\":3391:3624   */\n    tag_59:\n        /* \"#utility.yul\":3531:3565   */\n      0x42696420616d6f756e742073686f756c64206265206772656174657220746861\n        /* \"#utility.yul\":3527:3528   */\n      0x00\n        /* \"#utility.yul\":3519:3525   */\n      dup3\n        /* \"#utility.yul\":3515:3529   */\n      add\n        /* \"#utility.yul\":3508:3566   */\n      mstore\n        /* \"#utility.yul\":3600:3616   */\n      0x6e2068696768657374206269642e000000000000000000000000000000000000\n        /* \"#utility.yul\":3595:3597   */\n      0x20\n        /* \"#utility.yul\":3587:3593   */\n      dup3\n        /* \"#utility.yul\":3583:3598   */\n      add\n        /* \"#utility.yul\":3576:3617   */\n      mstore\n        /* \"#utility.yul\":3497:3624   */\n      pop\n      jump\t// out\n        /* \"#utility.yul\":3630:3752   */\n    tag_41:\n        /* \"#utility.yul\":3703:3727   */\n      tag_81\n        /* \"#utility.yul\":3721:3726   */\n      dup2\n        /* \"#utility.yul\":3703:3727   */\n      tag_63\n      jump\t// in\n    tag_81:\n        /* \"#utility.yul\":3696:3701   */\n      dup2\n        /* \"#utility.yul\":3693:3728   */\n      eq\n        /* \"#utility.yul\":3683:3685   */\n      tag_82\n      jumpi\n        /* \"#utility.yul\":3742:3743   */\n      0x00\n        /* \"#utility.yul\":3739:3740   */\n      dup1\n        /* \"#utility.yul\":3732:3744   */\n      revert\n        /* \"#utility.yul\":3683:3685   */\n    tag_82:\n        /* \"#utility.yul\":3673:3752   */\n      pop\n      jump\t// out\n\n    auxdata: 0xa26469706673582212203f8589a3f1c14c752f3eb8f3d911a0b9f3df254cf486d261a9c25898c964361364736f6c63430008040033\n}\n",
				"bytecode": {
					"linkReferences": {},
					"object": "608060405234801561001057600080fd5b50336000806101000a81548173ffffffffffffffffffffffffffffffffffffffff021916908373ffffffffffffffffffffffffffffffffffffffff16021790555060006001819055506000600260006101000a81548173ffffffffffffffffffffffffffffffffffffffff021916908373ffffffffffffffffffffffffffffffffffffffff1602179055506104aa806100aa6000396000f3fe60806040526004361061004a5760003560e01c80631998aeef1461004f5780638da5cb5b1461005957806391f9015714610084578063c5cafc2a146100af578063d57bde79146100d8575b600080fd5b610057610103565b005b34801561006557600080fd5b5061006e610220565b60405161007b9190610322565b60405180910390f35b34801561009057600080fd5b50610099610244565b6040516100a69190610322565b60405180910390f35b3480156100bb57600080fd5b506100d660048036038101906100d19190610295565b61026a565b005b3480156100e457600080fd5b506100ed61027a565b6040516100fa919061037d565b60405180910390f35b6001543411610147576040517f08c379a000000000000000000000000000000000000000000000000000000000815260040161013e9061035d565b60405180910390fd5b60008054906101000a900473ffffffffffffffffffffffffffffffffffffffff1673ffffffffffffffffffffffffffffffffffffffff163373ffffffffffffffffffffffffffffffffffffffff1614156101d6576040517f08c379a00000000000000000000000000000000000000000000000000000000081526004016101cd9061033d565b60405180910390fd5b3460018190555033600260006101000a81548173ffffffffffffffffffffffffffffffffffffffff021916908373ffffffffffffffffffffffffffffffffffffffff160217905550565b60008054906101000a900473ffffffffffffffffffffffffffffffffffffffff1681565b600260009054906101000a900473ffffffffffffffffffffffffffffffffffffffff1681565b6000811161027757600080fd5b50565b60015481565b60008135905061028f8161045d565b92915050565b6000602082840312156102a757600080fd5b60006102b584828501610280565b91505092915050565b6102c7816103a9565b82525050565b60006102da601983610398565b91506102e5826103e5565b602082019050919050565b60006102fd602e83610398565b91506103088261040e565b604082019050919050565b61031c816103db565b82525050565b600060208201905061033760008301846102be565b92915050565b60006020820190508181036000830152610356816102cd565b9050919050565b60006020820190508181036000830152610376816102f0565b9050919050565b60006020820190506103926000830184610313565b92915050565b600082825260208201905092915050565b60006103b4826103bb565b9050919050565b600073ffffffffffffffffffffffffffffffffffffffff82169050919050565b6000819050919050565b7f4f776e65722063616e6e6f7420706c6163652061206269642e00000000000000600082015250565b7f42696420616d6f756e742073686f756c6420626520677265617465722074686160008201527f6e2068696768657374206269642e000000000000000000000000000000000000602082015250565b610466816103db565b811461047157600080fd5b5056fea26469706673582212203f8589a3f1c14c752f3eb8f3d911a0b9f3df254cf486d261a9c25898c964361364736f6c63430008040033",
					"opcodes": "PUSH1 0x80 PUSH1 0x40 MSTORE CALLVALUE DUP1 ISZERO PUSH2 0x10 JUMPI PUSH1 0x0 DUP1 REVERT JUMPDEST POP CALLER PUSH1 0x0 DUP1 PUSH2 0x100 EXP DUP2 SLOAD DUP2 PUSH20 0xFFFFFFFFFFFFFFFFFFFFFFFFFFFFFFFFFFFFFFFF MUL NOT AND SWAP1 DUP4 PUSH20 0xFFFFFFFFFFFFFFFFFFFFFFFFFFFFFFFFFFFFFFFF AND MUL OR SWAP1 SSTORE POP PUSH1 0x0 PUSH1 0x1 DUP2 SWAP1 SSTORE POP PUSH1 0x0 PUSH1 0x2 PUSH1 0x0 PUSH2 0x100 EXP DUP2 SLOAD DUP2 PUSH20 0xFFFFFFFFFFFFFFFFFFFFFFFFFFFFFFFFFFFFFFFF MUL NOT AND SWAP1 DUP4 PUSH20 0xFFFFFFFFFFFFFFFFFFFFFFFFFFFFFFFFFFFFFFFF AND MUL OR SWAP1 SSTORE POP PUSH2 0x4AA DUP1 PUSH2 0xAA PUSH1 0x0 CODECOPY PUSH1 0x0 RETURN INVALID PUSH1 0x80 PUSH1 0x40 MSTORE PUSH1 0x4 CALLDATASIZE LT PUSH2 0x4A JUMPI PUSH1 0x0 CALLDATALOAD PUSH1 0xE0 SHR DUP1 PUSH4 0x1998AEEF EQ PUSH2 0x4F JUMPI DUP1 PUSH4 0x8DA5CB5B EQ PUSH2 0x59 JUMPI DUP1 PUSH4 0x91F90157 EQ PUSH2 0x84 JUMPI DUP1 PUSH4 0xC5CAFC2A EQ PUSH2 0xAF JUMPI DUP1 PUSH4 0xD57BDE79 EQ PUSH2 0xD8 JUMPI JUMPDEST PUSH1 0x0 DUP1 REVERT JUMPDEST PUSH2 0x57 PUSH2 0x103 JUMP JUMPDEST STOP JUMPDEST CALLVALUE DUP1 ISZERO PUSH2 0x65 JUMPI PUSH1 0x0 DUP1 REVERT JUMPDEST POP PUSH2 0x6E PUSH2 0x220 JUMP JUMPDEST PUSH1 0x40 MLOAD PUSH2 0x7B SWAP2 SWAP1 PUSH2 0x322 JUMP JUMPDEST PUSH1 0x40 MLOAD DUP1 SWAP2 SUB SWAP1 RETURN JUMPDEST CALLVALUE DUP1 ISZERO PUSH2 0x90 JUMPI PUSH1 0x0 DUP1 REVERT JUMPDEST POP PUSH2 0x99 PUSH2 0x244 JUMP JUMPDEST PUSH1 0x40 MLOAD PUSH2 0xA6 SWAP2 SWAP1 PUSH2 0x322 JUMP JUMPDEST PUSH1 0x40 MLOAD DUP1 SWAP2 SUB SWAP1 RETURN JUMPDEST CALLVALUE DUP1 ISZERO PUSH2 0xBB JUMPI PUSH1 0x0 DUP1 REVERT JUMPDEST POP PUSH2 0xD6 PUSH1 0x4 DUP1 CALLDATASIZE SUB DUP2 ADD SWAP1 PUSH2 0xD1 SWAP2 SWAP1 PUSH2 0x295 JUMP JUMPDEST PUSH2 0x26A JUMP JUMPDEST STOP JUMPDEST CALLVALUE DUP1 ISZERO PUSH2 0xE4 JUMPI PUSH1 0x0 DUP1 REVERT JUMPDEST POP PUSH2 0xED PUSH2 0x27A JUMP JUMPDEST PUSH1 0x40 MLOAD PUSH2 0xFA SWAP2 SWAP1 PUSH2 0x37D JUMP JUMPDEST PUSH1 0x40 MLOAD DUP1 SWAP2 SUB SWAP1 RETURN JUMPDEST PUSH1 0x1 SLOAD CALLVALUE GT PUSH2 0x147 JUMPI PUSH1 0x40 MLOAD PUSH32 0x8C379A000000000000000000000000000000000000000000000000000000000 DUP2 MSTORE PUSH1 0x4 ADD PUSH2 0x13E SWAP1 PUSH2 0x35D JUMP JUMPDEST PUSH1 0x40 MLOAD DUP1 SWAP2 SUB SWAP1 REVERT JUMPDEST PUSH1 0x0 DUP1 SLOAD SWAP1 PUSH2 0x100 EXP SWAP1 DIV PUSH20 0xFFFFFFFFFFFFFFFFFFFFFFFFFFFFFFFFFFFFFFFF AND PUSH20 0xFFFFFFFFFFFFFFFFFFFFFFFFFFFFFFFFFFFFFFFF AND CALLER PUSH20 0xFFFFFFFFFFFFFFFFFFFFFFFFFFFFFFFFFFFFFFFF AND EQ ISZERO PUSH2 0x1D6 JUMPI PUSH1 0x40 MLOAD PUSH32 0x8C379A000000000000000000000000000000000000000000000000000000000 DUP2 MSTORE PUSH1 0x4 ADD PUSH2 0x1CD SWAP1 PUSH2 0x33D JUMP JUMPDEST PUSH1 0x40 MLOAD DUP1 SWAP2 SUB SWAP1 REVERT JUMPDEST CALLVALUE PUSH1 0x1 DUP2 SWAP1 SSTORE POP CALLER PUSH1 0x2 PUSH1 0x0 PUSH2 0x100 EXP DUP2 SLOAD DUP2 PUSH20 0xFFFFFFFFFFFFFFFFFFFFFFFFFFFFFFFFFFFFFFFF MUL NOT AND SWAP1 DUP4 PUSH20 0xFFFFFFFFFFFFFFFFFFFFFFFFFFFFFFFFFFFFFFFF AND MUL OR SWAP1 SSTORE POP JUMP JUMPDEST PUSH1 0x0 DUP1 SLOAD SWAP1 PUSH2 0x100 EXP SWAP1 DIV PUSH20 0xFFFFFFFFFFFFFFFFFFFFFFFFFFFFFFFFFFFFFFFF AND DUP2 JUMP JUMPDEST PUSH1 0x2 PUSH1 0x0 SWAP1 SLOAD SWAP1 PUSH2 0x100 EXP SWAP1 DIV PUSH20 0xFFFFFFFFFFFFFFFFFFFFFFFFFFFFFFFFFFFFFFFF AND DUP2 JUMP JUMPDEST PUSH1 0x0 DUP2 GT PUSH2 0x277 JUMPI PUSH1 0x0 DUP1 REVERT JUMPDEST POP JUMP JUMPDEST PUSH1 0x1 SLOAD DUP2 JUMP JUMPDEST PUSH1 0x0 DUP2 CALLDATALOAD SWAP1 POP PUSH2 0x28F DUP2 PUSH2 0x45D JUMP JUMPDEST SWAP3 SWAP2 POP POP JUMP JUMPDEST PUSH1 0x0 PUSH1 0x20 DUP3 DUP5 SUB SLT ISZERO PUSH2 0x2A7 JUMPI PUSH1 0x0 DUP1 REVERT JUMPDEST PUSH1 0x0 PUSH2 0x2B5 DUP5 DUP3 DUP6 ADD PUSH2 0x280 JUMP JUMPDEST SWAP2 POP POP SWAP3 SWAP2 POP POP JUMP JUMPDEST PUSH2 0x2C7 DUP2 PUSH2 0x3A9 JUMP JUMPDEST DUP3 MSTORE POP POP JUMP JUMPDEST PUSH1 0x0 PUSH2 0x2DA PUSH1 0x19 DUP4 PUSH2 0x398 JUMP JUMPDEST SWAP2 POP PUSH2 0x2E5 DUP3 PUSH2 0x3E5 JUMP JUMPDEST PUSH1 0x20 DUP3 ADD SWAP1 POP SWAP2 SWAP1 POP JUMP JUMPDEST PUSH1 0x0 PUSH2 0x2FD PUSH1 0x2E DUP4 PUSH2 0x398 JUMP JUMPDEST SWAP2 POP PUSH2 0x308 DUP3 PUSH2 0x40E JUMP JUMPDEST PUSH1 0x40 DUP3 ADD SWAP1 POP SWAP2 SWAP1 POP JUMP JUMPDEST PUSH2 0x31C DUP2 PUSH2 0x3DB JUMP JUMPDEST DUP3 MSTORE POP POP JUMP JUMPDEST PUSH1 0x0 PUSH1 0x20 DUP3 ADD SWAP1 POP PUSH2 0x337 PUSH1 0x0 DUP4 ADD DUP5 PUSH2 0x2BE JUMP JUMPDEST SWAP3 SWAP2 POP POP JUMP JUMPDEST PUSH1 0x0 PUSH1 0x20 DUP3 ADD SWAP1 POP DUP2 DUP2 SUB PUSH1 0x0 DUP4 ADD MSTORE PUSH2 0x356 DUP2 PUSH2 0x2CD JUMP JUMPDEST SWAP1 POP SWAP2 SWAP1 POP JUMP JUMPDEST PUSH1 0x0 PUSH1 0x20 DUP3 ADD SWAP1 POP DUP2 DUP2 SUB PUSH1 0x0 DUP4 ADD MSTORE PUSH2 0x376 DUP2 PUSH2 0x2F0 JUMP JUMPDEST SWAP1 POP SWAP2 SWAP1 POP JUMP JUMPDEST PUSH1 0x0 PUSH1 0x20 DUP3 ADD SWAP1 POP PUSH2 0x392 PUSH1 0x0 DUP4 ADD DUP5 PUSH2 0x313 JUMP JUMPDEST SWAP3 SWAP2 POP POP JUMP JUMPDEST PUSH1 0x0 DUP3 DUP3 MSTORE PUSH1 0x20 DUP3 ADD SWAP1 POP SWAP3 SWAP2 POP POP JUMP JUMPDEST PUSH1 0x0 PUSH2 0x3B4 DUP3 PUSH2 0x3BB JUMP JUMPDEST SWAP1 POP SWAP2 SWAP1 POP JUMP JUMPDEST PUSH1 0x0 PUSH20 0xFFFFFFFFFFFFFFFFFFFFFFFFFFFFFFFFFFFFFFFF DUP3 AND SWAP1 POP SWAP2 SWAP1 POP JUMP JUMPDEST PUSH1 0x0 DUP2 SWAP1 POP SWAP2 SWAP1 POP JUMP JUMPDEST PUSH32 0x4F776E65722063616E6E6F7420706C6163652061206269642E00000000000000 PUSH1 0x0 DUP3 ADD MSTORE POP JUMP JUMPDEST PUSH32 0x42696420616D6F756E742073686F756C64206265206772656174657220746861 PUSH1 0x0 DUP3 ADD MSTORE PUSH32 0x6E2068696768657374206269642E000000000000000000000000000000000000 PUSH1 0x20 DUP3 ADD MSTORE POP JUMP JUMPDEST PUSH2 0x466 DUP2 PUSH2 0x3DB JUMP JUMPDEST DUP2 EQ PUSH2 0x471 JUMPI PUSH1 0x0 DUP1 REVERT JUMPDEST POP JUMP INVALID LOG2 PUSH5 0x6970667358 0x22 SLT KECCAK256 EXTCODEHASH DUP6 DUP10 LOG3 CALL 0xC1 0x4C PUSH22 0x2F3EB8F3D911A0B9F3DF254CF486D261A9C25898C964 CALLDATASIZE SGT PUSH5 0x736F6C6343 STOP ADDMOD DIV STOP CALLER "
				},
				"gasEstimates": {
					"creation": {
						"codeDepositCost": "238800",
						"executionCost": "47028",
						"totalCost": "285828"
					},
					"external": {
						"bid()": "42669",
						"checkNonZero(uint256)": "473",
						"highestBid()": "1195",
						"highestBidder()": "1236",
						"owner()": "1211"
					}
				},
				"methodIdentifiers": {
					"bid()": "1998aeef",
					"checkNonZero(uint256)": "c5cafc2a",
					"highestBid()": "d57bde79",
					"highestBidder()": "91f90157",
					"owner()": "8da5cb5b"
				}
			},
			"storageLayout": {
				"storage": [
					{
						"astId": 3,
						"contract": "Unsigned Integer Types Optimizer/optimized_test23.sol:Auction",
						"label": "owner",
						"offset": 0,
						"slot": "0",
						"type": "t_address"
					},
					{
						"astId": 5,
						"contract": "Unsigned Integer Types Optimizer/optimized_test23.sol:Auction",
						"label": "highestBid",
						"offset": 0,
						"slot": "1",
						"type": "t_uint256"
					},
					{
						"astId": 7,
						"contract": "Unsigned Integer Types Optimizer/optimized_test23.sol:Auction",
						"label": "highestBidder",
						"offset": 0,
						"slot": "2",
						"type": "t_address"
					}
				],
				"types": {
					"t_address": {
						"encoding": "inplace",
						"label": "address",
						"numberOfBytes": "20"
					},
					"t_uint256": {
						"encoding": "inplace",
						"label": "uint256",
						"numberOfBytes": "32"
					}
				}
			},
			"userdoc": {
				"kind": "user",
				"methods": {},
				"version": 1
			}
		}
	}
}