{
	"data": {
		"bytecode": {
			"linkReferences": {},
			"object": "608060405234801561001057600080fd5b506102f0806100206000396000f3fe608060405234801561001057600080fd5b50600436106100365760003560e01c80632835b8481461003b578063d39fa23314610059575b600080fd5b610043610089565b6040516100509190610172565b60405180910390f35b610073600480360381019061006e9190610136565b6100fd565b6040516100809190610172565b60405180910390f35b6000806000905060005b6000805490508110156100f55760006002600083815481106100b8576100b761026f565b5b90600052602060002001546100cd91906101e0565b14156100e25781806100de90610197565b9250505b80806100ed90610197565b915050610093565b508091505090565b6000818154811061010d57600080fd5b906000526020600020016000915090505481565b600081359050610130816102a3565b92915050565b60006020828403121561014c5761014b61029e565b5b600061015a84828501610121565b91505092915050565b61016c8161018d565b82525050565b60006020820190506101876000830184610163565b92915050565b6000819050919050565b60006101a28261018d565b91507fffffffffffffffffffffffffffffffffffffffffffffffffffffffffffffffff8214156101d5576101d4610211565b5b600182019050919050565b60006101eb8261018d565b91506101f68361018d565b92508261020657610205610240565b5b828206905092915050565b7f4e487b7100000000000000000000000000000000000000000000000000000000600052601160045260246000fd5b7f4e487b7100000000000000000000000000000000000000000000000000000000600052601260045260246000fd5b7f4e487b7100000000000000000000000000000000000000000000000000000000600052603260045260246000fd5b600080fd5b6102ac8161018d565b81146102b757600080fd5b5056fea2646970667358221220a2edfcd8bc80c563e12bfe99492a7f9e7658ead9755393e755a8a23ea7eaa98264736f6c63430008070033",
			"opcodes": "PUSH1 0x80 PUSH1 0x40 MSTORE CALLVALUE DUP1 ISZERO PUSH2 0x10 JUMPI PUSH1 0x0 DUP1 REVERT JUMPDEST POP PUSH2 0x2F0 DUP1 PUSH2 0x20 PUSH1 0x0 CODECOPY PUSH1 0x0 RETURN INVALID PUSH1 0x80 PUSH1 0x40 MSTORE CALLVALUE DUP1 ISZERO PUSH2 0x10 JUMPI PUSH1 0x0 DUP1 REVERT JUMPDEST POP PUSH1 0x4 CALLDATASIZE LT PUSH2 0x36 JUMPI PUSH1 0x0 CALLDATALOAD PUSH1 0xE0 SHR DUP1 PUSH4 0x2835B848 EQ PUSH2 0x3B JUMPI DUP1 PUSH4 0xD39FA233 EQ PUSH2 0x59 JUMPI JUMPDEST PUSH1 0x0 DUP1 REVERT JUMPDEST PUSH2 0x43 PUSH2 0x89 JUMP JUMPDEST PUSH1 0x40 MLOAD PUSH2 0x50 SWAP2 SWAP1 PUSH2 0x172 JUMP JUMPDEST PUSH1 0x40 MLOAD DUP1 SWAP2 SUB SWAP1 RETURN JUMPDEST PUSH2 0x73 PUSH1 0x4 DUP1 CALLDATASIZE SUB DUP2 ADD SWAP1 PUSH2 0x6E SWAP2 SWAP1 PUSH2 0x136 JUMP JUMPDEST PUSH2 0xFD JUMP JUMPDEST PUSH1 0x40 MLOAD PUSH2 0x80 SWAP2 SWAP1 PUSH2 0x172 JUMP JUMPDEST PUSH1 0x40 MLOAD DUP1 SWAP2 SUB SWAP1 RETURN JUMPDEST PUSH1 0x0 DUP1 PUSH1 0x0 SWAP1 POP PUSH1 0x0 JUMPDEST PUSH1 0x0 DUP1 SLOAD SWAP1 POP DUP2 LT ISZERO PUSH2 0xF5 JUMPI PUSH1 0x0 PUSH1 0x2 PUSH1 0x0 DUP4 DUP2 SLOAD DUP2 LT PUSH2 0xB8 JUMPI PUSH2 0xB7 PUSH2 0x26F JUMP JUMPDEST JUMPDEST SWAP1 PUSH1 0x0 MSTORE PUSH1 0x20 PUSH1 0x0 KECCAK256 ADD SLOAD PUSH2 0xCD SWAP2 SWAP1 PUSH2 0x1E0 JUMP JUMPDEST EQ ISZERO PUSH2 0xE2 JUMPI DUP2 DUP1 PUSH2 0xDE SWAP1 PUSH2 0x197 JUMP JUMPDEST SWAP3 POP POP JUMPDEST DUP1 DUP1 PUSH2 0xED SWAP1 PUSH2 0x197 JUMP JUMPDEST SWAP2 POP POP PUSH2 0x93 JUMP JUMPDEST POP DUP1 SWAP2 POP POP SWAP1 JUMP JUMPDEST PUSH1 0x0 DUP2 DUP2 SLOAD DUP2 LT PUSH2 0x10D JUMPI PUSH1 0x0 DUP1 REVERT JUMPDEST SWAP1 PUSH1 0x0 MSTORE PUSH1 0x20 PUSH1 0x0 KECCAK256 ADD PUSH1 0x0 SWAP2 POP SWAP1 POP SLOAD DUP2 JUMP JUMPDEST PUSH1 0x0 DUP2 CALLDATALOAD SWAP1 POP PUSH2 0x130 DUP2 PUSH2 0x2A3 JUMP JUMPDEST SWAP3 SWAP2 POP POP JUMP JUMPDEST PUSH1 0x0 PUSH1 0x20 DUP3 DUP5 SUB SLT ISZERO PUSH2 0x14C JUMPI PUSH2 0x14B PUSH2 0x29E JUMP JUMPDEST JUMPDEST PUSH1 0x0 PUSH2 0x15A DUP5 DUP3 DUP6 ADD PUSH2 0x121 JUMP JUMPDEST SWAP2 POP POP SWAP3 SWAP2 POP POP JUMP JUMPDEST PUSH2 0x16C DUP2 PUSH2 0x18D JUMP JUMPDEST DUP3 MSTORE POP POP JUMP JUMPDEST PUSH1 0x0 PUSH1 0x20 DUP3 ADD SWAP1 POP PUSH2 0x187 PUSH1 0x0 DUP4 ADD DUP5 PUSH2 0x163 JUMP JUMPDEST SWAP3 SWAP2 POP POP JUMP JUMPDEST PUSH1 0x0 DUP2 SWAP1 POP SWAP2 SWAP1 POP JUMP JUMPDEST PUSH1 0x0 PUSH2 0x1A2 DUP3 PUSH2 0x18D JUMP JUMPDEST SWAP2 POP PUSH32 0xFFFFFFFFFFFFFFFFFFFFFFFFFFFFFFFFFFFFFFFFFFFFFFFFFFFFFFFFFFFFFFFF DUP3 EQ ISZERO PUSH2 0x1D5 JUMPI PUSH2 0x1D4 PUSH2 0x211 JUMP JUMPDEST JUMPDEST PUSH1 0x1 DUP3 ADD SWAP1 POP SWAP2 SWAP1 POP JUMP JUMPDEST PUSH1 0x0 PUSH2 0x1EB DUP3 PUSH2 0x18D JUMP JUMPDEST SWAP2 POP PUSH2 0x1F6 DUP4 PUSH2 0x18D JUMP JUMPDEST SWAP3 POP DUP3 PUSH2 0x206 JUMPI PUSH2 0x205 PUSH2 0x240 JUMP JUMPDEST JUMPDEST DUP3 DUP3 MOD SWAP1 POP SWAP3 SWAP2 POP POP JUMP JUMPDEST PUSH32 0x4E487B7100000000000000000000000000000000000000000000000000000000 PUSH1 0x0 MSTORE PUSH1 0x11 PUSH1 0x4 MSTORE PUSH1 0x24 PUSH1 0x0 REVERT JUMPDEST PUSH32 0x4E487B7100000000000000000000000000000000000000000000000000000000 PUSH1 0x0 MSTORE PUSH1 0x12 PUSH1 0x4 MSTORE PUSH1 0x24 PUSH1 0x0 REVERT JUMPDEST PUSH32 0x4E487B7100000000000000000000000000000000000000000000000000000000 PUSH1 0x0 MSTORE PUSH1 0x32 PUSH1 0x4 MSTORE PUSH1 0x24 PUSH1 0x0 REVERT JUMPDEST PUSH1 0x0 DUP1 REVERT JUMPDEST PUSH2 0x2AC DUP2 PUSH2 0x18D JUMP JUMPDEST DUP2 EQ PUSH2 0x2B7 JUMPI PUSH1 0x0 DUP1 REVERT JUMPDEST POP JUMP INVALID LOG2 PUSH5 0x6970667358 0x22 SLT KECCAK256 LOG2 0xED 0xFC 0xD8 0xBC DUP1 0xC5 PUSH4 0xE12BFE99 0x49 0x2A PUSH32 0x9E7658EAD9755393E755A8A23EA7EAA98264736F6C6343000807003300000000 "
		},
		"gasEstimates": {
			"creation": {
				"codeDepositCost": "150400",
				"executionCost": "196",
				"totalCost": "150596"
			},
			"external": {
				"countEven()": "infinite",
				"numbers(uint256)": "infinite"
			}
		},
		"methodIdentifiers": {
			"countEven()": "2835b848",
			"numbers(uint256)": "d39fa233"
		}
	},
	"abi": [
		{
			"inputs": [],
			"name": "countEven",
			"outputs": [
				{
					"internalType": "uint256",
					"name": "",
					"type": "uint256"
				}
			],
			"stateMutability": "view",
			"type": "function"
		},
		{
			"inputs": [
				{
					"internalType": "uint256",
					"name": "",
					"type": "uint256"
				}
			],
			"name": "numbers",
			"outputs": [
				{
					"internalType": "uint256",
					"name": "",
					"type": "uint256"
				}
			],
			"stateMutability": "view",
			"type": "function"
		}
	]
}